:100000000C948D000C94AA000C94170C0C94AA006C
:100010000C94AA000C94110C0C94AA000C94AA0045
:100020000C94AA000C94AA000C94AA000C94AA00A8
:100030000C94AA000C94AA000C94D80B0C94AA005F
:100040000C94AA000C94AA000C94AA000C94AA0088
:100050000C94AA000C94AA000C94AA000C94AA0078
:100060000C94AA000C94AA000C94AA000C94AA0068
:100070003230323031323037303131350001050421
:10008000141011150101010202020203030303040B
:1000900004050506060607080809090A0A0B0C0DDF
:1000A0000D0E0F10101112131415161717181A1B16
:1000B0001C1D1E1F20212224252627292A2B2D2EF8
:1000C0002F3132343537383A3B3D3E404243454785
:1000D000484A4C4E5051535557595B5D5F616365BB
:1000E00067696B6D6F717476787A7D7F818486889D
:1000F0008B8D909294979A9C9FA1A4A6A9ACAEB127
:10010000B4B7B9BCBFC2C5C8CBCDD0D3D6D9DCDF5C
:10011000E2E6E9ECEFF2F5F9FCFF11241FBECFEFA8
:10012000D4E0DEBFCDBF11E0A0E0B1E0E8E1FEE148
:1001300002C005900D92AC34B107D9F721E0ACE4D0
:10014000B1E001C01D92A83DB207E1F70E941D0C6D
:100150000C940A0F0C940000F89498ED9FBD83BF97
:1001600078940895482F362F272FE5EAF1E090E0A4
:1001700080E0508151110BC063E070E00E94AB0E33
:10018000FC01EB55FE4F40833183228305C001966D
:1001900033968031910569F70895EF92FF921F938E
:1001A000CF93DF931091A501111106C0DF91CF917C
:1001B0001F91FF90EF900895E090A601F090A701A5
:1001C000C0918501C1500C2E000CDD0BC7FD0EC087
:1001D000FE01EE0FFF1FEA57FE4F0190F081E02D68
:1001E000B701812F099521978111F0CFE5EAF1E060
:1001F000838180838481958192838183339681E09A
:10020000E23DF807A9F71092D2011092D4011092A2
:10021000D301C8CFBC018091D7010C94B2001092D9
:10022000D7011092D6011092D50181E0809365012B
:1002300008950F931F93CF93C82F08EA17E0C1507A
:1002400020F4CF911F910F91089582E00E94AC009D
:10025000C8010197F1F780E00E94AC00F0CF8FB1A8
:1002600082FB882780F991E0892780937E01089599
:10027000E0910601F09107013196FB70F460F09374
:100280000701E093060180917B018B5A80937B01EB
:10029000E49180917B018E0F0895CF93DF9300D07E
:1002A0000F92CDB7DEB720914701309148014091C0
:1002B000490129833A834B83FE01319650E040E0A7
:1002C000682F70E0A1E0B0E09B01042E02C03595DC
:1002D00027950A94E2F7922F937081919D0101C0B6
:1002E000220F8A95EAF7992329F09130C1F080B363
:1002F000822B19C080B32095822380BB82B38223D6
:1003000082BB81B3282321BB4E5F5F4F463051052E
:10031000D9F60F900F900F90DF91CF91089590B381
:10032000822F8095892380BB82B3822B82BB81B3CD
:10033000282BE9CFCF93DF9300D000D000D0CDB7EA
:10034000DEB72091620140919601509197014E5283
:10035000584009F422E06623F1F0823019F497E95D
:10036000961B692F96E0EEE1F1E0DE011196019017
:100370000D929A95E1F78150990B880F991FA1E092
:10038000B0E0AC0FBD1F8A0F9B1FDC01ED91FC910B
:10039000E20FF11D608326960FB6F894DEBF0FBE04
:1003A000CDBFDF91CF910895813019F4109264018F
:1003B0000895609363010895CF92DF92EF92FF92C8
:1003C0000F931F93CF93DF939C0150916201E091B3
:1003D0001A0182E0E11101C0852F90E0DC01AB5EE3
:1003E000BE4F4C91409319018E5E9E4FDC018C9163
:1003F00080931801F0E0E15FFE4FC181642F70E04F
:10040000552381F0C13071F4860F972F911D95957A
:100410008795DF91CF911F910F91FF90EF90DF9023
:10042000CF900895261737079CF1821713068CF397
:10043000511102C0822FEDCF841B6C2F6150770BBE
:100440008B01E82EF12CC7010E94DC0E6093610144
:100450006695E62FF0E0842FD12CC12CD0E0DC177C
:10046000C1F2C601B8010E94C80E842F860FA82FC2
:10047000B0E0B9016A1B7B0B77FF03C0BD01621BB3
:10048000730BCE0CDF1CE617F7071CF6DF5FE7CF18
:10049000842FBFCF81E00895611160931C010895FE
:1004A00060935C0108950F931F93CF93DF93809126
:1004B00062018093660180911501809367018091AC
:1004C00012018093680180911601809369018091E7
:1004D000130180936A018091100180936B018091D8
:1004E000640180936C018091630180936D01809120
:1004F0000B0180936E018091090180936F018091BF
:100500000A018093700180910801809371018091AC
:100510000C018093720180911A0180937301809184
:10052000170180937401809114018093750180916B
:1005300011018093760180911C0180937701809155
:100540000E018093780180910D0180937901809153
:100550005C0180937A01F89406E611E0C1E8D0E0EE
:10056000F80161918F01CE010E94F80E2196C639E3
:10057000D105B1F765EA80E890E00E94F80E789422
:10058000DF91CF911F910F9108951092A40180B136
:1005900021B140917B01829586958695837030E0EC
:1005A000220F331F220F331F820F932F911D840FB1
:1005B00080937B01809199018823F1F11092990138
:1005C00080917D01882319F01F981092A2018091DB
:1005D0001D0160919A0170919B01882341F0609107
:1005E0009E0170919F0170939B0160939A01605FDF
:1005F0007F4F86E0769567958A95E1F780E098E5EC
:100600000E94C80E80911C018350990B680F791FBE
:10061000769567956093980180915801882369F0D9
:1006200081508093580180911D01882329F0809189
:100630001D01815080931D0108956D31A0F770E078
:1006400060E084E00E94B2008AE0EBCF882321F0D2
:10065000813031F0819A05C08198919889980895E8
:100660008198919A899A0895CF93C82F80937C019D
:1006700080917D0181110DC00E944D0191E0C11159
:1006800001C090E081E0C13508F480E0890F0E944C
:100690002603C11108C010926D0010926C0082E018
:1006A000CF910C94AC00EFEFEC0FF0E0EC57FF4F64
:1006B000E491F0E0F0936D00E0936C00C83078F3C3
:1006C00081E0C03168F380E0EBCFCF93C0917C0133
:1006D00089E18C0F873908F080E00E94340382E0C2
:1006E0000E9419018C2FCF910C943403CF93C091A9
:1006F0007C0180E00E94340383E00E9419018C2F6A
:10070000CF910C9434030F931F93CF93E82F862F30
:10071000909198012FEF290F2C3148F480E00E942E
:100720004D0180E0CF911F910F910C942603CE2FA5
:10073000C295CF70EF7020917D01211103C0C330AD
:1007400008F0C2E0E73010F4F0E017C0E73099F5A8
:100750000091510110E00F5F1F4F0E94380165E0CA
:100760000E94BC0E9801290F311DC90166E070E09E
:100770000E94DC0E80935101FC01E358FF4FE4918D
:10078000C33071F48091500190E0019663E170E014
:100790000E94C80E809350018C5D9E4FDC01CC916D
:1007A000CC23E9F1C13011F0EE0FC2E08E2F0E9490
:1007B0004D018C2FB7CFE830A9F490917D016FE007
:1007C000911101C063E0862351F48091510190E0C2
:1007D000019666E070E00E94DC0E80935101E0918A
:1007E0005101B2CF20917D01222381F080E09D3123
:1007F00018F4E0E0C5CF8E5FE82FF0E0E95CFE4F33
:1008000020819217C0F73197E0819ECF869563E0F3
:100810000E94BC0EE92FF0E0EE0FFF1FAECFE0E02C
:10082000C5CFCF93282FCB01C0911A01C11117C09A
:10083000283049F41092600110925E0110925D011F
:100840008C2FCF910895213B61F4809160018150FC
:10085000833028F483E08093600180935F01C1E0DE
:10086000EFCF253BB1F46EE370E00E94C80E892BF8
:1008700039F7809160018A3F18F78B5F80936001A0
:1008800080935F0110925E0110925D010E946503EA
:10089000D7CF213021F780915D0190915E010196C3
:1008A00088382EE0920728F490935E0180935D01D2
:1008B000C7CF10925E0110925D0180916001882384
:1008C00009F4BECF815080936001BACFFF920F939D
:1008D0001F93CF93DF938C01D62FC72FF42E8091D7
:1008E000960190919701892B31F0E0919601F0915A
:1008F000970189E009951093970100939601012BC8
:1009000041F0E0919601F09197016D2F7C2F8F2D92
:10091000099581E080936501DF91CF911F910F913F
:10092000FF900895CF93DF93E0918501D0E0C0E080
:10093000EE2351F0E150E0938501F0E0EE0FFF1F50
:10094000EA57FE4FC081D181E091850190E080E0BF
:10095000EE2341F0E150FF0BEE0FFF1FEA57FE4F71
:10096000808191814AE070E060E00E946604CE01DF
:10097000DF91CF910895883041F41092590110927F
:10098000520180E00E9434030DC0813009F590913E
:100990005201911109C06032710520F0809352011B
:1009A0000E940F0180E00895913079F46B3B71054E
:1009B00020F082E080935201E4CF6115710591F33C
:1009C000862F880F84708E5EDDCF0E949204EACF5E
:1009D000813841F781E080935201809159018F5F06
:1009E000809359010E940F018BE4CCCF20918501A7
:1009F000283088F4E22FF0E0EE0FFF1FEA57FE4F99
:100A0000808391832F5F2093850148E00E946604D4
:100A10008091850108958FEF08950F931F93CF93D1
:100A2000DF93D82FC92F8B010E949204B8018D2F1C
:100A30009C2FDF91CF911F910F910C94F60484307D
:100A400021F580919601909197012AE081309207DB
:100A500039F469E170E088EA96E00E940D050EC065
:100A6000885A964069F490917C01923048F0892F21
:100A7000869596959695890F0E94340380E0089597
:100A800070E060E085E995E0E8CF81E00895282FE7
:100A9000CB01213C41F470E060E085E995E00E94E3
:100AA0000D0580E00895223C29F470E060E083E7C2
:100AB00095E0F5CF213B49F46EE370E00E94C80E4B
:100AC000892B79F70E946503ECCF213E51F46EE348
:100AD00070E00E94C80E6F5F60930C010E94530289
:100AE000E0CF81E00895CF93C0911A01C1111BC0DE
:100AF000813C49F470E060E085E995E00E940D05D5
:100B00008C2FCF910895823C29F470E060E087E457
:100B100095E0F4CF873B39F470E060E088E398E03B
:100B20000E94F604EDCFC1E0EBCF0F931F93CF935C
:100B30008B018830B1F480E00E94340360E0809142
:100B40000E010E94830310926001012B31F0C0E07E
:100B50008C2FCF911F910F91089581E080937D019B
:100B6000F6CF813051F46931710588F380937D01AE
:100B700080910E010E948303EACF8330F9F47093D1
:100B800056016093550180910E010E948303C0912C
:100B90001A01C111DCCF80915C018823C1F290E081
:100BA00062EC71E00E94AB0E8017910780F670E056
:100BB00060E082E498E00E940D05CACF813BA9F471
:100BC00081E090E00E94DC010E9434038091620188
:100BD000811104C00831110508F4B9CF61E070E05B
:100BE00088EA96E00E940D05B2CF813EB9F38138C4
:100BF000E1F4209164012223A9F08091630190E047
:100C000062EC71E00E94AB0E40915501509156018B
:100C10004817590738F0822F90E00E94DC010E94AB
:100C2000340395CF80911B01F7CF813C21F4609173
:100C30007C0170E0D5CF823B59F4C0911A01CC23DE
:100C400019F086E990E0E9CF86E90E94340380CF6D
:100C5000823E11F480E0E3CF66E970E0823C09F463
:100C6000BFCF8339B9F3843C29F470E060E083E7B7
:100C700095E0B8CF833C39F40E94650370E060E0F2
:100C800082E498E0AFCF8F3C29F470E060E08AE422
:100C900092E0A8CFC0911A018A3B99F4012B09F088
:100CA00055C0CC2339F00E94650310921A010E94AE
:100CB00053024DCF70E060E08EE298E00E94F604AF
:100CC00047CFC11143C08A3C41F40E94650381E0D3
:100CD00080931A010E9453023BCF833B29F470E0BA
:100CE00060E081E09AE067CF873CA9F490910E0123
:100CF000892F82958F708F5F83708295807F9F7020
:100D0000892B80930E0160E00E9483030E945302AE
:100D10000E9465031DCF873BB9F4C8018F739927E3
:100D2000892B61F420910E01822F8F708F5F207FBD
:100D30006BE00E94BC0E922B90930E01602F80916D
:100D40000E010E94830304CF873E21F2C1E000CF51
:100D5000CF92DF92EF92FF920F931F93CF93DF9387
:100D6000C82F8B01E0901901D0911801F090620119
:100D7000C0906101F11002C0CC24C394D0906001F6
:100D8000B8018C2F0E94110460916001662309F460
:100D90000BC1D11004C080917C01809354018C2F31
:100DA0008D7F883019F510925B01CA3019F40091DB
:100DB0001B0110E0E016110630F4D017110619F0EF
:100DC00010F000931B01C8010E94DC010E94340353
:100DD00081E080930501D0E08D2FDF91CF911F91AD
:100DE0000F91FF90EF90DF90CF900895C13C09F4F0
:100DF000DEC0C23CA9F480911B018D1728F09091B0
:100E00001A01911101C0D6E990917C019D1708F457
:100E10008D2F0E94340380917C0180935401DBCF9D
:100E2000C33C41F480E00E94340370E060E082E45F
:100E300098E0C1C08FE48C0F823008F049C0FF20D9
:100E400039F0C80168E170E00E94C80E892B19F6DC
:100E500080917C010115110539F5C23BF9F48FEF42
:100E60008093050110917C01809105016C2D70E04B
:100E7000082E000C990B0E94AB0E810F911D0E9451
:100E8000DC01C82F80931B01181731F0863911F04F
:100E90008D1302C00E9476038C2FBBCF8D17F8F6FE
:100EA000E81600F381E0DCCF073391E0190710F07A
:100EB0008D17A8F60D361240A8F2E81698F20E9497
:100EC000650370E060E082E498E00E940D05CACFFF
:100ED0008FE18C0F823020F480910501819579CFCC
:100EE000C130D9F40E33110511F4C0930501662306
:100EF00009F471CF809154016150770B90E00E940A
:100F0000AB0E60915F0170E00E94DC0E862F6111D4
:100F100001C081E00E9434035ECFD0911A01D1114B
:100F200041C0C43CB9F481E0F11080E080936201DB
:100F30000E9453020E94760380917C0190E00E94FF
:100F4000DC0180931B010E94340380917C0180931B
:100F5000540142CFC33B39F486E9012B09F03BCF62
:100F60000E94340339CFC33E19F480911B01F8CF9E
:100F700070E060E087E298E0C73B89F0CA3C49F442
:100F800080917C01809364010E9453020E9465035A
:100F900023CFCA3B39F470E060E083E398E00E941D
:100FA000F6041ACFD1E018CFDD2009F4F8CE70E0B6
:100FB00060E085E995E00E940D050DCF582FCB012B
:100FC000F901583099F41092530180E00E943403E3
:100FD00080917E0181111EC081E08093530170E0F9
:100FE00060E08BEB94E00E94F60414C0252F207F74
:100FF000203BC1F420915301421790F06DE570E061
:101000000E94C80E029741F42F5F2093530188E39A
:10101000421718F480E0089582E10E943403FACF69
:1010200080E0FBCF203E49F480915301882311F0EA
:101030004817A8F60E949204EDCF5A3059F76091F4
:1010400059018091530109950E945302F3CF4091B9
:1010500062014E5F2AE931E00C94DE072AE931E0B3
:1010600043E00C94DE0724ED31E042E00C94DE070F
:101070002CE432E041E00C94DE0720E532E041E070
:101080000C94DE070F931F93CF93DF93C82F8B0130
:10109000873B89F480E00E943403D0911A01D1117A
:1010A00099C0CA3B09F061C070E060E08DE398E050
:1010B0000E94F60428C08079803959F520911501E5
:1010C000909116018C2F8F70823049F480916401C9
:1010D000811108C0822F291728F4892F03C0822F7D
:1010E0009217D8F30E943403C23C61F5D091640199
:1010F0006D2F70E0D1112EC060911B0170E088EA65
:1011000096E00E940D058D2FDF91CF911F910F91D9
:101110000895803811F480E0E5CFC83009F05CC054
:1011200060E080910D010E948303B7CF0931110562
:1011300038F0C0937D01602F80910D010E948303E0
:10114000D0E0E1CFC23B59F40E9465031092D70171
:1011500061E070E088EA96E00E940D05F1CFC33CA3
:1011600009F09BCF66E970E0F5CFC73CA9F49091F8
:101170000D01892F82958F708F5F83708295807F9C
:101180009F70892B80930D0160E00E9483030E9471
:1011900053020E946503B7CFC73BB9F4C8018F73F0
:1011A0009927892B61F420910D01822F8F708F5F19
:1011B000207F6BE00E94BC0E922B90930D01602F5C
:1011C00080910D010E9483039ECFC73E19F40E94B7
:1011D000530299CFD1E097CFC13009F4A7CFC330E4
:1011E00009F4A9CF81CF8DE084B91092A2011092A9
:1011F000A30183B1886483B9139A87EE83B90895F4
:101200000F931F93CF93109280018091D5019091FD
:10121000D6019C012F5F3F4F88279078822B932B1C
:101220009093D6018093D501C0917E010E942F0139
:10123000C817B9F010927D0180937E019091D7017B
:10124000882371F1892F80699F709F3039F58093D1
:10125000D70190E080E00E940A011092D60110921E
:10126000D5010091D5011091D60180917D0188238F
:1012700029F1B80183E00E94B2000E94CD000F73F3
:101280001127012B99F5109257010E94F30883B1A1
:10129000886483B981E08093990122C08F5FD7CFA2
:1012A000892F8F7E95FD08C080688093D70180913B
:1012B000D5019091D601CFCF806CF7CFC091D701E7
:1012C0008C2F807F803BB1F470E060E081E00E9471
:1012D000B200C8010E940A01809157018823B9F227
:1012E000809157018F5F8F7180935701CF911F912C
:1012F0000F910895B80181E00E94B200C4FF0FC0B1
:10130000C5FDE7CF0831110538F31092D6011092D0
:10131000D501C062C093D70190E080E0DBCFCC2341
:10132000D9F2C5FF03C00E940F01D6CF02311105CB
:1013300098F2C064C093D70190E080E00E940A0157
:10134000F2CF8091A40181110E94C5028091800199
:1013500081110C9400090895EF92FF920F931F934F
:10136000CF93DF93EC0108E017E082ECE82EFF2436
:10137000F394209741F481E0DF91CF911F910F9179
:10138000FF90EF90089580916501811118C08091C0
:101390007C01883078F482E00E94AC00C70101979C
:1013A000F1F780E00E94AC000E94A1090E94CD00EC
:1013B0002197DFCF80E00E94AC00C801F0CF80E031
:1013C000DBCF0F931F93CF93C82F06EA811102C082
:1013D00008E0C1E010E089E10E943403C8010E94E6
:1013E000AC0980E00E9434038AEF90E00E94AC09CF
:1013F000C15089F78AE992E0CF911F910F910C9427
:10140000AC09DF92EF92FF920F931F93CF93DF937C
:10141000D82F8B01C0910B0181E080935B01C33019
:1014200089F4F09060018D2F0E941104FF20B1F02B
:1014300080916001811112C070E060E085E995E063
:101440000E940D05D83079F0D13C09F00DC170E053
:1014500060E085E995E00E940D0508C0D83041F4B0
:1014600081E08093030181E08093040180E04BC11F
:10147000D23C71F4109260018C2F90E0019665E0EF
:1014800070E00E94DC0E80930B010E945302EECFAD
:10149000D13BC1F480910201012B41F49FEF8B34C9
:1014A00018F4823018F491E09093030190910301B5
:1014B000890F21F481E080930201D8CF8C34D8F3D6
:1014C0008BE4F9CFD13E59F480910301819580934B
:1014D000030180910401819580930401D6CFD23B12
:1014E000E1F481E08093030180910201823018F0E1
:1014F00081508093020181E080930401C23008F0A2
:10150000F5C000FDB3CFEC2FF0E0E75FFE4F808128
:101510008F3F09F4ABCF8F5FBEC0D13009F0FBC065
:101520000E33110511F4D0930301D0904F018D2D8E
:10153000880FD7FC809590E062E170E00E94AB0ECE
:10154000292FE0904E018E2D880FE7FC8095D091D9
:1015500001016D2F70E090E00E94AB0E290FF0901A
:101560004D018F2D880FF7FC8095C09100016C2FE5
:1015700070E090E00E94AB0E622F690F8091020133
:10158000680F7727771F809160018130A1F48091E7
:101590005D0190915E0125E0969587952A95E1F78A
:1015A00024E730E0A901481B590BCA010E94AB0E89
:1015B000B9010E94C80E862F0E94340300FD06C0A8
:1015C0000E94380181708D0D80934F0180914C01F4
:1015D0008E0D80934E010E94380165E20E94BC0E80
:1015E0009F0D90934D010E9438018F7339F40E9432
:1015F00038016DE00E94BC0E90934C01DD2339F060
:101600000E9438018F7319F4D150D09301010E94C8
:101610003801811109C00E9438016BE10E94BC0EA3
:101620009093010110924E01C33038F00E943801AE
:101630008F7119F4C150C09300010E9438018F7757
:1016400039F40E9438016FE00E94BC0E90930001B3
:101650000E33110519F481E08093040180917B0120
:10166000080F00937B0102CFD23C09F405CFD13B98
:1016700051F5C23090F400FDF9CEEC2FF0E0E75FB9
:10168000FE4F808190910401891B8F3F08F08EEFFF
:10169000883008F488E08083E9CEC43009F0E6CED3
:1016A0008091080190910401890F823040F482E01A
:1016B00080930801809108010E943403D7CE8937B6
:1016C000B8F388E7F5CFD13E09F403CFD23B09F454
:1016D00012CFD23E09F4D9CED53C89F470E060E057
:1016E0008EE89BE00E940D0580E0E6CFC43009F053
:1016F000BDCE809108018330E8F28150D9CF81E0DE
:10170000D13009F4A5CFDF91CF911F910F91FF90B8
:10171000EF90DF900895D13CE1F699CE0F931F939F
:10172000CF93DF93D82F8B01883039F480915B0100
:10173000813019F488E00E94010A8D2F8079803968
:1017400099F481E080935A01C0915B01CC2311F0A0
:10175000C0E004C080911B010E9434038C2FDF91F4
:10176000CF911F910F910895803831F410925A0152
:1017700080E00E943403ECCFC1E0D13079F7C09112
:101780005A01CC2359F080915B01813009F7B801EF
:10179000DF91CF911F910F910C94010A07331140F3
:1017A000B8F2D0937D0160E080E00E948303D6CF41
:1017B0002F932FB72F933F938F939F93AF93BF9305
:1017C000EF93FF938091A3018823E9F0E091A201B8
:1017D00020B131B1F0E0EE0FFF1FDF01A256BE4F86
:1017E0002D933C93E656FE4F80819181821793079B
:1017F00008F401962817390708F40197918380832C
:1018000081E08093A40181E08093A301FF91EF9197
:10181000BF91AF919F918F913F912F912FBF2F91AA
:1018200018958F9381E0809380018F9118958F9305
:1018300081E080937F018F911895F89485B7877F19
:1018400085BF90E088ED0FB6F894A8958FBD90B74E
:10185000977F90BF0FBE88E08CB98AE780BB81EA92
:101860008093720081E08093710084E082BB87BD29
:101870008CB788608CBFA89580E480BF0E94F30875
:10188000789481E00E94190170E060E08FE195E0BA
:101890000E94F604109265010E9465030E942F01C8
:1018A00081116CC0F89480E890E00E94F00E853AB7
:1018B00009F093C006E611E0C1E8D0E0CE010E9435
:1018C000F00EF80181938F012196C639D105B1F749
:1018D0007894809166018093620180916701809382
:1018E00015018091680180931201809169018093B4
:1018F000160180916A018093130180916B0180939E
:10190000100180916C018093640180916D0180933E
:10191000630180916E0180930B0180916F01809330
:1019200009018091700180930A0180917101809377
:1019300008018091720180930C0180917301809362
:101940001A01809174018093170180917501809331
:101950001401809176018093110180917701809329
:101960001C018091780180930E0180917901809310
:101970000D0180917A0180935C0130C0C0E08C2F12
:101980000E94340383E190E00E94AC098C2F86957D
:101990000E94340383E190E00E94AC090E942F0171
:1019A0008823C1F0CF5FC03451F70E945302C6E9CB
:1019B0008C2F0E94340384E090E00E94AC09C15057
:1019C000B9F770CF8C2F0E9434038DE090E00E9415
:1019D000AC09C150C111F6CF65CF789480916401F4
:1019E000811180931B0161E070E085E995E00E9420
:1019F000F60440E4242E33243394CC24C394D12C15
:101A00006CEF462E63E0562E75E9872E75E0972E13
:101A1000ECE76E2EE0E07E2E0E94CD0080918301E7
:101A200090918401009751F0609181017091820141
:101A30000E940D05109284011092830180917D0116
:101A4000882321F180E00E943403A895F3E4F0BFDD
:101A50001F980E942F018111FCCF0E940F018CB7AB
:101A600088608CBF1092A4011092800110927F01B7
:101A700080917D0181112FC022E020931D018CB740
:101A8000877F8CBF0E94F308A89520BE0E94A10901
:101A900010926501809196019091970132E08A340D
:101AA000930709F03AC0C0E7D0E0FE01849180536B
:101AB0000E94E1098CE291E00E94AC0921966C162B
:101AC0007D0699F7909284018092830110928201A1
:101AD00010928101A1CF86B78F79806486BF86B7C7
:101AE000806186BF889586B78F7E86BF80917F0193
:101AF000811110927D018091A401882331F03092F0
:101B00001D01309299010E94C502809180018823B5
:101B100009F4AECF0E940009ABCFFAE081309F07F5
:101B200079F02BE08E38920709F0C4C080915B01F8
:101B3000813009F002C180915A01882309F4FDC067
:101B4000C0910B01C23009F443C010F1C43009F058
:101B500063CFD0910801DD0FD73908F0D6E98D2F7A
:101B60000E94340385E090E00E94AC098091080156
:101B70000E94340381E490E00E94AC09C15079F7DF
:101B800080ED92E00E94AC0980E00E94340344CFD3
:101B9000EC2FF0E0E75FFE4FD08186E90E9434032E
:101BA000C11112C0DA3258F4C2010197F1F780E096
:101BB0000E9434038D2F90E00E94AC092DCF81E06C
:101BC00090E00E94AC09F3CF8D2F869590E0F9CF7D
:101BD0000E9438018F73082F10E00E94380167E0DF
:101BE0000E94BC0EE60102C0CC0FDD1F9A95E2F701
:101BF0000E94380165E00E94BC0EF60102C0EE0FA3
:101C0000FF1F9A95E2F7CE0FDF1F0E94380190E088
:101C1000BE010E94DC0EC80FD91FC739D10514F0D0
:101C2000C6E9D0E08C2F0E943403C8010E94AC09A1
:101C30007E0133E0F594E7943A95E1F7E11002C0B4
:101C4000EE24E394F12CC8010E94AC095E01AE18A9
:101C5000BF08E501B7FE02C0D0E0C0E08C2F0E94B3
:101C600034030E943801837041F4C8010E94AC091A
:101C7000CE01959587950E943403F2E0AF16B1042A
:101C800014F70E9438016DE00E94BC0E860102C06C
:101C9000000F111F9A95E2F70E943801E801219781
:101CA00090E0C823D923C00FD11F80E00E943403E5
:101CB000CE0182CF25E08337920719F52091980154
:101CC000822F64E60E94BC0E382FC92F892F6AE04C
:101CD0000E94BC0ED92F243608F43AC0832F0E94EC
:101CE000E1098C2F6AE00E94BC0E0E94E1098D2F51
:101CF0000E94E10980911A018111E4CE88EE93E0FF
:101D00005BCF87549540C9F480917E01811184CEC8
:101D100080911B010E94340384E690E00E94AC098C
:101D200080E00E94340380910C0190E068EE73E043
:101D30000E94AB0E845691093FCF86B78F7986BF3C
:101D400086B7806186BF889586B78F7E86BF64CE52
:101D5000CA3038F6CCCF0024552704C0080E591FCE
:101D6000880F991F009729F076956795B8F371054C
:101D7000B9F7802D952F0895991B79E004C0991F1C
:101D8000961708F0961B881F7A95C9F780950895D5
:101D9000AA1BBB1B51E107C0AA1FBB1FA617B70791
:101DA00010F0A61BB70B881F991F5A95A9F78095AD
:101DB0009095BC01CD01089597FB072E16F4009471
:101DC00007D077FD09D00E94C80E07FC05D03EF46D
:101DD000909581959F4F0895709561957F4F0895D7
:101DE000E199FECF1FBA8EBBE09A99278DB3089573
:101DF000262FE199FECF1FBA8EBBE09A81500DB21B
:101E0000021639F01CBA2DBB0FB6F894E29AE19A8B
:081E10000FBE0895F894FFCF06
:101E18000F1B18010101000496294303023719001A
:101E28000505969696010A0A9601015007021501C2
:101E380012010F0102010000000000000001000073
:101E480000000000000001000021012302250327F3
:0C1E58000429052C06FF06050403000009
:00000001FF
