:100000000C946E010C948B010C948B010C94EF0EEC
:100010000C948B010C94E90E0C948B010C948B01C5
:100020000C948B010C948B010C948B010C948B0120
:100030000C948B010C948B010C94B00E0C948B01DE
:100040000C948B010C948B010C948B010C948B0100
:100050000C948B010C948B010C948B010C948B01F0
:100060000C948B010C948B010C948B010C948B01E0
:100070003230323031323038303231330001050421
:100080001410111500000000000000000000000026
:100090000000000000000000000000000000000060
:1000A0000000000000000000000000000000000050
:1000B0000000000000000000000000000000000040
:1000C0000000000000000000000000000000000030
:1000D0000000000000000000000000000000000020
:1000E0000000000000000000000000000000000010
:1000F0000000000000000000000000000000000000
:1001000000000000000000000000000000000000EF
:1001100000000000000000000000000000000000DF
:1001200000000000000000000000000000000000CF
:1001300000000000000000000000000000000000BF
:1001400000000000000000000000000000000000AF
:10015000000000000000000000000000000000009F
:10016000000000000000000000000000000000008F
:1001700000000000110027003C00520068007E00D3
:100180009500AC00C300DB00F3000C0125013E012B
:10019000570171018C01A601C101DC01F8011302B4
:1001A00030024C0269028602A402C202E10200038C
:1001B0000000000001000100020002000300030033
:1001C00004000400050006000700080009000A00FA
:1001D0000B000D000E000F0011001300140016009C
:1001E00018001A001C001E00210023002600280011
:1001F0002B002E003100340037003B003E0042004F
:1002000046004A004E00520056005B006000640049
:1002100069006F00740079007F0085008B009100F9
:1002200097009E00A500AC00B300BA00C100C90051
:10023000D100D900E100EA00F300FB0005010E0146
:10024000180121012B01360140014B0156016101CA
:100250006C017801840190019C01A901B601C301E0
:10026000D001DE01EC01FA01090218022702360270
:10027000460255026602760287029802A902BB0274
:10028000CD02DF02F202040318032B033F035303E2
:1002900067037C039103A703BC03D203E903FF03B5
:1002A000FF03FF03FF03FF03FF03FF03FF03FF033E
:1002B000FF03FF03FF03FF03FF03FF03FF03FF032E
:1002C000FF03FF03FF03FF03FF03FF03FF03FF031E
:1002D000FF03FF03FF03FF03FF03FF0311241FBE00
:1002E000CFEFD4E0DEBFCDBF11E0A0E0B1E0E4E9A4
:1002F000F3E202C005900D92AC34B107D9F721E0CA
:10030000ACE4B1E001C01D92A13FB207E1F70E9449
:10031000F50E0C94C8110C940000F89498ED9FBD54
:1003200083BF78940895482F362F272FEEEBF1E006
:1003300090E080E0508151110BC063E070E00E94BA
:100340006911FC01E254FE4F40833183228305C0D2
:10035000019633968031910569F70895EF92FF92E7
:100360001F93CF93DF931091BE01111106C0DF914F
:10037000CF911F91FF90EF900895E090BF01F09012
:10038000C001C0919B01C1500C2E000CDD0BC7FDBC
:100390000EC0FE01EE0FFF1FE456FE4F0190F081EC
:1003A000E02DB701812F099521978111F0CFEEEB58
:1003B000F1E0838180838481958192838183339668
:1003C00081E0EB3EF807A9F71092EB011092ED01E6
:1003D0001092EC01C8CFBC018091F0010C94930104
:1003E0001092F0011092EF011092EE0181E08093E3
:1003F000780108950F931F93CF93C82F08EA17E051
:10040000C15020F4CF911F910F91089582E00E9476
:100410008D01C8010197F1F780E00E948D01F0CFB6
:100420008BB182FB882780F991E089278093940122
:100430000895E0910601F09107013196FB70F46098
:10044000F0930701E0930601809190018B5A80930D
:100450009001E491809190018E0F08958091920116
:10046000823018F482E00C948D018A3010F481E01F
:10047000FACF80E0F8CFCF93DF9300D00F92CDB7C3
:10048000DEB7209148013091490140914A0129830A
:100490003A834B83FE01319650E040E0682F70E0D4
:1004A000A1E0B0E09B01042E02C0359527950A9487
:1004B000E2F7922F937081919D0101C0220F8A95DE
:1004C000EAF7992329F09130C1F080B3822B19C04B
:1004D00080B32095822380BB82B3822382BB81B309
:1004E000282321BB4E5F5F4F46305105D9F60F9050
:1004F0000F900F90DF91CF91089590B3822F809548
:10050000892380BB82B3822B82BB81B3282BE9CFA6
:10051000CF93DF9300D000D000D0CDB7DEB72091CD
:1005200074014091AC015091AD01435F594009F411
:1005300022E06623F1F0823019F497E9961B692FC7
:1005400096E0EFE1F1E0DE01119601900D929A95AF
:10055000E1F78150990B880F991FA1E0B0E0AC0F33
:10056000BD1F8A0F9B1FDC01ED91FC91E20FF11D75
:10057000608326960FB6F894DEBF0FBECDBFDF9125
:10058000CF910895813019F4109276010895609307
:1005900075010895CF92DF92EF92FF920F931F9310
:1005A000CF93DF939C0150917401E0911A0182E096
:1005B000E11101C0852F90E0DC01AB5EBE4F4C9194
:1005C000409319018E5E9E4FDC018C91809318013F
:1005D000F0E0E15FFE4FC181642F70E0552381F0B0
:1005E000C13071F4860F972F911D95958795DF91F6
:1005F000CF911F910F91FF90EF90DF90CF900895D2
:10060000261737079CF1821713068CF3511102C08D
:10061000822FEDCF841B6C2F6150770B8B01E82E5E
:10062000F12CC7010E949A11609373016695E62F21
:10063000F0E0842FD12CC12CD0E0DC17C1F2C60130
:10064000B8010E948611842F860FA82FB0E0B9014F
:100650006A1B7B0B77FF03C0BD01621B730BCE0CC3
:10066000DF1CE617F7071CF6DF5FE7CF842FBFCF4D
:1006700081E00895611160931D010895662369F07A
:10068000813099F48091AE019091AF01891B680F80
:100690006093AE0182E080931E0180911C0187343B
:1006A00018F086E480931C010895635E60931C013A
:1006B000F4CF60936E0108950F931F93CF93DF9350
:1006C00080917401809379018091150180937A0162
:1006D0008091120180937B018091160180937C01AF
:1006E0008091130180937D018091100180937E01A0
:1006F0008091760180937F018091750180938001C4
:1007000080910B0180938101809109018093820186
:1007100080910A0180938301809108018093840174
:1007200080910C018093850180911A01809386014C
:100730008091170180938701809114018093880133
:10074000809111018093890180911C0180938A011D
:100750008091AE0180938B0180911D0180938C016B
:1007600080910E0180938D0180910D0180938E0107
:1007700080916E0180938F0182E00E94FA01F894CB
:1007800009E711E0C1E8D0E0F80161918F01CE01E5
:100790000E94B6112196C839D105B1F765EA80E803
:1007A00090E00E94B6117894DF91CF911F910F9144
:1007B0000895882321F0813031F0829A05C0829813
:1007C00092988A9808958298929A8A9A0895CF93D7
:1007D000C82F8093920180939101809193018111A0
:1007E0000DC00E943B0291E0C11101C090E081E088
:1007F000CF3208F480E0890F0E94D903C1110CC0E8
:1008000010926D0010926C0010926B0010926A00B2
:100810006898CF910C942E02689AC1508C2F90E06A
:10082000880F991FFC01E055FE4F259134913093BC
:100830006D0020936C00FC01EC57FF4F8591949163
:1008400090936B0080936A00E4CF809377010C94BF
:10085000E703CF93C091920189E18C0F873908F0AB
:1008600080E00E94E70382E00E94FA018C2FCF9182
:100870000C94E7030F931F93CF93E82F862F90914B
:10088000B1012FEF290F2C3148F480E00E943B0288
:1008900080E0CF911F910F910C94D903CE2FC29578
:1008A000CF70EF7020919301211103C0C33008F085
:1008B000C2E0E73010F4F0E017C0E73099F500919E
:1008C000510110E00F5F1F4F0E94190265E00E9466
:1008D0007A119801290F311DC90166E070E00E946C
:1008E0009A1180935101FC01E358FF4FE491C3300A
:1008F00071F48091500190E0019663E170E00E94F4
:100900008611809350018B5D9E4FDC01CC91CC23EE
:10091000E9F1C13011F0EE0FC2E08E2F0E943B02D0
:100920008C2FB7CFE830A9F4909193016FE091112B
:1009300001C063E0862351F48091510190E001965B
:1009400066E070E00E949A1180935101E09151019C
:10095000B2CF20919301222381F080E09D3118F4E1
:10096000E0E0C5CF8E5FE82FF0E0E85CFE4F20812D
:100970009217C0F73197E0819ECF869563E00E9481
:100980007A11E92FF0E0EE0FFF1FAECFE0E0C5CF08
:10099000CF93282FCB01C0911A01C11117C0283065
:1009A00049F4109272011092700110926F018C2F15
:1009B000CF910895213B61F4809172018150833081
:1009C00028F483E08093720180937101C1E0EFCF3E
:1009D000253BB1F46EE370E00E948611892B39F754
:1009E000809172018A3F18F78B5F80937201809328
:1009F00071011092700110926F010E942904D7CFEB
:100A0000213021F780916F01909170010196883813
:100A10002EE0920728F49093700180936F01C7CF66
:100A20001092700110926F0180917201882309F475
:100A3000BECF815080937201BACFFF920F931F9364
:100A4000CF93DF938C01D62FC72FF42E8091AC016A
:100A50009091AD01892B31F0E091AC01F091AD01A5
:100A600089E009951093AD010093AC01012B41F091
:100A7000E091AC01F091AD016D2F7C2F8F2D099588
:100A800081E080937801DF91CF911F910F91FF90CA
:100A90000895CF93DF93E0919B01D0E0C0E0EE2377
:100AA00051F0E150E0939B01F0E0EE0FFF1FE456A0
:100AB000FE4FC081D181E0919B0190E080E0EE2368
:100AC00041F0E150FF0BEE0FFF1FE456FE4F808117
:100AD00091814AE070E060E00E941D05CE01DF9147
:100AE000CF910895883041F410926D011092520117
:100AF00080E00E94E7030DC0813009F5909152011A
:100B0000911109C06032710520F0809352010E945A
:100B1000F00180E00895913079F46B3B710520F08D
:100B200082E080935201E4CF6115710591F3862F25
:100B3000880F84708E5EDDCF0E944905EACF813830
:100B400041F781E08093520180916D018F5F809326
:100B50006D010E94F0018BE4CCCF20919B012830E5
:100B600088F4E22FF0E0EE0FFF1FE456FE4F808383
:100B700091832F5F20939B0148E00E941D05809187
:100B80009B0108958FEF08950F931F93CF93DF93E9
:100B9000D82FC92F8B010E944905B8018D2F9C2F9A
:100BA000DF91CF911F910F910C94AD05843021F509
:100BB0008091AC019091AD012DE08333920739F41F
:100BC00069E170E085E897E00E94C4050EC0855891
:100BD000974069F490919201923048F0892F869560
:100BE00096959695890F0E94250480E0089570E0FF
:100BF00060E088E696E0E8CF81E00895282FCB01F9
:100C0000213C41F470E060E088E696E00E94C40573
:100C100080E00895223C29F470E060E08AE296E0EA
:100C2000F5CF213B49F46EE370E00E948611892BD9
:100C300079F70E942904ECCF213E51F46EE370E075
:100C40000E9486116F5F60930C010E945C03E0CFED
:100C500081E00895CF93C0911A01C1111BC0813C5E
:100C600049F470E060E088E696E00E94C4058C2FAD
:100C7000CF910895823C29F470E060E08CE496E026
:100C8000F4CF873B39F470E060E08DEF99E00E948B
:100C9000AD05EDCFC1E0EBCF813C41F470E060E009
:100CA00088E696E00E94C40580E00895823C29F41D
:100CB00070E060E08EEF95E0F5CF873B39F470E0AF
:100CC00060E082E09AE00E94AD05EECF81E00895F9
:100CD0000F931F93CF938B018830B1F480E00E9473
:100CE000E70360E080910E010E943A0410927201C5
:100CF000012B31F0C0E08C2FCF911F910F910895FF
:100D000081E080939301F6CF813051F46931710510
:100D100088F38093930180910E010E943A04EACFF8
:100D20008330F9F4709358016093570180910E015C
:100D30000E943A04C0911A01C111DCCF80916E016A
:100D40008823C1F290E062EC71E00E946911801783
:100D5000910780F670E060E08CE09AE00E94C405A4
:100D6000CACF813BA9F481E090E00E94CA020E94B0
:100D7000E70380917401811104C00831110508F462
:100D8000B9CF61E070E085E897E00E94C405B2CF7A
:100D9000813EB9F38138E1F4209176012223A9F054
:100DA0008091750190E062EC71E00E9469114091C0
:100DB0005701509158014817590738F0822F90E099
:100DC0000E94CA020E94E70395CF80911B01F7CFD2
:100DD000813C21F46091920170E0D5CF823B59F4BF
:100DE000C0911A01CC2319F086E990E0E9CF86E999
:100DF0000E94E70380CF823E11F480E0E3CF66E9F2
:100E000070E0823C09F4BFCF8339B9F3843C29F404
:100E100070E060E08AE296E0B8CF833C39F40E944B
:100E2000290470E060E08CE09AE0AFCF8D3B41F4A4
:100E3000F89488ED8FBD88E880BF7894A895FFCF9F
:100E40008F3C29F470E060E088E393E09ECFC0918E
:100E50001A018A3B99F4012B09F055C0CC2339F0D3
:100E60000E94290410921A010E945C0343CF70E093
:100E700060E083EF99E00E94AD053DCFC11143C012
:100E80008A3C41F40E94290481E080931A010E9467
:100E90005C0331CF833B29F470E060E083E39DE0A5
:100EA0005DCF873CA9F490910E01892F82958F70B8
:100EB0008F5F83708295807F9F70892B80930E0156
:100EC00060E00E943A040E945C030E94290413CF50
:100ED000873BB9F4C8018F739927892B61F420915E
:100EE0000E01822F8F708F5F207F6BE00E947A113E
:100EF000922B90930E01602F80910E010E943A0474
:100F0000FACE873E21F2C1E0F6CECF92DF92EF9289
:100F1000FF920F931F93CF93DF93C82F8B01D09035
:100F20001901D0911801E0907401F0907301E11063
:100F300002C0FF24F394C0907201B8018C2F0E946C
:100F4000C80460917201662309F4F3C1C11004C0A2
:100F50008091920180935601C83029F0CA30F9F48B
:100F600000911B0110E0D016110630F4D0171106C5
:100F700019F010F000931B01C8010E94CA020E94E0
:100F8000250481E080930501D0E08D2FDF91CF9182
:100F90001F910F91FF90EF90DF90CF900895C13C8B
:100FA00009F4CAC1C23CA1F480911A01811101C0A7
:100FB000D6E9809192018D1740F48D2F0E9425046F
:100FC0008091920180935601DFCF80911B01F6CF73
:100FD000C33C41F480E00E94E70370E060E08CE0F5
:100FE0009AE0AEC18FE48C0F823008F03FC0EE2053
:100FF00039F0C80168E170E00E948611892B21F662
:101000008091920101151105E9F4C23BA9F48FEF1B
:1010100080930501809105016F2D70E0082E000C72
:10102000990B0E94691120919201820F911D0E94DB
:10103000CA0280931B01C2CF8D1748F7D81650F310
:1010400081E0E6CF073321E0120710F08D17F8F6A4
:101050000D361240F8F2D816E8F20E94290470E02A
:1010600060E08CE09AE00E94C405D4CF8FE18C0F41
:10107000823020F480910501819584CFC13009F040
:10108000CEC00E33110511F4C0930501662399F00B
:10109000809156016150770B90E00E946911609138
:1010A000710170E00E949A11611101C061E06093CA
:1010B0009101609377013091910120919201432F2A
:1010C000421B550BCA0160915401709155016F5F2D
:1010D0007F4F7093550160935401009709F454CFEA
:1010E00040E052E097FF06C040E450E0253610F49F
:1010F00040E051E05695479597FD01969595879567
:101100000097C1F74617570708F03ECF321708F08F
:1011100055C03FEF320FAFEFA30F8A2F90E0880F3B
:10112000991FAC0140555E4FFA0165917491A21769
:1011300008F049C0E0916C00F0916D00EF2B09F0D0
:1011400042C06F3F23E0720709F03DC070936D000D
:1011500060936C008C579F4FFC0165917491E091F6
:101160006A00F0916B00E617F70708F049C060913C
:101170006A0070916B006F5F7F4F70936B0060939C
:101180006A0060916C0070916D00FA014591549174
:101190006417750761F440916A0050916B00FC017F
:1011A000859194914817590711F4309392010E9448
:1011B0002E021092550110925401E6CE231708F02A
:1011C000AACF31E0A7CFE0916C00F0916D00E61757
:1011D000F70738F460916C0070916D006F5F7F4F7E
:1011E000B5CFE0916C00F0916D006E177F0708F0AD
:1011F000B1CF60916C0070916D0061507109A6CF04
:10120000E0916A00F0916B006E177F0708F0B9CF8C
:1012100060916A0070916B0061507109AECFC5306A
:1012200099F4809192018F3208F4AECE90E0801B49
:10123000910B8E329105DCF08739910510F086E92B
:1012400090E080939101A0CEC630A1F490919201DC
:1012500080917701981708F097CE090F111D90E043
:101260008017910774F3C8010E32110554F78EE20E
:1012700090E0E7CFC73069F490919101809192019D
:10128000891710F48F5FDDCF981708F07DCE81505D
:10129000D8CFD0911A01D1114AC0C43C01F581E0E8
:1012A000E11080E0809374010E945C03C091920180
:1012B00080E00E94E70383E00E94FA018C2F0E94E5
:1012C000E7038091920190E00E94CA0280931B0183
:1012D0000E942504809192018093560156CEC33B13
:1012E00039F486E9012B09F04FCE0E9425044DCE3A
:1012F000C33E19F480911B01F8CF70E060E08CEEE2
:1013000099E0C73B89F0CA3C49F4809192018093EF
:1013100076010E945C030E94290437CECA3B39F44F
:1013200070E060E088EF99E00E94AD052ECED1E03C
:101330002CCECC2009F410CE70E060E088E696E078
:101340000E94C40521CE582FCB01F901583099F4E1
:101350001092530180E00E94E70380919401811173
:101360001EC081E08093530170E060E082E795E069
:101370000E94AD0514C0252F207F203BC1F4209191
:101380005301421790F06DE570E00E9486110297BC
:1013900041F42F5F2093530188E3421718F480E053
:1013A000089582E10E94E703FACF80E0FBCF203E60
:1013B00049F480915301882311F04817A8F60E9440
:1013C0004905EDCF5A3059F760916D018091530175
:1013D00009950E945C03F3CF409174014E5F28E8A9
:1013E00032E00C94A30928E832E043E00C94A3090E
:1013F00022EC32E042E00C94A3092AE333E041E01E
:101400000C94A3092EE333E042E00C94A30929E5F0
:1014100033E041E00C94A3090F931F93CF93DF9324
:10142000C82F8B01873B89F480E00E94E703D091AD
:101430001A01D11199C0CA3B09F061C070E060E0A7
:1014400087E09AE00E94AD0528C08079803959F57F
:1014500020911501909116018C2F8F70823049F4E4
:1014600080917601811108C0822F291728F4892FD5
:1014700003C0822F9217D8F30E94E703C23C61F5A4
:10148000D09176016D2F70E0D1112EC060911B01BB
:1014900070E085E897E00E94C4058D2FDF91CF9121
:1014A0001F910F910895803811F480E0E5CFC83086
:1014B00009F05CC060E080910D010E943A04B7CF52
:1014C0000931110538F0C0939301602F80910D010F
:1014D0000E943A04D0E0E1CFC23B59F40E942904B3
:1014E0001092F00161E070E085E897E00E94C40589
:1014F000F1CFC33C09F09BCF66E970E0F5CFC73C64
:10150000A9F490910D01892F82958F708F5F837060
:101510008295807F9F70892B80930D0160E00E94EF
:101520003A040E945C030E942904B7CFC73BB9F478
:10153000C8018F739927892B61F420910D01822FA7
:101540008F708F5F207F6BE00E947A11922B9093B7
:101550000D01602F80910D010E943A049ECFC73E7D
:1015600019F40E945C0399CFD1E097CFC13009F400
:10157000A7CFC33009F4A9CF81CF86E884B91092F0
:10158000BB011092BC0183B1886483B908950E94A5
:10159000BD0AE1E6F0E0808182608083139A87EEE5
:1015A00083B908951092BD0180B121B1409190019D
:1015B000829586958695837030E0220F331F220F27
:1015C000331F820F932F911D840F80939001809180
:1015D000B201882309F446C01092B2018091BB0188
:1015E00090919301992319F01F981092BB018111DA
:1015F00048C080911E018823B1F18091B70190917C
:10160000B8019093B4018093B30140969695879565
:10161000807F9F7761EC72E00E94861180911D01AE
:101620008750680F6093B10180916C01882301F1AC
:10163000815080936C018091930181110AC08EE8E2
:1016400084B981E08093BB011092BC0183B18864AE
:1016500083B980911E01882329F080911E01815059
:1016600080931E0108958091B3019091B401CDCF74
:101670006D3108F770E060E084E00E94930185E03E
:10168000D8CF813031F780911E0181115CC08091EB
:10169000B5019091B6014096DC0135E0B695A7956D
:1016A0003A95E1F74091AE01042E000C550B9A01DA
:1016B0002E50314066E0969587956A95E1F7820F46
:1016C000931F9093B0018093AF0180915B01E82F4D
:1016D000F0E0EE0FFF1FE45AFE4F20813181BD0183
:1016E000621B730B9B01B183A0838F5F8770809314
:1016F0005B01660F771F660F771F6A0F7B1F809154
:101700001C0190E0841B950B825F9E4F880F991FF0
:10171000681B790B83E0161617060CF043C0615066
:1017200071098150C1F7161617060CF053C037FD2A
:1017300070C080915A011816E4F5861B80935A01F7
:101740000E94BD0A86CF8091B9019091BA01909311
:10175000B6018093B501409625E0969587952A9528
:10176000E1F790935D0180935C0190935F0180931A
:101770005E01909361018093600190936301809377
:101780006201909365018093640190936701809357
:101790006601909369018093680190936B01809337
:1017A0006A0175CF6115710509F4BBCF6F5F7F4F7B
:1017B000B8CF660F771F635071091616170614F01D
:1017C00061E070E080E1861B80935A0185E00E9411
:1017D0009301B6CF6C3F8FEF7807DCF437FF19C069
:1017E00080915A0187FF02C08450A7CF8CEE861BE0
:1017F00080935A018091B1018F3108F4A1CF8CEF11
:101800009FEF9C01261B370BB9017595679586E004
:10181000DECF8091B1018E3108F492CF70E060E0AC
:1018200087E0D5CF0F931F93CF93109296018091AD
:10183000EE019091EF019C012F5F3F4F8827907838
:10184000822B932B9093EF018093EE01C091940132
:101850000E941002C817B9F010929301809394016E
:101860009091F001882371F1892F80699F709F30DA
:1018700039F58093F00190E080E00E94EB01109236
:10188000EF011092EE010091EE011091EF018091B5
:101890009301882329F1B80183E00E9493010E94FB
:1018A000AE010F731127012B99F5109259010E9477
:1018B000C70A83B1886483B981E08093B20122C0F2
:1018C0008F5FD7CF892F8F7E95FD08C0806880936A
:1018D000F0018091EE019091EF01CFCF806CF7CFB6
:1018E000C091F0018C2F807F803BB1F470E060E00C
:1018F00081E00E949301C8010E94EB01809159018F
:101900008823B9F2809159018F5F8F7180935901BB
:10191000CF911F910F910895B80181E00E9493012A
:10192000C4FF0FC0C5FDE7CF0831110538F3109291
:10193000EF011092EE01C062C093F00190E080E0F0
:10194000DBCFCC23D9F2C5FF03C00E94F001D6CF74
:101950000231110598F2C064C093F00190E080E07C
:101960000E94EB01F2CF8091BD0181110E94D20A49
:101970008091960181110C94120C0895EF92FF92C0
:101980000F931F93CF93DF93EC0108E017E082ECF5
:10199000E82EFF24F394209741F481E0DF91CF916A
:1019A0001F910F91FF90EF90089580917801811120
:1019B00018C080919201823078F482E00E948D01FB
:1019C000C7010197F1F780E00E948D010E94B30CDE
:1019D0000E94AE012197DFCF80E00E948D01C801F7
:1019E000F0CF80E0DBCF0F931F93CF93C82F06EA91
:1019F000811102C008E0C1E010E089E10E94E70324
:101A0000C8010E94BE0C80E00E94E7038AEF90E0CC
:101A10000E94BE0CC15089F78AE992E0CF911F91D4
:101A20000F910C94BE0CCF93DF93282F64E60E9495
:101A30007A11382FC92F892F6AE00E947A11D92F85
:101A4000243670F0832F0E94F30C8C2F6AE00E94E2
:101A50007A110E94F30C8D2FDF91CF910C94F30C2F
:101A6000CA3098F7F8CFDF92EF92FF920F931F934F
:101A7000CF93DF93D82F8B01C0910B01C23081F43B
:101A8000F09072010E94C804FF20B1F080917201B1
:101A9000811112C070E060E088E696E00E94C40503
:101AA000D83079F0D13C09F009C170E060E088E6F7
:101AB00096E00E94C40508C0D83041F481E08093CC
:101AC000030181E080930401C0E00EC1D23C61F4C7
:101AD000109272018C2F90E0019683709927809369
:101AE0000B010E945C03F0CFD13BC1F48091020155
:101AF000012B41F49FEF8E3618F4823018F491E0F8
:101B00009093030190910301890F21F481E0809368
:101B10000201DACF8F36D8F38EE6F9CFD13E59F4F1
:101B20008091030181958093030180910401819547
:101B300080930401D6CFD23BD1F481E0809303019E
:101B400080910201823018F081508093020181E07F
:101B500080930401CC2309F4F4C0C33009F0B4CF5E
:101B600080910801833008F4D5C08150D1C0D130B4
:101B700009F0F0C00E33110511F4D0930301D09099
:101B80004F018D2D880FD7FC809590E067E070E0C5
:101B90000E946911292FE0904E018E2D880FE7FCDD
:101BA0008095D09101016D2F70E090E00E94691145
:101BB000290FF0904D018F2D880FF7FC8095C09173
:101BC00000016C2F70E090E00E946911622F690F94
:101BD00080910201680F7727771F80917201813011
:101BE000A1F480916F019091700125E09695879501
:101BF0002A95E1F724E730E0A901481B590BCA01F7
:101C00000E946911B9010E948611862F0E94E70384
:101C100000FD06C00E94190281708D0D80934F0156
:101C200080914C018E0D80934E010E94190265E255
:101C30000E947A119F0D90934D010E9419028F739B
:101C400039F40E9419026DE00E947A1190934C01C0
:101C5000DD2339F00E9419028F7319F4D150D0930B
:101C600001010E941902811109C00E9419026BE052
:101C70000E947A119093010110924E01C33038F006
:101C80000E9419028F7119F4C150C09300010E9483
:101C900019028F7739F40E94190266E00E947A11C6
:101CA000909300010E33110519F481E08093040133
:101CB00080919001080F0093900106CFD23C09F467
:101CC00009CFD13B81F5C11118C000FDFDCE809137
:101CD000090190910401891B8F3F08F08EEF883035
:101CE00008F488E0809309018C2FDF91CF911F9138
:101CF0000F91FF90EF90DF900895C33009F0E4CE8C
:101D00008091080190910401890F823040F482E0B3
:101D100080930801809108010E94E703D5CE89379E
:101D2000B8F388E7F5CFD13E09F4FFCED23B09F4F2
:101D30000ECFD23E09F4D5CED13009F4B3CFC1E0F5
:101D4000D3CF00FDC1CE809109018F3F09F4BCCEF5
:101D50008F5FC8CFD13C09F4A8CED23E81F7C1CE67
:101D60002F932FB72F933F938F939F93AF93BF934F
:101D7000EF93FF938091BC018823E9F0E091BB01D0
:101D800020B131B1F0E0EE0FFF1FDF01A954BE4FCB
:101D90002D933C93ED54FE4F8081918182179307E0
:101DA00008F401962817390708F401979183808376
:101DB00081E08093BD0181E08093BC01FF91EF91B0
:101DC000BF91AF919F918F913F912F912FBF2F91F5
:101DD00018958F9381E0809396018F9118958F933A
:101DE00081E0809395018F911895F89485B7877F4E
:101DF00085BF90E088ED0FB6F894A8958FBD90B799
:101E0000977F90BF0FBE89E08CB98CE780BB83EAD7
:101E10008093720081E08093710084E08EB988BD68
:101E20008CB780618CBFA89580E480BF0E94C70AF0
:101E3000789481E00E94FA0170E060E086ED95E020
:101E40000E94AD05109278010E9429040E941002A0
:101E5000811177C082E00E94FA01F89480E890E056
:101E60000E94AE11853A09F09FC009E711E0C1E870
:101E7000D0E0CE010E94AE11F80181938F0121962E
:101E8000C839D105B1F778948091790180937401B4
:101E900080917A018093150180917B0180931201DA
:101EA00080917C018093160180917D0180931301C4
:101EB00080917E018093100180917F018093760153
:101EC00080918001809375018091810180930B0145
:101ED00080918201809309018091830180930A019E
:101EE00080918401809308018091850180930C0189
:101EF0008091860180931A01809187018093170158
:101F0000809188018093140180918901809311014F
:101F100080918A0180931C0180918B018093AE0196
:101F200080918C0180931D0180918D0180930E0121
:101F300080918E0180930D0180918F0180936E01BD
:101F400034C0C0E08C2F0E94E70383E190E00E9440
:101F5000BE0C8C2F86950E94E70383E190E00E94DF
:101F6000BE0C0E9410028823E1F0CF5FC03451F70D
:101F700065E181E00E943E030E945C03C6E98C2F6C
:101F80000E94E70384E090E00E94BE0CC150B9F7C4
:101F900061CF8C2F0E94E7038DE090E00E94BE0C81
:101FA000C150C111F6CF56CF78948091760181113E
:101FB00080931B0161E070E088E696E00E94AD0529
:101FC00043E4242E52E0352E60E4462E55245394EB
:101FD00078E6872E76E0972ECC24C394D12CFCEFA4
:101FE0006F2EF3E07F2E0E94AE01809199019091B7
:101FF0009A01009751F060919701709198010E94A9
:10200000C40510929A01109299018091930188233E
:1020100011F180E00E94E703A89520BE1F980E945E
:1020200010028111FCCF0E94F0018CB780618CBF3F
:102030001092BD011092960110929501809193012A
:1020400081112FC030921E018CB78F7E8CBF0E94F1
:10205000C70AA89540BE0E94B30C109278018091E7
:10206000AC019091AD01F3E088339F0709F03BC0CC
:10207000C0E7D0E0FE01849180530E94F30C8CE213
:1020800091E00E94BE0C2196F0E0CC37DF0791F77B
:1020900090929A0180929901109298011092970162
:1020A000A2CF86B78F79806486BF86B7806186BFEE
:1020B000889586B78F7E86BF809195018111109299
:1020C00093018091BD01882331F050921E015092FE
:1020D000B2010E94D20A80919601882309F4AECF02
:1020E0000E94120CABCF2DE08333920709F0B2C0EF
:1020F00080910B018130E1F0833009F48BC08111B4
:1021000072CFC091090186E90E94E703CA3258F4F0
:10211000C3010197F1F780E00E94E7038C2F90E064
:102120000E94BE0C60CF81E090E00E94BE0CF3CF15
:102130000E9419028F73082F10E00E94190267E0B5
:102140000E947A11E60102C0CC0FDD1F9A95E2F7DA
:102150000E94190265E00E947A11F60102C0EE0F9A
:10216000FF1F9A95E2F7CE0FDF1F0E94190290E041
:10217000BE010E949A11C80FD91FC739D10514F0AA
:10218000C6E9D0E08C2F0E94E703C8010E94BE0C74
:102190007E0133E0F594E7943A95E1F7E11002C04F
:1021A000EE24E394F12CC8010E94BE0C5E01AE182F
:1021B000BF08E501B7FE02C0D0E0C0E08C2F0E944E
:1021C000E7030E941902837041F4C8010E94BE0C0B
:1021D000CE01959587950E94E703F2E0AF16B10412
:1021E00014F70E9419026DE00E947A11860102C064
:1021F000000F111F9A95E2F70E941902E80121973A
:1022000090E0C823D923C00FD11F80E00E94E703CC
:10221000CE0186CFC0910801CC0FC73908F0C6E9BE
:10222000D4E08C2F0E94E70385E090E00E94BE0C72
:10223000809108010E94E70381E490E00E94BE0CB7
:10224000D15079F780ED92E00E94BE0C80E00E94B0
:10225000E703C9CE26E08A32920759F48091B10192
:102260000E94130D80911A01811112CF88EE93E024
:1022700057CF36E08C34930729F48091AF010E9448
:10228000130DF4CF8E5F9540C9F4809194018111B4
:10229000AACE80911B010E94E70384E690E00E9491
:1022A000BE0C80E00E94E70380910C0190E068EE94
:1022B00073E00E9469118456910932CF86B78F79F5
:1022C00086BF86B7806186BF889586B78F7E86BFBA
:1022D0008ACE0024552704C0080E591F880F991F65
:1022E000009729F076956795B8F37105B9F7802DB9
:1022F000952F0895991B79E004C0991F961708F04F
:10230000961B881F7A95C9F780950895AA1BBB1B59
:1023100051E107C0AA1FBB1FA617B70710F0A61BE5
:10232000B70B881F991F5A95A9F780959095BC0106
:10233000CD01089597FB072E16F4009407D077FD82
:1023400009D00E94861107FC05D03EF49095819536
:102350009F4F0895709561957F4F0895E199FECF45
:102360001FBA8EBBE09A99278DB30895262FE19965
:10237000FECF1FBA8EBBE09A81500DB2021639F023
:102380001CBA2DBB0FB6F894E29AE19A0FBE0895DD
:04239000F894FFCFEF
:10239400060B1801010100047829430202371900D1
:1023A400070578786E030A0A7803012E2D070215B3
:1023B4000112010F010201000000000000000100F1
:1023C4000000000000000001000021012302250399
:0C23D400270429052C06FF060504030061
:00000001FF
