:10000000F6C010C115CC0EC10DC10CC10BC10AC187
:10001000D0CB08C107C106C105CC04C103C1323031
:1000200032303132303830313431000000000000DD
:1000300000000000000000000000000000000000C0
:1000400000000000000000000000000000000000B0
:1000500000000000000000000000000000000000A0
:100060000000000000000000000000000000000090
:100070000000000000000000000000000000000080
:10008000000000000000000000000000000000056B
:1000900007090B0D0F121417191C1F2225282C2FCE
:1000A00033363A3E42464B4F54595E63686E73791D
:1000B0007F868C939AA1A8B0B7BFC8D0D9E2EBF5E0
:1000C000FF00000000000000000000000000000031
:1000D0000000000000000000000000000000000020
:1000E0000000000000000000000000000000000010
:1000F00000000007080A0B0D0E10121315171A1C2A
:100100001E212326292C2F33363A3E42464B4F548C
:100110005A5F656A70777E858C939BA4ACB5BEC828
:10012000D2DDE8F3FFFFFFFFFFFFFFFFFFFFFFFF51
:10013000FFFFFFFFFFFFFFFFFFFFFFFFFFFFFFFFCF
:10014000FFFFFFFFFFFFFFFFFFFFFFFFFFFFFFFFBF
:10015000FFFFFFFFFFFF0001010202030404050689
:100160000708090A0B0F10121416181A1C1E212456
:10017000272B2F33383D42484E555C636B747D8787
:10018000919CA8B4C2D0DEEEFFFFFFFFFFFFFFFF90
:10019000FFFFFFFFFFFFFFFFFFFFFFFFFFFFFFFF6F
:1001A000FFFFFFFFFFFFFFFFFFFFFFFFFFFFFFFF5F
:1001B000FFFFFFFFFFFFFFFFFFFFFFFFFFFFFFFF4F
:1001C000FFFFFFFFFFFFFFFFFFFFFFFFFFFFFFFF3F
:1001D000FFFFFFFFFFFFFFFFFFFFFFFFFFFFFFFF2F
:1001E000FFFFFFFFFFFFFFFFFFFFFFFF00001124E6
:1001F0001FBECFE5D2E0DEBFCDBF10E0A0E6B0E08D
:10020000E8E6FDE102C005900D92A438B107D9F7E8
:1002100021E0A4E8B0E001C01D92A532B207E1F7E9
:100220000DDBA0CDEDCE482F362F272FE2EFF0E0EB
:1002300090E080E0508151110AC063E070E034DD4D
:10024000FC01EE50FF4F40833183228305C00196AD
:1002500033968031910571F70895EF92FF921F93C5
:10026000CF93DF931091F200111106C0DF91CF916F
:100270001F91FF90EF900895E090F300F090F4004C
:10028000C091CF00C1500C2E000CDD0BC7FD0EC07D
:10029000FE01EE0FFF1FE053FF4F0190F081E02DB4
:1002A000B701812F099521978111F0CFE2EFF0E09E
:1002B000838180838481958192838183339681E0D9
:1002C000EF31F807A9F710921F0110922101109247
:1002D0002001C8CFBC0180912401A5CF1092240138
:1002E000109223011092220181E08093AE000895C4
:1002F00090E822E048EA57E030E0815008F40895A1
:100300000FB6F89496BD26BD0FBEFA013197F1F7EE
:100310000FB6F89496BD36BD0FBEEFCF86B383FB04
:10032000882780F991E089278093C8000895E0919B
:100330006600F09167003196FB70F460F0936700FF
:10034000E09366008091C4008B5A8093C400E491CE
:100350008091C4008E0F0895CF93DF9300D000D01A
:1003600000D0CDB7DEB72091AA004091E0005091B7
:10037000E1004950584009F422E06623F1F0823050
:1003800019F497E9961B692F96E0EDE7F0E0DE019E
:10039000119601900D929A95E1F78150990B880F73
:1003A000991FA1E0B0E0AC0FBD1F8A0F9B1FDC01BD
:1003B000ED91FC91E20FF11D608326960FB6F89443
:1003C000DEBF0FBECDBFDF91CF910895813019F40C
:1003D0001092AC0008956093AB000895CF92DF9225
:1003E000EF92FF920F931F93CF93DF939C01509155
:1003F000AA00E091780082E0E11101C0852F90E031
:10040000DC01AD58BF4F4C914093770080599F4F0E
:10041000DC018C9180937600F0E0E359FF4FC181BD
:10042000642F70E0552381F0C13071F4860F972F4F
:10043000911D95958795DF91CF911F910F91FF9019
:10044000EF90DF90CF900895261737078CF1821731
:1004500013068CF3511102C0822FEDCF841B6C2F39
:100460006150770B8B01E82EF12CC7014EDC6093B5
:10047000A9006695E62FF0E0842FD12CC12CD0E0A6
:10048000DC17C9F2C601B8012CDC842F860FA82F17
:10049000B0E0B9016A1B7B0B77FF03C0BD01621B93
:1004A000730BCE0CDF1CE617F7072CF6DF5FE8CFE7
:1004B000842FC1CF81E00895611160937B0008957E
:1004C000662369F0813099F48091E2009091E30015
:1004D000891B680F6093E20082E080937C0080912A
:1004E0007A00873418F086E480937A000895635E7A
:1004F00060937A00F4CF6093A40008950F931F9344
:10050000CF93DF938091AA008093AF008091730016
:100510008093B000809170008093B100809174004E
:100520008093B200809171008093B30080916E003F
:100530008093B4008091AC008093B5008091AB00B3
:100540008093B60080916B008093B7008091690022
:100550008093B80080916A008093B9008091680010
:100560008093BA0080916C008093BB0080917800EA
:100570008093BC00809175008093BD0080917200D3
:100580008093BE0080916F008093BF0080917A00BD
:100590008093C0008091E2008093C10080917B0035
:1005A0008093C2008091A4008093C300F8940FEA66
:1005B00010E0C1E0D1E0F80161918F01CE01C0DB14
:1005C0002196C631F1E0DF07B1F765EA80E091E0FE
:1005D000B7DB7894DF91CF911F910F9108958091AF
:1005E000C600863040F480E892E00FB6F89486BDED
:1005F00096BD0FBE08958F3018F480E891E0F5CFD6
:1006000080E890E0F2CF8093C6008093C50081110E
:1006100004C019BC18BC1BBCE2CF815090E0FC01A7
:10062000E95AFE4FE491E9BDFC01EF53FF4FE4911D
:10063000E8BD855D9F4FFC0184918BBDEDCF80931C
:10064000AD00E1CFCF93C091C60089E18C0F87390F
:1006500008F080E0D8DF82E04BDE8C2FCF91D3CF43
:10066000CF93C091C60080E0CEDF83E041DE8C2FC7
:10067000CF91C9CFCF93282FCB01C0917800C11162
:1006800017C0283049F41092A8001092A6001092CA
:10069000A5008C2FCF910895213B61F48091A80093
:1006A0008150833028F483E08093A8008093A700D2
:1006B000C1E0EFCF253BA1F46EE370E012DB892BA4
:1006C00041F78091A8008A3F20F78B5F8093A800B4
:1006D0008093A7001092A6001092A500B3DFD9CF97
:1006E000213031F78091A5009091A60001968838BD
:1006F0002EE0920728F49093A6008093A500C9CF1E
:100700001092A6001092A5008091A800882309F2FB
:1007100081508093A800BDCFFF920F931F93CF937A
:10072000DF938C01D62FC72FF42E8091E00090919B
:10073000E100892B31F0E091E000F091E10089E0E7
:1007400009951093E1000093E000012B41F0E09146
:10075000E000F091E1006D2F7C2F8F2D099581E055
:100760008093AE00DF91CF911F910F91FF9008957C
:10077000CF93DF93E091CF00D0E0C0E0EE2351F0C3
:10078000E150E093CF00F0E0EE0FFF1FE053FF4F8A
:10079000C081D181E091CF0090E080E0EE2341F074
:1007A000E150FF0BEE0FFF1FE053FF4F808191815F
:1007B0004AE070E060E0B0DFCE01DF91CF910895B4
:1007C000883039F41092A3001092880080E01BDF7B
:1007D0000CC08130F9F490918800911108C060320A
:1007E000710518F08093880079DD80E008959130DC
:1007F00079F46B3B710520F082E080938800E6CFAE
:100800006115710591F3862F880F84708E5EDFCF9E
:10081000AFDFEBCF813849F781E08093880080918A
:10082000A3008F5F8093A30059DD8BE4D0CF20918C
:10083000CF00283080F4E22FF0E0EE0FFF1FE053EE
:10084000FF4F808391832F5F2093CF0048E064DFC8
:100850008091CF0008958FEF08950F931F93CF934A
:10086000DF93D82FC92F8B0183DFB8018D2F9C2FE9
:10087000DF91CF911F910F91DACF843011F58091E4
:10088000E0009091E1002AE08537920731F469E1B8
:1008900070E08BED95E0E1DF0DC08B5D954061F47C
:1008A0009091C600923040F0892F86959695969546
:1008B000890FC5DE80E0089570E060E08DE195E08D
:1008C000EACF81E00895282FCB01213C39F470E074
:1008D00060E08DE195E0C1DF80E00895223C29F4DD
:1008E00070E060E08AE894E0F6CF213B39F46EE3F3
:1008F00070E0F7D9892B81F7A5DEEECF213E41F4D8
:100900006EE370E0EED96F5F60936C00F7DDE4CFCB
:1009100081E00895CF93C0917800C11119C0813C46
:1009200041F470E060E08DE195E097DF8C2FCF918E
:100930000895823C29F470E060E08AEA94E0F5CF03
:10094000873B31F470E060E081E198E070DFEECF4A
:10095000C1E0ECCF813C39F470E060E08DE195E0DE
:100960007CDF80E00895823C29F470E060E083E65B
:1009700094E0F6CF873B31F470E060E085E198E0E9
:1009800056DFEFCF81E00895CF93DF93D82F2D2F3F
:100990002079203939F590917300209174008D2FC2
:1009A0008F70823049F48091AC00811108C0822F91
:1009B000291728F4892F03C0822F9217D8F323DE3A
:1009C000D23CE9F4C091AC006C2F70E0C1111EC0A4
:1009D0006091790070E08BED95E03FDF8C2FDF9127
:1009E000CF910895203811F480E0E9CFD13041F75C
:1009F0006931710510F0D093C700C0E0EFCFD23B52
:100A000049F420DE1092240161E070E08BED95E066
:100A100024DFF3CFD33C19F466E970E0F7CFC0913F
:100A20007800C11108C0DA3B31F470E060E089E180
:100A300098E0FDDED3CFC1E0D1CF0F931F93CF93CA
:100A40008B01883081F480E0DEDD1092A800012B5C
:100A500031F0C0E08C2FCF911F910F91089581E06C
:100A60008093C700F6CF813021F46931710588F396
:100A7000F7CF8330C9F470938E0060938D00C091DE
:100A80007800C111E6CF8091A400882311F390E093
:100A900062EC71E009D980179107D8F670E060E048
:100AA00084EC94E0DADED6CF813B89F481E090E0FB
:100AB00095DCA9DD8091AA00811103C008311105E0
:100AC00040F261E070E08BED95E0C7DEC2CF813E81
:100AD000C1F38138C9F42091AC00222391F08091B8
:100AE000AB0090E062EC71E0DFD840918D00509156
:100AF0008E004817590728F0822F90E06FDC83DDC5
:100B0000A8CF80917900F9CF6091C60070E0813C58
:100B1000D1F2823B49F4C091780086E990E0C1119E
:100B2000EDCF86E970DD96CF823E11F480E0E7CF0D
:100B3000823C19F466E970E0C6CF8339B9F3843C8E
:100B400029F470E060E08AE894E0BFCF833C31F4A0
:100B500079DD70E060E084EC94E0B7CF8F3C29F45D
:100B600070E060E08AE592E0B0CFC09178008A3B07
:100B700079F4012BF1F4CC2329F064DD1092780094
:100B8000BDDC67CF70E060E089E098E050DE62CFC6
:100B9000C1110FC08A3C31F455DD81E080937800AB
:100BA000ADDC58CF833B29F470E060E085E79AE044
:100BB00079CFC1E04FCFCF92DF92EF92FF920F93A8
:100BC0001F93CF93DF93C82F8B01D0907700D091E4
:100BD0007600E090AA00F090A900E11002C0FF2486
:100BE000F394C090A800B8018C2F44DD6091A80058
:100BF000662309F4BCC1C11004C08091C600809373
:100C00008C00C83029F0CA30E9F40091790010E076
:100C1000D016110630F4D017110619F010F0009319
:100C20007900C801DBDB0BDD81E080936500D0E05B
:100C30008D2FDF91CF911F910F91FF90EF90DF905B
:100C4000CF900895C13C09F495C1C23C99F48091BC
:100C50007800811101C0D6E98091C6008D1738F463
:100C60008D2FEDDC8091C60080938C00E0CF8091C9
:100C70007900F7CFC33C39F480E0C5DC70E060E078
:100C800084EC94E07BC18FE48C0F823008F043C089
:100C9000EE2031F0C80168E170E023D8892B39F6E5
:100CA0008091C6000115110521F5C23BE1F48FEFDB
:100CB000809365001091C600809165006F2D70E0F3
:100CC000082E000C990BF0D7810F911D87DBC82FE0
:100CD00080937900181729F0843611F08D1301C024
:100CE000BFDC8C2FBECF8D1710F7D81618F381E01C
:100CF000DFCF073341E0140710F08D17C0F60D3633
:100D00001240C0F2D816B0F29DDC70E060E084ECD6
:100D100094E0A3DDCFCF8FE18C0F823020F480915F
:100D20006500819582CFC13009F0A8C00E3311054E
:100D300011F4C0936500662389F080918C006150A6
:100D4000770B90E0B1D76091A70070E0DED761111A
:100D500001C061E06093C5006093AD003091C500B3
:100D60002091C600E32FE21BFF0BCF0160918A00A8
:100D700070918B006F5F7F4F70938B0060938A0040
:100D8000309709F454CF40E052E0F7FF06C040E44A
:100D900050E02E3710F440E051E05695479597FD0E
:100DA0000196959587950097C1F74617570708F064
:100DB0003ECF321708F042C03FEF320F5FEF530FC4
:100DC000852F90E0BC01695A7E4FFB014491521778
:100DD00008F039C029B5211136C04F3F09F033C0A2
:100DE00049BDAC014F535F4FFA012491E8B5E217BA
:100DF00008F037C028B52F5F28BD855D9F4FFC01E7
:100E00002491EBB5E217A0F52BB52F5F2BBD29B5CB
:100E1000FB01649126130CC028B5FA0144912413F8
:100E200007C02BB5FC018491281302C03093C60083
:100E3000D6DB10928B0010928A00F9CE231708F0AF
:100E4000BDCF31E0BACF29B5241720F429B52F5FE3
:100E500029BDC7CF29B5421708F0C3CF29B5215006
:100E6000F7CFE8B52E1708F0C8CF28B52150C4CF6A
:100E7000EBB52E1760F62BB52150C8CFC53099F4CD
:100E80008091C600833308F4D2CE90E0801B910B92
:100E900082339105DCF08739910510F086E990E006
:100EA0008093C500C4CEC630A1F49091C600809155
:100EB000AD00981708F0BBCE090F111D90E0801708
:100EC000910774F3C8010233110554F782E390E0EF
:100ED000E7CFC73069F49091C5008091C6008917AB
:100EE00010F48F5FDDCF981708F0A1CE8150D8CFD6
:100EF000D0917800D11139C0C43C99F481E0E1105F
:100F000080E08093AA00FADAABDB8091C60090E023
:100F100065DA8093790093DB8091C60080938C0022
:100F200087CEC33B31F486E9012B09F080CE87DB05
:100F30007FCEC33E19F480917900F9CF70E060E074
:100F400083E098E0C73B79F0CA3C39F48091C60051
:100F50008093AC00D3DA76DB6BCECA3B31F470E021
:100F600060E08DE098E063DC63CED1E061CECC2020
:100F700009F447CE70E060E08DE195E06EDC57CE7D
:100F8000582FCB01F901583089F41092890080E084
:100F90003ADB8091C80081111CC081E080938900F8
:100FA00070E060E080EE93E042DC13C0252F207FEC
:100FB000203BB1F420918900421780F06DE570E08C
:100FC00090D6029741F42F5F2093890088E342175F
:100FD00018F480E0089582E116DBFBCF80E0FCCFBF
:100FE000203E41F480918900882311F04817C0F613
:100FF000BFDBEFCF5A3069F76091A3008091890081
:1010000009957CDAF5CF4091AA004E5F2CEA31E0D9
:10101000B7CF2CEA31E043E0B3CF26EE31E042E037
:10102000AFCF2CE532E041E0ABCF20E632E042E04A
:10103000A7CF2BE732E041E0A3CF8CE287B9109233
:10104000EF001092F00086B1886486B9089510927E
:10105000F10084B125B14091C400829586958695B2
:10106000837030E0220F331F220F331F820F932F24
:10107000911D840F8093C4008091E600882309F4B9
:1010800048C01092E6008091EF0081114BC0809122
:101090007C006091E7007091E800882341F0609146
:1010A000EB007091EC007093E8006093E700605FE4
:1010B0007F4FF6E076956795FA95E1F780E098E541
:1010C00010D680917B008250990B680F791F76951E
:1010D00067956093E5008091A2008823D9F0815044
:1010E0008093A2008091C70081110AC08FEA87B95E
:1010F00081E08093EF001092F00086B1886486B999
:1011000080917C00882329F080917C00815080931D
:101110007C0008956D3130F770E060E084E083D8A2
:1011200085E0DECF813061F780917C0081115CC069
:101130002091E9003091EA00205F3F4FB90145E07E
:10114000769567954A95E1F7E091E20056E036958D
:1011500027955A95E1F70E2E000CFF0BCF01835116
:101160009140280F391F3093E4002093E3008091D1
:101170009100A82FB0E0AA0FBB1FAE56BF4F2D9114
:101180003C911197AB01421B530B6D937C938F5F86
:10119000877080939100CA01880F991F880F991F4B
:1011A00020917A0030E02D5E3E4F2E1B3F0B220F28
:1011B000331F821B930B860F971F23E01816190607
:1011C0000CF041C001972150C9F7181619060CF010
:1011D00051C057FD6CC0209190001216CCF5281B11
:1011E000209390002ADF8CCF8091ED009091EE004B
:1011F0009093EA008093E900409635E096958795B4
:101200003A95E1F790939300809392009093950024
:101210008093940090939700809396009093990008
:101220008093980090939B0080939A0090939D00E8
:1012300080939C0090939F0080939E009093A100C8
:101240008093A00075CF009709F4BDCF0196BBCF66
:10125000880F991F61E070E08530910524F00397B5
:10126000BC017595679588E1861B8093900085E0A9
:10127000DAD7B8CF8C3F2FEF9207CCF457FF17C0C7
:101280002091900027FF02C02450A9CF24EE281BF4
:10129000209390002091E5002F3108F4A3CF6CEF4C
:1012A0007FEF681B790B7595679586E0E1CF80919C
:1012B000E5008E3108F496CF70E060E087E0D8CF8B
:1012C0000F931F93CF931092CA00809122019091A7
:1012D00023019C012F5F3F4F88279078822B932B0F
:1012E0009093230180932201C091C80017D8C8179A
:1012F000B1F01092C7008093C80090912401882318
:10130000F9F0892F80699F709F30C1F48093240188
:1013100090E080E0DFD7109223011092220100912B
:101320002201109123018091C7008823B9F0B801F0
:1013300083E079D7CF911F910F918FC78F5FE6CF51
:10134000892F8F7E95FD08C080688093240180914D
:10135000220190912301DECF806CF7CFC091240150
:101360008C2F807F803BD1F470E060E081E05BD720
:10137000C801B0D780918F00811106C086B1886402
:1013800086B981E08093E60080918F008F5F8F7136
:1013900080938F00CF911F910F910895B80181E044
:1013A00042D7C4FF0FC0C5FDE3CF0831110510F3CC
:1013B0001092230110922201C062C093240190E098
:1013C00080E0D7CFCC23B1F2C5FF02C087D7D2CF00
:1013D0000231110578F2C064C093240190E080E0EE
:1013E00079D7F4CF8091F100811131DE8091CA006C
:1013F000811166CF0895BF92CF92DF92EF92FF9254
:101400000F931F93CF93DF93EC0110E888E0E82E51
:1014100087E0F82E02E092ECC92EDD24D394B12CA3
:10142000209759F481E0DF91CF911F910F91FF90A8
:10143000EF90DF90CF90BF9008958091AE00811122
:101440001DC09091C600963090F40FB6F89416BD6A
:1014500006BD0FBEC6010197F1F78B2D0FB6F894AC
:1014600016BD86BD0FBEBEDFF8D62197D9CF0FB609
:10147000F89416BD86BD0FBEC701EDCF80E0D3CF77
:101480000F931F93CF93C82F06EA811102C008E083
:10149000C1E010E089E1B7D8C801ADDF80E0B3D882
:1014A0008AEF90E0A8DFC150A9F78AE992E0CF91D6
:1014B0001F910F91A0CFCF93DF93282F64E605D41F
:1014C000382FC92F892F6AE000D4D92F243650F045
:1014D000832FD6DF8C2F6AE0F8D3D2DF8D2FDF91F8
:1014E000CF91CECFCA30B0F7F9CFDF92EF92FF9213
:1014F0000F931F93CF93DF93D82F8B01C0916B0075
:10150000C23071F4F090A800B5D8FF20A1F080910E
:10151000A800811110C070E060E08DE195E09DD9D8
:10152000D83071F0D13C09F0F3C070E060E08DE19B
:1015300095E093D908C0D83041F481E080936300EE
:1015400081E080936400C0E0F9C0D23C59F410926D
:10155000A8008C2F90E001968370992780936B00F0
:10156000CDD7F1CFD13BC1F480916200012B41F482
:101570009FEF8E3618F4823018F491E09093630058
:1015800090916300890F21F481E080936200DBCFAA
:101590008F36D8F38EE6F9CFD13E59F480916300AF
:1015A00081958093630080916400819580936400AD
:1015B000D7CFD23BD1F481E0809363008091620069
:1015C000823018F081508093620081E08093640043
:1015D000CC2309F4DFC0C33009F0B5CF8091680097
:1015E000833008F4C1C08150BDC0D13009F0DBC0E8
:1015F0000E33110511F4D0936300D09087008D2D28
:10160000880FD7FC809590E067E070E04DD3292FDC
:10161000E09086008E2D880FE7FC8095D0916100C8
:101620006D2F70E090E040D3290FF09085008F2D52
:10163000880FF7FC8095C09160006C2F70E090E0FF
:1016400033D3622F690F80916200680F7727771F6D
:101650008091A800813091F48091A5009091A6001E
:1016600025E0969587952A95E1F724E730E0A901D2
:10167000481B590BCA0118D3B90133D3862FC3D7DE
:1016800000FD05C054D681708D0D80938700809138
:1016900084008E0D809386004AD665E216D39F0D96
:1016A0009093850044D68F7329F441D66DE00DD315
:1016B00090938400DD2331F03AD68F7319F4D15022
:1016C000D093610034D6811107C031D66BE0FDD2D2
:1016D0009093610010928600C33030F028D68F714D
:1016E00019F4C150C093600022D68F7729F41FD619
:1016F00066E0EBD2909360000E33110519F481E09F
:10170000809364008091C400080F0093C4001BCF35
:10171000D23C09F41ECFD13B79F5C11118C000FDB0
:1017200012CF8091690090916400891B8F3F08F06F
:101730008EEF883008F488E0809369008C2FDF9169
:10174000CF911F910F91FF90EF90DF900895C330DC
:1017500009F0F9CE8091680090916400890F823081
:1017600038F482E080936800809168004CD7EBCE1B
:101770008937C0F388E7F6CFD13E09F414CFD23BC6
:1017800009F423CFD23E09F4EBCED13009F4B4CF23
:10179000C1E0D4CF00FDD7CE809169008F3F09F41E
:1017A000D2CE8F5FC9CFD13C09F4BFCED23E81F7F4
:1017B000D7CE2F932FB72F933F938F939F93AF93B2
:1017C000BF93EF93FF938091F0008823E9F0E091BD
:1017D000EF0024B135B1F0E0EE0FFF1FDF01A5519E
:1017E000BF4F2D933C93E951FF4F80819181821728
:1017F000930708F401962817390708F40197918395
:10180000808381E08093F10081E08093F000FF917C
:10181000EF91BF91AF919F918F913F912F912FBFEA
:101820002F9118958F9381E08093CA008F9118951E
:101830008F9381E08093C9008F911895F89484B7B5
:10184000877F84BF0FB6F894A89581B5886181BD64
:1018500011BC0FBEB89A81E083BF91EA9ABDB99AD4
:10186000BC9A80BF80E68CBD8FEF8DBD88E088BBC1
:1018700085BB8BB780628BBFA89581B5886181BD20
:1018800080E481BDDADB87EE86B9789481E030D5DB
:1018900070E060E08DE394E0CAD71092AE00D2D63B
:1018A0003DD581116BC0F89480E091E041D2853A3A
:1018B00009F08CC00FEA10E0C1E0D1E0CE0138D2CF
:1018C000F80181938F012196C631F1E0DF07B1F76E
:1018D00078948091AF008093AA008091B0008093AB
:1018E00073008091B100809370008091B20080936A
:1018F00074008091B300809371008091B400809354
:101900006E008091B5008093AC008091B60080930A
:10191000AB008091B70080936B008091B8008093FA
:1019200069008091B90080936A008091BA00809329
:1019300068008091BB0080936C008091BC00809314
:1019400078008091BD00809375008091BE008093E7
:1019500072008091BF0080936F008091C0008093DF
:101960007A008091C1008093E2008091C200809350
:101970007B008091C3008093A40029C0C0E08C2F1D
:1019800042D683E190E037DD8C2F86953CD683E10B
:1019900090E031DDC3D48823B1F0CF5FC03479F754
:1019A00065E181E08DD5AAD5C6E98C2F2CD684E0DF
:1019B00090E021DDC150C9F776CF8C2F24D68DE081
:1019C00090E019DDC150C111F8CF6DCF78948091AE
:1019D000AC0081118093790061E070E08DE195E0C9
:1019E00026D742E0242E57EE352E60E4462E5524AD
:1019F00053947DE1872E75E0972ECC24C394D12C8F
:101A0000FCEF6F2EF3E07F2E28D48091CD009091D3
:101A1000CE00009749F06091CB007091CC001DD7AB
:101A20001092CE001092CD008091C700882331F132
:101A300080E0E9D5A89581B5886181BD23E421BD09
:101A400037986CD48111FDCF49D48BB780628BBF9E
:101A50001092F1001092CA001092C9008091C70044
:101A600081112EC020927C008BB78F7D8BBFE5DA71
:101A700036B8A89581B5886181BD41BCB3DC1092B0
:101A8000AE008091E0009091E10032E08A3593074A
:101A9000B9F5CEE1D0E0FE0184918053F1DC8CE217
:101AA00091E0A9DC2196F0E0CA32DF07A1F790921D
:101AB000CE008092CD001092CC001092CB00A4CF2B
:101AC00085B7877E806185BF85B7806285BF889531
:101AD00085B78F7D85BF8091C90081111092C700A5
:101AE0008091F100882329F050927C005092E6000A
:101AF000AEDA8091CA00882309F4B0CFE1DBAECF23
:101B00002AE08537920709F096C080916B008130FA
:101B1000C1F0833009F475C0811176CFC09169009E
:101B200084E671D5CA3248F4C3010197F1F780E029
:101B30006AD58C2F90E05FDC67CF81E090E05BDCC2
:101B4000F6CFF5D38F73082F10E0F1D367E0BDD047
:101B5000E60102C0CC0FDD1F9A95E2F7E8D365E0FD
:101B6000B4D0F60102C0EE0FFF1F9A95E2F7CE0F38
:101B7000DF1FDDD390E0BE01C8D0C80FD91FC73921
:101B8000D10514F0C6E9D0E08C2F3DD5C80133DC77
:101B90007E0133E0F594E7943A95E1F7E11002C055
:101BA000EE24E394F12CC80126DC5E01AE18BF08D8
:101BB000E501B7FE02C0D0E0C0E08C2F24D5B7D33A
:101BC000837031F4C80117DCCE01959587951BD53C
:101BD000F2E0AF16B1043CF7AAD36DE076D08601EF
:101BE00002C0000F111F9A95E2F7A1D3E8012197D7
:101BF00090E0C823D923C00FD11F80E004D5CE01C7
:101C00009ACFC0916800CC0FC73908F0C6E9D4E07C
:101C10008C2FF9D485E090E0EEDB80916800F3D45E
:101C200081E490E0E8DBD15099F780ED92E0E3DBCE
:101C300080E0E9D4E9CE24E08A38920751F480911B
:101C4000E50039DC80917800811131CF88EE93E096
:101C500072CF34E08A3A930721F48091E3002BDCC1
:101C6000F5CF83569440A9F48091C8008111CCCE61
:101C700080917900C8D484E690E0BDDB80E0C3D4D5
:101C800080916C0090E068EE73E00ED0845691096C
:101C900052CF85B7877E85BF85B7806285BF88951F
:101CA00085B78F7D85BFB0CE0024552704C0080EB0
:101CB000591F880F991F009729F076956795B8F3FB
:101CC0007105B9F7802D952F0895991B79E004C00F
:101CD000991F961708F0961B881F7A95C9F780956B
:101CE0000895AA1BBB1B51E107C0AA1FBB1FA61763
:101CF000B70710F0A61BB70B881F991F5A95A9F7B5
:101D000080959095BC01CD01089597FB072E16F4A0
:101D1000009406D077FD08D0E4DF07FC05D03EF440
:101D2000909581959F4F0895709561957F4F089587
:101D3000E199FECF9FBB8EBBE09A99278DB30895A2
:101D4000262FE199FECF9FBB8EBBE09A01970DB283
:101D5000021639F01CBA2DBB0FB6F894E29AE19A3C
:081D60000FBE0895F894FFCFB7
:101D6800060B18010101000432294302020007058D
:101D7800757564011414750101322D070273007022
:041D8800006D0000EA
:00000001FF
