:1000000003C200001EC200000C94F2101AC20000CD
:1000100018C200000C94EC1014C2000012C20000C0
:1000200010C200000EC200000CC200000AC2000094
:1000300008C2000006C200000C94B31002C2000007
:1000400000C20000FEC10000FCC10000FAC10000B7
:10005000F8C10000F6C10000F4C10000F2C10000C8
:10006000F0C10000EEC10000ECC10000EAC10000D8
:100070003230323230343139303133360001050418
:1000800014101115FF3FB2333526023679257A3424
:10009000F526F52E643289335E336332DC30F72E79
:1000A0007A31CE2E952F9E2C812CEF2B0A2BEB290B
:1000B0004A2AC2287D28C72627265D257424742352
:1000C0006622F521CB20A01FF81ECA1D0F1DE71BBD
:1000D000241B091AF9183B183A17441659154314EA
:1000E0003E13491263116310750F740E870D8D0C4A
:1000F000A70B9E0AAC09B708C207CE06DD05DD04D2
:10010000E503F402FF01FF01FF01FF01FF01FF0111
:10011000FF01FF01FF01FF01FF01FF01FF01FF01DF
:10012000FF01FF01FF01FF01FF01FF01FF01FF01CF
:10013000FF01FF01FF01FF01FF01FF01FF01FF01BF
:10014000FF01FF01FF01FF01FF01FF01FF01FF01AF
:10015000FF01FF01FF01FF01FF01FF01FF01FF019F
:10016000FF01FF01FF01FF01FF01FF01FF01FF018F
:10017000FF01FF01FF01FF01FF01FF01FF01FF017F
:10018000FF01FF01FF01FF01FF01FF01FF01FF016F
:10019000FF01FF01FF01FF01FF01FF01FF01FF015F
:1001A000FF01FF01FF01FF01FF01FF01FF01FF014F
:1001B000000000000000000000000000000000003F
:1001C000000000000000000000000000000000002F
:1001D000000000000000000000000000000000001F
:1001E000000000000000000000000000000000000F
:1001F00000000000000000000000000000000000FF
:1002000000000000000000000000000000000000EE
:1002100000000000000000000000000000000000DE
:1002200000000000000000000000000000000000CE
:1002300000000000000000000000000000000000BE
:1002400000000000000000000000000000000000AE
:10025000000000000000000000000000000000009E
:10026000000000000000000000000000000000008E
:10027000000000000000000000000000000000007E
:10028000000000000000000000000000000000006E
:10029000000000000000000000000000000000005E
:1002A000000000000000000000000000000000004E
:1002B000000000000000000000000000000000003E
:1002C000000000000000000005000E001B002D00D3
:1002D000440060008100A600D000FF000200020080
:1002E00002000300030004000400050006000700EC
:1002F000080009000A000B000D000E00100011009C
:1003000013001500170019001C001E002100230017
:10031000260029002C002F003200360039003C0056
:100320004000430047004A004E005100540058006E
:100330005B005E00610063006500670069006A00A1
:100340006B006B006B006A006900660063005F0071
:100350005A0054004D0044003A002F0022002400AF
:10036000260028002A002C002F003100340036001F
:1003700039003C003F004200450049004C0050005D
:10038000530057005B006000640068006D0072005D
:1003900077007C00820087008D0093009900A00008
:1003A000A600AD00B400BB00C300CB00D300DB004F
:1003B000E400EC00F500FF00080112011D01270117
:1003C00032013D014901540161016D017A0187014A
:1003D0009501A301B101C001CF01DF01EF01FF01D0
:1003E000120226023A024F0264027A029102A80225
:1003F000C102DA02F3020E032903450361037F03FE
:100400009D03BD03DD03FE0311241FBECFEFD4E027
:10041000DEBFCDBF11E0A0E0B1E0E6EDF7E202C043
:1004200005900D92A236B107D9F722E0A2E6B1E01D
:1004300001C01D92A731B207E1F70E94F8100C9499
:10044000E913DECDF89498ED9FBD83BF78940895AD
:10045000482F362F272FE2EEF1E090E080E0508128
:1004600051110BC063E070E00E945013FC01EE518B
:10047000FE4F40833183228305C00196339680313D
:10048000910569F70895EF92FF921F93CF93DF9341
:100490001091E201111106C0DF91CF911F91FF90E1
:1004A000EF900895E090E301F090E401C091BF0166
:1004B000C1500C2E000CDD0BC7FD0EC0FE01EE0F6F
:1004C000FF1FE054FE4F0190F081E02DB701812F16
:1004D000099521978111F0CFE2EEF1E083818083CD
:1004E0008481958192838183339682E0EF30F8078F
:1004F000A9F710920F021092110210921002C8CFA9
:10050000BC0180911402A4CF109214021092130225
:100510001092120281E08093950108950F931F932A
:10052000CF93C82F08EA17E0C15020F4CF911F9154
:100530000F91089582E086DFC8010197F1F780E00E
:1005400081DFF2CFE0910701F09108013196FB7055
:10055000F460F0930801E09307018091B4018B5A95
:100560008093B401E4918091B4018E0F0895CF93EC
:10057000DF9300D00F92CDB7DEB720915E013091AE
:100580005F014091600129833A834B83FE013196DC
:1005900050E040E0682F70E0A1E0B0E09B01042E45
:1005A00002C0359527950A94E2F7922F93708191B6
:1005B0009D0101C0220F8A95EAF7992329F0913015
:1005C000C1F080B3822B19C080B32095822380BBF9
:1005D00082B3822382BB81B3282321BB4E5F5F4F4E
:1005E00046305105D9F60F900F900F90DF91CF91C3
:1005F000089590B3822F8095892380BB82B3822B8C
:1006000082BB81B3282BE9CFCF93DF9300D000D0FA
:1006100000D0CDB7DEB720918F014091D00150912D
:10062000D101485F594009F422E0843059F46093C5
:10063000900126960FB6F894DEBF0FBECDBFDF91B6
:10064000CF9108956623A9F3823019F497E9961B98
:10065000692F96E0E2E2F1E0DE01119601900D9241
:100660009A95E1F78150990B880F991FA1E0B0E0AE
:10067000AC0FBD1F8A0F9B1FDC01ED91FC91E20FB7
:10068000F11D6083D6CFCF92DF92EF92FF920F934E
:100690001F93CF93DF939C0150918F01E0919101C3
:1006A00082E0E11101C0852F90E0DC01AA5EBE4F1F
:1006B0004C9140931A018D5E9E4FDC018C9180938A
:1006C0001901F0E0E05FFE4FC181642F70E0552317
:1006D00081F0C13071F4860F972F911D9595879504
:1006E000DF91CF911F910F91FF90EF90DF90CF900E
:1006F0000895261737079CF1821713068CF35111C2
:1007000002C0822FEDCF841B6C2F6150770B8B01C1
:10071000E82EF12CC7010E949A1360938D01669513
:10072000E62FF0E0842FD12CC12CD0E0DC17C1F2F1
:10073000C601B8010E948613842F860FA82FB0E04F
:10074000B9016A1B7B0B77FF03C0BD01621B730BF2
:10075000CE0CDF1CE617F7071CF6DF5FE7CF842F10
:10076000BFCF81E008956111609320010895662351
:1007700069F0813099F48091D2019091D301891B65
:10078000680F6093D20182E08093210180911F0164
:10079000873418F086E480931F010895635E6093A8
:1007A0001F01F4CF6093880108950F931F93CF9397
:1007B000DF9380918F018093960180911601809341
:1007C000970180911301809398018091100180938B
:1007D00099018091170180939A018091140180936F
:1007E0009B018091110180939C018091180180935D
:1007F0009D018091150180939E018091120180934B
:100800009F01809191018093A0018091900180933C
:10081000A10180918E018093A20180911B018093A0
:10082000A301809193018093A40180919201809310
:10083000A501809187018093A60180911E0180937C
:10084000A70180910A018093A80180911D018093E6
:10085000A90180910B018093AB0180911F018093CE
:10086000AC018091D2018093AD01809120018093F1
:10087000AE0180910F018093AF0180910E018093B2
:10088000B00180910D018093B10180910C018093A2
:10089000B201809188018093B30182E03FDEF89439
:1008A00006E911E0C1E8D0E0F80161918F01CE01C5
:1008B0000E94D7132196CF39D105B1F765EA80E8B8
:1008C00090E00E94D7137894DF91CF911F910F9100
:1008D0000895882321F0813031F0829A05C08298F2
:1008E00092988A9808958298929A8A9A0895EF9297
:1008F000FF920F931F93CF93DF9300D000D00F92FE
:10090000CDB7DEB78D838091B60181110AC02D81EC
:10091000222339F080911D01281718F4E8DF82E0C6
:10092000FDDD6D816093B6016093B5018091B701E3
:1009300081110DC01CDE91E07D81711101C090E03C
:1009400081E0AD81A73408F480E0890FC2DFBD816A
:10095000B11172C0109216021092150218BA1092BC
:100960006D0010926C0010926B0010926A008898D3
:100970008998E0901502F09016020091680010919D
:1009800069008091B601815090911E01911186C03D
:1009900090E06FEF70E00E94501366E970E00E94F3
:1009A0008613C701B0E0A0E0262F30E050E040E021
:1009B00089839A83AB83BC83B701CD010E94611305
:1009C00061587F4F8F4F9F4F69837A838B839C83BE
:1009D0002FEF30E040E050E00E94AD13C901021754
:1009E000130708F074C09701201B310BC801309326
:1009F0006D0020936C0090936B0080936A00232B12
:100A000009F472C0889A892B09F470C0899A7D8193
:100A1000709371018091B601823008F069C082E064
:100A20000F900F900F900F900F90DF91CF911F912B
:100A30000F91FF90EF9006CD2D81215030E0220FD5
:100A4000331FF901E452FD4F859194919093160262
:100A500080931502F901E055FE4F8591949188BB72
:100A6000F901EC57FF4F2591349180917101A90153
:100A700040545109882339F060916E0070916F00E5
:100A800046175707B8F33093690020936800811127
:100A900070CF10926F0010926E006BCF9F3F59F491
:100AA00090E06FEF70E00E94501366E970E00E94E2
:100AB0008613609576CF892F90E064E670E00E94FF
:100AC000501363E670E00E949A1361506ACFB70139
:100AD000621B730B9B010617170708F088CFC7012D
:100AE000801B910B980183CF88988DCF89988FCFE9
:100AF0008A3010F481E094CF80E092CFCF93C09100
:100B0000B60186E48C0F873908F080E0F0DE83E0E0
:100B100005DD8C2FCF91EBCECF93C091B60180E055
:100B2000E6DE83E0FBDC8C2FCF91E1CE0F931F93A9
:100B3000CF93DF93D82F862F9091D5012FEF290FD8
:100B40002C3140F480E013DD80E0DF91CF911F91E4
:100B50000F91BFCECD2FC295CF70DF702091B7011E
:100B6000211103C0C33008F0C2E0D730B0F40091C7
:100B70006B0110E00F5F1F4FE5DC65E00E947A1308
:100B80009801290F311DC90166E070E00E949A1397
:100B900080936B01ED2FF0E016C0D73089F50091FE
:100BA0006B0110E00F5F1F4FCDDC65E00E947A13F0
:100BB000D801A90FB11DCD0166E070E00E949A1323
:100BC00080936B01FC01E358FF4FE491C33071F453
:100BD00080916A0190E0019663E170E00E948613C3
:100BE00080936A01855C9E4FDC01CC91CC23E1F1BE
:100BF000C13011F0EE0FC2E08E2FB9DC8C2FA5CFE3
:100C0000D830A9F49091B7016FE0911101C063E071
:100C1000862351F480916B0190E0019666E070E0CC
:100C20000E949A1380936B01E0916B01B4CF2091E5
:100C3000B701222381F080E09D3118F4E0E0C6CFB7
:100C40008E5FE82FF0E0E25BFE4F20819217C0F745
:100C50003197E081A0CF869563E00E947A13E92F57
:100C6000F0E0EE0FFF1FAFCFE0E0C6CF813019F408
:100C7000109293010895823019F4609392010895BF
:100C8000833019F460938E010895843011F46093D9
:100C90001B010895813061F491E0611101C090E081
:100CA00090930A01611101C08FE780931E0108959E
:100CB000823011F460931D010895CF93DF93CDB777
:100CC000DEB763970FB6F894DEBF0FBECDBF90912D
:100CD000D50191509C3150F480E063960FB6F894A2
:100CE000DEBF0FBECDBFDF91CF91F3CD82958F7068
:100CF0009091B701911108C0833020F4882369F3E3
:100D0000813059F382E0E9CF8330C1F783E1E8E233
:100D1000F1E0DE01119601900D928A95E1F7809144
:100D2000690190E0019663E170E00E948613809370
:100D30006901E1E0F0E0EC0FFD1FE80FF91F808191
:100D4000DDCFCF93282FCB01C0919101C11117C0E6
:100D5000283049F410928C0110928A011092890176
:100D60008C2FCF910895213B61F480918C018150AB
:100D7000833028F483E080938C0180938B01C1E061
:100D8000EFCF253BA9F46EE370E00E948613892B18
:100D900039F780918C018A3F18F78B5F80938C0123
:100DA00080938B0110928A0110928901A7DED8CF1F
:100DB000213029F78091890190918A010196883824
:100DC0002EE0920728F490938A0180938901C8CF7E
:100DD00010928A011092890180918C01882309F474
:100DE000BFCF815080938C01BBCFCF93833B09F061
:100DF00057C080910A01882381F0672B09F06AC0EF
:100E000080911E018E3F19F081E080931E01809138
:100E10001E01809580931E0124C0672B39F581E067
:100E200080936801109267019091050180911E01E5
:100E3000191614F58E3F18F48F5F80931E01C09130
:100E4000670180911E01C034E9F491E49093670139
:100E500091E0892780931E015FDE80911E018093BF
:100E600066018091B60143DD80E004C08091680195
:100E70008111DACFCF910895992309F38230F8F2E6
:100E80008150DBCF909166019813E7CFC11105C067
:100E900043DECF5FC0936701E0CFCF3FF1F2F9CFE0
:100EA000833EA1F4109268018091050181958093A1
:100EB000050180911E01811105C081E0809305012B
:100EC00074DCCFCF8E3FE0F38FEFF8CF843B11F48B
:100ED0008FE7A0CF81E0CECFFF920F931F93CF93E8
:100EE000DF938C01D62FC72FF42E8091D0019091E3
:100EF000D101892B31F0E091D001F091D10189E04D
:100F000009951093D1010093D001012B41F0E0919C
:100F1000D001F091D1016D2F7C2F8F2D099581E0AB
:100F200080939501DF91CF911F910F91FF900895CC
:100F3000CF93DF93E091BF01D0E0C0E0EE2351F00A
:100F4000E150E093BF01F0E0EE0FFF1FE054FE4FD1
:100F5000C081D181E091BF0190E080E0EE2341F0BB
:100F6000E150FF0BEE0FFF1FE054FE4F8081918197
:100F70004AE070E060E0B0DFCE01DF91CF910895EC
:100F8000883039F41092860110926C0180E0AFDC59
:100F90000CC08130F9F490916C01911108C060325D
:100FA000710518F080936C01AFDA80E008959130FC
:100FB00079F46B3B710520F082E080936C01E6CF01
:100FC0006115710591F3862F880F84708E5EDFCFD7
:100FD000AFDFEBCF813811F0813E39F791E090938C
:100FE0006C01813E41F480918601865F8093860189
:100FF0008BDA8BE4CCCF809186018F5FF7CF209185
:10100000BF01283080F4E22FF0E0EE0FFF1FE05424
:10101000FE4F808391832F5F2093BF0148E05CDF08
:101020008091BF0108958FEF08950F931F93CF9381
:10103000DF93D82FC92F8B017BDFB8018D2F9C2F19
:10104000DF91CF911F910F91DACF282FCB01213C57
:1010500039F470E060E088E898E0E7DF80E0089528
:10106000223C29F470E060E08EE498E0F6CF213B6A
:1010700041F46EE370E00E948613892B79F73EDD20
:10108000EDCF213E49F46EE370E00E9486136F5F5E
:1010900060930B018ADBE2CF81E00895CF93C0918A
:1010A0009101C11119C0813C41F470E060E088E811
:1010B00098E0BBDF8C2FCF910895823C29F470E03B
:1010C00060E08EE698E0F5CF873B31F470E060E0B9
:1010D00084E09AE094DFEECFC1E0ECCF813C39F4BC
:1010E00070E060E088E898E0A0DF80E00895823C4E
:1010F00029F470E060E085E298E0F6CF873B31F4B8
:1011000070E060E088E09AE07ADFEFCF81E0089558
:101110000F931F93CF938B018830B9F480E0E7DB06
:1011200060E080910F0102DD80910D01C6DD10921B
:101130008C01012B31F0C0E08C2FCF911F910F91CA
:10114000089581E08093B701F6CF813061F4693171
:10115000710588F38093B70180910F01E7DC8091DE
:101160000D01ABDDE8CF833069F520919301222397
:1011700081F08091920190E062EC71E00E94501346
:101180000817190730F020931C0180918701809384
:101190001E01602F80910F01C9DC80910D018DDD52
:1011A00080918801882339F290E062EC71E00E941E
:1011B00050138017910708F0BECF70E060E080E127
:1011C0009AE016C0813BB1F481E090E05CDA8FDBFD
:1011D00080918E018111AFCF80918F01811104C068
:1011E0000831110508F4A7CF61E070E08DE99EE0B9
:1011F0001CDFA1CF813EC1F3813831F480911C0105
:1012000090E041DA74DB97CF6091B60170E0813CE9
:1012100069F3823B71F480911B01909191019111CE
:1012200080919001811103C086E990E0EACF86E9C0
:10123000E9CF823E11F480E0E5CF66E970E0823CC0
:10124000A9F28339C1F3843C29F470E060E08EE4B4
:1012500098E0CECF833C11F451DCAFCF8D3B41F40D
:10126000F89488ED8FBD88E880BF7894A895FFCF6B
:101270008F3C29F470E060E081EB93E0B9CFC0913E
:1012800091018A3B81F4012B09F068C0CC2329F03D
:1012900035DC1092910189DA4ECF70E060E088EF82
:1012A00099E0ADDE49CFC11159C08A3C31F426DC4A
:1012B00081E08093910179DA3FCF833B31F470E094
:1012C00060E08AE69DE0B1DE37CF873C91F49091F3
:1012D0000F01892F82958F708F5F83708295807F39
:1012E0009F70892B80930F0160E020DC5EDA06DCC2
:1012F00023CF883C79F490910D01892F82958F70CE
:101300008F5F83708295807F9F70892B80930D0102
:10131000D4DCD1CF873BB1F4C8018F739927892BD7
:1013200061F420910F01822F8F708F5F207F6BE01F
:101330000E947A13922B90930F01602F80910F01DE
:10134000F5DBFACE873E09F4B6CF893B39F4012BA1
:1013500029F470E060E080E09AE0A3CFC1E0ECCE39
:10136000582FCB01F901583089F410926D0180E0BB
:10137000BEDA8091B80181111DC081E080936D01BA
:1013800070E060E080EC97E03ADE14C0252F207F0B
:10139000203BB9F420916D01421788F06DE570E0B3
:1013A0000E948613029741F42F5F20936D0188E31A
:1013B000421718F480E0089582E199DAFBCF80E0CB
:1013C000FCCF203E41F480916D01882311F0481735
:1013D000B8F6AEDDEFCF5A3069F7609186018091A3
:1013E0006D010995E2D9F5CF24E033E043E0B8CFB1
:1013F00024E033E044E0B4CF26E336E044E0B0CF6D
:101400002AE436E042E0ACCF23EB33E041E0A8CF62
:1014100027EB33E042E0A4CF22ED33E041E0A0CF60
:101420000F931F93CF93DF93D82F8B01873B79F4D2
:1014300080E05DDAC0919101C111B1C0DA3B09F0E1
:101440006EC070E060E08CE09AE0D9DD26C0807963
:10145000803949F520911601909117018D2F8F70D9
:10146000823049F480919301811108C0822F29179D
:1014700028F4892F03C0822F9217D8F338DAD23C90
:1014800079F5C09193016C2F70E0C1112FC060916C
:101490001C0170E08DE99EE0C8DD8C2FDF91CF91BB
:1014A0001F910F910895803811F480E0E7CFD83074
:1014B00009F077C060E080910E0138DB80910C016B
:1014C000FCDBB8CF0931110548F0D093B701602F8C
:1014D00080910E012BDB80910C01EFDBC0E0DDCFB2
:1014E000D23B41F41092140261E070E08DE99EE07D
:1014F0009CDDF4CF70E060E088E898E0D33CC1F375
:10150000D33B09F097CFC0919101CC2329F086E914
:1015100090E0B9D8ECD9E2CF86E9E9D9BECFD73C83
:1015200091F490910E01892F82958F708F5F837057
:101530008295807F9F70892B80930E0160E0F6DAA0
:1015400034D9DCDAAACFD83C81F490910C01892FF0
:1015500082958F708F5F83708295807F9F70892BBB
:1015600080930C01AADB21D998CFD73BB1F4C801F5
:101570008F739927892B61F420910E01822F8F7030
:101580008F5F207F6BE00E947A13922B90930E0165
:10159000602F80910E01CADA80CFD73E21F3C1E0DF
:1015A0007CCFD13009F48ECFD33009F490CF67CF00
:1015B00086E884B91092DF011092E00183B188645B
:1015C00083B90895F5DFE1E6F0E0808182608083F1
:1015D000139A87EE83B908951092E10180B121B189
:1015E0004091B401829586958695837030E0220FF4
:1015F000331F220F331F820F932F911D840F80936F
:10160000B4018091D601882309F446C01092D60116
:101610008091DF019091B701992319F01F981092E2
:10162000DF01811148C0809121018823B1F18091AF
:10163000DB019091DC019093D8018093D701409613
:1016400096958795807F9F7761EC72E00E94861364
:10165000809120018750680F6093D50180918501AA
:10166000882301F18150809385018091B701811118
:101670000AC08EE884B981E08093DF011092E00116
:1016800083B1886483B980912101882329F08091F6
:10169000210181508093210108958091D70190917B
:1016A000D801CDCF6D3108F770E060E084E00E9492
:1016B000280285E0D8CF813031F780912101811156
:1016C0005BC02091D9013091DA01205F3F4FB90111
:1016D00045E0769567954A95E1F7A091D2010A2EEB
:1016E000000CBB0BCD018E50914056E036952795EE
:1016F0005A95E1F7280F391F3093D4012093D30175
:1017000090917401E92FF0E0EE0FFF1FEB58FE4FB0
:1017100020813181AB01421B530B718360839F5F3A
:10172000977090937401CA01880F991F880F991FB1
:10173000860F971F20911F0130E02A1B3B0B225F71
:101740003E4F220F331F821B930B23E018161906FE
:101750000CF041C001972150C9F7181619060CF07A
:1017600052C057FD6DC0209173011216CCF5281B95
:10177000209373011DDF87CF8091DD019091DE0101
:101780009093DA018093D901409635E0969587953C
:101790003A95E1F7909376018093750190937801E3
:1017A0008093770190937A018093790190937C01E3
:1017B00080937B0190937E0180937D0190938001C3
:1017C00080937F01909382018093810190938401A3
:1017D0008093830176CF009709F4BDCF0196BBCFEC
:1017E000880F991F61E070E08530910524F0039720
:1017F000BC017595679588E1861B8093730185E030
:101800000E942802B7CF8C3F2FEF9207CCF457FFEE
:1018100017C02091730127FF02C02450A8CF24EEE7
:10182000281B209373012091D5012F3108F4A2CFFA
:101830006CEF7FEF681B790B7595679586E0E0CFBD
:101840008091D5018E3108F495CF70E060E087E09B
:10185000D7CF843021F58091D0019091D1012DE036
:101860008A36920731F469E170E08DE99EE0DDDBB4
:101870000FC08D599E4071F49091B601923050F096
:10188000892F869596959695890F809394012FD8E8
:1018900080E0089570E060E088E898E0E8CF81E0BB
:1018A00008950F931F93CF931092BA018091120263
:1018B000909113029C012F5F3F4F88279078822BD5
:1018C000932B90931302809312029091B8012FB141
:1018D000822F8095881F8827881F8093B8019817CA
:1018E000B9F01092B7018093B80190911402892F3A
:1018F00027FD2CC080699F709F3031F580931402C2
:1019000090E080E00E948002109213021092120276
:1019100000911202109113028091B701882319F1EE
:10192000B80183E00E9428020E9443020F7311272E
:10193000012B89F51092720145DE83B1886483B969
:1019400081E08093D60121C08F5FD8CF8F7E95FD37
:1019500008C0806880931402809112029091130253
:10196000D1CF806CF7CFC09114028C2F807F803B49
:10197000B1F470E060E081E00E942802C8010E949A
:101980008002809172018823C1F2809172018F5F81
:101990008F7180937201CF911F910F910895B801BB
:1019A00081E00E942802C4FF0FC0C5FDE7CF0831C7
:1019B000110538F31092130210921202C062C09304
:1019C000140290E080E0DBCFCC23D9F2C5FF03C046
:1019D0000E948402D6CF0231110598F2C064C093F0
:1019E000140290E080E00E948002F2CF8091E10139
:1019F0008111F2DD8091BA01811153CF0895EF92E8
:101A0000FF920F931F93CF93DF93EC0108E017E051
:101A100082ECE82EFF24F394209741F481E0DF91DB
:101A2000CF911F910F91FF90EF90089580919501B4
:101A3000811117C08091B601823070F482E00E945B
:101A40002202C7010197F1F780E00E942202CEDF57
:101A50000E9443022197E0CF80E00E942202C80149
:101A6000F1CF80E0DCCF0F931F93CF93C82F06EA0E
:101A7000811102C008E0C1E010E086E40E94770412
:101A8000C801BDDF80E00E9477048AEF90E0B7DFF5
:101A9000C15099F78AE992E0CF911F910F91AFCF92
:101AA000CF93DF93282F64E625D6382FC92F892FAF
:101AB0006AE020D6D92F243650F0832FD4DF8C2F24
:101AC0006AE018D6D0DF8D2FDF91CF91CCCFCA300E
:101AD000B0F7F9CFDF92EF92FF920F931F93CF935E
:101AE000DF93C82F8B01D0910901D13071F4F090B0
:101AF0008C0127D9FF20A1F080918C01811110C0A9
:101B000070E060E088E898E090DAC83071F0C13C9D
:101B100009F0F8C070E060E088E898E086DA08C074
:101B2000C83081F481E08093030181E08093040157
:101B3000D0E08D2FDF91CF911F910F91FF90EF900B
:101B4000DF900895C23C61F410928C018D2F90E0DB
:101B5000019681709927809309010E94D503E8CFEF
:101B6000C13BC1F480910201012B41F49FEF863605
:101B700018F4823018F491E09093030190910301DE
:101B8000890F21F481E080930201D2CF8736D8F308
:101B900086E6F9CFC13E59F4809103018195809387
:101BA000030180910401819580930401D6CFC23B4B
:101BB00061F481E08093030180910201823008F496
:101BC000B4CF815080930201B0CFC13009F0AEC0D4
:101BD0000932110511F4C0930301D09065018D2DD8
:101BE000880FD7FC809590E069E070E059D5292FE7
:101BF000E09064018E2D880FE7FC8095D091010163
:101C00006D2F70E090E04CD5290FF09063018F2D7F
:101C1000880FF7FC8095C09100016C2F70E090E078
:101C20003FD5622F690F80910201680F7727771FD8
:101C300080918C01813091F48091890190918A0189
:101C400025E0969587952A95E1F724E730E0A901EC
:101C5000481B590BCA0124D5B90158D5862F0E94BB
:101C6000770400FD06C00E94A20281708D0D809352
:101C70006501809162018E0D809364010E94A20231
:101C800065E238D59F0D909363010E94A2028F7385
:101C900031F40E94A2026DE02DD590936201DD2304
:101CA00039F00E94A2028F7319F4D150D093010130
:101CB0000E94A202811108C00E94A2026EE01AD501
:101CC0009093010110926401C33038F00E94A20287
:101CD0008F7119F4C150C09300010E94A2028F7746
:101CE00029F40E94A2028770809300010932110535
:101CF00019F481E0809304018091B401080F0093EE
:101D0000B40116CFC23C09F421CFC13B09F410CF76
:101D1000C13E09F446CFC23B09F407CFC23E09F4E5
:101D20001CCFD1E0C13009F004CFE0CFC13C09F4B1
:101D3000F1CEC23E09F0FDCE10CFAF92BF92CF924E
:101D4000DF92EF92FF920F931F93CF93DF93C82FF1
:101D50008B01B0901A01E0901901C0908F01D090D2
:101D60008D01C11002C0DD24D39480911B01D0915C
:101D70009101D11180919001882309F440C08130F4
:101D800021F080911C018E15D0F1A6E9FA2EA090C9
:101D90008C01B8018C2F0E94A10660918C016623F2
:101DA00009F4D3C1A11004C08091B60180937001E1
:101DB000C83029F0CA3029F500911C0110E0B01696
:101DC000110630F4E016110619F010F000931C0112
:101DD000C8010E944303809394010E94770481E02C
:101DE00080930601D0E08D2FDF91CF911F910F914D
:101DF000FF90EF90DF90CF90BF90AF900895FE2CB2
:101E0000C6CFC13C09F4A4C1C23C99F48091B6018B
:101E10008F1550F4F09294018F2D0E9477048091D9
:101E2000B60180937001DECF80911C0180939401F4
:101E3000F4CFC33C41F480E00E94770470E060E09E
:101E400080E19AE089C18FE48C0F823008F04AC0AB
:101E50006091100170E0C801CC2011F068E170E0E1
:101E600055D4892B09F0BECF2091B601011511057B
:101E7000E1F4C23BA1F48FEF80930601809106014B
:101E80006D2D70E0082E000C990B0AD42091B6013C
:101E9000820F911D0E94430380931C01C7CF2E1512
:101EA00050F7B21658F381E0E7CFE0911001F0E06F
:101EB000CF0166E371E0F4D38017910710F42E157B
:101EC000D0F6CF016CE672E0EBD380179107B0F645
:101ED000B216A0F20E947E0570E060E080E19AE018
:101EE000A4D8CCCF8FE18C0F823020F480910601F2
:101EF000819576CFC13009F0B1C00932110511F4D6
:101F0000C0930601662389F0809170016150770BC0
:101F100090E0C6D360918B0170E00CD4611101C0D8
:101F200061E06093B501609394018091B501909157
:101F3000B601482F491B550B9A0160916E017091B3
:101F40006F016F5F7F4F70936F0160936E01452B40
:101F500009F448CF40E052E037FF06C040E450E0CB
:101F6000933810F440E051E05695479537FF02C092
:101F70002F5F3F4F3595279521153105A9F7461756
:101F8000570708F02FCF891708F04AC08FEF890F45
:101F9000CFEFC80F2C2F30E0220F331FD901A452EE
:101FA000BD4FFD016591749140911502509116024B
:101FB000C91708F03AC04115510509F036C06F3F06
:101FC00091E0790709F0CBC0709316026093150277
:101FD00020553E4FF9014591549198B39417150639
:101FE000A8F598B39F5F98BBFD01659174914091EE
:101FF0001502509116026417750769F498B3F90138
:10200000259134919217130631F4C091B5010E94C5
:102010007704C093B50110926F0110926E01E2CE69
:10202000981708F0B5CF81E0B2CF4617570738F4BC
:102030004F5F5F4F5093160240931502C9CF64174C
:10204000750708F0C5CF41505109F4CF98B39417E4
:10205000150651F248F298B39150C5CFC53099F4A6
:102060008091B601823408F4BDCE90E0801B910BC4
:1020700081349105DCF08739910510F086E990E014
:102080008093B501AFCEC630A1F49091B601809196
:102090009401981708F0A6CE090F111D90E0801743
:1020A000910774F3C8010134110554F781E490E0FD
:1020B000E7CFC73069F49091B5018091B6018917D7
:1020C00010F48F5FDDCF981708F08CCE8150D8CFF9
:1020D000D11139C0C43CC9F481E0C11080E08093C3
:1020E0008F010E94D5030E948C058091B60190E07B
:1020F0000E94430380931C01809394010E94770403
:102100008091B601809370016ECE70E060E084EF44
:1021100099E0C73BA9F0CA3C69F48091B60180936D
:10212000930180911E01809387010E94D5030E9434
:102130007E0559CECA3B39F470E060E08CEF99E03F
:102140000E94FF0750CED1E04ECEAA2009F430CE37
:1021500070E060E088E898E00E94150843CE672BA5
:1021600009F066CF35CF2F932FB72F933F938F93DF
:102170009F93AF93BF93EF93FF938091E0018823E8
:10218000E9F0E091DF0120B131B1F0E0EE0FFF1F87
:10219000DF01A552BE4F2D933C93E952FE4F808143
:1021A00091818217930708F401962817390708F4DC
:1021B00001979183808381E08093E10181E08093A6
:1021C000E001FF91EF91BF91AF919F918F913F916E
:1021D0002F912FBF2F9118958F9381E08093BA0193
:1021E0008F9118958F9381E08093B9018F91189505
:1021F000F89485B7877F85BF90E088ED0FB6F89497
:10220000A8958FBD90B7977F90BF0FBE81E088B92A
:1022100098E09CB99FE790BB92EA9093720091E19D
:102220009093710091E89BBB8ABB8FEF91E09093F4
:1022300069008093680080E882BB87BD8CB78860A6
:102240008CBFA89580E480BFBDD9789481E00E94BE
:102250008E0270E060E089E29CE00E94FF0710922D
:1022600095010E947E059FB1892F8095881F882740
:10227000881F8093B80197FF8DC082E00E948E0274
:10228000F89480E890E08BD2853A09F0B8C006E96E
:1022900011E0C1E8D0E0CE0182D2F80181938F0134
:1022A0002196CF39D105B9F7789480919601809322
:1022B0008F018091970180931601809198018093FE
:1022C0001301809199018093100180919A0180936C
:1022D000170180919B018093140180919C01809350
:1022E000110180919D018093180180919E0180933E
:1022F000150180919F01809312018091A00180932C
:1023000091018091A101809390018091A20180931D
:102310008E018091A30180931B018091A401809381
:1023200093018091A501809392018091A6018093F1
:1023300087018091A70180931E018091A80180935D
:102340000A018091A90180931D018091AB018093C6
:102350000B018091AC0180931F018091AD018093AE
:10236000D2018091AE01809320018091AF018093D2
:102370000F018091B00180930E018091B101809393
:102380000D018091B20180930C018091B301809383
:10239000880136C0C0E08C2F0E94770483E190E072
:1023A0002EDB8C2F86950E94770483E190E027DB5B
:1023B0009FB1892F8095881F8827881F8093B80137
:1023C00097FD1AC0CF5FC03431F765E181E00E940C
:1023D000B7030E94D503C6E98C2F0E94770484E0DE
:1023E00090E00DDBC150C1F748CF8C2F0E947704DD
:1023F0008DE090E004DBC150C111F7CF3ECF78945F
:1024000080919301811180931C0170E060E085EF61
:1024100096E00E94FF0761E070E088E898E00E9483
:10242000FF0743E4442E52E0552E60E4662E7724E5
:10243000739478E8872E78E0972ECC24C394D12C1F
:102440000E9443028091BD019091BE01009751F01E
:102450006091BB017091BC010E9415081092BE01F1
:102460001092BD018091B701882339F180E00E946C
:102470007704A89540BE1F989FB1892F8095881F2B
:102480008827881F8093B80197FFF6CF0E948402A7
:102490008CB788608CBF1092E1011092BA01109243
:1024A000B9018091B70181112BC0509221018CB7E5
:1024B000877F8CBF87D8A89560BE98DA1092950167
:1024C0008091D0019091D101F3E0813B9F0709F009
:1024D00037C0C0E7D0E0FE0184918053C4DA8CE2BB
:1024E00091E08DDA2196F0E0CC37DF07A1F79092EA
:1024F000BE018092BD011092BC011092BB01A0CF21
:1025000086B78F79806486BF86B7806186BF8895DD
:1025100086B78F7E86BF8091B90181111092B70175
:102520008091E101882329F0709221017092D601F7
:1025300053D88091BA01882309F4B3CFB2D9B1CF6F
:102540002DE08A36920709F070C08091090181114F
:1025500077CF0E94A2028F73082F10E00E94A20280
:1025600067E0C8D0E60102C0CC0FDD1F9A95E2F704
:102570000E94A20265E0BED0F60102C0EE0FFF1F6E
:102580009A95E2F7CE0FDF1F0E94A20290E0BE01F3
:10259000D1D0C80FD91FC739D10514F0C6E9D0E092
:1025A0008C2F0E947704C8012ADA7E0133E0F5946B
:1025B000E7943A95E1F7E11002C0EE24E394F12CA0
:1025C000C8011DDA5E01AE18BF08E501B7FE02C002
:1025D000D0E0C0E08C2F0E9477040E94A20283709A
:1025E00039F4C8010CDACE01959587950E947704DD
:1025F000F2E0AF16B10424F70E94A2026DE07AD097
:10260000860102C0000F111F9A95E2F70E94A202F4
:10261000E801219790E0C823D923C00FD11F80E0A3
:102620000E947704CE01EBD90BCF28E08E349207BD
:1026300051F48091D50134DA80919101811157CF05
:1026400088EE93E0F0CF38E08E36930721F4809146
:10265000D30126DAF5CF85529840B9F48091B801BC
:102660008111EECE80911C010E94770484E690E0F7
:10267000C6D980E00E94770480910B0190E068EE5B
:1026800073E00ED084569109CECF86B78F7986BF7E
:1026900086B7806186BF889586B78F7E86BFD0CE8D
:1026A0000024552704C0080E591F880F991F009752
:1026B00029F076956795B8F37105B9F7802D952FB8
:1026C0000895EE27FF27AA27BB2708C0A20FB31F34
:1026D000E41FF51F220F331F441F551F9695879542
:1026E0007795679598F37040A9F7009799F7BD0122
:1026F000CF010895991B79E004C0991F961708F03F
:10270000961B881F7A95C9F780950895AA1BBB1B55
:1027100051E107C0AA1FBB1FA617B70710F0A61BE1
:10272000B70B881F991F5A95A9F780959095BC0102
:10273000CD01089597FB072E16F4009406D077FD7F
:1027400008D0E4DF07FC05D03EF4909581959F4FBB
:102750000895709561957F4F0895A1E21A2EAA1BE6
:10276000BB1BFD010DC0AA1FBB1FEE1FFF1FA21741
:10277000B307E407F50720F0A21BB30BE40BF50B3E
:10278000661F771F881F991F1A9469F760957095C7
:10279000809590959B01AC01BD01CF010895E19911
:1027A000FECF1FBA8EBBE09A99278DB30895262FCE
:1027B000E199FECF1FBA8EBBE09A81500DB202168E
:1027C00039F01CBA2DBB0FB6F894E29AE19A0FBE0D
:0627D0000895F894FFCF0C
:1027D600080E180101010100040101021929192935
:1027E6000107058282820A0A0A820A014615802D9D
:1027F600070216011301100102010000000000008B
:1028060000010000000000000000010201000000BD
:1028160000000000010000000000000000010000B0
:10282600210123022503270429052C06FF0605049A
:0228360003009D
:00000001FF
