:10000000E9C003C1F2C201C100C1FFC0FEC0FDC012
:100010007EC3FBC0FAC0F9C0CAC3F7C0F6C0A8CD02
:1000200089CDB5CDBFCDC9CDD6CDF1CD5C1660178C
:10003000641868196D1A711B751C791D7D1E821F4D
:1000400086208A218E22922396249B259F26A327F1
:10005000A728AB29B02AB42BB82CFF0B0000000056
:10006000A60EF9154C1DF22B3E498A6601020304C7
:1000700005060102030405061A88FFFFFFFF191990
:100080001F386AFF1AB9FFFFFF1919295AFFFFFF2E
:10009000FFFF1D2D56FFFFFFFF1B3AFFFFFF2DFF48
:1000A000FFFF187EFFFFFFFF19191E335EC918AA54
:1000B000FFFFFF19192750C9FFFFFFFF1B2A4DC97A
:1000C000FFFFFF1A35C9FFFF2AC9FFC919191919FE
:1000D0001919191919191919191919191919191990
:1000E0001919191919191919191919191919191980
:1000F0001919191919191919191919191919191970
:100100001A1A1B1B1C1C1D1E1E1F2020212222230D
:10011000242526262728292A2B2C2D2E2F31323331
:10012000343537383A3B3C3E4041434546484A4CDB
:100130004E50525457595B5E606366696C6F7276BD
:10014000797D8185898D92979CA1A7ADB3BAC1C9EC
:100150000607080A0B0C0E0F11131517191B1E208A
:100160002326292C3033373B3F44484D52575C629D
:10017000676D737A80878E969DA5ADB6BFC7D1DABD
:10018000E4EEF8FFFFFFFFFFFFFFFFFFFFFFFFFFB2
:10019000FFFFFFFFFFFFFFFFFFFFFFFFFFFFFFFF6F
:1001A000FFFFFFFFFFFFFFFFFFFFFFFFFFFFFFFF5F
:1001B000FFFFFFFFFFFFFFFFFFFFFFFFFFFFFFFF4F
:1001C000FFFFFFFFFFFFFFFFFFFFFFFFFFFFFFFF3F
:1001D000FFFFFFFF11241FBECFE5D2E0DEBFCDBF82
:1001E00010E0A0E6B0E0EEEEFCE102C005900D925A
:1001F000AA39B107D9F720E0AAE9B0E001C01D9201
:10020000A43FB207E1F7E2D770CDFACE20ED37E098
:10021000019720F0F9013197F1F7FACF0895909105
:10022000EC00992349F0882321F083E187BBC49A2D
:10023000089583E087BBC4980895853821F48FEF33
:1002400089BD88BD0CC0815090E0FC01E453FF4F94
:100250002491FC01E05BFE4F849189BD28BD809113
:10026000E800882311F080E0DACF0895CF93DF9380
:10027000E091ED00F0E0E459FF4F84918093E200BB
:100280001092CE001092D8009091F200992349F07C
:100290009091F1009093D90099E19093CF0092E072
:1002A00001C091E020E030E0482F50E0692F70E07D
:1002B000241735072CF5A091ED00B0E0AA0FBB1F65
:1002C000AC59BF4FED91FC91E20FF31FE491E901AE
:1002D000C60FD71FDE01A852BF4FEC93A091ED00CF
:1002E000B0E0AA0FBB1FA458BF4FED91FC91E20FE5
:1002F000F31FE491C253DF4FE8832F5F3F4FD8CF06
:10030000890F8093E200DF91CF910895811108C099
:1003100019BC18BC8091E800882319F081E07FCFD8
:100320008CCF089581E08093CD0095E09093F1000B
:100330008093CB0092E09093E60093E09093ED00E1
:100340008093F2001092CC001092F0008093EF00A6
:100350001092E3008093EC000895CF93DF931F92F7
:10036000CDB7DEB79FEF98BD99BD90E069834EDFB2
:1003700019BC6981862F90E00F90DF91CF9146CF15
:100380008091CD008093B9001092CD001092F300BF
:100390008BE58093BB0080E042CF8091B9008093D1
:1003A000CD001092C6008091CD00882319F01092E4
:1003B000BB0008958091BA008093BB000895DF923E
:1003C000EF92FF920F931F93CF93DF93C82F8B0170
:1003D0007B01EE0CFF1CEE0CFF1CD4E699E1D92E3C
:1003E000CC2371F081E01BDFD9BDD8BCC8010EDF82
:1003F00080E015DF19BC18BCC70108DFC150F0CF81
:10040000DF91CF911F910F91FF90EF90DF900895B2
:100410000F931F93CF93DF93C82FD62F14E609E1D4
:10042000CC2301F18091BB008D131CC081E0F7DE6D
:100430008091EC00882321F08091E300811102C0BB
:1004400019BD08BD8AEF90E0E1DE80E0E8DE19BC6E
:1004500018BC87E791E0DADE8091BB008D1302C003
:10046000C150DECFDF91CF911F910F9108951F935F
:10047000CF93DF93D62F6AE0FDDB192F6D2FC8DFF6
:10048000C091BB00CD1310C080E293E0BFDE6C2FA3
:10049000812FBEDF8091BB008C1306C080ED97E0FA
:1004A000DF91CF911F91B2CEDF91CF911F9108952F
:1004B000EF92FF920F931F93CF93863018F006E9C7
:1004C00010E002C00AEF10E07801EE0CFF1CC82F0C
:1004D000CC23D1F019BC18BCC80198DE81E09FDEA6
:1004E0008091CD00882321F08091E5000FDF06C0C8
:1004F0008091CA009091E40099BD88BDC70186DE55
:1005000080E08DDEC150E4CFCF911F910F91FF901D
:10051000EF900895EF92FF920F931F93CF938C016A
:100520007C01F594E794C62FCC2351F081E077DE6F
:10053000C8016CDE80E073DEC70168DEC150F4CF15
:10054000CF911F910F91FF90EF900895CF93C82FF7
:1005500068E270E082E033DF80EF90E057DE64E62F
:1005600070E08C2F2CDF1092BC00CF91089586B3E1
:1005700083FB882780F991E098278091A400880F59
:10058000892B8093A4009091A300992311F08F7080
:1005900001C081708093A3008091A30090E0089532
:1005A0008091BB00803120F48091BB008093BA0021
:1005B0008091BB008F5F8093BB009091E200891710
:1005C00010F01092BB0008958091BB008093BA0098
:1005D0008091BB00811103C08091E20002C0809134
:1005E000BB0081508093BB00089518958EBB6DBBF6
:1005F00084E28CBB86E28CBBE199FECF0895CF9359
:10060000DF932091BB008091ED009091CD00880F89
:10061000880F880F979599279795692F682B622BDC
:100620006093EE002091CC003091F0009091F100A9
:100630008091CB00330F990F990F932B922B8295BA
:10064000880F807E892B8093C9004091C80050910B
:10065000EC003091EF009091E3008091F2007091F6
:10066000E600550F330F330F352B342B990F990FAD
:10067000990F292F232B8295807F982F922B872FDC
:100680008295880F807E892B8093EA00C091A50017
:10069000D091A600CE0104968F7799279093A6005B
:1006A0008093A500A3DF8091A5006091C9008F5FB2
:1006B0009DDF8091A5006091EA008E5F97DFCEBB41
:1006C00084E18CBB86E18CBBE199FECF8C2F8F5FE0
:1006D0008EBB84E18CBB86E18CBBE199FECF8C2F75
:1006E0008E5F8EBB84E18CBB86E18CBBE199FECF33
:1006F000CD5FCEBB84E18CBB86E18CBBE199FECFA4
:100700008091A5006DE58D5FDF91CF916FCF1F9236
:100710000F920FB60F9211242F933F938F939F93B5
:1007200084B195B12091AA00213039F49C0136950D
:100730002795369527952093AC002091AA00233069
:10074000E1F4835191402091AB002223A1F020914C
:10075000AB0030E02817390728F42091AB002F5F59
:100760002093AB002091AB0030E08217930728F470
:100770008091AB0081508093AB008091AA008F5F85
:100780008093AA00843010F01092AA008091AA00F1
:10079000823010F481E801C08FE887B99F918F9172
:1007A0003F912F910F900FBE0F901F9018951F92A1
:1007B0000F920FB60F9211242F933F934F935F9395
:1007C0006F937F938F939F93AF93BF93EF93FF9319
:1007D0008091EB00882321F081508093EB00E5C4E9
:1007E0008091A8009091A900892B49F08091A800E0
:1007F0009091A90001979093A9008093A800B7DE7B
:100800002091B7003091B800892B09F4E5C1203D53
:1008100087E0380730F42F5F3F4F3093B8002093C4
:10082000B7008091B7009091B800823E24E0920713
:1008300091F42091C70021110EC01092C6001092B1
:10084000E5001092BB001092C50081E08093C000CB
:100850001092BF00AAC43091BF002091B000332392
:10086000B1F01092BC002111A0C48332910521F493
:100870008091BF008F5F08C08634910509F095C450
:1008800081E08093B0008FE08093BF008EC421117F
:1008900098C12091C700222349F0019709F0ABC00D
:1008A0008091C0008111A7C085E87BC02091CD0058
:1008B000222309F4A0C0429708F49DC08091C00093
:1008C000811199C08091C100811195C08091BB00B8
:1008D000803508F090C01092A2008091C500813050
:1008E00009F454C038F0823009F45EC0833009F452
:1008F00065C081C08091C600811121C081E08093D4
:10090000C50087E18093E7008091F10089BD89E10E
:1009100088BD8091E800882311F080E080DC8FEFB3
:100920008093C6008093E5008091C200811104C0CD
:100930008091C6008093C2001092C3005CC0809179
:10094000C3009091C400882329F09093C5001092B1
:10095000C30004C085E0891B8093C5008091C60058
:100960008F3FD9F08091C600843840F083E08093B7
:10097000C50084E88093E50060DC3DC08091C6003E
:100980008130C9F582E08093C50035C08091E700D1
:1009900081508093E70081112EC082E08093C500D2
:1009A00081E08093C600E6CF8093C4008091C600AA
:1009B0008438B0F48091C6008F5F09C08093C40072
:1009C0008091C600823060F08091C6008150809393
:1009D000C6008093E5008091C6008093C20008C0E5
:1009E00084E08093C50080E091DC87E090E00EDC3D
:1009F0008091E5008BDC8091CD00811135C0809124
:100A0000B7009091B800489779F58091C0008111A6
:100A10002BC08091BB00803190F48091C700811180
:100A20000EC08091CC00882311F0BADD1DC08091EA
:100A3000BB00813011F41092BB00C6DD15C080915F
:100A4000BB008B3588F08091F300811102C080914A
:100A5000630081508093F300E091F300F0E0EC56E6
:100A6000FF4F80818093BB008091B7009091B800C8
:100A70008434910509F072C08091B600823009F586
:100A80008091B3009091B4000E97D8F48091CD007E
:100A9000882329F08091C000813009F05FC0109256
:100AA000C6001092E5001092BB001092C500909114
:100AB000C00081E0282F291B2093C0008093C10033
:100AC0004DC08091C000811149C08091B600813035
:100AD00099F42091B3003091B4002E30310560F4C8
:100AE0009091CD0091113AC090E59093BB00809316
:100AF000C10019BC18BC32C08091BB008B3510F00E
:100B00004CDC2CC08091BB00803531F41092BB00CE
:100B100019BC18BC85E109C08091BB00823569F41D
:100B20001092BB0019BC18BC8EE08093BF001092DD
:100B3000BD0081E08093B00011C08091CD00811193
:100B40000DC08091E600882349F08091BB0080357C
:100B500029F08091C700811101C012DC8091C00092
:100B600081112FC08091C70081112BC08091CD00D1
:100B700081110FC08091B7009091B800803A910523
:100B800041F48091B600823021F08091BB00803525
:100B900059F48091CD008823A1F08091B700909105
:100BA000B800843F914069F41092BB001092C600D7
:100BB0001092C50019BC18BC81E08093BF00109250
:100BC000BD001092A1001092A00088E391E09093E4
:100BD000610080936000DFC21092B0008091BF007E
:100BE0008823A1F02115310559F02831310528F469
:100BF0008091BD008F5F8093BD001092BC00C7C282
:100C00008091BC008F5F8093BC00C1C2232B09F48C
:100C100049C18091C700882331F01092C60010921C
:100C2000E50080E073DB2091CD008091B7009091CA
:100C3000B800222309F488C01092C500429708F03A
:100C400077C08091B6008F5F8093B6008091B60028
:100C5000813009F076C08091BB0080939F00809125
:100C6000BB00803138F48091C600853819F48FEFCD
:100C700080939F008091BB00803541F08091BB0044
:100C8000813521F08091BB00823549F41092BB0080
:100C90001092C6001092E50081E08093C10080911F
:100CA000C60080939E008091C00081114AC080914F
:100CB000C100811146C08091C700811142C080915E
:100CC000C60081111FC08091C200811103C081E064
:100CD0008093C20081E08093C30092E09093C400AF
:100CE0009091C2009093C6009093E5009091EC0023
:100CF00091118093A70089EA93E09093A9008093D3
:100D0000A80004C01092C6001092E5008091E50092
:100D10008F3F61F48091F10089BD89E188BD8091A8
:100D2000E800882371F080E07ADA0BC0EFDA09C0BE
:100D30001092B6008091EC00882319F081E0809336
:100D4000A7001092C100A9C08831910508F089C0A0
:100D50008091BB00803541F08091BB00813521F04E
:100D60008091BB00823561F48091BB0080939F002D
:100D70001092BB008091B6008F5F8093B6008DC04B
:100D80008091BB00811106C08091B600811102C024
:100D900081E007C08091B600882329F08091B600D9
:100DA0008F5F8093B6008091C000811176C08091E2
:100DB000F000882399F08091B500882379F0809124
:100DC000BB0081110BC08091C700811166C080916A
:100DD000B5008093BB001092B5005FC08091BB004E
:100DE000803110F58091C700811157C08091BB0000
:100DF000882391F08091B3009091B4008B349105D9
:100E000058F08091BB008093B5008091BB00809327
:100E1000BA001092BB0041C08091CC00882311F031
:100E2000D3DB3BC0BDDB39C08091B3009091B400EF
:100E30008B34910510F0B1DA30C08091E60081303A
:100E4000D1F3E091F300EF5FE093F3008091630052
:100E5000E81788F7F0E0EC56FF4F80818093BB00E5
:100E60001CC084349105B8F48091B600813099F4A7
:100E70002091B3003091B4002E30310560F4909190
:100E8000BB00911108C09091E800891B8093E80095
:100E90008091E800C4D91092B6001092B40010926C
:100EA000B30075C18091B3009091B4000196909306
:100EB000B4008093B300892B31F480E395E79093DD
:100EC000B4008093B3008091B3009091B4000F9769
:100ED00008F4A4C08091B6008530B9F48091CD00AB
:100EE000882309F499C08091C000811195C0809138
:100EF000C700811191C081E08093C7001092C600A5
:100F00001092E5001092BB0038C08091B60084308A
:100F1000F9F48091CD00811105C08091C000882333
:100F200009F47AC08091C700811176C01092C60082
:100F30001092E5001092BB001092C5009091C00085
:100F400081E0282F291B2093C0008093C10064C03A
:100F500080919F0090EB980F923090F49091B600A2
:100F6000923009F059C0803511F481E501C082E565
:100F70008093BB0081E08093C10019BC18BC4CC0B9
:100F80008091CD00882309F447C08091C000811171
:100F900043C08091C70081113FC08091B60083306B
:100FA00041F480E58093BB0081E08093C10019BCCF
:100FB00018BC8091B600823079F580919F008F3FF8
:100FC000C9F48091E600882311F0DAD925C0809118
:100FD000C200843839F08091A2008093C6008093CB
:100FE000E50004C01092C6001092E5008091E50073
:100FF0008DD912C085E88093C6008091C600809389
:10100000E50084D980919E008093A20089EA93E054
:101010009093A9008093A8001092B6008091CB0015
:101020008230E8F18091CD008823E1F08091E500E5
:1010300082578D38A0F58091A0009091A100019673
:101040009093A1008093A0002091B1003091B20054
:101050002817390720F584E68093C6008093E500C1
:10106000ECD81DC08091BB008031C8F4E091BB007A
:10107000F0E0E253FF4F80818F3F89F48091A00020
:101080009091A10001969093A1008093A0002091DF
:10109000B1003091B2002817390708F495DA809131
:1010A000CD00882391F08091C600823070F080914D
:1010B000C600843850F48091B3009091B4008C3411
:1010C000910518F081E08093C300809160009091B9
:1010D0006100009729F00197909361008093600070
:1010E0008091600090916100892BD1F59091BB00B7
:1010F0008091CD00811104C081E0913041F408C09D
:101100009091E50081E0913019F09F3F09F080E077
:101110002091AC0030E0811103C08DE790E002C067
:1011200085E790E02817390734F480919D008F5FA0
:1011300080939D0004C010929D001092AE0080919B
:101140009D00883068F081E08093AF008093AE000E
:1011500010929D0088E391E090936100809360007D
:101160008091AE00882399F080919B0090919C0023
:10117000019690939C0080939B00843F914039F4AA
:1011800081E08093AD0010929C0010929B00109221
:10119000B8001092B70080919A008F5F80939A00F8
:1011A000837019F486B1886486B9FF91EF91BF917D
:1011B000AF919F918F917F916F915F914F913F91EF
:1011C0002F910F900FBE0F901F90189517BA88E0BF
:1011D00088BB85BB83E087BB81EA8ABD81E083BF92
:1011E00081E887B9A29A87EC86B9479A85B7877E46
:1011F000806185BFF8948BB78F7D8BBFA89584B72E
:10120000877F84BF81B5886181BD11BC8BD8109266
:10121000A6001092A5000091A5001091A60000382C
:10122000110508F022C5C80158D5F82E8093EE00AC
:10123000C801019652D5D82F8093C900C8010296E3
:101240004CD5C82F8093EA00C801039646D58D354A
:1012500039F00C5F1F4F1093A6000093A500DBCF61
:101260008F2D87708093BB008F2D869586958695F0
:101270008F708093ED00FF1CFF24FF1CF092CD00C7
:101280008D2F81708093CC00D1FB882780F98093CB
:10129000F0008D2F8695869587708093F100D2950A
:1012A000D695D770D093CB008C2F81708093C800D7
:1012B000C1FB882780F98093EC00C2FB882780F966
:1012C0008093EF00C3FB882780F98093E300C4FB81
:1012D000882780F98093F200C295C695C370C093A9
:1012E000E6008091EF008093E8008AEF90E0F5D46B
:1012F0009FEF980F9E3F10F480936200B7D7E09164
:10130000CB00F0E0EE0FFF1FE45AFF4F8591949160
:101310009093B2008093B1008091C800882359F067
:101320008091CD00811107C08091F400811105C02A
:1013300037D965D902C01092BB008091BB008111E2
:101340000CC08091CD00811104C08091C800811132
:1013500004C060E570E082E032D81092F4008AEFB9
:101360008093E90089E18093EB00F894A89581B51A
:10137000886181BD80E481BD7894A12CB12C512C71
:10138000CFEF58E3E52EFF24F39469E1962E0CEF9E
:101390001AE075E0C72ED12C88248A948091BF0072
:1013A00081118EC28091C0005816A9F05090C000E3
:1013B00019BC18BC6BE470E084E001D81092C10045
:1013C0008091C000882329F08091BB008093E900C0
:1013D00002C08092E9008091C700B81669F0B09011
:1013E000C7006CE370E082E0EAD78AEF90E00ED7A6
:1013F0006BE470E083E0E3D79091BB008091E9005B
:10140000981709F407C18091BB00803140F5209105
:10141000BB00822F90E0FC01E852FF4F30813093F7
:10142000E400FC01E253FF4F80818093CA00809169
:10143000CA009091E40099BD88BD211106C0809139
:10144000E800882311F081E004C08091E900811157
:1014500001C0E5D68091BB008093E900DBC080919C
:10146000BB008093E90019BC18BC8091BB0080359B
:10147000F1F480E991E0CAD61092C1008091BB00DE
:10148000803509F0C7C020E03091AC00822F90E099
:10149000FC01E45DFF4FE491E31710F42E5FF4CFFD
:1014A000FC01E35DFF4F849160E5E1D7E7CF8091D8
:1014B000BB00813579F48AEF90E0A8D61092C10084
:1014C0008091BB00813509F0A5C08091AB0061E53A
:1014D000CED7F6CF8091BB00823571F48AEF90E0D1
:1014E00095D61092C1008091BB00823509F092C060
:1014F00062E58CE0BCD7F7CF8091BB008B3549F417
:101500008091BB008B3509F085C069E28EE025D75C
:10151000F7CF8091BB008C35E1F48091BB008C3516
:1015200009F078C0D8E08091BB008C3511F0D8E08C
:101530000BC068E284E111D7D150A9F7F8CF60E57C
:1015400088E20BD7D15049F38091BB008C35B9F3B9
:10155000E4CF8091BB008D3529F58091BB008D359E
:10156000F1F4D4E08091BB008D3511F0DAE012C0C7
:10157000C9BDC8BD85E090E049D6C9BD98BC81E42D
:1015800090E044D6D15071F7F1CF88E490E03ED698
:10159000D15019F38091BB008D35B9F3DECF19BC62
:1015A00018BC38C08091BB008E35C1F48091BB005F
:1015B0008E3581F58CE291E029D66DE78DE7CDD6A9
:1015C0006DE78DE7CAD6DFE08091BB008E3571F7FD
:1015D00084E690E01BD6D150B9F7E8CF8091BB00EC
:1015E0008F35C1F48091BB008F35A1F48CE291E07E
:1015F0000DD660EF80EFB1D660EF80EFAED6D4E6C7
:101600008091BB008F3571F784E690E0FFD5D15013
:10161000B9F7E8CF8091AF00882309F446C08091E4
:10162000CD00882371F18091E5008823D9F18130C4
:1016300011F08F3F61F487E08093E50088E038D7B0
:101640001092C6001092E5001092C50013C083E00E
:101650002FD78091E500893050F090E0880F991FD6
:10166000880F991FB60112D36093E50003C081E093
:101670008093E5008091E50049D68AEF90E0C6D5D9
:1016800011C08091BB00882369F08091BB0081303C
:1016900011F488E001C083E00BD78091BB0080315A
:1016A00008F492D71092AF0034C08091AD00882327
:1016B00081F18091EC00882351F18091E80088232A
:1016C000A9F08091CD00882321F08091E50081115F
:1016D00008C08091CD00811109C08091BB00882392
:1016E00029F062E084EF91E015D711C080E097D532
:1016F00084EF91E08BD581E092D584EF91E086D59F
:1017000080E08DD584EF91E081D581E088D510927D
:10171000AD008091CB008130C9F59091AB008091F4
:101720006200981798F18091A8009091A900892BE8
:1017300069F58091CD008823C1F08091E5009BEC94
:10174000980F9A3C18F5282F30E066E093D2A90153
:10175000481B5109CA01453351050CF484E38093B9
:10176000E5008091E500D2D509C08091BB008823B7
:1017700069F08091BB00803148F426D71093A9000E
:101780000093A80063E084EF91E0C4D68091AE009E
:10179000882329F034EE632E37E5732E04C026E348
:1017A000622E772473948091CD00811104C08091C2
:1017B000BB00882349F08091CD00882309F45AC0EA
:1017C0008091E500811156C0D2D6892B09F052C014
:1017D0008091B3009091B4006816790608F04AC071
:1017E0008091AC008D3730F48091E800882311F0AF
:1017F00080E015D581E090E009D51092B4001092F8
:10180000B3001092A9001092A800F894A89584B78C
:10181000877F84BF81B5886181BD11BC789437987A
:101820001092B8001092B700A2D6892B21F080E167
:1018300090E0ECD4F9CF8BB780628BBF85B7806224
:1018400085BF85B7846885BF8B7F85BF889585B741
:101850008F7D85BF8BB78F7D8BBF81E887B9A29ABB
:1018600087EC86B9F894A89581B5886181BD80E43C
:1018700081BD78948091A700882309F48FCD1092C0
:10188000A7008091E500882309F488CD85538A3C20
:1018900010F4D2E001C0D1E08CE291E0B7D481E055
:1018A000BED48FEA90E0B2D480E0B9D4D23029F42B
:1018B0008FEA90E0ABD4D1E0F2CFD130E1F76ECD3A
:1018C0008091BD008A1571F0A090BD008091BD008F
:1018D000882341F082E389BD98BC84E690E096D4E9
:1018E00019BC18BC9091BF008091BE00981709F4F4
:1018F000A0C18091BF008093BE001092BC00809177
:10190000BF00873109F47CC0E0F48E3009F448C090
:1019100028F4813059F1833091F1DFC08F3009F420
:101920005AC0853109F0D9C080E991E06FD481E0D7
:101930000DD68091BF008F5F8093BF001092BD00D5
:1019400075C1883209F472C138F4883109F467C06E
:10195000893109F471C0C1C0843609F479C0853673
:1019600009F481C0893209F0B8C08CC080E991E0E7
:101970004DD481E0EBD58091BF008F5F55C1809140
:10198000BD00882359F08091BD00893038F48091E2
:10199000BD00809581708093CD0031D682E035C145
:1019A000C1D42DD68091EF008093E8005FD480E50C
:1019B0008093620060E58AEF19D6E091CB00F0E0F9
:1019C000EE0FFF1FE45AFF4F859194919093B20060
:1019D0008093B10028C11092BF0068E270E085E0FA
:1019E000EED41092C6001092E5001092BB008091D8
:1019F000CD00882309F41AC18091C60087D416C18E
:101A00008091BD00882351F28091BD008095817046
:101A10008093EF008091EF008093E800BECF80912B
:101A2000BD00882339F08091BD008095817080933E
:101A3000E300E5D583E0E9C08091BD00882309F487
:101A4000F2C08091BD00809581708093EC00EAC067
:101A500068E270E083E0B3D4C9BDC8BDF092A900CC
:101A6000E092A800E3C019BC18BC8091A800909136
:101A7000A900892B11F56091AB00609362008AEF99
:101A8000B5D51BC08091BD008823B9F08091BD0001
:101A9000873098F48091BD008F5F8093CB00AFD5E5
:101AA000E091CB00F0E0EE0FFF1FE45AFF4F85916D
:101AB00094919093B2008093B1008091CD008823DF
:101AC00021F084E043D585E003C088E03FD589E07C
:101AD0008093BF008093BE00A9C08091CD00882371
:101AE000C1F18091BF008530A1F0863079F184305A
:101AF00009F09CC08091BD00882309F49BCF8091A0
:101B0000BD00883008F096CF8091BD008093F10031
:101B10003CC08091BD00813019F41092CB0013C0FD
:101B20008091BD00823009F460C08091BD00833097
:101B300059F465C0882341F08091BD008095817083
:101B40008093F20093D35BD584E05FC08091BD00A9
:101B50005EC0E091BF008E2F90E0FC013497E7302B
:101B6000F10508F063C0E15FFF4F8091BD0009946B
:101B7000882309F45FCF8091BD008D3008F05ACFE3
:101B80008091BD0081508093ED0070D352CF8823A7
:101B900039F08091BD00809581708093CC002FD565
:101BA00085E033C0882339F08091BD008095817035
:101BB0008093F00024D586E028C0882351F08091DE
:101BC000BD00883030F48091BD008093F1004ED389
:101BD00016D587E01AC0813021F41092CB000FD5C2
:101BE00013C08091BD00823031F481E08093CB003E
:101BF00006D584E619C08091BD00833029F468E2DF
:101C000070E0DDD388E210C088E0A0D40FC0882344
:101C100051F08091BD00843030F48091BD0081503E
:101C20008093E600ECD48FE08093BF001092BD005B
:101C3000B5CB8091BD00882321F08091BC008E3708
:101C400070F48091BF00843609F4A8CB8091BD0068
:101C50008111A4CB8091BC008C3D08F49FCB809176
:101C6000BF008F5F8093BF0099CB1092A6001092A7
:101C7000A50037CB991B79E004C0991F961708F08F
:101C8000961B881F7A95C9F78095089597FB072EB4
:101C900016F4009406D077FD08D00BD007FC05D0D1
:101CA0003EF4909581959F4F0895709561957F4F73
:101CB0000895AA1BBB1B51E107C0AA1FBB1FA61793
:101CC000B70710F0A61BB70B881F991F5A95A9F7E5
:101CD00080959095BC01CD010895E199FECF9FBB01
:0E1CE0008EBBE09A99278DB30895F894FFCF3C
:101CEE0038015005CA00C600C000B800AE00A20000
:101CFE00A0009C0096008E0084007800CB00C800E7
:101D0E00C300BC00B300A800A1009E009900920081
:0A1D1E0089007E005B5C5D5E5F00E3
:00000001FF
