:100000006DC1000088C100000C94E90F84C100009C
:1000100082C100000C94E30F7EC100007CC100008F
:100020007AC1000078C1000076C1000074C10000F0
:1000300072C1000070C100000C94AA0F6CC10000D6
:100040006AC1000068C1000066C1000064C1000010
:1000500062C1000060C100005EC100005CC1000020
:100060005AC1000058C1000056C1000054C1000030
:10007000323032313131323930323632000105041A
:100080001410111500000000010001000200020020
:10009000030003000400040005000500060007003B
:1000A000080009000A000B000C000D000F001000F2
:1000B0001100120014001500170018001A001B0090
:1000C0001D001F00210023002500270029002B0010
:1000D0002D0030003200350037003A003D003F006F
:1000E0004200450048004B004F00520055005900A7
:1000F0005C006000640068006C00700074007800B0
:100100007D00810086008A008F00940099009E0087
:10011000A300A900AE00B400B900BF00C500CB0029
:10012000D100D700DE00E400EB00F200F800FF0091
:1001300007010E0115011D0124012C0134013C01B0
:1001400044014D0155015E01670170017901820191
:100150008B0195019E01A801B201BC01C601D1012C
:10016000DB01E601F101FC01070213021E022A0273
:10017000360242024E025B026702740281028E0264
:100180009B02A802B602C402D202E002EE02FD0205
:100190000B031A0329033903480358036803780340
:1001A00088039803A903BA03CB03DC03ED03FF0321
:1001B0000000000001000100020002000300030033
:1001C00004000400050005000600070008000900FF
:1001D0000A000B000C000D000F00100011001200AF
:1001E00014001500170018001A001B001D001F0046
:1001F000210023002500270029002B002D003000BE
:100200003200350037003A003D003F004200450013
:1002100048004B004F005200550059005C00600040
:10022000640068006C007000740078007D0081003C
:1002300086008A008F00940099009E00A300A90008
:10024000AE00B400B900BF00C500CB00D100D7009C
:10025000DE00E400EB00F200F800FF0007010E01F1
:1002600015011D0124012C0134013C0144014D0103
:1002700055015E0167017001790182018B019501D1
:100280009E01A801B201BC01C601D101DB01E6015A
:10029000F101FC01070213021E022A023602420289
:1002A0004E025B026702740281028E029B02A80268
:1002B000B602C402D202E002EE02FD020B031A03F0
:1002C0002903390348035803680378038803980314
:1002D000A903BA03CB03DC03ED03FF0311241FBE04
:1002E000CFEFD4E0DEBFCDBF11E0A0E0B1E0E4EDA0
:1002F000F5E202C005900D92A035B107D9F722E0D2
:10030000A0E5B1E001C01D92A330B207E1F70E9461
:10031000EF0F0C94E81274CEF89498ED9FBD83BF54
:1003200078940895482F362F272FE0EDF1E090E0E4
:1003300080E0508151110BC063E070E00E948A128E
:10034000FC01E053FE4F40833183228305C00196B8
:1003500033968031910569F70895EF92FF921F93CC
:10036000CF93DF931091D001111106C0DF91CF918F
:100370001F91FF90EF900895E090D101F090D2018D
:10038000C091AD01C1500C2E000CDD0BC7FD0EC09D
:10039000FE01EE0FFF1FE255FE4F0190F081E02DB0
:1003A000B701812F099521978111F0CFE0EDF1E0A0
:1003B000838180838481958192838183339681E0D8
:1003C000ED3FF807A9F71092FD011092FF0110927E
:1003D000FE01C8CFBC0180910202A4CF109202029C
:1003E000109201021092000281E080938201089530
:1003F0000F931F93CF93C82F08EA17E0C15020F442
:10040000CF911F910F91089582E086DFC801019777
:10041000F1F780E081DFF2CFE0910701F091080170
:100420003196FB70F460F0930801E093070180912E
:10043000A1018B5A8093A101E4918091A1018E0FBB
:100440000895CF93DF9300D00F92CDB7DEB7209100
:100450004B0130914C0140914D0129833A834B83EC
:10046000FE01319650E040E0682F70E0A1E0B0E07E
:100470009B01042E02C0359527950A94E2F7922F2E
:10048000937081919D0101C0220F8A95EAF799230B
:1004900029F09130C1F080B3822B19C080B3209530
:1004A000822380BB82B3822382BB81B3282321BBFA
:1004B0004E5F5F4F46305105D9F60F900F900F9069
:1004C000DF91CF91089590B3822F8095892380BBCF
:1004D00082B3822B82BB81B3282BE9CFCF93DF93EA
:1004E00000D000D000D0CDB7DEB720917D01409183
:1004F000BE015091BF014655584009F422E08430B6
:1005000059F460937E0126960FB6F894DEBF0FBEB5
:10051000CDBFDF91CF9108956623A9F3823019F4FE
:1005200097E9961B692F96E0E2E2F1E0DE01119671
:1005300001900D929A95E1F78150990B880F991FC0
:10054000A1E0B0E0AC0FBD1F8A0F9B1FDC01ED9155
:10055000FC91E20FF11D6083D6CFCF92DF92EF9234
:10056000FF920F931F93CF93DF939C0150917D01D6
:10057000E0911D0182E0E11101C0852F90E0DC01D6
:10058000A95EBE4F4C9140931B018C5E9E4FDC01D7
:100590008C9180931A01F0E0EF5EFE4FC181642FD1
:1005A00070E0552381F0C13071F4860F972F911DB3
:1005B00095958795DF91CF911F910F91FF90EF90C7
:1005C000DF90CF900895261737079CF18217130606
:1005D0008CF3511102C0822FEDCF841B6C2F615020
:1005E000770B8B01E82EF12CC7010E94BB126093A0
:1005F0007B016695E62FF0E0842FD12CC12CD0E052
:10060000DC17C1F2C601B8010E94A712842F860F21
:10061000A82FB0E0B9016A1B7B0B77FF03C0BD01B7
:10062000621B730BCE0CDF1CE617F7071CF6DF5FAF
:10063000E7CF842FBFCF81E008956111609320013F
:100640000895662369F0813099F48091C0019091FA
:10065000C101891B680F6093C00182E08093210172
:1006600080911F01873418F086E480931F0108955C
:10067000635E60931F01F4CF6093760108950F933A
:100680001F93CF93DF9380917D01809383018091AD
:1006900017018093840180911401809385018091DA
:1006A00011018093860180911801809387018091C8
:1006B00015018093880180911201809389018091B6
:1006C000190180938A018091160180938B0180919A
:1006D000130180938C0180911D0180938D01809185
:1006E0007E0180938E0180917C0180938F018091A7
:1006F0001C018093900180918001809391018091F1
:100700007F01809392018091730180939301809186
:10071000A3018093940180910D01809395018091B4
:100720000C018093960180910A018093970180913A
:100730000B01809398018091090180939901809128
:100740000E0180939A0180911F0180939B018091FB
:10075000C00180939C018091200180939D01809134
:10076000100180939E0180910F0180939F018091E1
:1007700076018093A00182E03BDEF89403E811E06B
:10078000C1E8D0E0F80161918F01CE010E94D6123C
:100790002196CF39D105B1F765EA80E890E00E9453
:1007A000D6127894DF91CF911F910F9108958823ED
:1007B00021F0813031F0829A05C0829892988A980F
:1007C00008958298929A8A9A0895CF93C82F809319
:1007D000A4018093A2018091A50181110BC031DE9B
:1007E00091E0C11101C090E081E0C33308F480E0E2
:1007F000890FDDDFC11112C010926D0010926C00E4
:1008000018BA10926B0010926A00889889988091AB
:10081000A401823058F582E0CF917ECDC150EC2FFB
:10082000F0E0EE0FFF1F8091A30181110FC0889AA5
:100830008998E055FE4F8591949190936D00809337
:100840006C0010926B0010926A00E1CF8898899A30
:1008500010926D0010926C0018BAEC57FF4F859102
:10086000949190936B0080936A00D1CF8A3010F4FA
:1008700081E0D2CF80E0D0CFCF93C091A40189E1B5
:100880008C0F873908F080E0A0DF83E0B1DD8C2F8A
:10089000CF919BCFCF93C091A40180E096DF83E0FE
:1008A000A7DD8C2FCF9191CF0F931F93CF93DF9321
:1008B000D82F862F9091C3012FEF290F2C3140F4B0
:1008C00080E0BFDD80E0DF91CF911F910F916FCF6E
:1008D000CD2FC295CF70DF702091A501211103C0EB
:1008E000C33008F0C2E0D730B0F40091580110E0F6
:1008F0000F5F1F4F91DD65E00E949B129801290F49
:10090000311DC90166E070E00E94BB12809358015E
:10091000ED2FF0E016C0D73089F50091580110E0B6
:100920000F5F1F4F79DD65E00E949B12D801A90F70
:10093000B11DCD0166E070E00E94BB1280935801AA
:10094000FC01E358FF4FE491C33071F480915701EB
:1009500090E0019663E170E00E94A7128093570136
:10096000885D9E4FDC01CC91CC23E1F1C13011F0C8
:10097000EE0FC2E08E2F65DD8C2FA5CFD830A9F405
:100980009091A5016FE0911101C063E0862351F4BD
:100990008091580190E0019666E070E00E94BB12E1
:1009A00080935801E0915801B4CF2091A5012223F2
:1009B00081F080E09D3118F4E0E0C6CF8E5FE82F33
:1009C000F0E0E55CFE4F20819217C0F73197E0819F
:1009D000A0CF869563E00E949B12E92FF0E0EE0F16
:1009E000FF1FAFCFE0E0C6CF813019F41092800135
:1009F0000895823019F460937F010895833019F4CB
:100A000060937C010895843011F460931C01089573
:100A1000813059F491E0611101C090E090930D0193
:100A2000611101C08FE78093A3010895CF93282F10
:100A3000CB01C0911D01C11117C0283049F410929B
:100A40007A0110927801109277018C2FCF9108953E
:100A5000213B61F480917A018150833028F483E056
:100A600080937A0180937901C1E0EFCF253BA9F40F
:100A70006EE370E00E94A712892B39F780917A010A
:100A80008A3F18F78B5F80937A01809379011092E7
:100A9000780110927701F0DED8CF213029F78091CC
:100AA000770190917801019688382EE0920728F41A
:100AB0009093780180937701C8CF109278011092BB
:100AC000770180917A01882309F4BFCF8150809308
:100AD0007A01BBCFCF93833B09F057C080910D01C2
:100AE0008823A1F0672B09F066C08091A3018E3F97
:100AF00019F081E08093A3018091A30180958093F8
:100B0000A3018091A40161DE80E029C0672B19F563
:100B100081E08093560110925501909105018091DA
:100B2000A3011916F4F48E3F18F48F5F8093A3018C
:100B3000C09155018091A301C034C9F491E4909310
:100B4000550191E089278093A301A4DE8091A30140
:100B500080935401D6CF809156018111DECFCF9181
:100B60000895992329F3823018F38150DFCF9091B3
:100B700054019813EBCFC11105C08CDECF5FC09339
:100B80005501E4CFCF3F11F3F9CF833EA1F410928A
:100B90005601809105018195809305018091A30103
:100BA000823028F481E08093050169DDADCF8E3F6E
:100BB000E0F38FEFF8CF81E0D2CFFF920F931F9336
:100BC000CF93DF938C01D62FC72FF42E8091BE01D7
:100BD0009091BF01892B31F0E091BE01F091BF01EE
:100BE00089E009951093BF010093BE01012B41F0EC
:100BF000E091BE01F091BF016D2F7C2F8F2D0995E3
:100C000081E080938201DF91CF911F910F91FF903E
:100C10000895CF93DF93E091AD01D0E0C0E0EE23E3
:100C200051F0E150E093AD01F0E0EE0FFF1FE2550F
:100C3000FE4FC081D181E091AD0190E080E0EE23D4
:100C400041F0E150FF0BEE0FFF1FE255FE4F808198
:100C500091814AE070E060E0B0DFCE01DF91CF919A
:100C60000895883039F4109272011092590180E091
:100C7000ACDD0CC08130F9F490915901911108C09C
:100C80006032710518F080935901A8DB80E0089567
:100C9000913079F46B3B710520F082E0809359012B
:100CA000E6CF6115710591F3862F880F84708E5EF3
:100CB000DFCFAFDFEBCF813811F0813E39F791E024
:100CC00090935901813E41F480917201865F809337
:100CD000720184DB8BE4CCCF809172018F5FF7CF00
:100CE0002091AD01283080F4E22FF0E0EE0FFF1FDD
:100CF000E255FE4F808391832F5F2093AD0148E042
:100D00005CDF8091AD0108958FEF08950F931F93DD
:100D1000CF93DF93D82FC92F8B017BDFB8018D2FA5
:100D20009C2FDF91CF911F910F91DACF282FCB010C
:100D3000213C39F470E060E089EF96E0E7DF80E085
:100D40000895223C29F470E060E08FEB96E0F6CF46
:100D5000213B41F46EE370E00E94A712892B79F7E2
:100D60008BDDEDCF213E49F46EE370E00E94A712C7
:100D70006F5F60930E0183DCE2CF81E00895CF9333
:100D8000C0911D01C11119C0813C41F470E060E0C7
:100D900089EF96E0BBDF8C2FCF910895823C29F438
:100DA00070E060E08FED96E0F5CF873B31F470E0C6
:100DB00060E082E698E094DFEECFC1E0ECCF813CCA
:100DC00039F470E060E089EF96E0A0DF80E00895FC
:100DD000823C29F470E060E086E996E0F6CF873B3C
:100DE00031F470E060E086E698E07ADFEFCF81E0F2
:100DF00008950F931F93CF938B018830A1F480E067
:100E0000E4DC60E0809110014FDD10927A01012B4B
:100E100031F0C0E08C2FCF911F910F91089581E0A8
:100E20008093A501F6CF813049F46931710588F3CB
:100E30008093A5018091100137DDEBCF833049F518
:100E400020918001222381F080917F0190E062EC6B
:100E500071E00E948A120817190730F020931E01D2
:100E6000809173018093A301602F809110011CDD9C
:100E700080917601882369F290E062EC71E00E9433
:100E80008A128017910728F670E060E08EE698E0FD
:100E900016C0813BB1F481E090E05FDB96DC80918D
:100EA0007C018111B6CF80917D01811104C0083190
:100EB000110508F4AECF61E070E087E69DE026DF23
:100EC000A8CF813EC1F3813831F480911E0190E0BA
:100ED00044DB7BDC9ECF6091A40170E0813C69F330
:100EE000823B71F480911C0190911D0191118091C0
:100EF0007E01811103C086E990E0EACF86E9E9CF5F
:100F0000823E11F480E0E5CF66E970E0823CA9F210
:100F10008339C1F3833C29F470E060E08FEB96E005
:100F2000CECF843C11F4A8DCAFCF8D3B41F4F894D4
:100F300088ED8FBD88E880BF7894A895FFCF8F3C5F
:100F400029F470E060E08BE193E0B9CFC0911D011E
:100F50008A3B81F4012B09F05FC0CC2329F08CDCA3
:100F600010921D018CDB55CF70E060E086E598E0C3
:100F7000B7DE50CFC11150C08A3C31F47DDC81E036
:100F800080931D017CDB46CF833B31F470E060E051
:100F900081EA9BE0BBDE3ECF853C31F46DDC70E046
:100FA00060E08FE19DE0F6CF873C91F490911001D5
:100FB000892F82958F708F5F83708295807F9F705D
:100FC000892B8093100160E06FDC59DB55DC22CF68
:100FD000873BB1F4C8018F739927892B61F4209165
:100FE0001001822F8F708F5F207F6BE00E949B1219
:100FF000922B90931001602F8091100155DC0ACF45
:10100000873E09F4BFCF893B39F4012B29F470E006
:1010100060E08EE598E0ACCFC1E0FCCE582FCB016C
:10102000F901583089F410925A0180E0CEDB8091AA
:10103000A60181111DC081E080935A0170E060E03B
:1010400081E396E04DDE14C0252F207F203BB9F4CC
:1010500020915A01421788F06DE570E00E94A712B6
:10106000029741F42F5F20935A0188E3421718F446
:1010700080E0089582E1A9DBFBCF80E0FCCF203E39
:1010800041F480915A01882311F04817B8F6C1DD68
:10109000EFCF5A3069F76091720180915A0109953A
:1010A000EEDAF5CF2EE632E043E0B8CF2EE632E0BE
:1010B00044E0B4CF24EF34E044E0B0CF28E035E0A2
:1010C00041E0ACCF2DE133E041E0A8CF21E233E0B5
:1010D00042E0A4CF2CE333E041E0A0CF0F931F9375
:1010E000CF93DF93C82F8B01873B79F480E06DDBD2
:1010F000D0911D01D1118DC0CA3B09F05AC070E0DA
:1011000060E08AE698E0ECDD26C08079803949F518
:1011100020911701909118018C2F8F70823049F423
:1011200080918001811108C0822F291728F4892F0E
:1011300003C0822F9217D8F348DBC43C49F5D09105
:1011400080016D2F70E0D1112AC060911E0170E006
:1011500087E69DE0DBDD8D2FDF91CF911F910F9111
:101160000895803811F480E0E7CFC83009F053C00B
:1011700060E080910F0198DBBBCF0931110530F0A1
:10118000C093A501602F80910F018EDBD0E0E3CFEB
:10119000C43B49F471DB1092020261E070E087E623
:1011A0009DE0B4DDF3CFC53C09F0A2CF66E970E065
:1011B000F6CFC73C91F490910F01892F82958F70E3
:1011C0008F5F83708295807F9F70892B80930F0142
:1011D00060E06ADB54DA50DBBECFC73BB1F4C80134
:1011E0008F739927892B61F420910F01822F8F70C3
:1011F0008F5F207F6BE00E949B12922B90930F01D8
:10120000602F80910F0150DBA6CFC73E11F437DA73
:10121000A2CFD1E0A0CFC13009F4AFCFC33009F4E1
:10122000B1CF8BCF86E884B91092CD011092CE0158
:1012300083B1886483B90895F5DFE1E6F0E0808149
:1012400082608083139A87EE83B908951092CF014C
:1012500080B121B14091A1018295869586958370D8
:1012600030E0220F331F220F331F820F932F911D67
:10127000840F8093A1018091C401882309F446C0A2
:101280001092C4018091CD019091A501992319F08C
:101290001F981092CD01811147C0809121018823B0
:1012A000B1F18091C9019091CA019093C6018093D8
:1012B000C501409696958795807F9F7761EC72E097
:1012C0000E94A712809120018750680F6093C3018C
:1012D00080917101882301F1815080937101809187
:1012E000A50181110AC08EE884B981E08093CD0107
:1012F0001092CE0183B1886483B980912101882343
:1013000029F08091210181508093210108958091DD
:10131000C5019091C601CDCF6D3108F770E060E056
:1013200084E000D885E0D9CF813039F78091210160
:1013300081115BC02091C7013091C801205F3F4FF0
:10134000B90145E0769567954A95E1F7A091C0010E
:101350000A2E000CBB0BCD018E50914056E0369505
:1013600027955A95E1F7280F391F3093C201209332
:10137000C10190916001E92FF0E0EE0FFF1FEF59DE
:10138000FE4F20813181AB01421B530B718360837F
:101390009F5F977090936001CA01880F991F880F13
:1013A000991F860F971F20911F0130E02A1B3B0BCE
:1013B000225F3E4F220F331F821B930B23E0181630
:1013C00019060CF041C001972150C9F718161906EB
:1013D0000CF052C057FD6DC020915F011216CCF584
:1013E000281B20935F011EDF88CF8091CB01909155
:1013F000CC019093C8018093C701409635E0969543
:1014000087953A95E1F790936201809361019093FB
:1014100064018093630190936601809365019093CA
:1014200068018093670190936A01809369019093AA
:101430006C0180936B0190936E0180936D0190938A
:10144000700180936F0176CF009709F4BDCF0196AC
:10145000BBCF880F991F61E070E08530910524F0C3
:101460000397BC017595679588E1861B80935F01A2
:1014700085E00E949201B7CF8C3F2FEF9207CCF40A
:1014800057FF17C020915F0127FF02C02450A8CF4B
:1014900024EE281B20935F012091C3012F3108F413
:1014A000A2CF6CEF7FEF681B790B7595679586E08F
:1014B000E0CF8091C3018E3108F495CF70E060E0F9
:1014C00087E0D7CF843021F58091BE019091BF0194
:1014D0002BE0813A920731F469E170E087E69DE004
:1014E00015DC0FC087569D4071F49091A401923095
:1014F00050F0892F869596959695890F8093810156
:1015000064D980E0089570E060E089EF96E0E8CF6C
:1015100081E008950F931F93CF931092A8018091BB
:101520000002909101029C012F5F3F4F8827907825
:10153000822B932B90930102809300029091A6013D
:101540002FB1822F8095881F8827881F8093A6013E
:101550009817B9F01092A5018093A601909102020C
:10156000892F27FD2CC080699F709F3031F58093B3
:10157000020290E080E00E94EA01109201021092C3
:10158000000200910002109101028091A5018823C0
:1015900019F1B80183E00E9492010E94AD010F731E
:1015A0001127012B89F510925E0146DE83B1886414
:1015B00083B981E08093C40121C08F5FD8CF8F7E33
:1015C00095FD08C08068809302028091000290918E
:1015D0000102D1CF806CF7CFC09102028C2F807FA7
:1015E000803BB1F470E060E081E00E949201C801AC
:1015F0000E94EA0180915E018823C1F280915E0120
:101600008F5F8F7180935E01CF911F910F9108952D
:10161000B80181E00E949201C4FF0FC0C5FDE7CF71
:101620000831110538F31092010210920002C062D5
:10163000C093020290E080E0DBCFCC23D9F2C5FF5B
:1016400003C00E94EE01D6CF0231110598F2C064AA
:10165000C093020290E080E00E94EA01F2CF809104
:10166000CF018111F3DD8091A801811153CF08953D
:10167000EF92FF920F931F93CF93DF93EC0108E05B
:1016800017E082ECE82EFF24F394209741F481E0E8
:10169000DF91CF911F910F91FF90EF90089580916E
:1016A0008201811117C08091A401823070F482E020
:1016B0000E948C01C7010197F1F780E00E948C0124
:1016C000CEDF0E94AD012197E0CF80E00E948C0127
:1016D000C801F1CF80E0DCCF0F931F93CF93C82FC9
:1016E00006EA811102C008E0C1E010E089E16DD88E
:1016F000C801BEDF80E069D88AEF90E0B9DFC15051
:10170000A9F78AE992E0CF911F910F91B1CFCF93C2
:10171000DF93282F64E60FD7382FC92F892F6AE06F
:101720000AD7D92F243650F0832FD6DF8C2F6AE0CA
:1017300002D7D2DF8D2FDF91CF91CECFCA30B0F755
:10174000F9CFDF92EF92FF920F931F93CF93DF9326
:10175000D82F8B01C0910C0181E080937501C330BB
:1017600079F4F0907A018D2F61D9FF20A1F080915A
:101770007A01811110C070E060E089EF96E0C6DA6E
:10178000D83071F0D13C09F001C170E060E089EF20
:1017900096E0BCDA08C0D83041F481E080930301C0
:1017A00081E08093040180E03FC1D23C69F4109253
:1017B0007A018C2F90E0019665E070E0DCD6809392
:1017C0000C010E943F03EFCFD13BC1F48091020195
:1017D000012B41F49FEF873618F4823018F491E022
:1017E0009093030190910301890F21F481E080938C
:1017F0000201D9CF8836D8F387E6F9CFD13E59F424
:10180000809103018195809303018091040181956A
:1018100080930401D6CFD23BE1F481E080930301B1
:1018200080910201823018F081508093020181E0A2
:1018300080930401C23008F0EAC000FDB4CFEC2F61
:10184000F0E0E65FFE4F80818F3F09F4ACCF8F5F01
:10185000B4C0D13009F0F0C00932110511F4D093B1
:101860000301D09053018D2D880FD7FC809590E017
:1018700069E070E04FD6292FE09052018E2D880F3D
:10188000E7FC8095D09101016D2F70E090E042D689
:10189000290FF09051018F2D880FF7FC8095C09192
:1018A00000016C2F70E090E035D6622F690F8091B7
:1018B0000201680F7727771F80917A01813091F4B8
:1018C000809177019091780125E0969587952A95EA
:1018D000E1F724E730E0A901481B590BCA011AD6E9
:1018E000B90135D6862F0E94E50300FD06C00E948F
:1018F0000C0281708D0D80935301809150018E0DEB
:10190000809352010E940C0265E215D69F0D9093C0
:1019100051010E940C028F7331F40E940C026DE0A1
:101920000AD690935001DD2339F00E940C028F7388
:1019300019F4D150D09301010E940C02811108C00A
:101940000E940C026EE0F7D59093010110925201B3
:10195000C33038F00E940C028F7119F4C150C0934B
:1019600000010E940C028F7729F40E940C028770FC
:10197000809300010932110519F481E0809304017C
:101980008091A101080F0093A1010DCFD23C09F471
:1019900010CFD13B51F5C23090F400FD04CFEC2FB5
:1019A000F0E0E65FFE4F808190910401891B8F3F3C
:1019B00008F08EEF883008F488E08083F4CEC430DD
:1019C00009F0F1CE8091090190910401890F8230D4
:1019D00040F482E080930901809109010E94E503AF
:1019E000E2CE8937B8F388E7F5CFD13E09F40DCFC1
:1019F000D23B09F41CCFD23E09F4E3CED53C81F4AE
:101A000070E060E08FE19DE081D980E0E7CFC430F5
:101A100009F0C9CE809109018330F0F28150DACF0C
:101A200081E0D13009F4A6CFDF91CF911F910F91C2
:101A3000FF90EF90DF900895D13CE9F6A6CE0F938A
:101A40001F93CF93DF93D82F8B01883031F480918F
:101A50007501813011F488E074DE8D2F8079803932
:101A600099F481E080937401C0917501CC2311F049
:101A7000C0E004C080911E010E94E5038C2FDF911D
:101A8000CF911F910F910895803831F41092740115
:101A900080E00E94E503ECCFC1E0D13079F7C0913E
:101AA0007401CC2351F080917501813009F7B801A0
:101AB000DF91CF911F910F9144CE07331140C0F2B7
:101AC000D093A50160E080E00E945404D7CFAF928C
:101AD000BF92CF92DF92EF92FF920F931F93CF931B
:101AE000DF93C82F8B01B0901B01E0901A01C090CA
:101AF0007D01D0907B01C11002C0DD24D394809180
:101B00001C01F0901D01F11080917E01882309F4E1
:101B100043C0813021F080911E018E15E8F1D6E995
:101B2000A0907A01B8018C2F0E94160560917A016D
:101B3000662309F405C2A11004C08091A40180931A
:101B40005D018C2F8D7F883049F510927501CA3068
:101B500019F400911E0110E0B016110630F4E016E1
:101B6000110619F010F000931E01C8010E94AD0289
:101B7000809381010E94E50381E080930601F12CAE
:101B80008F2DDF91CF911F910F91FF90EF90DF90FC
:101B9000CF90BF90AF900895DE2DC2CFC13C09F425
:101BA000D2C1C23C99F48091A4018D1750F4D09316
:101BB00081018D2F0E94E5038091A40180935D0136
:101BC000DECF80911E0180938101F4CFC43C41F4AB
:101BD00080E00E94E50370E060E08EE698E0B7C127
:101BE0008FE48C0F823008F056C06091110170E0D4
:101BF000C801CC2011F068E170E0A9D4892B09F06C
:101C0000BECF2091A4010115110541F5C23B01F59C
:101C10008FEF80930601D091A401809106016D2D74
:101C200070E0082E000C990B75D48D0F911D0E9449
:101C3000AD02C82F80931E01D81731F0863911F0FC
:101C40008E1102C00E944A04C09381018C2FB2CF32
:101C50002E15F0F6B216F8F281E0DBCFE09111011B
:101C6000F0E0CF0166E371E055D48017910710F4DE
:101C70002E1570F6CF016CE672E04CD480179107F8
:101C800050F6B21640F20E943C0470E060E08EE62E
:101C900098E03CD8C0CF8FE18C0F823020F4809147
:101CA000060181956ACFC13009F0C2C00932110521
:101CB00011F4C0930601662389F080915D016150A3
:101CC000770B90E027D46091790170E054D46111D2
:101CD00001C061E06093A201609381013091A20193
:101CE0002091A401432F421B550BCA0160915B0157
:101CF00070915C016F5F7F4F70935C0160935B013B
:101D0000009709F43CCF40E052E097FF06C040E462
:101D100050E0203910F440E051E05695479597FD8A
:101D20000196959587950097C1F74617570708F0D4
:101D300026CF321798F53FEF320F6FEF630FE62F84
:101D4000F0E0EE0FFF1F8091A301811147C0CF018A
:101D500080559E4FFC0145915491621718F5609192
:101D60006C0070916D00672BE9F44F3F23E0520740
:101D7000C9F450936D0040936C0040916C005091F9
:101D80006D00FC01859194914817590711F4309327
:101D9000A40110925C0110925B01F1CE231768F64A
:101DA00031E0CACF60916C0070916D0064177507C7
:101DB00038F440916C0050916D004F5F5F4FD9CF68
:101DC00060916C0070916D0046175707B0F6409116
:101DD0006C0050916D0041505109CBCFCF018C5711
:101DE0009F4FFC014591549160916A0070916B0086
:101DF0006417750778F440916A0050916B004F5F4B
:101E00005F4F50936B0040936A0040916A0050917D
:101E10006B00B7CF60916A0070916B00461757074F
:101E2000A0F740916A0050916B0041505109E9CFF1
:101E3000C530A9F48091A401833308F4A0CE90E0CA
:101E4000801B910B282F823391053CF08739910537
:101E500008F026E92093A20192CE22E3FBCFC63000
:101E6000B1F49091A40180918101981708F087CE78
:101E7000090F111D90E08017910734F0C80102335B
:101E8000110514F482E390E08093A20178CEC7306C
:101E900069F49091A2018091A401891710F48F5FD9
:101EA000F3CF981708F06BCE8150EECFF11045C0FC
:101EB000C33CC9F481E0C11080E080937D010E94A1
:101EC0003F030E944A048091A40190E00E94AD0269
:101ED00080931E01809381010E94E5038091A401FB
:101EE00080935D014DCEC53C51F480E00E94E50336
:101EF00070E060E08FE19DE00E94860641CE70E0D8
:101F000060E082E598E0C73BA9F0CA3C69F48091A3
:101F1000A401809380018091A301809373010E94AA
:101F20003F030E943C042CCECA3B39F470E060E0D1
:101F30008AE598E00E94700623CEFF24F39420CE19
:101F4000AA2009F4FECD70E060E089EF96E00E94DF
:101F5000860615CE2F932FB72F933F938F939F9382
:101F6000AF93BF93EF93FF938091CE018823E9F065
:101F7000E091CD0120B131B1F0E0EE0FFF1FDF01A4
:101F8000A753BE4F2D933C93EB53FE4F808191811D
:101F90008217930708F401962817390708F4019768
:101FA0009183808381E08093CF0181E08093CE0193
:101FB000FF91EF91BF91AF919F918F913F912F91A1
:101FC0002FBF2F9118958F9381E08093A8018F9157
:101FD00018958F9381E08093A7018F911895F894BD
:101FE00085B7877F85BF90E088ED0FB6F894A895F8
:101FF0008FBD90B7977F90BF0FBE81E088B998E002
:102000009CB99FE790BB93EA909372008093710014
:1020100091E89BBB8ABB80E882BB87BD8CB7886098
:102020008CBFA89580E480BF07D9789481E00E9496
:10203000F80170E060E082E69AE00E94700610927B
:1020400082010E943C049FB1892F8095881F8827B8
:10205000881F8093A60197FF91C082E00E94F8013B
:10206000F89480E890E09AD2853A09F0BCC003E881
:1020700011E0C1E8D0E0CE0191D2F80181938F0147
:102080002196CF39D105B9F7789480918301809357
:102090007D01809184018093170180918501809357
:1020A00014018091860180931101809187018093B2
:1020B0001801809188018093150180918901809396
:1020C000120180918A018093190180918B01809384
:1020D000160180918C018093130180918D01809372
:1020E0001D0180918E0180937E0180918F018093EC
:1020F0007C018091900180931C01809191018093DB
:1021000080018091920180937F018091930180935F
:102110007301809194018093A30180919501809334
:102120000D018091960180930C018091970180931D
:102130000A018091980180930B018091990180930D
:10214000090180919A0180930E0180919B018093F7
:102150001F0180919C018093C00180919D0180931B
:10216000200180919E018093100180919F018093B6
:102170000F018091A0018093760136C0C0E08C2FC2
:102180000E94E50383E190E073DA8C2F86950E942C
:10219000E50383E190E06CDA9FB1892F8095881F79
:1021A0008827881F8093A60197FD1AC0CF5FC0348F
:1021B00031F765E181E00E9421030E943F03C6E9F7
:1021C0008C2F0E94E50384E090E052DAC150C1F701
:1021D00044CF8C2F0E94E5038DE090E049DAC15096
:1021E000C111F7CF3ACF789480918001811180930B
:1021F0001E0170E060E08AE695E00E94700661E0F2
:1022000070E089EF96E00E94700643E4442E52E0AD
:10221000552E60E4662E77247394CC24C394D12C7D
:10222000E9EF8E2EE6E09E2E0E94AD018091AB017B
:102230009091AC01009751F06091A9017091AA01B1
:102240000E9486061092AC011092AB018091A5010C
:10225000882341F180E00E94E503A89540BE1F98C5
:102260009FB1892F8095881F8827881F8093A6019A
:1022700097FFF6CF0E94EE018CB788608CBF10925A
:10228000CF011092A8011092A7018091A5018111A0
:102290002CC0509221018CB7877F8CBF0E941C09F3
:1022A000A89560BEDCD9109282018091BE01909108
:1022B000BF01F3E08B319F0709F038C0C0E7D0E0E1
:1022C000FE018491805308DA8CE291E0D1D9219605
:1022D000F0E0CC37DF07A1F79092AC018092AB0120
:1022E0001092AA011092A9019FCF86B78F798064BE
:1022F00086BF86B7806186BF889586B78F7E86BF8A
:102300008091A70181111092A5018091CF018823AE
:1023100031F0709221017092C4010E9426098091CF
:10232000A801882309F4B1CFF5D8AFCF2BE0813ACB
:10233000920779F03DE08F31930709F0B0C08091AA
:102340007501813009F0DBC080917401882309F4A4
:10235000D6C0C0910C01C230B9F1F8F0C43009F018
:1023600063CFD0910901DD0FD73908F0D6E98D2F61
:102370000E94E50385E090E07BD9809109010E94ED
:10238000E50381E490E074D9C15089F780ED92E0D3
:102390006FD980E00E94E50347CFEC2FF0E0E65FC5
:1023A000FE4FD08186E90E94E50382E090E0CC23D5
:1023B00019F08D2F869590E05BD980E00E94E503AF
:1023C0008D2F90E055D930CF0E940C028F73082FCB
:1023D00010E00E940C0267E0AED0E60102C0CC0F14
:1023E000DD1F9A95E2F70E940C0265E0A4D0F60189
:1023F00002C0EE0FFF1F9A95E2F7CE0FDF1F0E947B
:102400000C0290E0BE01B7D0C80FD91FC739D10563
:1024100014F0C6E9D0E08C2F0E94E503C80128D94A
:102420007E0133E0F594E7943A95E1F7E11002C0BC
:10243000EE24E394F12CC8011BD95E01AE18BF084D
:10244000E501B7FE02C0D0E0C0E08C2F0E94E5039A
:102450000E940C02837039F4C8010AD9CE01959507
:1024600087950E94E503F2E0AF16B10424F70E94BD
:102470000C026DE060D0860102C0000F111F9A951A
:10248000E2F70E940C02E801219790E0C823D923CB
:10249000C00FD11F80E00E94E503CE0193CF26E05C
:1024A0008F3B920751F48091C30131D980911D0176
:1024B000811112CF88EE93E085CF36E08F3D9307F0
:1024C00021F48091C10123D9F5CF86599640B9F402
:1024D0008091A6018111A8CE80911E010E94E50382
:1024E00084E690E0C5D880E00E94E50380910E016B
:1024F00090E068EE73E00ED08456910963CF86B702
:102500008F7986BF86B7806186BF889586B78F7EB4
:1025100086BF8ACE0024552704C0080E591F880F95
:10252000991F009729F076956795B8F37105B9F76B
:10253000802D952F0895991B79E004C0991F961757
:1025400008F0961B881F7A95C9F780950895AA1BF5
:10255000BB1B51E107C0AA1FBB1FA617B70710F08E
:10256000A61BB70B881F991F5A95A9F780959095C0
:10257000BC01CD01089597FB072E16F4009406D0F8
:1025800077FD08D0E4DF07FC05D03EF490958195F7
:102590009F4F0895709561957F4F0895E199FECF03
:1025A0001FBA8EBBE09A99278DB30895262FE19923
:1025B000FECF1FBA8EBBE09A81500DB2021639F0E1
:1025C0001CBA2DBB0FB6F894E29AE19A0FBE08959B
:0425D000F894FFCFAD
:1025D400080E180101010100049629430301023782
:1025E40018010705828282030A0A82030101322D3F
:1025F400070217011401110102010000000000008C
:10260400000100000000000000000100002101237F
:10261400022503270429052C06FF060504030000F0
:00000001FF
