:100000006DC1000088C100000C947C0F84C1000009
:1000100082C100000C94760F7EC100007CC10000FC
:100020007AC1000078C1000076C1000074C10000F0
:1000300072C1000070C100000C943D0F6CC1000043
:100040006AC1000068C1000066C1000064C1000010
:1000500062C1000060C100005EC100005CC1000020
:100060005AC1000058C1000056C1000054C1000030
:100070003230323230313133303331340001050423
:100080001410111500000000000000000000000026
:100090000000000000000000000000000000000060
:1000A0000000000000000000000000000000000050
:1000B0000000000000000000000000000000000040
:1000C0000000000000000000000000000000000030
:1000D0000000000000000000000000000000000020
:1000E0000000000000000000000000000000000010
:1000F0000000000000000000000000000000000000
:1001000000000000000000000000000000000000EF
:1001100000000000000000000000000000000000DF
:1001200000000000000000000000000000000000CF
:1001300000000000000000000000000000000000BF
:1001400000000000000000000000000000000000AF
:10015000000000000000000000000000000000009F
:10016000000000000000000000000000000000008F
:10017000000000000000000000000000000000007F
:10018000000000000000000000000000000000006F
:10019000000000000000000000000000000000005F
:1001A0000000000000000000000000000000FF034D
:1001B0000100010001000100020002000200020033
:1001C000030003000300040004000500050006000E
:1001D000060007000800080009000A000B000C00D8
:1001E0000D000E000F001000110012001400150089
:1001F000170018001A001B001D001F00210023001B
:100200002500270029002B002D003000320035008A
:1002100038003A003D004000430046004A004D00CF
:100220005000540058005B005F00630067006C00E2
:100230007000740079007D00820087008C009100BE
:1002400096009C00A100A700AD00B200B800BF005E
:10025000C500CB00D200D900DF00E600EE00F500BB
:10026000FC0004010C0113011B0124012C013401C9
:100270003D0146014F01580161016B0174017E018E
:10028000880192019D01A701B201BD01C801D301FE
:10029000DE01EA01F60102020E021A02270233020F
:1002A00040024D025B026802760284029202A002C2
:1002B000AF02BE02CD02DC02EB02FB020A031A030C
:1002C0002B033B034C035D036E037F039103A303E6
:1002D000B503C703D903EC03FF03000011241FBEBD
:1002E000CFEFD4E0DEBFCDBF11E0A0E0B1E0E8ED9C
:1002F000F7E202C005900D92AE34B107D9F721E0C4
:10030000AEE4B1E001C01D92A93FB207E1F70E943F
:10031000820F0C94EA1374CE482F362F272FE6EC69
:10032000F1E090E080E0508151110BC063E070E09B
:100330000E940012FC01EA53FE4F40833183228366
:1003400005C0019633968031910569F70895EF92C3
:10035000FF921F93CF93DF931091C601111106C036
:10036000DF91CF911F91FF90EF900895E090C7012A
:10037000F090C801C091A301C1500C2E000CDD0B00
:10038000C7FD0EC0FE01EE0FFF1FEC55FE4F0190A2
:10039000F081E02DB701812F099521978111F0CFD0
:1003A000E6ECF1E08381808384819581928381836F
:1003B000339681E0E33FF807A9F71092F30110921A
:1003C000F5011092F401C8CFBC018091F801A4CFCF
:1003D0001092F8011092F7011092F60181E08093DB
:1003E0007C01089528E13FE1815008F40895F90166
:1003F0003197F1F7F9CF8FB182FB882780F991E02F
:10040000892780939C010895E0910601F0910701EE
:100410003196FB70F460F0930701E0930601809140
:1004200098018B5A80939801E491809198018E0FE6
:100430000895CF93DF9300D00F92CDB7DEB7209110
:10044000490130914A0140914B0129833A834B8302
:10045000FE01319650E040E0682F70E0A1E0B0E08E
:100460009B01042E02C0359527950A94E2F7922F3E
:10047000937081919D0101C0220F8A95EAF799231B
:1004800029F09130C1F080B3822B19C080B3209540
:10049000822380BB82B3822382BB81B3282321BB0A
:1004A0004E5F5F4F46305105D9F60F900F900F9079
:1004B000DF91CF91089590B3822F8095892380BBDF
:1004C00082B3822B82BB81B3282BE9CFCF93DF93FA
:1004D00000D000D000D0CDB7DEB720917701409199
:1004E000B4015091B5014B5E594009F422E08430CB
:1004F00059F46093780126960FB6F894DEBF0FBECC
:10050000CDBFDF91CF9108956623A9F3823019F40E
:1005100097E9961B692F96E0E0E2F1E0DE01119683
:1005200001900D929A95E1F78150990B880F991FD0
:10053000A1E0B0E0AC0FBD1F8A0F9B1FDC01ED9165
:10054000FC91E20FF11D6083D6CFCF92DF92EF9244
:10055000FF920F931F93CF93DF939C0150917701EC
:10056000E0911B0182E0E11101C0852F90E0DC01E8
:10057000AB5EBE4F4C91409319018E5E9E4FDC01E5
:100580008C9180931801F0E0E15FFE4FC181642FF0
:1005900070E0552381F0C13071F4860F972F911DC3
:1005A00095958795DF91CF911F910F91FF90EF90D7
:1005B000DF90CF900895261737079CF18217130616
:1005C0008CF3511102C0822FEDCF841B6C2F615030
:1005D000770B8B01E82EF12CC7010E94311260933A
:1005E00075016695E62FF0E0842FD12CC12CD0E068
:1005F000DC17C1F2C601B8010E941D12842F860FBC
:10060000A82FB0E0B9016A1B7B0B77FF03C0BD01C7
:10061000621B730BCE0CDF1CE617F7071CF6DF5FBF
:10062000E7CF842FBFCF0F931F93CF93E82F862F51
:100630009091B9012FEF290F2C3128F480E0CF9150
:100640001F910F91F6CECE2FC295CF70EF702091F3
:100650009B01211103C0C33008F0C2E0E73010F461
:10066000F0E016C0E73079F50091530110E00F5F1C
:100670001F4FCADE65E00E9411129801290F311D3B
:10068000C90166E070E00E94311280935301FC01C1
:10069000E358FF4FE491C33071F48091520190E030
:1006A000019663E170E00E941D12809352018A5D01
:1006B0009E4FDC01CC91CC2321F0C130C1F1CE2F73
:1006C000CC0F8C2FBCCFE830A9F490919B016FE048
:1006D000911101C063E0862351F48091530190E0B1
:1006E000019666E070E00E94311280935301E09120
:1006F0005301B6CF20919B01222381F080E09D31F0
:1007000018F4E0E0C8CF8E5FE82FF0E0E75CFE4F22
:1007100020819217C0F73197E081A2CF869563E0E0
:100720000E941112E92FF0E0EE0FFF1FB1CFCE2F84
:10073000C8CF81E00895611160931E01089566237A
:1007400069F0813099F48091B6019091B701891BCD
:10075000680F6093B60182E080931F0180911D01B4
:10076000873418F086E480931D010895635E6093DA
:100770001D01F4CF6093700108950F931F93CF93E1
:10078000DF938091770180937D01809115018093A3
:100790007E018091120180937F0180910F018093EF
:1007A00080018091160180938101809113018093D3
:1007B00082018091100180938301809117018093C1
:1007C00084018091140180938501809111018093AF
:1007D000860180911B01809387018091780180932D
:1007E0008801809176018093890180911A0180931C
:1007F0008A0180917A0180938B01809179018093A5
:100800008C0180910B0180938D018091090180936F
:100810008E0180910A0180938F018091080180935D
:10082000900180910C018093910180911D01809332
:1008300092018091B6018093930180911E01809373
:10084000940180910E018093950180910D01809318
:100850009601809170018093970182E0C3DDF89446
:100860000DE711E0C1E8D0E0F80161918F01CE0100
:100870000E94D8132196CC39D105B1F765EA80E8FA
:1008800090E00E94D8137894DF91CF911F910F913F
:100890000895CF93C82F80939A01809399018091F6
:1008A0009B01811101C0C5DDC1110BC010926B000D
:1008B00010926A0010926D0010926C008F98CF9188
:1008C0000895C150C539C0F48F9A8C2F90E0880FDD
:1008D000991FFC01E055FE4F2591349130936B0038
:1008E00020936A00FC01EC57FF4F859194919093FF
:1008F0006D0080936C00E3CF8F98E7CF80937B01EE
:10090000C8CFCF93C0919A0189E18C0F873908F045
:1009100080E0BFDF82E066DD8C2FCF91BACFCF932E
:10092000C0919A0180E0B5DF83E05CDD8C2FCF9130
:10093000B0CF813019F410927A010895823019F401
:10094000609379010895833019F4609376010895D6
:10095000843011F460931A010895CF93282FCB01AE
:10096000C0911B01C11117C0283049F410927401C5
:1009700010927201109271018C2FCF910895213B3A
:1009800061F4809174018150833028F483E0809376
:10099000740180937301C1E0EFCF253BA9F46EE3AE
:1009A00070E00E941D12892B39F7809174018A3FF3
:1009B00018F78B5F8093740180937301109272011A
:1009C000109271019EDFD8CF213029F780917101FB
:1009D00090917201019688382EE0920728F4909346
:1009E000720180937101C8CF10927201109271014F
:1009F00080917401882309F4BFCF815080937401E2
:100A0000BBCFFF920F931F93CF93DF938C01D62F11
:100A1000C72FF42E8091B4019091B501892B31F04C
:100A2000E091B401F091B50189E009951093B50109
:100A30000093B401012B41F0E091B401F091B501B4
:100A40006D2F7C2F8F2D099581E080937C01DF91A4
:100A5000CF911F910F91FF900895CF93DF93E09175
:100A6000A301D0E0C0E0EE2351F0E150E093A301F8
:100A7000F0E0EE0FFF1FEC55FE4FC081D181E091F9
:100A8000A30190E080E0EE2341F0E150FF0BEE0F78
:100A9000FF1FEC55FE4F808191814AE070E060E0DD
:100AA000B0DFCE01DF91CF910895883039F41092F4
:100AB0006D011092540180E0ECDE0CC08130F9F43D
:100AC00090915401911108C06032710518F0809323
:100AD00054017EDC80E00895913079F46B3B710520
:100AE00020F082E080935401E6CF6115710591F307
:100AF000862F880F84708E5EDFCFAFDFEBCF81381B
:100B000011F0813E39F791E090935401813E41F418
:100B100080916D01865F80936D015ADC8BE4CCCFB0
:100B200080916D018F5FF7CF2091A301283080F471
:100B3000E22FF0E0EE0FFF1FEC55FE4F8083918314
:100B40002F5F2093A30148E05CDF8091A30108950B
:100B50008FEF08950F931F93CF93DF93D82FC92F53
:100B60008B017BDFB8018D2F9C2FDF91CF911F91DF
:100B70000F91DACF813C39F470E060E085E596E0D2
:100B8000E9DF80E00895823C29F470E060E08BE1C9
:100B900096E0F6CF81E00895843011F58091B4019C
:100BA0009091B5012DE08437920731F469E170E04E
:100BB0008DE597E0CFDF0DC08D55974061F49091A2
:100BC0009A01923040F0892F869596959695890FD7
:100BD00095DE80E0089570E060E085E596E0EACF7C
:100BE00081E00895282FCB01213C39F470E060E0CA
:100BF00085E596E0AFDF80E00895223C29F470E0BF
:100C000060E08AEB95E0F6CF213B41F46EE370E0C3
:100C10000E941D12892B79F774DEEDCF213E49F435
:100C20006EE370E00E941D126F5F60930C01A5DD02
:100C3000E2CF81E00895CF93C0911B01C11119C08B
:100C4000813C41F470E060E085E596E083DF8C2F25
:100C5000CF910895823C29F470E060E08BE396E048
:100C6000F5CF873B31F470E060E083EF99E05CDF23
:100C7000EECFC1E0ECCF813C39F470E060E085E577
:100C800096E068DF80E00895823C29F470E060E03F
:100C900082EF95E0F6CF873B31F470E060E087EFBC
:100CA00099E042DFEFCF81E008950F931F93CF9338
:100CB0008B018830A1F480E0ECDD60E080910E01D2
:100CC000B2DC10927401012B31F0C0E08C2FCF9177
:100CD0001F910F91089581E080939B01F6CF8130A1
:100CE00049F46931710588F380939B0180910E016D
:100CF0009ADCEBCF833029F520917A01222361F031
:100D00008091790190E062EC71E00E940012081776
:100D1000190710F020931C01602F80910E0183DCD5
:100D200080917001882389F290E062EC71E00E946A
:100D300000128017910748F670E060E08FEF99E0AD
:100D400016C0813BB1F481E090E0FFDBA2DD809131
:100D500076018111BACF80917701811104C00831E9
:100D6000110508F4B2CF61E070E08DE597E0F2DEA6
:100D7000ACCF813EC1F3813831F480911C0190E009
:100D8000E4DB87DDA2CF60919A0170E0813C69F3DA
:100D9000823B71F480911A0190911B019111809115
:100DA0007801811103C086E990E0EACF86E9E9CFB6
:100DB000823E11F480E0E5CF66E970E0823CA9F262
:100DC0008339C1F3833C29F470E060E08BE196E065
:100DD000CECF843C11F495DDAFCF8D3B41F4F89438
:100DE00088ED8FBD88E880BF7894A895FFCF8F3CB1
:100DF00029F470E060E089E993E0B9CFC0911B016C
:100E00008A3B81F4012B09F056C0CC2329F079DD0F
:100E100010921B01B2DC59CF70E060E08BEE99E0DC
:100E200083DE54CFC11147C08A3C31F46ADD81E0D2
:100E300080931B01A2DC4ACF833B31F470E060E079
:100E400084E79DE087DE42CF853C31F45ADD70E0D7
:100E500060E085EF9EE0F6CF873C91F490910E0123
:100E6000892F82958F708F5F83708295807F9F70AE
:100E7000892B80930E0160E0D6DB7FDC42DD26CF3C
:100E8000873BB1F4C8018F739927892B61F42091B6
:100E90000E01822F8F708F5F207F6BE00E941112F6
:100EA000922B90930E01602F80910E01BCDB0ECF30
:100EB000873E09F4BFCFC1E009CF9F92AF92BF92A6
:100EC000CF92DF92EF92FF920F931F93CF93DF9316
:100ED000C82F8B01A0901901E0901801B090770104
:100EE000D0907501B11002C0DD24D394C0901A01D6
:100EF000D0911B01D111C0907801CC2009F441C0E0
:100F000041E0C41621F080911C018E15D0F1A6E9B4
:100F1000FA2E90907401B8018C2F1FDD609174013E
:100F2000662309F407C2911004C080919A0180934E
:100F300058018C2F8D7F883031F510926F01CA30A7
:100F400019F400911C0110E0A016110630F4E0160F
:100F5000110619F010F000931C01C801F6DACEDC7E
:100F600081E080930501D0E08D2FDF91CF911F911B
:100F70000F91FF90EF90DF90CF90BF90AF909F9038
:100F80000895FE2CC6CFC13C09F4D7C1C23C71F410
:100F900080919A018F1538F48F2DB0DC80919A01E1
:100FA00080935801E0CF80911C01F7CFC43C39F405
:100FB00080E06FDC70E060E08FEF99E0C2C18FE409
:100FC0008C0F823008F052C060910F0170E0C801B0
:100FD000BB2011F068E170E00E941D12892B19F608
:100FE00020919A010115110519F5C23BD9F48FEF33
:100FF00080930501D0919A01809105016D2D70E0DB
:10100000082E000C990B0E9400128D0F911D9DDA85
:10101000C82F80931C01D81719F08E1101C07FDCF6
:101020008C2FBBCF2E1518F7A21620F381E0E0CF4E
:10103000E0910F01F0E0CF0166E371E00E94001241
:101040008017910710F42E1590F6CF016CE672E030
:101050000E9400128017910768F6A21658F251DC20
:1010600070E060E08FEF99E075DDC4CF8FE18C0F09
:10107000823020F480910501819573CFC13009F051
:10108000D0C00932110511F4C0930501662399F00F
:10109000809158016150770B90E00E94001260919E
:1010A000730170E00E943112611101C061E0609330
:1010B000990160937B01C091990120919A014C2F75
:1010C000421B550BCA0160915601709157016F5F29
:1010D0007F4F7093570160935601009709F443CFF7
:1010E00040E052E097FF06C040E450E02D3810F495
:1010F00040E051E05695479597FD01969595879567
:101100000097C1F74617570708F02DCF8FEFC2178A
:1011100020F08C2F2C1710F481E0820F9FEF980F96
:10112000492F50E0440F551FBA0160557E4FFB0117
:10113000A591B491921708F044C020916A003091B3
:101140006B00232B09F03DC0AF3F93E0B90709F0D6
:1011500038C0B0936B00A0936A009A012C573F4FA0
:10116000F90145915491E0916C00F0916D00E41704
:10117000F50708F047C040916C0050916D004F5F3B
:101180005F4F50936D0040936C00A0916A00B09146
:101190006B00FB0145915491A417B50769F4409188
:1011A0006C0050916D00F90125913491421753075D
:1011B00019F46FDBC09399011092570110925601F8
:1011C000D2CE20916A0030916B002A173B0758F469
:1011D00020916A0030916B002F5F3F4F30936B007E
:1011E00020936A00BACF20916A0030916B00A21759
:1011F000B30708F0B2CF20916A0030916B00215004
:101200003109ECCFE0916C00F0916D004E175F0753
:1012100008F0BBCF40916C0050916D0041505109D6
:10122000B0CFC530A9F480919A01863908F49BCEDD
:1012300090E0801B910B282F853991053CF0873970
:10124000910508F026E9209399018DCE25E9FBCF81
:10125000C630B1F490919A0180917B01981708F003
:1012600082CE090F111D90E08017910734F0C8015C
:101270000539110514F485E990E08093990173CE46
:10128000C73069F49091990180919A01891710F4FF
:101290008F5FF3CF981708F066CE8150EECFD11153
:1012A00047C0C33C99F481E0B11080E0809377019E
:1012B00064DA35DB80919A0190E047D980931C0174
:1012C0001DDB80919A01809358014ECEC33B51F4AF
:1012D000012B09F048CECC2011F086E9F82E8F2D95
:1012E0000DDB42CEC33E19F480911C01F9CFC53C01
:1012F00041F480E0CEDA70E060E085EF9EE02ADC29
:1013000033CE70E060E087EE99E0C73B79F0CA3CED
:1013100039F480919A0180937A012FDAF2DA24CE9F
:10132000CA3B31F470E060E08FEE99E0FDDB1CCE4B
:10133000D1E01ACE992009F4FCCD70E060E085E59B
:1013400096E008DC10CE582FCB01F901583089F413
:101350001092550180E09DDA80919C0181111DC0A1
:1013600081E08093550170E060E085E595E0DCDB8D
:1013700014C0252F207F203BB9F42091550142173E
:1013800088F06DE570E00E941D12029741F42F5F16
:101390002093550188E3421718F480E0089582E114
:1013A00078DAFBCF80E0FCCF203E41F480915501FC
:1013B000882311F04817B8F650DBEFCF5A3069F7A1
:1013C00060916D01809155010995D7D9F5CF26E639
:1013D00032E043E0B8CF26E632E044E0B4CF29E97A
:1013E00034E044E0B0CF2BE933E041E0ACCF2FE96B
:1013F00033E042E0A8CF2AEB33E041E0A4CF0F93E3
:101400001F93CF93DF93C82F8B01873B79F480E044
:1014100040DAD0911B01D11194C0CA3B09F062C0DF
:1014200070E060E08BEF99E07FDB46C08079803927
:10143000F1F420911501909116018C2F8F7082305C
:1014400049F480917A01811108C0822F291728F46C
:10145000892F03C0822F9217D8F31BDAC33CF1F413
:1014600050DA70E060E085E596E074DB15C0803806
:1014700011F480E0F2CFC83009F065C060E08091DF
:101480000D01D1D8C6CF0931110530F0C0939B01B1
:10149000602F80910D01C7D8D0E00EC0C43C91F4FC
:1014A000D0917A016D2F70E0D11113C060911C01B1
:1014B00070E08DE597E04EDB8D2FDF91CF911F918E
:1014C0000F910895C43B41F42ADA1092F80161E0CB
:1014D00070E08DE597E0C9CFC53C09F09ACF66E989
:1014E00070E0F7CFC73C91F490910D01892F829560
:1014F0008F708F5F83708295807F9F70892B809320
:101500000D0160E090D839D9FCD9D6CFC73BA9F4FA
:10151000C8018F739927892B59F420910D01822FCF
:101520008F708F5F207F6BE07CD7922B90930D01A3
:10153000602F80910D0177D8BFCFC73E11F41DD920
:10154000BBCFD1E0B9CFC13009F49DCFC33009F48E
:101550009FCF84CF85E084B91092C3011092C4015B
:1015600083B1886483B90895F5DFE1E6F0E0808116
:1015700081608083139A86EE83B90895DF92EF929B
:10158000FF920F931F93CF93DF9300D000D000D032
:10159000CDB7DEB71092C50180B121B1409198015D
:1015A000829586958695837030E0220F331F220F37
:1015B000331F820F932F911D840F80939801809188
:1015C000BA01882309F446C01092BA018091C30180
:1015D00090919B01992319F01F981092C3018111DA
:1015E00055C080911F01882309F442C08091BF013A
:1015F0009091C0019093BC018093BB014096969559
:101600008795807F9F776EE872E017D780911E01E3
:101610008750680F6093B90180916C01882369F14C
:10162000815080936C0180919B0181110AC08BE0F5
:1016300084B981E08093C3011092C40183B18864AE
:1016400083B980911F01882329F080911F01815067
:1016500080931F0126960FB6F894DEBF0FBECDBF54
:10166000DF91CF911F910F91FF90EF90DF90089540
:101670008091BB019091BC01C1CF6D31A0F670E0AB
:1016800060E084E00E948C0185E0CBCF8130C9F618
:1016900080911F018111A3C08091BD019091BE0175
:1016A00040969C0145E0369527954A95E1F73E83A3
:1016B0002D831091B60156E0969587955A95E1F7DE
:1016C0008D5C91099C0150E040E029833A834B8373
:1016D0005C83CA01B901D6D728E431EE42E850E470
:1016E00069837A838B839C8369817A818B819C81D6
:1016F00030D720E030E0A90169837A838B839C8313
:1017000069817A818B819C81C0D6D62EE72EF82EF6
:10171000092F812F012E000C990BAA0BBB0B89837B
:101720009A83AB83BC83BC01CD01AED79B01AC01D6
:10173000D982EA82FB820C8369817A818B819C81C8
:10174000A4D669837A838B839C8369817A818B8118
:101750009C8167D77093B8016093B70180915B015A
:10176000E82FF0E0EE0FFF1FE45AFE4F2081318199
:101770004D815E81421B530BAD81BE81B183A0833D
:101780008F5F877080935B01CA01880F991F880F54
:10179000991F20911D0130E02D5E3E4F211B310924
:1017A00017FD3395220F331F821B930B8A0F9B1F4C
:1017B00023E0181619060CF041C001972150C9F713
:1017C000181619060CF052C057FD6DC020915A0131
:1017D0001216CCF5281B20935A01BCDE32CF809123
:1017E000C1019091C2019093BE018093BD014096CA
:1017F00035E0969587953A95E1F790935D01809352
:101800005C0190935F0180935E01909361018093EE
:1018100060019093630180936201909365018093CE
:1018200064019093670180936601909369018093AE
:10183000680190936B0180936A012ECF009709F4A1
:10184000BDCF0196BBCF880F991F61E070E0853056
:10185000910524F00397BC017595679588E1861B77
:1018600080935A0185E00E948C01B7CF8C3FBFEF77
:101870009B07CCF457FF17C020915A0127FF02C0E5
:101880002450A8CF24EE281B20935A012091B9019F
:101890002F3108F4A2CF6CEF7FEF681B790B7595A1
:1018A000679586E0E0CF8091B9018E3108F495CF3D
:1018B00070E060E087E0D7CF0F931F93CF93109233
:1018C0009E018091F6019091F7019C012F5F3F4F9F
:1018D00088279078822B932B9093F7018093F601C1
:1018E000C0919C010E94FB01C817B9F010929B01A6
:1018F00080939C019091F801882369F1892F806978
:101900009F709F3031F58093F80190E080E00E9455
:10191000E4011092F7011092F6010091F601109186
:10192000F70180919B01882321F1B80183E00E9497
:101930008C010E94A7010F731127012B91F51092C2
:10194000590112DE83B1886483B981E08093BA01C2
:1019500022C08F5FD8CF892F8F7E95FD08C0806809
:101960008093F8018091F6019091F701D0CF806CBF
:10197000F7CFC091F8018C2F807F803BB1F470E0ED
:1019800060E081E00E948C01C8010E94E401809126
:1019900059018823B9F2809159018F5F8F7180932B
:1019A0005901CF911F910F910895B80181E00E94D4
:1019B0008C01C4FF0FC0C5FDE7CF0831110538F316
:1019C0001092F7011092F601C062C093F80190E006
:1019D00080E0DBCFCC23D9F2C5FF03C00E94E80131
:1019E000D6CF0231110598F2C064C093F80190E09F
:1019F00080E00E94E401F2CF8091C5018111BEDD3B
:101A000080919E01811158CF08950F931F93CF931A
:101A1000DF93EC0108E017E0209731F481E0DF91DB
:101A2000CF911F910F91089580917C012197811191
:101A300007C0C8010197F1F7DFDF0E94A701ECCFD3
:101A400080E0EDCF0F931F93CF93C82F06EA81114B
:101A500002C008E0C1E010E089E10E944904C80129
:101A6000D4DF80E00E9449048AEF90E0CEDFC150CD
:101A700099F78AE992E0CF911F910F91C6CFCF934A
:101A8000DF93282F64E6CDD4382FC92F892F6AE041
:101A9000C8D4D92F243650F0832FD4DF8C2F6AE09E
:101AA000C0D4D0DF8D2FDF91CF91CCCFCA30B0F72B
:101AB000F9CFCF93DF93D82FC3E080911C010E9410
:101AC000490488EC90E0A1DFDD2319F080E991E082
:101AD0009CDF80E00E94490488EC90E096DFC150D2
:101AE00061F7DF91CF910895DF92EF92FF920F930C
:101AF0001F93CF93DF93D82F8B01C0910B0181E00F
:101B000080936F01C33081F4F09074018D2F0E9497
:101B1000AD04FF20A1F080917401811110C070E02C
:101B200060E085E596E016D8D83071F0D13C09F038
:101B300002C170E060E085E596E00CD808C0D830BE
:101B400041F481E08093030181E08093040180E00F
:101B500041C1D23C69F4109274018C2F90E001963F
:101B600065E070E07ED480930B010E94BD03EFCF4F
:101B7000D13BC1F480910201012B41F49FEF8E36DD
:101B800018F4823018F491E09093030190910301CE
:101B9000890F21F481E080930201D9CF8F36D8F3E9
:101BA0008EE6F9CFD13E59F480910301819580935F
:101BB000030180910401819580930401D6CFD23B2B
:101BC000E1F481E08093030180910201823018F0FA
:101BD00081508093020181E080930401C23008F0BB
:101BE000ECC000FDB4CFEC2FF0E0E75FFE4F80814A
:101BF0008F3F09F4ACCF8F5FB5C0D13009F0F2C090
:101C00000932110511F4D0930301D09051018D2DAB
:101C1000880FD7FC809590E067E070E0F1D3292F22
:101C2000E09050018E2D880FE7FC8095D091010146
:101C30006D2F70E090E0E4D3290FF0904F018F2DCD
:101C4000880FF7FC8095C09100016C2F70E090E048
:101C5000D7D3622F690F80910201680F7727771F12
:101C600080917401813091F48091710190917201A1
:101C700025E0969587952A95E1F724E730E0A901BC
:101C8000481B590BCA01BCD3B901D7D3862F0E9478
:101C9000490400FD06C00E94040281708D0D8093EE
:101CA000510180914E018E0D809350010E940402DB
:101CB00065E2B7D39F0D90934F010E9404028F738A
:101CC00031F40E9404026DE0ACD390934E01DD2309
:101CD00039F00E9404028F7319F4D150D09301019E
:101CE0000E940402811108C00E9404026BE099D393
:101CF0009093010110925001C33038F00E94040209
:101D00008F7119F4C150C09300010E9404028F77B3
:101D100031F40E94040266E084D3909300010932FA
:101D2000110519F481E08093040180919801080F56
:101D3000009398010CCFD23C09F40FCFD13B51F561
:101D4000C23090F400FD03CFEC2FF0E0E75FFE4FD0
:101D5000808190910401891B8F3F08F08EEF8830BD
:101D600008F488E08083F3CEC43009F0F0CE80918F
:101D7000080190910401890F823040F482E0809341
:101D80000801809108010E944904E1CE8937B8F327
:101D900088E7F5CFD13E09F40CCFD23B09F41BCF35
:101DA000D23E09F4E2CED53C89F470E060E085EFE4
:101DB0009EE00E94AA0580E0E6CFC43009F0C7CEBD
:101DC000809108018330E8F28150D9CF81E0D13091
:101DD00009F4A5CFDF91CF911F910F91FF90EF9064
:101DE000DF900895D13CE1F6A4CE0F931F93CF93DB
:101DF000DF93D82F8B01883031F480916F018130CF
:101E000011F488E071DE8D2F8079803999F481E0BA
:101E100080936E01C0916F01CC2311F0C0E004C02B
:101E200080911C010E9449048C2FDF91CF911F915A
:101E30000F910895803831F410926E0180E00E9475
:101E40004904ECCFC1E0D13079F7C0916E01CC23C9
:101E500051F080916F01813009F7B801DF91CF9186
:101E60001F910F9141CE07331140C0F2D0939B01D7
:101E700060E080E00E941303D7CF2F932FB72F93FA
:101E80003F938F939F93AF93BF93EF93FF93809173
:101E9000C4018823E9F0E091C30120B131B1F0E041
:101EA000EE0FFF1FDF01A154BE4F2D933C93E5546D
:101EB000FE4F808191818217930708F401962817BD
:101EC000390708F401979183808381E08093C501ED
:101ED00081E08093C401FF91EF91BF91AF919F91F9
:101EE0008F913F912F912FBF2F9118958F9381E064
:101EF00080939E018F9118958F9381E080939D012F
:101F00008F911895F89485B7877F85BF90E088ED0D
:101F10000FB6F894A8958FBD90B7977F90BF0FBE6E
:101F200088E08CB988EF80BB83EA8093720081E0FF
:101F30008093710084E082BB87BD8CB788608CBFC2
:101F4000A89580E480BF10DB789481E00E94F201C4
:101F500070E060E08CEC95E00E94940510927C01AA
:101F60000E9481040E94FB01811185C082E00E94D1
:101F7000F201F89480E890E013D4853A09F0AAC001
:101F80000DE711E0C1E8D0E0CE010AD4F801819359
:101F90008F012196CC39D105B9F7789480917D01D4
:101FA0008093770180917E018093150180917F015C
:101FB000809312018091800180930F0180918101B3
:101FC0008093160180918201809313018091830197
:101FD0008093100180918401809317018091850185
:101FE0008093140180918601809311018091870173
:101FF00080931B01809188018093780180918901F1
:102000008093760180918A0180931A0180918B01DF
:1020100080937A0180918C018093790180918D0168
:1020200080930B0180918E018093090180918F0133
:1020300080930A0180919001809308018091910121
:1020400080930C018091920180931D0180919301F6
:102050008093B6018091940180931E018091950137
:1020600080930E018091960180930D0180919701DC
:102070008093700130C0C0E08C2F0E94490483E13E
:1020800090E0C3DC8C2F86950E94490483E190E0A8
:10209000BCDC0E94FB018823D1F0CF5FC03461F724
:1020A00065E181E00E949F030E94BD03C6E98C2F79
:1020B0000E94490484E090E0A8DCC150C1F756CFEB
:1020C0008C2F0E9449048DE090E09FDCC150C1112B
:1020D000F7CF4CCF789480917A01811180931C01C5
:1020E00061E070E085E596E00E94940543E4442EAB
:1020F00052E0552E60E4662E77247394CC24C3946A
:10210000D12CE5E58E2EE6E09E2E0E94A70180915F
:10211000A1019091A201009751F060919F017091EF
:10212000A0010E94AA051092A2011092A101809123
:102130009B01882309F180E00E944904A89540BED4
:102140001F980E94FB018111FCCF0E94E8018CB70F
:1021500088608CBF1092C50110929E0110929D0163
:1021600080919B0181112BC050921F018CB7877FFA
:102170008CBFFAD9A89560BE3FDC10927C0180919B
:10218000B4019091B501F3E089399F0709F037C098
:10219000C0E7D0E0FE018491805354DC8CE291E0F2
:1021A00034DC2196F0E0CC37DF07A1F79092A20152
:1021B0008092A1011092A00110929F01A6CF86B734
:1021C0008F79806486BF86B7806186BF889586B721
:1021D0008F7E86BF80919D01811110929B0180911D
:1021E000C501882329F070921F017092BA01C6D9E7
:1021F00080919E01882309F4B3CF5EDBB1CF2DE03F
:102200008437920779F03EE0853F930709F0B0C02C
:1022100080916F01813009F0E8C080916E018823C0
:1022200009F4E3C0C0910B01C230B9F1F8F0C43039
:1022300009F06BCFD0910801DD0FD73908F0D6E94E
:102240008D2F0E94490485E090E0DFDB809108013A
:102250000E94490481E490E0D8DBC15089F780ED09
:1022600092E0D3DB80E00E9449044FCFEC2FF0E0F6
:10227000E75FFE4FD08186E90E94490484E090E048
:10228000CC2319F08D2F869590E0BFDB80E00E9473
:1022900049048D2F90E0B9DB38CF0E9404028F7380
:1022A000082F10E00E94040267E0BBD0E60102C0E4
:1022B000CC0FDD1F9A95E2F70E94040265E0B1D0D1
:1022C000F60102C0EE0FFF1F9A95E2F7CE0FDF1F57
:1022D0000E94040290E0BE01C4D0C80FD91FC739C4
:1022E000D10514F0C6E9D0E08C2F0E944904C80142
:1022F0008CDB7E0133E0F594E7943A95E1F7E11049
:1023000002C0EE24E394F12CC8017FDB5E01AE181D
:10231000BF08E501B7FE02C0D0E0C0E08C2F0E94EC
:1023200049040E940402837039F4C8016EDBCE01B7
:10233000959587950E944904F2E0AF16B10424F701
:102340000E9404026DE06DD0860102C0000F111FD3
:102350009A95E2F70E940402E801219790E0C823D1
:10236000D923C00FD11F80E00E944904CE0193CF32
:1023700026E08B31920751F48091B90180DB809186
:102380001B01811113CF88EE93E085CF36E08B33AC
:10239000930721F48091B70172DBF5CFE5E0823F2E
:1023A0009E07B9F480919C018111AFCE80911C01F0
:1023B0000E94490484E690E028DB80E00E94490402
:1023C00080910C0190E068EE73E01AD08456910978
:1023D00062CF8A5B954049F480E06BDB81E069DB8A
:1023E00080E067DB80ED97E056CF86B78F7986BFB8
:1023F00086B7806186BF889586B78F7E86BF85CE7B
:102400000024552704C0080E591F880F991F0097F4
:1024100029F076956795B8F37105B9F7802D952F5A
:102420000895991B79E004C0991F961708F0961B30
:10243000881F7A95C9F780950895AA1BBB1B51E1A7
:1024400007C0AA1FBB1FA617B70710F0A61BB70B24
:10245000881F991F5A95A9F780959095BC01CD01C9
:10246000089597FB072E16F4009406D077FD08D048
:10247000E4DF07FC05D03EF4909581959F4F0895C9
:10248000709561957F4F08955058BB27AA270ED0AD
:102490004DC13ED130F043D120F031F49F3F11F4D3
:1024A0001EF433C10EF4E095E7FB29C1E92F4FD1AB
:1024B00080F3BA17620773078407950718F071F461
:1024C0009EF567C10EF4E0950B2EBA2FA02D0B01DF
:1024D000B90190010C01CA01A0011124FF27591B69
:1024E00099F0593F50F4503E68F11A16F040A22F6F
:1024F000232F342F4427585FF3CF469537952795E0
:10250000A795F0405395C9F77EF41F16BA0B620BDE
:10251000730B840BBAF09150A1F0FF0FBB1F661F25
:10252000771F881FC2F70EC0BA0F621F731F841F68
:1025300048F4879577956795B795F7959E3F08F08E
:10254000B3CF9395880F08F09927EE0F979587954D
:1025500008950CD0EBC0E3D040F0DAD030F021F495
:102560005F3F19F0CCC0511115C1CFC0F0D098F326
:102570009923C9F35523B1F3951B550BBB27AA2704
:1025800062177307840738F09F5F5F4F220F331F76
:10259000441FAA1FA9F333D00E2E3AF0E0E830D042
:1025A00091505040E695001CCAF729D0FE2F27D045
:1025B000660F771F881FBB1F261737074807AB0713
:1025C000B0E809F0BB0B802DBF01FF2793585F4F88
:1025D0002AF09E3F510568F092C0DCC05F3FECF3EB
:1025E000983EDCF3869577956795B795F7959F5F4D
:1025F000C9F7880F911D9695879597F90895E1E0A1
:10260000660F771F881FBB1F621773078407BA07FF
:1026100020F0621B730B840BBA0BEE1F88F7E0955A
:10262000089504D06894B111B5C0089598D088F089
:102630009F5790F0B92F9927B751A0F0D1F0660FAE
:10264000771F881F991F1AF0BA95C9F712C0B130C9
:1026500081F09FD0B1E008959CC0672F782F882724
:10266000B85F39F0B93FCCF3869577956795B39508
:10267000D9F73EF490958095709561957F4F8F4F77
:102680009F4F0895E89409C097FB3EF4909580957C
:10269000709561957F4F8F4F9F4F9923A9F0F92F28
:1026A00096E9BB279395F695879577956795B795A6
:1026B000F111F8CFFAF4BB0F11F460FF1BC06F5F8C
:1026C0007F4F8F4F9F4F16C0882311F096E911C09E
:1026D000772321F09EE8872F762F05C0662371F0BF
:1026E00096E8862F70E060E02AF09A95660F771FD3
:1026F000881FDAF7880F9695879597F9089597F9C7
:102700009F6780E870E060E008959FEF80EC089597
:1027100000240A94161617061806090608950024C0
:102720000A9412161306140605060895092E03943A
:10273000000C11F4882352F0BB0F40F4BF2B11F4AE
:1027400060FF04C06F5F7F4F8F4F9F4F089557FD0D
:102750009058440F551F59F05F3F71F04795880F0F
:1027600097FB991F61F09F3F79F0879508951216A6
:1027700013061406551FF2CF4695F1DF08C0161652
:1027800017061806991FF1CF869571056105089403
:102790000895E894BB2766277727CB0197F908951A
:1027A000E199FECF1FBA8EBBE09A99278DB30895A9
:1027B000262FE199FECF1FBA8EBBE09A81500DB251
:1027C000021639F01CBA2DBB0FB6F894E29AE19AC2
:0827D0000FBE0895F894FFCF3D
:1027D800060B18010101000495294303023719016A
:1027E800070595955A010A14950102013832070226
:1027F800150112010F010201000000000000000194
:102808000000000000000000010000210123022553
:0E28180003270429052C06FF06050403000013
:00000001FF
