:100000000CC024C03BC022C021C020C01FC01EC0E5
:100010009AC01CC000010C66FF0011241FBECFE96E
:10002000CDBF10E0A0E6B0E0E4E0F3E002C0059050
:100030000D92A236B107D9F710E0A2E6B0E001C0F8
:100040001D92A936B107E1F711D15AC1D9CF96B3A4
:1000500093FB992790F981E0982780916700880F9A
:10006000892B809367008F7090E008958BB7806232
:100070008BBF08958BB78F7D8BBF08951895F8942B
:10008000A89581B5886181BD80E481BD789408958B
:10009000F894A89584B7877F84BF81B5886181BDB6
:1000A00011BC7894089581E687B9A29A86EC86B946
:1000B000089537980895ECDF15C08FEF9AE4019703
:1000C000F1F700C00000809164008F3F59F08091EB
:1000D00064008F5F80936400803321F483E6809313
:1000E00066000EC0B4DF892B41F710926400BEDFBA
:1000F00085B7806285BF889585B78F7D85BFBADF5C
:10010000BECF8091660080936500809166008F5F0E
:1001100080936600853010F01092660008958091FB
:1001200066008093650080916600882321F08091AD
:100130006600863010F084E003C080916600815034
:100140008093660008951F920F920FB60F921124AC
:100150002F933F934F935F936F937F938F939F93CF
:10016000AF93BF93EF93FF9372DF892BD9F0809108
:1001700064008F3F29F0809164008F5F809364005A
:1001800080916400853119F4CADF10926200809179
:100190006400803319F483E6809366008CEB8093CF
:1001A000600053C0809164008823B9F0809164009E
:1001B000853198F480916600833629F4809165003A
:1001C0008093660040C09DDF809162008B3410F008
:1001D000109266001092620036C0809162008F5FBC
:1001E00009F001C08FEF8093620080916000882346
:1001F00019F081508093600080916000811123C0CC
:10020000349B16C025B130E080916600813019F42E
:1002100083E790E002C082E890E02817390734F4C1
:10022000809168008F5F8093680002C01092680020
:1002300080916800843030F072DF109268008CEB9F
:1002400080936000369A10926400FF91EF91BF9105
:10025000AF919F918F917F916F915F914F913F915E
:100260002F910F900FBE0F901F90189517BA89E12C
:1002700088BB88E085BB82E087BB81E28FBD81E0DF
:1002800083BF11DF479A85B7877E806185BF13DF03
:10029000C0E0DFEF809166008C17E1F3C09166004B
:1002A000809166008336D1F4D0936300809163001F
:1002B00089BD8FEB9DE50197F1F700C0000019BCE7
:1002C0009FEF20EE80E0915020408040E1F700C099
:1002D0000000809166008C1749F3DCCFE091660046
:1002E000F0E0EC5EFF4FE491E9BD89B58111D2CF1A
:1002F0008FEA94E00197F1F700C00000DCDECACF7E
:04030000F894FFCF9F
:02030400BC003B
:00000001FF
