:100000007FC0A5C077C256C151C1A1C0A0C09FC0CA
:100010009EC09DC09CC09BC04FC199C098C00407A2
:1000200014233764A0FFFFFFFFFFFFFFFFFFFFFF69
:10003000FFFF0000000000000000000000000000C2
:1000400023456C98C9FF040714233764A0FFFFFF02
:10005000FFFFFFFFFFFFFFFFFF00000000000000A9
:10006000000023405F7AB4FFFFFFFFFFFF00140092
:10007000081400080E140004080E14000305080EEE
:10008000140004080A0E1114000305080A0E1014C7
:10009000000305080A0E1012140008000E00080ED6
:1000A0000004080E000305080E0004080E110008E5
:1000B0000E1100F3F404080E10121400080A0C0EBE
:1000C0000F10121400080EED1400020304050004C2
:1000D0001400040E1400040810140004080F111476
:1000E000000305080A0E0004080A0E00EEEDECEB12
:1000F000140E08040004080E00EBECEDEEF3F4140B
:1001000011241FBECFE5D1E0DEBFCDBF20E0A0E6C9
:10011000B0E001C01D92AA37B207E1F7EBE7F0E0CB
:1001200085E5808781E083831482128287E086835D
:100130001182118688E58287E1E6F0E08DEF878302
:100140008EEF8583712C55245A94B7D0FAC158CFBD
:10015000989A1EBC1BBC19BC18BC089525B7277EF5
:1001600025BF21E02FBD019728F020E2889521507E
:10017000E9F7F9CF089588EE93E0F0CF369A3699F3
:10018000FECF95B18091600089270895CF93C72D48
:1001900081E0870D8F73782E662D90E0C4D16FEFCC
:1001A0008C2F90E0CF91BFC1FF920F931F93CF93FD
:1001B000DF93F82E0CE710E0CEE7D0E0F11005C099
:1001C000CE01A9D1F801808304C0F8016081CE017D
:1001D000AAD121970F5F1F4FC437D10579F7DF915F
:1001E000CF911F910F91FF900895D0DF81E0DCCF78
:1001F000811101C0ADCF815090E0FC01E25EFF4F64
:10020000E491EEBD9898FC01EE5CFF4FE491EBBDEC
:10021000FC01EA5BFF4FE491E9BDFC01E65AFF4FA8
:10022000849188BD08950F931F93CF93C82F8B019E
:10023000CC2359F085E0DCDFC80190DF89DFC801FD
:100240008DDFC8018BDFC150F3CFCF911F910F918C
:100250000895CF93DF93D82F64E170E08AE0E3DF65
:1002600084EF91E07BDF8D2F64E649D1CAE06C2FEB
:1002700046D1892F68EC70E0D6DF7DDF8D2F6C2FA3
:100280003ED1D92F3CD1892F68EC70E0CCDF73DFF1
:1002900068EC70E08D2FC7DF6EDF64E170E08AE00C
:1002A000C2DF84EF91E0DF91CF9158CF989901C0E0
:1002B000C39A1895C3981895189510927A0087E7F5
:1002C00090E029D1853519F0612C8FDF11C0712C98
:1002D000872D90E020D1682E8F3F19F080E064DFF9
:1002E00007C0872D91E0970D792E803488F3F6CFE3
:1002F00090918400D0917E0010917F00C0917C008D
:10030000CC2319F010E0D0E09AE19F5F80E040E05C
:1003100050E06EE670E0992379F09B012F5F3F4F2C
:10032000F9013197E491EE2319F0822F861BF6CF65
:100330009150AB01B901EFCF982F6D2F70E0A82F2E
:10034000B0E0E92FF0E0112321F09D012E1B3F0BBF
:1003500005C09F0121503109260F371F3197E40F47
:10036000F51F049126593F4FF9010083915049F739
:100370008D0F80938600DD2371F0112329F0282F43
:1003800030E02150310902C020E030E0F901E659A7
:10039000FF4F91E0908397E0980F292F2150E22F93
:1003A000E81BF0E0E750FF4FE491A22FB0E0A65920
:1003B000BF4FEC932813F2CFE92FF0E0E759FF4F3E
:1003C00021E040916A003081431320E0921B90931A
:1003D0008700262D253FE8F5352D3330B0F4909178
:1003E00088009F3F29F480917A008093880006C09E
:1003F00091E0960D692E981708F0612C8091880085
:100400008F5F8F718093880024C020917A002093A1
:1004100088003630C0F420918100222311F0CC23D3
:1004200039F091E0960D692E981798F0612C11C063
:10043000262D6816D9F3662019F02150622E09C0C6
:100440009150692E06C0C111F1CF80917D008823A3
:1004500069F3512C8FEF8DBD80E68CBD89B7846424
:1004600089BFAA9A8FE384BB8BE187BB80EE88BBF0
:1004700081E083BF81EA8ABD82E480BF8BB780625E
:100480008BBF8AB785608ABF85B7806285BF789445
:100490008CE287B986EC86B93699FECF8FEF8093D0
:1004A00060008CE291E05ADE69DED3DEFACF1124DF
:1004B00016B84EDE87B3847E87BB94E4B29914C02D
:1004C0005394999885B7877E806185BFA89591BD23
:1004D00085B7846885BF8B7F85BF78948895F894AD
:1004E00081B58F7B81BDEACF8FE58DBF81E08EBF67
:1004F0001FBEE3DE552011F0189501C0D8DF991B0F
:1005000079E004C0991F961708F0961B881F7A950A
:10051000C9F780950895E199FECF1FBA8EBBE09A86
:1005200099278DB30895262FE199FECF1CBA1FBAE3
:100530008EBB2DBB0FB6F894E29AE19A0FBE0196DE
:060540000895F894FFCFBE
:00000001FF
