:10000000F6C010C180CC0EC10DC10CC10BC10AC11C
:100010003BCC08C107C106C170CC04C103C132305A
:1000200032313132303430343133000000000000DE
:1000300000000000000000000000000000000000C0
:1000400000000000000000000000000000000000B0
:1000500000000000000000000000000000000000A0
:100060000000000000000000000000000000000090
:100070000000000000000000000000000000000080
:100080000000000000000000000000000000000070
:100090000000000000000000000000000000000060
:1000A000000000060B11171D242A31383F474E5619
:1000B0005E666F778089939CA6B0BBC5D0DBE7F303
:1000C000FF00000000000000000000000000000031
:1000D0000000000000000000000000000000000020
:1000E0000000000000000000000000000000000010
:1000F0000000000000000000000000000000000000
:100100000000090B0D0E10121416181A1C1E2123C4
:1001100026292B2E3134373B3E4245494D51555906
:100120005E62676C71767C81878D9399A0A6ADB471
:10013000BCC3CBD3DBE4EDF6FFFFFFFFFFFFFFFF08
:10014000FFFFFFFFFFFFFFFFFFFFFFFFFFFFFFFFBF
:10015000FFFFFFFFFFFF0001010203030404050688
:10016000070708090A0B0C10111213141516181A98
:100170001C1E202325282A2D3033373A3E41454A7C
:100180004E53575C62676D737980868E959DA5ADE1
:10019000B6BFC9D3DDE8F3FFFFFFFFFFFFFFFFFF9F
:1001A000FFFFFFFFFFFFFFFFFFFFFFFFFFFFFFFF5F
:1001B000FFFFFFFFFFFFFFFFFFFFFFFFFFFFFFFF4F
:1001C000FFFFFFFFFFFFFFFFFFFFFFFFFFFFFFFF3F
:1001D000FFFFFFFFFFFFFFFFFFFFFFFFFFFFFFFF2F
:1001E000FFFFFFFFFFFFFFFFFFFFFFFF00001124E6
:1001F0001FBECFE5D2E0DEBFCDBF10E0A0E6B0E08D
:10020000E2EDFDE102C005900D92A239B107D9F7E8
:1002100021E0A2E9B0E001C01D92A333B207E1F7EB
:1002200078DBD5CDEDCE482F362F272FE0E0F1E05B
:1002300090E080E0508151110AC063E070E069DD18
:10024000FC01E050FF4F40833183228305C00196BB
:1002500033968031910571F70895EF92FF921F93C5
:10026000CF93DF9310910001111106C0DF91CF9160
:100270001F91FF90EF900895E0900101F09002012E
:10028000C091DD00C1500C2E000CDD0BC7FD0EC06F
:10029000FE01EE0FFF1FE252FF4F0190F081E02DB3
:1002A000B701812F099521978111F0CFE0E0F1E0AE
:1002B000838180838481958192838183339681E0D9
:1002C000ED32F807A9F710922D0110922F0110922C
:1002D0002E01C8CFBC0180913201A5CF109232010E
:1002E000109231011092300181E08093BC0008959A
:1002F00090E822E048EA57E030E0815008F40895A1
:100300000FB6F89496BD26BD0FBEFA013197F1F7EE
:100310000FB6F89496BD36BD0FBEEFCF86B383FB04
:10032000882780F991E089278093D6000895E0918D
:100330006600F09167003196FB70F460F0936700FF
:10034000E09366008091D2008B5A8093D200E491B2
:100350008091D2008E0F0895CF93DF9300D000D00C
:1003600000D0CDB7DEB72091B6004091EE0050919D
:10037000EF004351584009F422E0843059F460936F
:10038000B70026960FB6F894DEBF0FBECDBFDF9143
:10039000CF9108956623A9F3823019F497E9961B4B
:1003A000692F96E0EBE7F0E0DE01119601900D92E7
:1003B0009A95E1F78150990B880F991FA1E0B0E061
:1003C000AC0FBD1F8A0F9B1FDC01ED91FC91E20F6A
:1003D000F11D6083D6CFCF92DF92EF92FF920F9301
:1003E0001F93CF93DF939C015091B600E091B8002A
:1003F00082E0E11101C0852F90E0DC01AF58BF4FD2
:100400004C914093750082599F4FDC018C918093F1
:100410007400F0E0E559FF4FC181642F70E055236F
:1004200081F0C13071F4860F972F911D95958795B6
:10043000DF91CF911F910F91FF90EF90DF90CF90C0
:100440000895261737078CF1821713068CF3511184
:1004500002C0822FEDCF841B6C2F6150770B8B0174
:10046000E82EF12CC70186DC6093B5006695E62F77
:10047000F0E0842FD12CC12CD0E0DC17C9F2C601EA
:10048000B80164DC842F860FA82FB0E0B9016A1B85
:100490007B0B77FF03C0BD01621B730BCE0CDF1C0F
:1004A000E617F7072CF6DF5FE8CF842FC1CF81E096
:1004B00008956111609379000895662369F0813091
:1004C00099F48091F0009091F100891B680F60937E
:1004D000F00082E080937A0080917800873418F0F1
:1004E00086E4809378000895635E60937800F4CF8B
:1004F0006093B00008950F931F93CF93DF93809183
:10050000B6008093BD00809171008093BE00809101
:100510006E008093BF00809172008093C000809134
:100520006F008093C10080916C008093C200809125
:1005300073008093C300809170008093C400809109
:100540006D008093C5008091B8008093C6008091B3
:10055000B7008093C700809176008093C800809197
:10056000BA008093C9008091B9008093CA0080913D
:1005700069008093CC00809178008093CD008091B9
:10058000F0008093CE00809179008093CF0080911D
:100590006A008093D0008091B0008093D100F894DD
:1005A0000DEB10E0C1E0D1E0F80161918F01CE01C7
:1005B000FCDB2196C631F1E0DF07B1F765EA80E0A8
:1005C00091E0F3DB7894DF91CF911F910F91089523
:1005D000882321F0813029F0BA9A04C0BA98C298D1
:1005E0000895BA98C29A0895CF93C82F8093D400E3
:1005F0008093D3008091D50081110AC091E0C11190
:1006000001C090E081E0C23408F480E0890FE0DFAF
:10061000C11110C019BC18BC1BBC8091D40086301D
:10062000E0F480E892E00FB6F89486BD96BD0FBE68
:10063000CF910895C1508C2F90E0FC01E95AFE4FF4
:10064000E491E9BDFC01EF53FF4FE491E8BD855D06
:100650009F4FFC0184918BBDE0CF813118F480E87D
:1006600091E0E1CF80E890E0DECF8093BB00BCCF8B
:10067000CF93C091D40089E18C0F873908F080E0D6
:10068000B3DF82E035DE8C2FCF91AECF813019F40D
:100690001092BA000895823019F46093B900089559
:1006A000843011F4609376000895E82F8091F30070
:1006B0008D3110F480E08CCFEF70F0E0EF57FF4FFA
:1006C0008081F9CFCF93282FCB01C091B800C11101
:1006D00017C0283049F41092B4001092B200109262
:1006E000B1008C2FCF910895213B61F48091B4002B
:1006F0008150833028F483E08093B4008093B3006A
:10070000C1E0EFCF253BA1F46EE370E01FDB892B46
:1007100041F78091B4008A3F20F78B5F8093B4004B
:100720008093B3001092B2001092B100A1DFD9CF34
:10073000213031F78091B1009091B2000196883854
:100740002EE0920728F49093B2008093B100C9CFB5
:100750001092B2001092B1008091B400882309F287
:1007600081508093B400BDCFFF920F931F93CF931E
:10077000DF938C01D62FC72FF42E8091EE0090913D
:10078000EF00892B31F0E091EE00F091EF0089E06D
:1007900009951093EF000093EE00012B41F0E091DA
:1007A000EE00F091EF006D2F7C2F8F2D099581E0E9
:1007B0008093BC00DF91CF911F910F91FF9008951E
:1007C000CF93DF93E091DD00D0E0C0E0EE2351F065
:1007D000E150E093DD00F0E0EE0FFF1FE252FF4F2B
:1007E000C081D181E091DD0090E080E0EE2341F016
:1007F000E150FF0BEE0FFF1FE252FF4F808191810E
:100800004AE070E060E0B0DFCE01DF91CF91089563
:10081000883039F41092AF001092960080E0E4DE48
:100820000CC08130F9F490919600911108C06032AB
:10083000710518F08093960051DD80E008959130A5
:1008400079F46B3B710520F082E080939600E6CF4F
:100850006115710591F3862F880F84708E5EDFCF4E
:10086000AFDFEBCF813811F0813E39F791E0909303
:100870009600813E41F48091AF00865F8093AF0087
:100880002DDD8BE4CCCF8091AF008F5FF7CF20912F
:10089000DD00283080F4E22FF0E0EE0FFF1FE2527F
:1008A000FF4F808391832F5F2093DD0048E05CDF62
:1008B0008091DD0008958FEF08950F931F93CF93DC
:1008C000DF93D82FC92F8B017BDFB8018D2F9C2F91
:1008D000DF91CF911F910F91DACF843011F5809184
:1008E000EE009091EF002BE08C31920731F469E13A
:1008F00070E086EC95E0E1DF0DC0865C954061F428
:100900009091D400923040F0892F869596959695D7
:10091000890FABDE80E0089570E060E084EF94E042
:10092000EACF81E00895282FCB01213C39F470E013
:1009300060E084EF94E0C1DF80E00895223C29F478
:1009400070E060E08AEB94E0F6CF213B39F46EE38F
:1009500070E0FCD9892B81F78BDEEECF213E41F48C
:100960006EE370E0F3D96F5F60936900C4DDE4CF9C
:1009700081E00895CF93C091B800C11119C0813CA6
:1009800041F470E060E084EF94E097DF8C2FCF912A
:100990000895823C29F470E060E08AED94E0F5CFA0
:1009A000873B31F470E060E08BE198E070DFEECFE0
:1009B000C1E0ECCF813C39F470E060E084EF94E07A
:1009C0007CDF80E00895823C29F470E060E083E9F8
:1009D00094E0F6CF873B31F470E060E08FE198E07F
:1009E00056DFEFCF81E008950F931F93CF938B01D4
:1009F0008830A1F480E0F8DD80916A008370E8DD42
:100A00001092B400012B31F0C0E08C2FCF911F91D8
:100A10000F91089581E08093D500F6CF813051F495
:100A20006931710588F38093D50080916A008370E5
:100A3000CFDDEACF833031F52091BA00222359F07F
:100A40008091B90090E062EC71E063D90817190752
:100A500010F02093770080916A008370833011F446
:100A6000802F23DE8091B000882371F290E062EC49
:100A700071E04FD98017910738F670E060E087E2A7
:100A800098E012C0813B91F481E090E0A4DCACDD01
:100A90008091B600811104C00831110508F4B4CF6B
:100AA00061E070E086EC95E008DFAECF813EC1F3F7
:100AB000813831F48091770090E08DDC95DDA4CF12
:100AC000813C21F46091D40070E0ECCF823B71F462
:100AD000809176009091B80091118091B7008111BA
:100AE00003C086E990E0E9CF86E9E8CF823E11F4C1
:100AF00080E0E4CF66E970E0823CA1F28339C1F383
:100B0000843C29F470E060E08AEB94E0CDCF833C34
:100B100011F4AEDDB2CF8F3C29F470E060E087E5E0
:100B200092E0C2CFC091B8008A3B79F4012B61F505
:100B3000CC2329F09DDD1092B800DDDC65CF70E09C
:100B400060E083E198E0A3DE60CFC1111DC08A3C64
:100B500031F48EDD81E08093B800CDDC56CF833B4D
:100B600031F470E060E08CE19BE0A7DE4ECF873C83
:100B700059F490916A0081E0890F83709C7F982BD3
:100B800090936A0025DDE9CFC1E03FCFAF92BF92DD
:100B9000CF92DF92EF92FF920F931F93CF93DF9349
:100BA000C82F8B01C0907500E0907400D090B60003
:100BB000A090B500D11002C0AA24A3948091760021
:100BC000D091B800D1118091B7008823D9F181303C
:100BD00021F0809177008E15A8F1A6E9FA2EB09049
:100BE000B400B8018C2F6EDD6091B400662309F467
:100BF000C8C1B11004C08091D40080939A00C8305D
:100C000029F0CA3009F50091770010E0C0161106EE
:100C100030F4E016110619F010F000937700C801C7
:100C2000DADB23DD81E080936500D0E08D2FDF915A
:100C3000CF911F910F91FF90EF90DF90CF90BF90D9
:100C4000AF900895FE2CCBCFC13C09F49DC1C23CAE
:100C500071F48091D4008F1538F48F2D06DD8091CA
:100C6000D40080939A00E1CF80917700F7CFC33C06
:100C700039F480E0B9DC70E060E087E298E088C198
:100C80008FE48C0F8230D0F5DD2031F0C80168E1AF
:100C900070E05CD8892B49F68091D40001151105CC
:100CA000D9F4C23B99F48FEF809365008091650081
:100CB0006A2D70E0082E000C990B2BD82091D400DF
:100CC000820F911D88DB80937700C8CF8E1558F76F
:100CD000C81660F381E0E8CF073341E0140710F055
:100CE0008E1508F70D36124008F3C816F8F2C0DC6E
:100CF00070E060E087E298E0E0DDD8CF8FE18C0F14
:100D0000823020F48091650081958DCFC13009F04B
:100D1000BAC00932110511F4C0936500662389F049
:100D200080919A006150770B90E0F3D76091B30007
:100D300070E020D8611101C061E06093D30060933E
:100D4000BB008091D3009091D400E82FE91BFF0BEA
:100D50009F0160919800709199006F5F7F4F709331
:100D6000990060939800309709F45FCF40E052E01B
:100D7000F7FF06C040E450E0933810F440E051E043
:100D80005695479537FF02C02F5F3F4F3595279502
:100D900021153105A9F74617570708F046CF8917DF
:100DA00008F04AC08FEF890FAFEFA80F2A2F30E06D
:100DB000B901695A7E4FFB014491A91708F041C05F
:100DC00099B591113EC04F3F09F03BC049BDA90103
:100DD0004F535F4FFA019491E091D400AE1708F0A1
:100DE0003EC0E8B5E1113BC09F3F09F038C098BD57
:100DF000255D3F4FF9019491EBB5E91708F03CC030
:100E00009BB59F5F9BBD99B5FB01649196130FC085
:100E100098B5FA01449194130AC09BB5F901249145
:100E2000921305C0C091D300DFDBC093D3001092B2
:100E3000990010929800F9CE981708F0B5CF81E08C
:100E4000B2CF99B5941720F499B59F5F99BDBFCFE4
:100E500099B5491708F0BBCF99B59150F7CFE8B5D0
:100E6000E91718F498B59F5FC2CFE8B59E1708F050
:100E7000BFCF98B59150BBCFEBB59E1708F0C3CF4D
:100E80009BB59150BFCFC53099F48091D400823486
:100E900008F4CBCE90E0801B910B81349105DCF0FF
:100EA0008739910510F086E990E08093D300BDCE9C
:100EB000C630A1F49091D4008091BB00981708F03F
:100EC000B4CE090F111D90E08017910774F3C8018B
:100ED0000134110554F781E490E0E7CFC73069F49D
:100EE0009091D3008091D400891710F48F5FDDCFEB
:100EF000981708F09ACE8150D8CFD11140C0C43C89
:100F0000D1F481E0D11080E08093B600F4DAC09192
:100F1000D40080E069DB83E0EBD98C2F65DB809126
:100F2000D40090E058DA809377009FDB8091D40062
:100F300080939A007BCEC33B31F48F2D012B09F0B7
:100F400074CE93DB73CEC33E19F480917700F9CF52
:100F500070E060E08DE098E0C73B79F0CA3C39F47E
:100F60008091D4008093BA00C6DA82DB5FCECA3BA0
:100F700031F470E060E087E198E089DC57CED1E0A1
:100F800055CEBB2009F43BCE70E060E084EF94E0E6
:100F900094DC4BCE582FCB01F901583089F41092D4
:100FA000970080E021DB8091D60081111CC081E098
:100FB0008093970070E060E088E094E068DC13C004
:100FC000252F207F203BB1F420919700421780F01D
:100FD0006DE570E0BBD6029741F42F5F2093970038
:100FE00088E3421718F480E0089582E1FDDAFBCF30
:100FF00080E0FCCF203E41F480919700882311F0DF
:101000004817C0F6DDDBEFCF5A3069F76091AF00CB
:101010008091970009956FDAF5CF4091B6004E5F49
:101020002CEA31E0B7CF2CEA31E044E0B3CF26E43C
:1010300033E044E0AFCF29E532E041E0ABCF2DE52E
:1010400032E042E0A7CF28E732E041E0A3CFCF93E0
:10105000DF93D82FCB012D2F2079203941F5209116
:101060007100909172008D2F8F70823049F48091C1
:10107000BA00811108C0822F291728F4892F03C0D4
:10108000822F9217D8F3B0DAD23C09F03EC0C0915B
:10109000BA006C2F70E0C1113EC06091770070E023
:1010A00086EC95E00ADC8C2FDF91CF9108952038F3
:1010B00011F480E0E8CFD83089F480916A008695F9
:1010C000869586DAC091B800C1114EC0DA3BC9F5E9
:1010D00070E060E083E298E0DADBE5CFD13061F4E4
:1010E0006931710538F0D093D50080916A008695FA
:1010F00086956EDAC0E0D7CFD33031F620916A0002
:101100002C702C30B9F7D1DAF5CFD23B41F41092E4
:10111000320161E070E086EC95E0CFDBEBCF66E971
:1011200070E0D33CC1F3D33B69F6C091B800CC2347
:1011300029F086E990E04FD957DADCCF86E954DA16
:10114000B2CFD73C89F490916A00892F8695869515
:101150008F5F8370282F220F220F9370920F90932E
:101160006A0036DAC8D99FCFC1E09DCF8CE287B93B
:101170001092FD001092FE0086B1886486B9089531
:101180001092FF0084B125B14091D20082958695DE
:101190008695837030E0220F331F220F331F820F9A
:1011A000932F911D840F8093D2008091F4008823A7
:1011B00009F44DC01092F4008091FD009091D5008B
:1011C000992319F037981092FD00811149C0809140
:1011D0007A006091F5007091F600882341F06091EB
:1011E000F9007091FA007093F6006093F500605F6B
:1011F0007F4FF6E076956795FA95E1F780E098E500
:10120000A5D580917900680F711D769567956093DB
:10121000F3008091AE008823D9F081508093AE0016
:101220008091D50081110AC08FEA87B981E080934F
:10123000FD001092FE0086B1886486B980917A0024
:10124000882329F080917A00815080937A00089554
:101250006D3130F770E060E084E0E5D785E0DECF07
:10126000813061F780917A0081115CC02091F70094
:101270003091F800205F3F4FB90145E076956795C2
:101280004A95E1F7E091F00056E0369527955A959A
:10129000E1F70E2E000CFF0BCF0183519140280F78
:1012A000391F3093F2002093F10080919D00A82F08
:1012B000B0E0AA0FBB1FA256BF4F2D913C911197D2
:1012C000AB01421B530B6D937C938F5F87708093B0
:1012D0009D00CA01880F991F880F991F20917800DF
:1012E00030E02D5E3E4F2E1B3F0B220F331F821B23
:1012F000930B860F971F23E0181619060CF041C0B8
:1013000001972150C9F7181619060CF051C057FD66
:101310006CC020919C001216CCF5281B20939C00D9
:1013200025DF8CCF8091FB009091FC009093F8001A
:101330008093F700409635E0969587953A95E1F7CA
:1013400090939F0080939E009093A1008093A000B3
:101350009093A3008093A2009093A5008093A40093
:101360009093A7008093A6009093A9008093A80073
:101370009093AB008093AA009093AD008093AC0053
:1013800075CF009709F4BDCF0196BBCF880F991F89
:1013900061E070E08530910524F00397BC017595FC
:1013A000679588E1861B80939C0085E03CD7B8CF89
:1013B0008C3F2FEF9207CCF457FF17C020919C0071
:1013C00027FF02C02450A9CF24EE281B20939C00A5
:1013D0002091F3002F3108F4A3CF6CEF7FEF681B4F
:1013E000790B7595679586E0E1CF8091F3008E319A
:1013F00008F496CF70E060E087E0D8CF0F931F939A
:10140000CF931092D80080913001909131019C01CE
:101410002F5F3F4F88279078822B932B9093310139
:1014200080933001C091D60079D7C817B1F01092DF
:10143000D5008093D600909132018823C9F1892F7D
:1014400080699F709F3091F58093320190E080E039
:1014500041D710923101109230010091300110916A
:1014600031018091D500882389F1B80183E0DBD672
:10147000F4D60F731127012BA9F410929B0076DE8E
:1014800087EE86B980919B00811106C086B1886481
:1014900086B981E08093F40080919B008F5F8F710B
:1014A00080939B00CF911F910F9108958F5FCCCFB8
:1014B000892F8F7E95FD08C08068809332018091CE
:1014C000300190913101C4CF806CF7CFC0913201CF
:1014D0008C2F807F803B39F470E060E081E0A3D600
:1014E000C801F8D6CFCFB80181E09DD6C4FF0FC0A8
:1014F000C5FDF6CF0831110528F210923101109286
:101500003001C062C093320190E080E0EACFCC238A
:1015100009F4B8CFC5FF02C0E1D6B4CF023111053E
:1015200008F4B0CFC064C093320190E080E0D2D61E
:10153000F3CF8091FF00811123DE8091D8008111CB
:101540005DCF0895BF92CF92DF92EF92FF920F93FB
:101550001F93CF93DF93EC0110E888E0E82E87E03B
:10156000F82E02E092ECC92EDD24D394B12C209702
:1015700059F481E0DF91CF911F910F91FF90EF908F
:10158000DF90CF90BF9008958091BC0081111DC065
:101590009091D400963090F40FB6F89416BD06BD25
:1015A0000FBEC6010197F1F78B2D0FB6F89416BD4B
:1015B00086BD0FBEBEDF51D62197D9CF0FB6F894A6
:1015C00016BD86BD0FBEC701EDCF80E0D3CF0F9310
:1015D0001F93CF93C82F06EA811102C008E0C1E033
:1015E00010E089E101D8C801ADDF80E0FDD78AEFC6
:1015F00090E0A8DFC150A9F78AE992E0CF911F914E
:101600000F91A0CFCF93DF93282F64E693D3382F89
:10161000C92F892F6AE08ED3D92F243650F0832F1B
:10162000D6DF8C2F6AE086D3D2DF8D2FDF91CF916A
:10163000CECFCA30B0F7F9CFDF92EF92FF920F937F
:101640001F93CF93DF93C82F8B01D0916800D130C7
:1016500071F4F090B40036D8FF20A1F08091B4006E
:10166000811110C070E060E084EF94E026D9C830AA
:1016700071F0C13C09F0EDC070E060E084EF94E0EF
:101680001CD908C0C83081F481E08093630081E0F8
:1016900080936400D0E08D2FDF91CF911F910F9147
:1016A000FF90EF90DF900895C23C59F41092B4007F
:1016B0008D2F90E0019681709927809368001BD749
:1016C000E9CFC13BC1F480916200012B41F49FEF4F
:1016D0008E3618F4823018F491E090936300909164
:1016E0006300890F21F481E080936200D3CF8F36AD
:1016F000D8F38EE6F9CFC13E59F48091630081950D
:101700008093630080916400819580936400D7CFBB
:10171000C23B61F481E0809363008091620082307B
:1017200008F4B5CF815080936200B1CFC13009F089
:10173000A4C00932110511F4C0936300D090950044
:101740008D2D880FD7FC809590E067E070E0E1D2A6
:10175000292FE09094008E2D880FE7FC8095D09182
:1017600061006D2F70E090E0D4D2290FF0909300CB
:101770008F2D880FF7FC8095C09160006C2F70E072
:1017800090E0C7D2622F690F80916200680F7727BF
:10179000771F8091B400813091F48091B1009091D5
:1017A000B20025E0969587952A95E1F724E730E089
:1017B000A901481B590BCA01ACD2B901C7D2862F67
:1017C00013D700FD05C0B3D581708D0D80939500B2
:1017D000809192008E0D80939400A9D565E2AAD2E3
:1017E0009F0D90939300A3D58F7329F4A0D56DE03E
:1017F000A1D290939200DD2331F099D58F7319F423
:10180000D150D093610093D5811107C090D56BE082
:1018100091D29093610010929400C33030F087D53C
:101820008F7119F4C150C093600081D58F7729F46E
:101830007ED566E07FD2909360000932110519F4DD
:1018400081E0809364008091D200080F0093D20061
:1018500021CFC23C09F42CCFC13B09F41BCFC13EC0
:1018600009F450CFC23B09F412CFC23E09F427CF8E
:10187000D1E0C13009F00FCFE0CFC13C09F4FCCE7C
:10188000C23E09F008CF1BCF2F932FB72F933F9362
:101890008F939F93AF93BF93EF93FF938091FE003D
:1018A0008823E9F0E091FD0024B135B1F0E0EE0FBE
:1018B000FF1FDF01A750BF4F2D933C93EB50FF4F0D
:1018C000808191818217930708F4019628173907C0
:1018D00008F401979183808381E08093FF0081E089
:1018E0008093FE00FF91EF91BF91AF919F918F91F7
:1018F0003F912F912FBF2F9118958F9381E0809367
:10190000D8008F9118958F9381E08093D7008F91A5
:101910001895F89484B7877F84BF0FB6F894A8957C
:1019200081B5886181BD11BC0FBEB89A81E083BFCB
:1019300091EA9ABDB99ABC9A80BF80E68CBD8FEFC0
:101940008DBD88E088BB85BB8BB780628BBFA895B7
:1019500081B5886181BD80E481BD08DC87EE86B9F0
:10196000789481E0C5D470E060E08DE694E08FD794
:101970001092BC007DD6D2D4811167C0F89480E06B
:1019800091E00BD2853A09F088C00DEB10E0C1E080
:10199000D1E0CE0102D2F80181938F012196C631A8
:1019A000F1E0DF07B1F778948091BD008093B60035
:1019B0008091BE00809371008091BF0080936E0083
:1019C0008091C000809372008091C10080936F006D
:1019D0008091C20080936C008091C300809373005B
:1019E0008091C400809370008091C50080936D0049
:1019F0008091C6008093B8008091C7008093B700A3
:101A00008091C800809376008091C9008093BA00CD
:101A10008091CA008093B9008091CC0080936900C6
:101A20008091CD00809378008091CE008093F0006B
:101A30008091CF00809379008091D00080936A00DC
:101A40008091D1008093B00029C0C0E08C2FCCD50C
:101A500083E190E077DD8C2F8695C6D583E190E019
:101A600071DD5CD48823B1F0CF5FC03479F765E1D4
:101A700081E023D540D5C6E98C2FB6D584E090E02F
:101A800061DDC150C9F77ACF8C2FAED58DE090E0E3
:101A900059DDC150C111F8CF71CF78948091BA004F
:101AA00081118093770061E070E084EF94E0EFD6DD
:101AB00042E0242E57EE352E60E4462E55245394F2
:101AC00074EF872E74E0972ECC24C394D12CFAE2C5
:101AD0006F2EF0E07F2EC1D38091DB009091DC006F
:101AE000009749F06091D9007091DA00E6D6109223
:101AF000DC001092DB008091D500882331F180E07A
:101B000073D5A89581B5886181BD23E421BD37983F
:101B100005D48111FDCFE2D38BB780628BBF1092C9
:101B2000FF001092D8001092D7008091D50081114B
:101B30002DC020927A008BB78F7D8BBF17DB36B814
:101B4000A89581B5886181BD41BCF3DC1092BC00D1
:101B50008091EE009091EF0032E087359307B1F568
:101B6000CEE1D0E0FE018491805331DD8CE291E042
:101B7000E9DC21966C167D06A9F79092DC00809234
:101B8000DB001092DA001092D900A5CF85B7877ECE
:101B9000806185BF85B7806285BF889585B78F7D59
:101BA00085BF8091D70081111092D5008091FF00F0
:101BB000882329F050927A005092F400E1DA809163
:101BC000D800882309F4B1CF19DCAFCFFBE08C310A
:101BD0009F0709F065C08091680081117CCFA7D371
:101BE0008F73082F10E0A3D367E0A4D0E60102C0F2
:101BF000CC0FDD1F9A95E2F79AD365E09BD0960152
:101C000002C0220F331F9A95E2F7C20FD31F8FD362
:101C100090E0BE01AFD0C80FD91FC739D10514F06D
:101C2000C6E9D0E08C2FE0D4C8018CDC7E0133E023
:101C3000F594E7943A95E1F7E11002C0EE24E394BD
:101C4000F12CC8017FDC5E01AE18BF08E501B7FECC
:101C500002C0D0E0C0E08C2FC7D469D3837031F4C8
:101C6000C80170DCCE0195958795BED432E0A316ED
:101C7000B1043CF75CD36DE05DD0860102C0000F7B
:101C8000111F9A95E2F753D3E801219790E0C823FA
:101C9000D923C00FD11F80E0A7D4CE0153DC1BCFC6
:101CA000E4E08A3B9E0751F48091F300ABDC809125
:101CB000B800811162CF88EE93E0F0CFF4E08A3D66
:101CC0009F0721F48091F1009DDCF5CF835994406A
:101CD000A9F48091D6008111FECE8091770084D442
:101CE00084E690E02FDC80E07FD48091690090E072
:101CF00068EE73E00ED084569109D0CF85B7877E09
:101D000085BF85B7806285BF889585B78F7D85BF84
:101D1000E2CE0024552704C0080E591F880F991FD2
:101D2000009729F076956795B8F37105B9F7802D7E
:101D3000952F0895991B79E004C0991F961708F014
:101D4000961B881F7A95C9F780950895AA1BBB1B1F
:101D500051E107C0AA1FBB1FA617B70710F0A61BAB
:101D6000B70B881F991F5A95A9F780959095BC01CC
:101D7000CD01089597FB072E16F4009406D077FD49
:101D800008D0E4DF07FC05D03EF4909581959F4F85
:101D90000895709561957F4F0895E199FECF9FBB9F
:101DA0008EBBE09A99278DB30895262FE199FECF37
:101DB0009FBB8EBBE09A01970DB2021639F01CBA98
:101DC0002DBB0FB6F894E29AE19A0FBE0895F894ED
:021DD000FFCF43
:101DD200060B18010101000401020D0107057878C4
:101DE20078010A0A780101412D070271006E006B29
:101DF20000000102010000000000000100000000DC
:021E02000000DE
:00000001FF
