:100000000C948D000C94AA000C943B0C0C94AA0048
:100010000C94AA000C94350C0C94AA000C94AA0021
:100020000C94AA000C94AA000C94AA000C94AA00A8
:100030000C94AA000C94AA000C94FC0B0C94AA003B
:100040000C94AA000C94AA000C94AA000C94AA0088
:100050000C94AA000C94AA000C94AA000C94AA0078
:100060000C94AA000C94AA000C94AA000C94AA0068
:10007000323032303132303930313135000105041F
:10008000141011150101010202020203030303040B
:1000900004050506060607080809090A0A0B0C0DDF
:1000A0000D0E0F10101112131415161717181A1B16
:1000B0001C1D1E1F20212224252627292A2B2D2EF8
:1000C0002F3132343537383A3B3D3E404243454785
:1000D000484A4C4E5051535557595B5D5F616365BB
:1000E00067696B6D6F717476787A7D7F818486889D
:1000F0008B8D909294979A9C9FA1A4A6A9ACAEB127
:10010000B4B7B9BCBFC2C5C8CBCDD0D3D6D9DCDF5C
:10011000E2E6E9ECEFF2F5F9FCFF11241FBECFEFA8
:10012000D4E0DEBFCDBF11E0A0E0B1E0E4E4FEE149
:1001300002C005900D92A036B107D9F721E0A0E6E4
:10014000B1E001C01D92AD3EB207E1F70E94410C43
:100150000C94200F0C940000F89498ED9FBD83BF81
:1001600078940895482F362F272FEAEBF1E090E09E
:1001700080E0508151110BC063E070E00E94C10E1D
:10018000FC01E654FE4F40833183228305C0019673
:1001900033968031910569F70895EF92FF921F938E
:1001A000CF93DF931091BA01111106C0DF91CF9167
:1001B0001F91FF90EF900895E090BB01F090BC017B
:1001C000C0919A01C1500C2E000CDD0BC7FD0EC072
:1001D000FE01EE0FFF1FE556FE4F0190F081E02D6E
:1001E000B701812F099521978111F0CFEAEBF1E05A
:1001F000838180838481958192838183339681E09A
:10020000E73EF807A9F71092E7011092E901109272
:10021000E801C8CFBC018091EC010C94B2001092AF
:10022000EC011092EB011092EA0181E080937801D9
:1002300008950F931F93CF93C82F08EA17E0C1507A
:1002400020F4CF911F910F91089582E00E94AC009D
:10025000C8010197F1F780E00E94AC00F0CF8FB1A8
:1002600082FB882780F991E0892780939301089584
:10027000E0910601F09107013196FB70F460F09374
:100280000701E0930601809190018B5A80939001C1
:10029000E491809190018E0F0895CF93DF9300D069
:1002A0000F92CDB7DEB720915C0130915D01409196
:1002B0005E0129833A834B83FE01319650E040E092
:1002C000682F70E0A1E0B0E09B01042E02C03595DC
:1002D00027950A94E2F7922F937081919D0101C0B6
:1002E000220F8A95EAF7992329F09130C1F080B363
:1002F000822B19C080B32095822380BB82B38223D6
:1003000082BB81B3282321BB4E5F5F4F463051052E
:10031000D9F60F900F900F90DF91CF91089590B381
:10032000822F8095892380BB82B3822B82BB81B3CD
:10033000282BE9CFCF93DF9300D000D000D0CDB7EA
:10034000DEB7209175014091AB015091AC01475847
:10035000584009F422E06623F1F0823019F497E95D
:10036000961B692F96E0E0E2F1E0DE011196019024
:100370000D929A95E1F78150990B880F991FA1E092
:10038000B0E0AC0FBD1F8A0F9B1FDC01ED91FC910B
:10039000E20FF11D608326960FB6F894DEBF0FBE04
:1003A000CDBFDF91CF910895813019F4109277017C
:1003B0000895609376010895CF92DF92EF92FF92B5
:1003C0000F931F93CF93DF939C0150917501E091A0
:1003D0001C0182E0E11101C0852F90E0DC01A95EE3
:1003E000BE4F4C9140931B018C5E9E4FDC018C9163
:1003F00080931A01F0E0EF5EFE4FC181642F70E040
:10040000552381F0C13071F4860F972F911D95957A
:100410008795DF91CF911F910F91FF90EF90DF9023
:10042000CF900895261737079CF1821713068CF397
:10043000511102C0822FEDCF841B6C2F6150770BBE
:100440008B01E82EF12CC7010E94F20E609374011B
:100450006695E62FF0E0842FD12CC12CD0E0DC177C
:10046000C1F2C601B8010E94DE0E842F860FA82FAC
:10047000B0E0B9016A1B7B0B77FF03C0BD01621BB3
:10048000730BCE0CDF1CE617F7071CF6DF5FE7CF18
:10049000842FBFCF81E00895611160931E010895FC
:1004A00060936F0108950F931F93CF93DF93809113
:1004B0007501809379018091170180937A01809171
:1004C000140180937B018091180180937C018091BD
:1004D000150180937D018091120180937E018091AE
:1004E000770180937F0180917601809380018091D4
:1004F0000B01809381018091090180938201809199
:100500000A01809383018091080180938401809186
:100510000C018093850180911C018093860180915C
:100520001901809387018091160180938801809141
:1005300013018093890180911E0180938A0180912B
:10054000100180938B0180910F0180938C01809129
:100550000E0180938D0180910D0180938E01809119
:100560006F0180938F01F89409E711E0C1E8D0E0B2
:10057000F80161918F01CE010E940E0F2196C839BA
:10058000D105B1F765EA80E890E00E940E0F7894FB
:10059000DF91CF911F910F9108951092B90180B111
:1005A00021B140919001829586958695837030E0C7
:1005B000220F331F220F331F820F932F911D840FA1
:1005C000809390018091AE018823F1F11092AE01E9
:1005D00080919201882319F01F981092B7018091A1
:1005E0001F016091AF017091B001882341F06091CB
:1005F000B3017091B4017093B0016093AF01605F7B
:100600007F4F86E0769567958A95E1F780E098E5DB
:100610000E94DE0E80911E018350990B680F791F96
:10062000769567956093AD0180916D01882369F09F
:10063000815080936D0180911F01882329F0809162
:100640001F01815080931F0108956D31A0F770E064
:1006500060E084E00E94B2008AE0EBCF882321F0C2
:10066000813031F0819A05C08198919889980895D8
:100670008198919A899A0895CF93C82F8093910178
:100680008091920181110DC00E944D0191E0C11134
:1006900001C090E081E0C13508F480E0890F0E943C
:1006A0002E03C11108C010926D0010926C0082E000
:1006B000CF910C94AC00EFEFEC0FF0E0EC57FF4F54
:1006C000E491F0E0F0936D00E0936C00C83078F3B3
:1006D00081E0C03168F380E0EBCFCF93C09191010E
:1006E00089E18C0F873908F080E00E943C0382E0AA
:1006F0000E9419018C2FCF910C943C030F931F93F0
:10070000CF93E82F862F9091AD012FEF290F2C3139
:1007100048F480E00E944D0180E0CF911F910F913D
:100720000C942E03CE2FC295CF70EF7020919201C2
:10073000211103C0C33008F0C2E0E73010F4F0E04C
:1007400017C0E73099F50091660110E00F5F1F4F69
:100750000E94380165E00E94D20E9801290F311DD8
:10076000C90166E070E00E94F20E80936601FC0110
:10077000E358FF4FE491C33071F48091650190E03C
:10078000019663E170E00E94DE0E80936501875C54
:100790009E4FDC01CC91CC23E9F1C13011F0EE0F7A
:1007A000C2E08E2F0E944D018C2FB7CFE830A9F404
:1007B000909192016FE0911101C063E0862351F4A2
:1007C0008091660190E0019666E070E00E94F20E72
:1007D00080936601E0916601B2CF209192012223BD
:1007E00081F080E09D3118F4E0E0C5CF8E5FE82F06
:1007F000F0E0E45BFE4F20819217C0F73197E08173
:100800009ECF869563E00E94D20EE92FF0E0EE0FB6
:10081000FF1FAECFE0E0C5CFCF93DF93CDB7DEB7FC
:1008200063970FB6F894DEBF0FBECDBF9091AD01B8
:1008300091509C3158F480E063960FB6F894DEBF77
:100840000FBECDBFDF91CF910C942E0382958F7098
:1008500090919201911108C0833020F4882361F3B4
:10086000813051F382E0E8CF8330C1F783E1E6E2E3
:10087000F1E0DE01119601900D928A95E1F78091E9
:10088000640190E0019663E170E00E94DE0E8093C7
:100890006401E1E0F0E0EC0FFD1FE80FF91F80813B
:1008A000DDCFCF93282FCB01C0911C01C11117C000
:1008B000283049F410927301109271011092700166
:1008C0008C2FCF910895213B61F480917301815069
:1008D000833028F483E08093730180937201C1E038
:1008E000EFCF253BB1F46EE370E00E94DE0E892B62
:1008F00039F7809173018A3F18F78B5F80937301FA
:100900008093720110927101109270010E946D0328
:10091000D7CF213021F7809170019091710101961C
:1009200088382EE0920728F490937101809370012B
:10093000C7CF1092710110927001809173018823CA
:1009400009F4BECF815080937301BACFFF920F9309
:100950001F93CF93DF938C01D62FC72FF42E809156
:10096000AB019091AC01892B31F0E091AB01F0919A
:10097000AC0189E009951093AC010093AB01012B08
:1009800041F0E091AB01F091AC016D2F7C2F8F2DE8
:10099000099581E080937801DF91CF911F910F91AC
:1009A000FF900895CF93DF93E0919A01D0E0C0E0EB
:1009B000EE2351F0E150E0939A01F0E0EE0FFF1FBB
:1009C000E556FE4FC081D181E0919A0190E080E030
:1009D000EE2341F0E150FF0BEE0FFF1FE556FE4FF7
:1009E000808191814AE070E060E00E94A604CE011F
:1009F000DF91CF910895883041F410926E011092EA
:100A0000670180E00E943C030DC0813009F59091A0
:100A10006701911109C06032710520F08093670170
:100A20000E940F0180E00895913079F46B3B7105CD
:100A300020F082E080936701E4CF6115710591F3A6
:100A4000862F880F84708E5EDDCF0E94D204EACF9D
:100A5000813841F781E08093670180916E018F5F5B
:100A600080936E010E940F018BE4CCCF20919A01FC
:100A7000283088F4E22FF0E0EE0FFF1FE556FE4F1E
:100A8000808391832F5F20939A0148E00E94A604FF
:100A900080919A0108958FEF08950F931F93CF933C
:100AA000DF93D82FC92F8B010E94D204B8018D2F5C
:100AB0009C2FDF91CF911F910F910C9436058430BC
:100AC00021F58091AB019091AC012AE08F3792071C
:100AD00039F469E170E087E097E00E944D050EC0AF
:100AE0008750974069F490919101923048F0892F96
:100AF000869596959695890F0E943C0380E008950F
:100B000070E060E085ED95E0E8CF81E00895282F62
:100B1000CB01213C41F470E060E085ED95E00E945E
:100B20004D0580E00895223C29F470E060E083EBFD
:100B300095E0F5CF213B49F46EE370E00E94DE0EB4
:100B4000892B79F70E946D03ECCF213E51F46EE3BF
:100B500070E00E94DE0E6F5F60930C010E945302F2
:100B6000E0CF81E00895CF93C0911C01C1111BC05B
:100B7000813C49F470E060E085ED95E00E944D0510
:100B80008C2FCF910895823C29F470E060E087E8D3
:100B900095E0F4CF873B39F470E060E081E998E0BC
:100BA0000E943605EDCFC1E0EBCF0F931F93CF939B
:100BB0008B018830D1F480E00E943C0360E080919A
:100BC00010010E947E0380910E010E940C0410927D
:100BD0007301012B31F0C0E08C2FCF911F910F9149
:100BE000089581E080939201F6CF813071F46931EC
:100BF000710588F380939201809110010E947E0319
:100C000080910E010E940C04E6CF833019F5709399
:100C10006B0160936A01809110010E947E038091B4
:100C20000E010E940C04C0911C01C111D4CF80910F
:100C30006F01882381F290E062EC71E00E94C10EA6
:100C40008017910740F670E060E08BE998E00E9421
:100C50004D05C2CF813BA9F481E090E00E94DC0108
:100C60000E943C0380917501811104C00831110577
:100C700008F4B1CF61E070E087E097E00E944D0595
:100C8000AACF813EB9F38138E1F420917701222384
:100C9000A9F08091760190E062EC71E00E94C10EB3
:100CA00040916A0150916B014817590738F0822F23
:100CB00090E00E94DC010E943C038DCF80911D01D9
:100CC000F7CF813C21F46091910170E0D5CF823B58
:100CD00059F4C0911C01CC2319F086E990E0E9CFCA
:100CE00086E90E943C0378CF823E11F480E0E3CF96
:100CF00066E970E0823C09F4BFCF8339B9F3843CE4
:100D000029F470E060E083EB95E0B8CF833C39F4E0
:100D10000E946D0370E060E08BE998E0AFCF8F3CFC
:100D200029F470E060E08AE492E0A8CFC0911C0151
:100D30008A3B99F4012B09F068C0CC2339F00E945A
:100D40006D0310921C010E94530245CF70E060E0D9
:100D500087E898E00E9436053FCFC11156C08A3C13
:100D600041F40E946D0381E080931C010E945302B4
:100D700033CF833B29F470E060E08FE79AE067CFE0
:100D8000873CA9F490911001892F82958F708F5F15
:100D900083708295807F9F70892B8093100160E023
:100DA0000E947E030E9453020E946D0315CF883C6F
:100DB00081F490910E01892F82958F708F5F8370DF
:100DC0008295807F9F70892B80930E010E940C0476
:100DD000CDCF873BB9F4C8018F739927892B61F474
:100DE00020911001822F8F708F5F207F6BE00E9417
:100DF000D20E922B90931001602F809110010E94CF
:100E00007E03EACE873E09F4B1CFC1E0E5CECF92B2
:100E1000DF92EF92FF920F931F93CF93DF93C82F30
:100E20008B01D0901B01D0911A01E0907501F090D8
:100E30007401E11002C0FF24F394C0907301B80163
:100E40008C2F0E94510460917301662309F405C13F
:100E5000C11004C08091910180936901C83029F0CC
:100E6000CA30F9F400911D0110E0D016110630F4DB
:100E7000D017110619F010F000931D01C8010E944F
:100E8000DC010E943C0381E080930501D0E08D2FBE
:100E9000DF91CF911F910F91FF90EF90DF90CF9056
:100EA0000895C13C09F4DCC0C23CA1F480911C014E
:100EB000811101C0D6E9809191018D1740F48D2FE9
:100EC0000E943C038091910180936901DFCF809162
:100ED0001D01F6CFC33C41F480E00E943C0370E06A
:100EE00060E08BE998E0C0C08FE48C0F823008F09E
:100EF0003FC0EE2039F0C80168E170E00E94DE0ECC
:100F0000892B21F68091910101151105E9F4C23B6D
:100F1000A9F48FEF80930501809105016F2D70E09A
:100F2000082E000C990B0E94C10E20919101820F96
:100F3000911D0E94DC0180931D01C2CF8D1748F7DF
:100F4000D81650F381E0E6CF073391E0190710F08F
:100F50008D17F8F60D361240F8F2D816E8F20E9416
:100F60006D0370E060E08BE998E00E944D05D4CFFE
:100F70008FE18C0F823020F480910501819584CF20
:100F8000C130D9F40E33110511F4C0930501662365
:100F900009F47CCF809169016150770B90E00E9449
:100FA000C10E6091720170E00E94F20E862F6111F5
:100FB00001C081E00E943C0369CFD0911C01D11196
:100FC0004AC0C43C01F581E0E11080E080937501E6
:100FD0000E945302C091910180E00E943C0383E093
:100FE0000E9419018C2F0E943C038091910190E096
:100FF0000E94DC0180931D010E943C0380919101BD
:101000008093690144CFC33B39F486E9012B09F091
:101010003DCF0E943C033BCFC33E19F480911D019C
:10102000F8CF70E060E080E898E0C73B89F0CA3C08
:1010300049F480919101809377010E9453020E94AC
:101040006D0325CFCA3B39F470E060E08CE898E08E
:101050000E9436051CCFD1E01ACFCC2009F4FECE79
:1010600070E060E085ED95E00E944D050FCF582FB0
:10107000CB01F901583099F41092680180E00E9488
:101080003C038091930181111EC081E0809368012F
:1010900070E060E08BEF94E00E94360514C0252FCD
:1010A000207F203BC1F420916801421790F06DE54C
:1010B00070E00E94DE0E029741F42F5F20936801DA
:1010C00088E3421718F480E0089582E10E943C030F
:1010D000FACF80E0FBCF203E49F48091680188235D
:1010E00011F04817A8F60E94D204EDCF5A3059F7F4
:1010F00060916E018091680109950E945302F3CFBF
:10110000409175014E5F2AE931E00C9437082AE9D5
:1011100031E043E00C94370824ED31E042E00C94D8
:1011200037082CE432E041E00C94370820E532E047
:1011300041E00C9437080F931F93CF93DF93D82F80
:101140008B01873B89F480E00E943C03C0911C0125
:10115000C111BEC0DA3B09F079C070E060E086E9F9
:1011600098E00E94360528C08079803959F5209191
:101170001701909118018D2F8F70823049F4809162
:101180007701811108C0822F291728F4892F03C005
:10119000822F9217D8F30E943C03D23CA1F5C09154
:1011A00077016C2F70E0C11136C060911D0170E0B5
:1011B00087E097E00E944D058C2FDF91CF911F9122
:1011C0000F910895803811F480E0E5CFD83009F010
:1011D00081C060E080910F010E947E0380910D012B
:1011E0000E940C04B3CF0931110558F0D09392013D
:1011F000602F80910F010E947E0380910D010E945B
:101200000C04C0E0D9CFD23B59F40E946D03109278
:10121000EC0161E070E087E097E00E944D05F1CFBE
:1012200066E970E0D33CB9F3D33B09F08FCFC091AE
:101230001C01CC2339F086E990E00E94DC010E9479
:101240003C03DFCF86E90E943C03B6CFD73C99F43C
:1012500090910F01892F82958F708F5F8370829597
:10126000807F9F70892B80930F0160E00E947E0336
:101270000E945302A1CFD83C81F490910D01892F97
:1012800082958F708F5F83708295807F9F70892B8E
:1012900080930D010E940C04EBCFD73BB9F4C80139
:1012A0008F739927892B61F420910F01822F8F7002
:1012B0008F5F207F6BE00E94D20E922B90930F01E4
:1012C000602F80910F010E947E0376CFD73E81F27E
:1012D000C1E072CFD13009F486CFD33009F488CF82
:1012E0005CCF8DE084B91092B7011092B80183B140
:1012F000886483B9139A87EE83B908950F931F9377
:10130000CF93109295018091EA019091EB019C019D
:101310002F5F3F4F88279078822B932B9093EB0180
:101320008093EA01C09193010E942F01C817B9F080
:1013300010929201809393019091EC01882371F1B6
:10134000892F80699F709F3039F58093EC0190E080
:1013500080E00E940A011092EB011092EA010091D4
:10136000EA011091EB0180919201882329F1B801E3
:1013700083E00E94B2000E94CD000F731127012B61
:1013800099F510926C010E94710983B1886483B948
:1013900081E08093AE0122C08F5FD7CF892F8F7EEF
:1013A00095FD08C080688093EC018091EA019091DE
:1013B000EB01CFCF806CF7CFC091EC018C2F807FF9
:1013C000803BB1F470E060E081E00E94B200C801AF
:1013D0000E940A0180916C018823B9F280916C010E
:1013E0008F5F8F7180936C01CF911F910F91089542
:1013F000B80181E00E94B200C4FF0FC0C5FDE7CF75
:101400000831110538F31092EB011092EA01C06225
:10141000C093EC0190E080E0DBCFCC23D9F2C5FF94
:1014200003C00E940F01D6CF0231110598F2C064AB
:10143000C093EC0190E080E00E940A01F2CF80911D
:10144000B90181110E94CD028091950181110C9406
:101450007E090895EF92FF920F931F93CF93DF932E
:10146000EC0108E017E082ECE82EFF24F3942097CB
:1014700041F481E0DF91CF911F910F91FF90EF90A8
:10148000089580917801811118C080919101883070
:1014900078F482E00E94AC00C7010197F1F780E088
:1014A0000E94AC000E941F0A0E94CD002197DFCF4E
:1014B00080E00E94AC00C801F0CF80E0DBCF0F934A
:1014C0001F93CF93C82F06EA811102C008E0C1E044
:1014D00010E089E10E943C03C8010E942A0A80E0D2
:1014E0000E943C038AEF90E00E942A0AC15089F7CB
:1014F0008AE992E0CF911F910F910C942A0ADF9212
:10150000EF92FF920F931F93CF93DF93D82F8B010E
:10151000C0910B01C23081F4F09073010E9451041C
:10152000FF20B1F080917301811112C070E060E082
:1015300085ED95E00E944D05D83079F0D13C09F059
:1015400009C170E060E085ED95E00E944D0508C09E
:10155000D83041F481E08093030181E0809304015D
:10156000C0E00EC1D23C61F4109273018C2F90E068
:1015700001968370992780930B010E945302F0CF4C
:10158000D13BC1F480910201012B41F49FEF8B34D8
:1015900018F4823018F491E09093030190910301C4
:1015A000890F21F481E080930201DACF8C34D8F3E3
:1015B0008BE4F9CFD13E59F480910301819580935A
:1015C000030180910401819580930401D6CFD23B21
:1015D000D1F481E08093030180910201823018F000
:1015E00081508093020181E080930401CC2309F4AF
:1015F000F4C0C33009F0B4CF80910801833008F4FF
:10160000D5C08150D1C0D13009F0F0C00E331105E2
:1016100011F4D0930301D09063018D2D880FD7FC76
:10162000809590E062E170E00E94C10E292FE09069
:1016300062018E2D880FE7FC8095D09101016D2FFE
:1016400070E090E00E94C10E290FF09061018F2D93
:10165000880FF7FC8095C09100016C2F70E090E03E
:101660000E94C10E622F690F80910201680F7727D7
:10167000771F809173018130A1F480917001909166
:10168000710125E0969587952A95E1F724E730E0EA
:10169000A901481B590BCA010E94C10EB9010E9441
:1016A000DE0E862F0E943C0300FD06C00E9438011A
:1016B00081708D0D80936301809160018E0D809308
:1016C00062010E94380165E20E94D20E9F0D909344
:1016D00061010E9438018F7339F40E9438016DE076
:1016E0000E94D20E90936001DD2339F00E943801F0
:1016F0008F7319F4D150D09301010E9438018111E8
:1017000009C00E9438016BE10E94D20E9093010142
:1017100010926201C33038F00E9438018F7119F4C1
:10172000C150C09300010E9438018F7739F40E94A4
:1017300038016FE00E94D20E909300010E33110524
:1017400019F481E08093040180919001080F0093C7
:10175000900106CFD23C09F409CFD13B81F5C111EC
:1017600018C000FDFDCE8091090190910401891BF4
:101770008F3F08F08EEF883008F488E080930901ED
:101780008C2FDF91CF911F910F91FF90EF90DF9001
:101790000895C33009F0E4CE8091080190910401CE
:1017A000890F823040F482E0809308018091080123
:1017B0000E943C03D5CE8937B8F388E7F5CFD13EF8
:1017C00009F4FFCED23B09F40ECFD23E09F4D5CEB8
:1017D000D13009F4B3CFC1E0D3CF00FDC1CE8091A9
:1017E00009018F3F09F4BCCE8F5FC8CFD13C09F40B
:1017F000A8CED23E81F7C1CE2F932FB72F933F9320
:101800008F939F93AF93BF93EF93FF938091B80112
:101810008823E9F0E091B70120B131B1F0E0EE0F9B
:10182000FF1FDF01AD54BE4F2D933C93E155FE4F9A
:10183000808191818217930708F401962817390750
:1018400008F401979183808381E08093B90181E05E
:101850008093B801FF91EF91BF91AF919F918F91CC
:101860003F912F912FBF2F9118958F9381E08093F7
:1018700095018F9118958F9381E0809394018F91BA
:101880001895F89485B7877F85BF90E088ED0FB6EF
:10189000F894A8958FBD90B7977F90BF0FBE88E052
:1018A0008CB98AE780BB81EA8093720081E08093E3
:1018B000710084E082BB87BD8CB788608CBFA8951F
:1018C00080E480BF0E947109789481E00E94190130
:1018D00070E060E08FE595E00E9436051092780197
:1018E0000E946D030E942F01811174C0F89480E85A
:1018F00090E00E94060F853A09F09BC009E711E0CD
:10190000C1E8D0E0CE010E94060FF80181938F015B
:101910002196C839D105B1F77894809179018093E7
:10192000750180917A018093170180917B018093EA
:10193000140180917C018093180180917D01809336
:10194000150180917E018093120180917F01809327
:10195000770180918001809376018091810180934D
:101960000B01809182018093090180918301809312
:101970000A01809184018093080180918501809300
:101980000C018091860180931C01809187018093D6
:1019900019018091880180931601809189018093BB
:1019A000130180918A0180931E0180918B018093A5
:1019B000100180918C0180930F0180918D018093A3
:1019C0000E0180918E0180930D0180918F01809393
:1019D0006F0130C0C0E08C2F0E943C0383E190E097
:1019E0000E942A0A8C2F86950E943C0383E190E096
:1019F0000E942A0A0E942F018823C1F0CF5FC034C1
:101A000051F70E945302C6E98C2F0E943C0384E0E8
:101A100090E00E942A0AC150B9F768CF8C2F0E942B
:101A20003C038DE090E00E942A0AC150C111F6CF1C
:101A30005DCF789480917701811180931D0161E0E1
:101A400070E085ED95E00E94360540E4242E3324B5
:101A5000339455ED852E55E0952ECC24C394D12C8E
:101A60007CEF472E73E0572EECE76E2EE0E07E2EE3
:101A70000E94CD008091980190919901009751F0BA
:101A800060919601709197010E944D051092990105
:101A90001092980180919201882321F180E00E94A8
:101AA0003C03A895F3E4F0BF1F980E942F01811119
:101AB000FCCF0E940F018CB788608CBF1092B901D7
:101AC00010929501109294018091920181112FC082
:101AD00022E020931F018CB7877F8CBF0E94710981
:101AE000A89520BE0E941F0A109278018091AB0138
:101AF0009091AC0132E08A34930709F03AC0C0E714
:101B0000D0E0FE01849180530E945F0A8CE291E054
:101B10000E942A0A21966C167D0699F790929901E7
:101B2000809298011092970110929601A1CF86B7EA
:101B30008F79806486BF86B7806186BF889586B7B7
:101B40008F7E86BF809194018111109292018091C5
:101B5000B901882331F030921F013092AE010E940A
:101B6000CD0280919501882309F4AECF0E947E09B1
:101B7000ABCFFAE08F379F0709F0B2C080910B011D
:101B80008130E1F0833009F48BC0811171CFC091B5
:101B9000090186E90E943C03CA3258F4C201019748
:101BA000F1F780E00E943C038C2F90E00E942A0A0B
:101BB0005FCF81E090E00E942A0AF3CF0E943801B3
:101BC0008F73082F10E00E94380167E00E94D20E48
:101BD000E60102C0CC0FDD1F9A95E2F70E943801A2
:101BE00065E00E94D20E960102C0220F331F9A9523
:101BF000E2F7C20FD31F0E94380190E0BE010E949D
:101C0000F20EC80FD91FC739D10514F0C6E9D0E0CC
:101C10008C2F0E943C03C8010E942A0A7E0133E0F7
:101C2000F594E7943A95E1F7E11002C0EE24E394CD
:101C3000F12CC8010E942A0A5E01AE18BF08E50116
:101C4000B7FE02C0D0E0C0E08C2F0E943C030E948F
:101C50003801837041F4C8010E942A0ACE0195958B
:101C600087950E943C0332E0A316B10414F70E944A
:101C700038016DE00E94D20E860102C0000F111FD4
:101C80009A95E2F70E943801E801219790E0C82375
:101C9000D923C00FD11F80E00E943C03CE0186CF24
:101CA000C0910801CC0FC73908F0C6E9D4E08C2FE9
:101CB0000E943C0385E090E00E942A0A809108017E
:101CC0000E943C0381E490E00E942A0AD15079F7F7
:101CD00080ED92E00E942A0A80E00E943C03C8CE78
:101CE000E5E0833B9E0719F52091AD01822F64E664
:101CF0000E94D20E382FC92F892F6AE00E94D20E7F
:101D0000D92F243608F43AC0832F0E945F0A8C2F03
:101D10006AE00E94D20E0E945F0A8D2F0E945F0A25
:101D200080911C018111FACE88EE93E03FCF875855
:101D30009540C9F48091930181119ACE80911D0143
:101D40000E943C0384E690E00E942A0A80E00E9400
:101D50003C0380910C0190E068EE73E00E94C10E9C
:101D60008456910923CF86B78F7986BF86B7806165
:101D700086BF889586B78F7E86BF7ACECA3038F602
:101D8000CCCF0024552704C0080E591F880F991F77
:101D9000009729F076956795B8F37105B9F7802D0E
:101DA000952F0895991B79E004C0991F961708F0A4
:101DB000961B881F7A95C9F780950895AA1BBB1BAF
:101DC00051E107C0AA1FBB1FA617B70710F0A61B3B
:101DD000B70B881F991F5A95A9F780959095BC015C
:101DE000CD01089597FB072E16F4009407D077FDD8
:101DF00009D00E94DE0E07FC05D03EF49095819537
:101E00009F4F0895709561957F4F0895E199FECF9A
:101E10001FBA8EBBE09A99278DB30895262FE199BA
:101E2000FECF1FBA8EBBE09A81500DB2021639F078
:101E30001CBA2DBB0FB6F894E29AE19A0FBE089532
:041E4000F894FFCF44
:101E44000F1B1801010100049629430202371937B8
:101E540019000505969696010A0A96010150070293
:101E6400170114011101020100000000000000012B
:101E7400000000000000000001020100000000005A
:101E8400000001000000000000000001000021012A
:101E940023022503270429052C06FF060504030055
:00000001FF
