:1000000003C200001EC200000C94F1101AC20000CE
:1000100018C200000C94EB1014C2000012C20000C1
:1000200010C200000EC200000CC200000AC2000094
:1000300008C2000006C200000C94B21002C2000008
:1000400000C20000FEC10000FCC10000FAC10000B7
:10005000F8C10000F6C10000F4C10000F2C10000C8
:10006000F0C10000EEC10000ECC10000EAC10000D8
:10007000323032313132303430323637000105041B
:1000800014101115FF3FB1333426013678257A3428
:10009000F326F42E633288335D336232DB30F62E82
:1000A0007931CD2E942F9D2C802CEE2B092BEA2913
:1000B000492AC1287C28C62626265C25732473235A
:1000C0006522F421CA209F1FF71EC91D0E1DE61BC5
:1000D000231B081AF8183A183917431658154214F2
:1000E0003D13761262116210740F960E860D8C0C01
:1000F000A60B9D0AAB09B608C107CD06DC05DC04DA
:10010000E403F302FF01FF01FF01FF01FF01FF0113
:10011000FF01FF01FF01FF01FF01FF01FF01FF01DF
:10012000FF01FF01FF01FF01FF01FF01FF01FF01CF
:10013000FF01FF01FF01FF01FF01FF01FF01FF01BF
:10014000FF01FF01FF01FF01FF01FF01FF01FF01AF
:10015000FF01FF01FF01FF01FF01FF01FF01FF019F
:10016000FF01FF01FF01FF01FF01FF01FF01FF018F
:10017000FF01FF01FF01FF01FF01FF01FF01FF017F
:10018000FF01FF01FF01FF01FF01FF01FF01FF016F
:10019000FF01FF01FF01FF01FF01FF01FF01FF015F
:1001A000FF01FF01FF01FF01FF01FF01FF01FF014F
:1001B000000000000000000000000000000000003F
:1001C000000000000000000000000000000000002F
:1001D000000000000000000000000000000000001F
:1001E000000000000000000000000000000000000F
:1001F00000000000000000000000000000000000FF
:1002000000000000000000000000000000000000EE
:1002100000000000000000000000000000000000DE
:1002200000000000000000000000000000000000CE
:1002300000000000000000000000000000000000BE
:1002400000000000000000000000000000000000AE
:10025000000000000000000000000000000000009E
:10026000000000000000000000000000000000008E
:10027000000000000000000000000000000000007E
:10028000000000000000000000000000000000006E
:10029000000000000000000000000000000000005E
:1002A000000000000000000000000000000000004E
:1002B0000000000004000B001100180021002900BC
:1002C00033003C00460050005B0067007400810072
:1002D0008D009C00AA00B900C800D80001000100F0
:1002E00001000200020003000300040005000600F4
:1002F0000700080009000A000C000D000F001000A4
:1003000012001400160018001B001D00200022001F
:10031000250028002B002E003100350038003B005E
:100320003F004200460049004D0050005300570076
:100330005A005D00600062006400670068006900A8
:100340006A006B006A0069006800650062005E0078
:10035000590053004C00430039002E0021002300B7
:100360002500270029002B002E0030003300350027
:1003700038003B003E004100440048004B004F0065
:10038000530056005B005F00630068006C00710062
:1003900076007B00810087008C00920099009F000E
:1003A000A600AC00B300BB00C200CA00D200DA0055
:1003B000E300EC00F500FE00080112011C0127011A
:1003C00032013D014801540160016D017A0187014C
:1003D0009501A301B101C001CF01DF01EF01FF01D0
:1003E000F501E501D501C501B1019D01870171014B
:1003F0005901410127010B01ED00CF00B1008F0031
:100400006C004A002600000011241FBECFEFD4E08C
:10041000DEBFCDBF11E0A0E0B1E0E4EDF7E202C045
:1004200005900D92A236B107D9F722E0A2E6B1E01D
:1004300001C01D92A831B207E1F70E94F7100C9499
:10044000E813DECDF89498ED9FBD83BF78940895AE
:10045000482F362F272FE3EEF1E090E080E0508127
:1004600051110BC063E070E00E944F13FC01ED518D
:10047000FE4F40833183228305C00196339680313D
:10048000910569F70895EF92FF921F93CF93DF9341
:100490001091E301111106C0DF91CF911F91FF90E0
:1004A000EF900895E090E401F090E501C091C00163
:1004B000C1500C2E000CDD0BC7FD0EC0FE01EE0F6F
:1004C000FF1FEF53FE4F0190F081E02DB701812F08
:1004D000099521978111F0CFE3EEF1E083818083CC
:1004E0008481958192838183339682E0E031F8079D
:1004F000A9F7109210021092120210921102C8CFA6
:10050000BC0180911502A4CF109215021092140222
:100510001092130281E08093960108950F931F9328
:10052000CF93C82F08EA17E0C15020F4CF911F9154
:100530000F91089582E086DFC8010197F1F780E00E
:1005400081DFF2CFE0910701F09108013196FB7055
:10055000F460F0930801E09307018091B5018B5A94
:100560008093B501E4918091B5018E0F0895CF93EA
:10057000DF9300D00F92CDB7DEB720915D013091AF
:100580005E0140915F0129833A834B83FE013196DE
:1005900050E040E0682F70E0A1E0B0E09B01042E45
:1005A00002C0359527950A94E2F7922F93708191B6
:1005B0009D0101C0220F8A95EAF7992329F0913015
:1005C000C1F080B3822B19C080B32095822380BBF9
:1005D00082B3822382BB81B3282321BB4E5F5F4F4E
:1005E00046305105D9F60F900F900F90DF91CF91C3
:1005F000089590B3822F8095892380BB82B3822B8C
:1006000082BB81B3282BE9CFCF93DF9300D000D0FA
:1006100000D0CDB7DEB7209190014091D10150912B
:10062000D201485F594009F422E0843059F46093C4
:10063000910126960FB6F894DEBF0FBECDBFDF91B5
:10064000CF9108956623A9F3823019F497E9961B98
:10065000692F96E0E1E2F1E0DE01119601900D9242
:100660009A95E1F78150990B880F991FA1E0B0E0AE
:10067000AC0FBD1F8A0F9B1FDC01ED91FC91E20FB7
:10068000F11D6083D6CFCF92DF92EF92FF920F934E
:100690001F93CF93DF939C0150919001E0919201C1
:1006A00082E0E11101C0852F90E0DC01AB5EBE4F1E
:1006B0004C91409319018E5E9E4FDC018C9180938A
:1006C0001801F0E0E15FFE4FC181642F70E0552317
:1006D00081F0C13071F4860F972F911D9595879504
:1006E000DF91CF911F910F91FF90EF90DF90CF900E
:1006F0000895261737079CF1821713068CF35111C2
:1007000002C0822FEDCF841B6C2F6150770B8B01C1
:10071000E82EF12CC7010E94991360938E01669513
:10072000E62FF0E0842FD12CC12CD0E0DC17C1F2F1
:10073000C601B8010E948513842F860FA82FB0E050
:10074000B9016A1B7B0B77FF03C0BD01621B730BF2
:10075000CE0CDF1CE617F7071CF6DF5FE7CF842F10
:10076000BFCF81E00895611160931F010895662352
:1007700069F0813099F48091D3019091D401891B63
:10078000680F6093D30182E08093200180911E0165
:10079000873418F086E480931E010895635E6093A9
:1007A0001E01F4CF6093890108950F931F93CF9397
:1007B000DF93809190018093970180911501809340
:1007C0009801809112018093990180910F0180938B
:1007D0009A018091160180939B018091130180936F
:1007E0009C018091100180939D018091170180935D
:1007F0009E018091140180939F018091110180934B
:10080000A001809192018093A10180919101809338
:10081000A20180918F018093A30180911A0180939E
:10082000A401809194018093A5018091930180930C
:10083000A601809187018093A70180911D0180937B
:10084000A801809188018093A90180911C01809367
:10085000AA0180910A018093AC0180911E018093CE
:10086000AD018091D3018093AE0180911F018093EF
:10087000AF0180910E018093B00180910D018093B2
:10088000B10180910C018093B20180910B018093A2
:10089000B301809189018093B40182E03FDEF89436
:1008A00007E911E0C1E8D0E0F80161918F01CE01C4
:1008B0000E94D6132196CF39D105B1F765EA80E8B9
:1008C00090E00E94D6137894DF91CF911F910F9101
:1008D0000895882321F0813031F0829A05C08298F2
:1008E00092988A9808958298929A8A9A0895EF9297
:1008F000FF920F931F93CF93DF9300D000D00F92FE
:10090000CDB7DEB78D838091B70181110AC02D81EB
:10091000222339F080911C01281718F4E8DF82E0C7
:10092000FDDD6D816093B7016093B6018091B801E0
:1009300081110DC01CDE91E07D81711101C090E03C
:1009400081E0AD81A73408F480E0890FC2DFBD816A
:10095000B11172C0109217021092160218BA1092BA
:100960006D0010926C0010926B0010926A008898D3
:100970008998E0901602F09017020091680010919B
:1009800069008091B701815090911D01911186C03D
:1009900090E06FEF70E00E944F1366E970E00E94F4
:1009A0008513C701B0E0A0E0262F30E050E040E022
:1009B00089839A83AB83BC83B701CD010E94601306
:1009C00061587F4F8F4F9F4F69837A838B839C83BE
:1009D0002FEF30E040E050E00E94AC13C901021755
:1009E000130708F074C09701201B310BC801309326
:1009F0006D0020936C0090936B0080936A00232B12
:100A000009F472C0889A892B09F470C0899A7D8193
:100A1000709371018091B701823008F069C082E063
:100A20000F900F900F900F900F90DF91CF911F912B
:100A30000F91FF90EF9006CD2D81215030E0220FD5
:100A4000331FF901E452FD4F859194919093170261
:100A500080931602F901E055FE4F8591949188BB71
:100A6000F901EC57FF4F2591349180917101A90153
:100A700040545109882339F060916E0070916F00E5
:100A800046175707B8F33093690020936800811127
:100A900070CF10926F0010926E006BCF9F3F59F491
:100AA00090E06FEF70E00E944F1366E970E00E94E3
:100AB0008513609576CF892F90E064E670E00E9400
:100AC0004F1363E670E00E94991361506ACFB7013B
:100AD000621B730B9B010617170708F088CFC7012D
:100AE000801B910B980183CF88988DCF89988FCFE9
:100AF0008A3010F481E094CF80E092CFCF93C09100
:100B0000B70186E48C0F873908F080E0F0DE83E0DF
:100B100005DD8C2FCF91EBCECF93C091B70180E054
:100B2000E6DE83E0FBDC8C2FCF91E1CE0F931F93A9
:100B3000CF93DF93D82F862F9091D6012FEF290FD7
:100B40002C3140F480E013DD80E0DF91CF911F91E4
:100B50000F91BFCECD2FC295CF70DF702091B8011D
:100B6000211103C0C33008F0C2E0D730B0F40091C7
:100B70006B0110E00F5F1F4FE5DC65E00E94791309
:100B80009801290F311DC90166E070E00E94991398
:100B900080936B01ED2FF0E016C0D73089F50091FE
:100BA0006B0110E00F5F1F4FCDDC65E00E947913F1
:100BB000D801A90FB11DCD0166E070E00E94991324
:100BC00080936B01FC01E358FF4FE491C33071F453
:100BD00080916A0190E0019663E170E00E948513C4
:100BE00080936A01865C9E4FDC01CC91CC23E1F1BD
:100BF000C13011F0EE0FC2E08E2FB9DC8C2FA5CFE3
:100C0000D830A9F49091B8016FE0911101C063E070
:100C1000862351F480916B0190E0019666E070E0CC
:100C20000E94991380936B01E0916B01B4CF2091E6
:100C3000B801222381F080E09D3118F4E0E0C6CFB6
:100C40008E5FE82FF0E0E35BFE4F20819217C0F744
:100C50003197E081A0CF869563E00E947913E92F58
:100C6000F0E0EE0FFF1FAFCFE0E0C6CF813019F408
:100C7000109294010895823019F4609393010895BD
:100C8000833019F460938F010895843011F46093D8
:100C90001A010895813061F491E0611101C090E082
:100CA00090938801611101C08FE780931D01089521
:100CB000823011F460931C010895CF93DF93CDB778
:100CC000DEB763970FB6F894DEBF0FBECDBF90912D
:100CD000D60191509C3150F480E063960FB6F894A1
:100CE000DEBF0FBECDBFDF91CF91F3CD82958F7068
:100CF0009091B801911108C0833020F4882369F3E2
:100D0000813059F382E0E9CF8330C1F783E1E7E234
:100D1000F1E0DE01119601900D928A95E1F7809144
:100D2000690190E0019663E170E00E948513809371
:100D30006901E1E0F0E0EC0FFD1FE80FF91F808191
:100D4000DDCFCF93282FCB01C0919201C11117C0E5
:100D5000283049F410928D0110928B0110928A0173
:100D60008C2FCF910895213B61F480918D018150AA
:100D7000833028F483E080938D0180938C01C1E05F
:100D8000EFCF253BA9F46EE370E00E948513892B19
:100D900039F780918D018A3F18F78B5F80938D0121
:100DA00080938C0110928B0110928A01A7DED8CF1C
:100DB000213029F780918A0190918B010196883822
:100DC0002EE0920728F490938B0180938A01C8CF7C
:100DD00010928B0110928A0180918D01882309F471
:100DE000BFCF815080938D01BBCFCF93833B09F060
:100DF00056C080918801882381F0672B09F06AC072
:100E000080911D018E3F19F081E080931D0180913A
:100E10001D01809580931D0124C0672B31F581E071
:100E200080936801109267019091050180911D01E6
:100E300019160CF58E3F18F48F5F80931D01C09139
:100E4000670180911D01C034E1F491E49093670142
:100E500091E0892780931D015FDE80911D018093C1
:100E600066018091B70143DD2BC08091680181113B
:100E7000DBCFCF910895992311F3823000F3815095
:100E8000DCCF909166019813E8CFC11105C044DE14
:100E9000CF5FC0936701E1CFCF3FF9F2F9CF833E37
:100EA000A9F4109268018091050181958093050154
:100EB00080911D01811106C081E08093050175DCE0
:100EC00080E0D7CF8E3FD8F38FEFF7CF843B11F47C
:100ED0008FE7A0CF81E0CDCFFF920F931F93CF93E9
:100EE000DF938C01D62FC72FF42E8091D1019091E2
:100EF000D201892B31F0E091D101F091D20189E04A
:100F000009951093D2010093D101012B41F0E0919A
:100F1000D101F091D2016D2F7C2F8F2D099581E0A9
:100F200080939601DF91CF911F910F91FF900895CB
:100F3000CF93DF93E091C001D0E0C0E0EE2351F009
:100F4000E150E093C001F0E0EE0FFF1FEF53FE4FC2
:100F5000C081D181E091C00190E080E0EE2341F0BA
:100F6000E150FF0BEE0FFF1FEF53FE4F8081918189
:100F70004AE070E060E0B0DFCE01DF91CF910895EC
:100F8000883039F41092860110926C0180E0AFDC59
:100F90000CC08130F9F490916C01911108C060325D
:100FA000710518F080936C01AFDA80E008959130FC
:100FB00079F46B3B710520F082E080936C01E6CF01
:100FC0006115710591F3862F880F84708E5EDFCFD7
:100FD000AFDFEBCF813811F0813E39F791E090938C
:100FE0006C01813E41F480918601865F8093860189
:100FF0008BDA8BE4CCCF809186018F5FF7CF209185
:10100000C001283080F4E22FF0E0EE0FFF1FEF5315
:10101000FE4F808391832F5F2093C00148E05CDF07
:101020008091C00108958FEF08950F931F93CF9380
:10103000DF93D82FC92F8B017BDFB8018D2F9C2F19
:10104000DF91CF911F910F91DACF282FCB01213C57
:1010500039F470E060E088E898E0E7DF80E0089528
:10106000223C29F470E060E08EE498E0F6CF213B6A
:1010700041F46EE370E00E948513892B79F73EDD21
:10108000EDCF213E49F46EE370E00E9485136F5F5F
:1010900060930A018ADBE2CF81E00895CF93C0918B
:1010A0009201C11119C0813C41F470E060E088E810
:1010B00098E0BBDF8C2FCF910895823C29F470E03B
:1010C00060E08EE698E0F5CF873B31F470E060E0B9
:1010D00084E09AE094DFEECFC1E0ECCF813C39F4BC
:1010E00070E060E088E898E0A0DF80E00895823C4E
:1010F00029F470E060E085E298E0F6CF873B31F4B8
:1011000070E060E088E09AE07ADFEFCF81E0089558
:101110000F931F93CF938B018830B9F480E0E7DB06
:1011200060E080910E0102DD80910C01C6DD10921D
:101130008D01012B31F0C0E08C2FCF911F910F91C9
:10114000089581E08093B801F6CF813061F4693170
:10115000710588F38093B80180910E01E7DC8091DE
:101160000C01ABDDE8CF833069F520919401222397
:1011700081F08091930190E062EC71E00E944F1346
:101180000817190730F020931B0180918701809385
:101190001D01602F80910E01C9DC80910C018DDD55
:1011A00080918901882339F290E062EC71E00E941D
:1011B0004F138017910708F0BECF70E060E080E128
:1011C0009AE016C0813BB1F481E090E05CDA8FDBFD
:1011D00080918F018111AFCF80919001811104C066
:1011E0000831110508F4A7CF61E070E08CE99EE0BA
:1011F0001CDFA1CF813EC1F3813831F480911B0106
:1012000090E041DA74DB97CF6091B70170E0813CE8
:1012100069F3823B71F480911A01909192019111CE
:1012200080919101811103C086E990E0EACF86E9BF
:10123000E9CF823E11F480E0E5CF66E970E0823CC0
:10124000A9F28339C1F3843C29F470E060E08EE4B4
:1012500098E0CECF833C11F451DCAFCF8D3B41F40D
:10126000F89488ED8FBD88E880BF7894A895FFCF6B
:101270008F3C29F470E060E081EB93E0B9CFC0913E
:1012800092018A3B81F4012B09F068C0CC2329F03C
:1012900035DC1092920189DA4ECF70E060E088EF81
:1012A00099E0ADDE49CFC11159C08A3C31F426DC4A
:1012B00081E08093920179DA3FCF833B31F470E093
:1012C00060E088E69DE0B1DE37CF873C91F49091F5
:1012D0000E01892F82958F708F5F83708295807F3A
:1012E0009F70892B80930E0160E020DC5EDA06DCC3
:1012F00023CF883C79F490910C01892F82958F70CF
:101300008F5F83708295807F9F70892B80930C0103
:10131000D4DCD1CF873BB1F4C8018F739927892BD7
:1013200061F420910E01822F8F708F5F207F6BE020
:101330000E947913922B90930E01602F80910E01E1
:10134000F5DBFACE873E09F4B6CF893B39F4012BA1
:1013500029F470E060E080E09AE0A3CFC1E0ECCE39
:10136000582FCB01F901583089F410926D0180E0BB
:10137000BEDA8091B90181111DC081E080936D01B9
:1013800070E060E080EC97E03ADE14C0252F207F0B
:10139000203BB9F420916D01421788F06DE570E0B3
:1013A0000E948513029741F42F5F20936D0188E31B
:1013B000421718F480E0089582E199DAFBCF80E0CB
:1013C000FCCF203E41F480916D01882311F0481735
:1013D000B8F6AEDDEFCF5A3069F7609186018091A3
:1013E0006D010995E2D9F5CF24E033E043E0B8CFB1
:1013F00024E033E044E0B4CF26E336E044E0B0CF6D
:101400002AE436E042E0ACCF23EB33E041E0A8CF62
:1014100027EB33E042E0A4CF22ED33E041E0A0CF60
:101420000F931F93CF93DF93D82F8B01873B79F4D2
:1014300080E05DDAC0919201C111AFC0DA3B09F0E2
:101440006CC070E060E08CE09AE0D9DD26C0807965
:10145000803949F520911501909116018D2F8F70DB
:10146000823049F480919401811108C0822F29179C
:1014700028F4892F03C0822F9217D8F338DAD23C90
:1014800079F5C09194016C2F70E0C1112FC060916B
:101490001B0170E08CE99EE0C8DD8C2FDF91CF91BD
:1014A0001F910F910895803811F480E0E7CFD83074
:1014B00009F075C060E080910D0138DB80910B016F
:1014C000FCDBB8CF0931110548F0D093B801602F8B
:1014D00080910D012BDB80910B01EFDBC0E0DDCFB4
:1014E000D23B41F41092150261E070E08CE99EE07D
:1014F0009CDDF4CF66E970E0D33CC1F3D33B09F047
:1015000099CFC0919201CC2329F086E990E0BBD815
:10151000EED9E4CF86E9EBD9C0CFD73C91F49091D6
:101520000D01892F82958F708F5F83708295807FE8
:101530009F70892B80930D0160E0F8DA36D9DEDAEE
:10154000ACCFD83C81F490910B01892F82958F709C
:101550008F5F83708295807F9F70892B80930B01B2
:10156000ACDB23D99ACFD73BB1F4C8018F7399274D
:10157000892B61F420910D01822F8F708F5F207F66
:101580006BE00E947913922B90930D01602F809154
:101590000D01CCDA82CFD73E21F3C1E07ECFD1302E
:1015A00009F490CFD33009F492CF69CF86E884B99B
:1015B0001092E0011092E10183B1886483B908952B
:1015C000F5DFE1E6F0E0808182608083139A87EEA8
:1015D00083B908951092E20180B121B14091B50123
:1015E000829586958695837030E0220F331F220FF7
:1015F000331F820F932F911D840F8093B50180912B
:10160000D701882309F446C01092D7018091E001E8
:101610009091B801992319F01F981092E00181115F
:1016200048C0809120018823B1F18091DC01909124
:10163000DD019093D9018093D801409696958795C6
:10164000807F9F7761EC72E00E94851380911F017B
:101650008750680F6093D60180918501882301F13E
:101660008150809385018091B80181110AC08EE874
:1016700084B981E08093E0011092E10183B1886434
:1016800083B980912001882329F080912001815025
:101690008093200108958091D8019091D901CDCFF8
:1016A0006D3108F770E060E084E00E94280285E078
:1016B000D8CF813031F78091200181115BC020911A
:1016C000DA013091DB01205F3F4FB90145E07695AB
:1016D00067954A95E1F7A091D3010A2E000CBB0B48
:1016E000CD018A50914056E0369527955A95E1F7FD
:1016F000280F391F3093D5012093D40190917401A4
:10170000E92FF0E0EE0FFF1FEB58FE4F20813181F3
:10171000AB01421B530B718360839F5F9770909363
:101720007401CA01880F991F880F991F860F971F90
:1017300020911E0130E02A1B3B0B265F3E4F220FFB
:10174000331F821B930B23E0181619060CF041C0BF
:1017500001972150C9F7181619060CF052C057FD11
:101760006DC0209173011216CCF5281B20937301D4
:101770001DDF87CF8091DE019091DF019093DB0127
:101780008093DA01409635E0969587953A95E1F792
:1017900090937601809375019093780180937701FF
:1017A00090937A018093790190937C0180937B01DF
:1017B00090937E0180937D019093800180937F01BF
:1017C000909382018093810190938401809383019F
:1017D00076CF009709F4BDCF0196BBCF880F991F34
:1017E00061E070E08530910524F00397BC017595A8
:1017F000679588E1861B8093730185E00E9428022B
:10180000B7CF8C3F2FEF9207CCF457FF17C0209132
:10181000730127FF02C02450A8CF24EE281B209379
:1018200073012091D6012F3108F4A2CF6CEF7FEF26
:10183000681B790B7595679586E0E0CF8091D6019E
:101840008E3108F495CF70E060E087E0D7CF843028
:1018500021F58091D1019091D2012DE08836920737
:1018600031F469E170E08CE99EE0DFDB0FC08C5958
:101870009E4071F49091B701923050F0892F869577
:1018800096959695890F8093950131D880E00895BB
:1018900070E060E088E898E0E8CF81E008950F9379
:1018A0001F93CF931092BB01809113029091140269
:1018B0009C012F5F3F4F88279078822B932B90932A
:1018C0001402809313029091B9012FB1822F809559
:1018D000881F8827881F8093B9019817B9F0109244
:1018E000B8018093B90190911502892F27FD2CC072
:1018F00080699F709F3031F58093150290E080E001
:101900000E9480021092140210921302009113029E
:10191000109114028091B801882319F1B80183E075
:101920000E9428020E9443020F731127012B89F5A0
:101930001092720145DE83B1886483B981E080939F
:10194000D70121C08F5FD8CF8F7E95FD08C08068FA
:10195000809315028091130290911402D1CF806C74
:10196000F7CFC09115028C2F807F803BB1F470E0DF
:1019700060E081E00E942802C8010E9480028091FC
:1019800072018823C1F2809172018F5F8F71809301
:101990007201CF911F910F910895B80181E00E94CB
:1019A0002802C4FF0FC0C5FDE7CF0831110538F389
:1019B0001092140210921302C062C093150290E0BC
:1019C00080E0DBCFCC23D9F2C5FF03C00E948402A4
:1019D000D6CF0231110598F2C064C093150290E091
:1019E00080E00E948002F2CF8091E2018111F2DD5D
:1019F0008091BB01811153CF0895EF92FF920F9315
:101A00001F93CF93DF93EC0108E017E082ECE82E00
:101A1000FF24F394209741F481E0DF91CF911F914F
:101A20000F91FF90EF90089580919601811117C05A
:101A30008091B701823070F482E00E942202C701D7
:101A40000197F1F780E00E942202CEDF0E9443025C
:101A50002197E0CF80E00E942202C801F1CF80E010
:101A6000DCCF0F931F93CF93C82F06EA811102C0DA
:101A700008E0C1E010E086E40E947704C801BDDF01
:101A800080E00E9477048AEF90E0B7DFC15099F7B9
:101A90008AE992E0CF911F910F91AFCFCF93DF935F
:101AA000282F64E626D6382FC92F892F6AE021D641
:101AB000D92F243650F0832FD4DF8C2F6AE019D62B
:101AC000D0DF8D2FDF91CF91CCCFCA30B0F7F9CFD7
:101AD000DF92EF92FF920F931F93CF93DF93C82F64
:101AE0008B01D0910901D13071F4F0908D0129D989
:101AF000FF20A1F080918D01811110C070E060E0A5
:101B000088E898E092DAC83071F0C13C09F0F9C079
:101B100070E060E088E898E088DA08C0C83081F4B6
:101B200081E08093030181E080930401D0E08D2F58
:101B3000DF91CF911F910F91FF90EF90DF9008956B
:101B4000C23C61F410928D018D2F90E0019681705E
:101B50009927809309010E94D503E8CFC13BC1F4C6
:101B600080910201012B41F49FEF8F3518F48230F0
:101B700018F491E09093030190910301890F21F4EF
:101B800081E080930201D2CF8036D8F38FE5F9CF80
:101B9000C13E59F4809103018195809303018091A6
:101BA0000401819580930401D6CFC23B61F481E0AA
:101BB0008093030180910201823008F4B4CF8150F8
:101BC00080930201B0CFC13009F0AFC009321105D6
:101BD00011F4C0930301D09065018D2D880FD7FCBF
:101BE000809590E06CE070E05AD5292FE090640178
:101BF0008E2D880FE7FC8095D09101016D2F70E04C
:101C000090E04DD5290FF09063018F2D880FF7FCE0
:101C10008095C09100016C2F70E090E040D5622F5C
:101C2000690F80910201680F7727771F80918D01DE
:101C3000813091F480918A0190918B0125E09695F5
:101C400087952A95E1F724E730E0A901481B590B55
:101C5000CA0125D5B90159D5862F0E94770400FD08
:101C600006C00E94A20281708D0D80936501809153
:101C700062018E0D809364010E94A20265E239D553
:101C80009F0D909363010E94A2028F7331F40E9412
:101C9000A2026DE02ED590936201DD2339F00E94FF
:101CA000A2028F7319F4D150D09301010E94A202B5
:101CB000811108C00E94A20262E11BD5909301012C
:101CC00010926401C33038F00E94A2028F7119F49F
:101CD000C150C09300010E94A2028F7731F40E948C
:101CE000A2026AE006D5909300010932110519F4A9
:101CF00081E0809304018091B501080F0093B50144
:101D000015CFC23C09F420CFC13B09F40FCFC13E2F
:101D100009F445CFC23B09F406CFC23E09F41BCFFC
:101D2000D1E0C13009F003CFE0CFC13C09F4F0CEDF
:101D3000C23E09F0FCCE0FCFAF92BF92CF92DF929E
:101D4000EF92FF920F931F93CF93DF93C82F8B01D6
:101D5000B0901901E0901801C0909001D0908E01D0
:101D6000C11002C0DD24D39480911A01D091920158
:101D7000D11180919101882309F440C0813021F074
:101D800080911B018E15D0F1A6E9FA2EA0908D014D
:101D9000B8018C2F0E94A10660918D01662309F481
:101DA000D3C1A11004C08091B70180937001C830E5
:101DB00029F0CA3029F500911B0110E0B016110678
:101DC00030F4E016110619F010F000931B01C80161
:101DD0000E944303809395010E94770481E08093E1
:101DE0000601D0E08D2FDF91CF911F910F91FF90D1
:101DF000EF90DF90CF90BF90AF900895FE2CC6CFAC
:101E0000C13C09F4A4C1C23C99F48091B7018F157B
:101E100050F4F09295018F2D0E9477048091B701C4
:101E200080937001DECF80911B0180939501F4CFE8
:101E3000C33C41F480E00E94770470E060E080E100
:101E40009AE089C18FE48C0F823008F04AC060911B
:101E50000F0170E0C801CC2011F068E170E055D4AA
:101E6000892B09F0BECF2091B70101151105E1F4CE
:101E7000C23BA1F48FEF80930601809106016D2D86
:101E800070E0082E000C990B0AD42091B701820F44
:101E9000911D0E94430380931B01C7CF2E1550F75D
:101EA000B21658F381E0E7CFE0910F01F0E0CF01E7
:101EB00066E371E0F4D38017910710F42E15D0F685
:101EC000CF016CE672E0EBD380179107B0F6B21643
:101ED000A0F20E947E0570E060E080E19AE0A5D863
:101EE000CCCF8FE18C0F823020F480910601819558
:101EF00076CFC13009F0B1C00932110511F4C09399
:101F00000601662389F0809170016150770B90E0A3
:101F1000C6D360918C0170E00CD4611101C061E006
:101F20006093B601609395018091B6019091B701DD
:101F3000482F491B550B9A0160916E0170916F01FA
:101F40006F5F7F4F70936F0160936E01452B09F4B3
:101F500048CF40E052E037FF06C040E450E09338FD
:101F600010F440E051E05695479537FF02C02F5FCF
:101F70003F4F3595279521153105A9F74617570786
:101F800008F02FCF891708F04AC08FEF890FCFEFE5
:101F9000C80F2C2F30E0220F331FD901A452BD4FA0
:101FA000FD01659174914091160250911702C91775
:101FB00008F03AC04115510509F036C06F3F91E075
:101FC000790709F0CBC07093170260931602205571
:101FD0003E4FF9014591549198B394171506A8F511
:101FE00098B39F5F98BBFD01659174914091160273
:101FF000509117026417750769F498B3F901259198
:1020000034919217130631F4C091B6010E947704FF
:10201000C093B60110926F0110926E01E2CE981734
:1020200008F0B5CF81E0B2CF4617570738F44F5FBD
:102030005F4F5093170240931602C9CF641775077C
:1020400008F0C5CF41505109F4CF98B39417150645
:1020500051F248F298B39150C5CFC53099F48091B0
:10206000B701823408F4BDCE90E0801B910B81341F
:102070009105DCF08739910510F086E990E08093B6
:10208000B601AFCEC630A1F49091B7018091950111
:10209000981708F0A6CE090F111D90E08017910740
:1020A00074F3C8010134110554F781E490E0E7CFDF
:1020B000C73069F49091B6018091B701891710F487
:1020C0008F5FDDCF981708F08CCE8150D8CFD1111B
:1020D00039C0C43CC9F481E0C11080E08093900114
:1020E0000E94D5030E948C058091B70190E00E9468
:1020F000430380931B01809395010E947704809194
:10210000B701809370016ECE70E060E084EF99E0DB
:10211000C73BA9F0CA3C69F48091B7018093940150
:1021200080911D01809387010E94D5030E947E0546
:1021300059CECA3B39F470E060E08CEF99E00E9420
:10214000FF0750CED1E04ECEAA2009F430CE70E089
:1021500060E088E898E00E94150843CE672B09F0FC
:1021600066CF35CF2F932FB72F933F938F939F93A6
:10217000AF93BF93EF93FF938091E1018823E9F040
:10218000E091E00120B131B1F0E0EE0FFF1FDF017F
:10219000A452BE4F2D933C93E852FE4F8081918113
:1021A0008217930708F401962817390708F4019756
:1021B0009183808381E08093E20181E08093E1015B
:1021C000FF91EF91BF91AF919F918F913F912F918F
:1021D0002FBF2F9118958F9381E08093BB018F9132
:1021E00018958F9381E08093BA018F911895F89498
:1021F00085B7877F85BF90E088ED0FB6F894A895E6
:102200008FBD90B7977F90BF0FBE81E088B998E0EF
:102210009CB99FE790BB92EA9093720091E19093F2
:10222000710091E89BBB8ABB8FEF91E090936900AE
:102230008093680080E882BB87BD8CB788608CBFC4
:10224000A89580E480BFBCD9789481E00E948E027A
:1022500070E060E087E29CE00E94FF071092960128
:102260000E947E059FB1892F8095881F8827881F2F
:102270008093B90197FF8DC082E00E948E02F8948E
:1022800080E890E08BD2853A09F0B8C007E911E008
:10229000C1E8D0E0CE0182D2F80181938F0121966E
:1022A000CF39D105B9F77894809197018093900147
:1022B000809198018093150180919901809312017A
:1022C00080919A0180930F0180919B018093160168
:1022D00080919C018093130180919D018093100156
:1022E00080919E018093170180919F01809314013A
:1022F0008091A001809311018091A10180939201AE
:102300008091A201809391018091A30180938F011C
:102310008091A40180931A018091A501809394017A
:102320008091A601809393018091A70180938701FA
:102330008091A80180931D018091A901809388015B
:102340008091AA0180931C018091AC0180930A01C5
:102350008091AD0180931E018091AE018093D301E5
:102360008091AF0180931F018091B00180930E0195
:102370008091B10180930D018091B20180930C0195
:102380008091B30180930B018091B4018093890106
:1023900036C0C0E08C2F0E94770483E190E02DDBF3
:1023A0008C2F86950E94770483E190E026DB9FB115
:1023B000892F8095881F8827881F8093B90197FDF2
:1023C0001AC0CF5FC03431F765E181E00E94B703E6
:1023D0000E94D503C6E98C2F0E94770484E090E028
:1023E0000CDBC150C1F748CF8C2F0E9477048DE0E1
:1023F00090E003DBC150C111F7CF3ECF78948091BC
:102400009401811180931B0170E060E085EF96E0FC
:102410000E94FF0761E070E088E898E00E94FF07F3
:1024200043E4442E52E0552E60E4662E77247394E4
:1024300078E8872E78E0972ECC24C394D12C0E9484
:1024400043028091BE019091BF01009751F06091CD
:10245000BC017091BD010E9415081092BF0110923D
:10246000BE018091B801882339F180E00E94770491
:10247000A89540BE1F989FB1892F8095881F8827F7
:10248000881F8093B90197FFF6CF0E9484028CB712
:1024900088608CBF1092E2011092BB011092BA01C9
:1024A0008091B80181112BC0509220018CB7877F99
:1024B0008CBF86D8A89560BE97DA1092960180915D
:1024C000D1019091D201F3E0813B9F0709F037C021
:1024D000C0E7D0E0FE0184918053C3DA8CE291E042
:1024E0008CDA2196F0E0CC37DF07A1F79092BF019C
:1024F0008092BE011092BD011092BC01A0CF86B7A0
:102500008F79806486BF86B7806186BF889586B7DD
:102510008F7E86BF8091BA0181111092B80180919F
:10252000E201882329F0709220017092D70152D8DD
:102530008091BB01882309F4B3CFB1D9B1CF2DE08D
:102540008836920709F070C080910901811177CF18
:102550000E94A2028F73082F10E00E94A20267E07F
:10256000C8D0E60102C0CC0FDD1F9A95E2F70E94A9
:10257000A20265E0BED0F60102C0EE0FFF1F9A95E1
:10258000E2F7CE0FDF1F0E94A20290E0BE01D1D081
:10259000C80FD91FC739D10514F0C6E9D0E08C2F78
:1025A0000E947704C80129DA7E0133E0F594E794AC
:1025B0003A95E1F7E11002C0EE24E394F12CC80152
:1025C0001CDA5E01AE18BF08E501B7FE02C0D0E01C
:1025D000C0E08C2F0E9477040E94A202837039F41D
:1025E000C8010BDACE01959587950E947704F2E039
:1025F000AF16B10424F70E94A2026DE07AD08601E2
:1026000002C0000F111F9A95E2F70E94A202E80192
:10261000219790E0C823D923C00FD11F80E00E94EA
:102620007704CE01EAD90BCF28E08E34920751F41B
:102630008091D60133DA80919201811157CF88EED3
:1026400093E0F0CF38E08E36930721F48091D401E7
:1026500025DAF5CF85529840B9F48091B9018111FE
:10266000EECE80911B010E94770484E690E0C5D9EC
:1026700080E00E94770480910A0190E068EE73E0A8
:102680000ED084569109CECF86B78F7986BF86B794
:10269000806186BF889586B78F7E86BFD0CE0024A6
:1026A000552704C0080E591F880F991F009729F05D
:1026B00076956795B8F37105B9F7802D952F089534
:1026C000EE27FF27AA27BB2708C0A20FB31FE41FCE
:1026D000F51F220F331F441F551F96958795779539
:1026E000679598F37040A9F7009799F7BD01CF015E
:1026F0000895991B79E004C0991F961708F0961B5E
:10270000881F7A95C9F780950895AA1BBB1B51E1D4
:1027100007C0AA1FBB1FA617B70710F0A61BB70B51
:10272000881F991F5A95A9F780959095BC01CD01F6
:10273000089597FB072E16F4009406D077FD08D075
:10274000E4DF07FC05D03EF4909581959F4F0895F6
:10275000709561957F4F0895A1E21A2EAA1BBB1BAD
:10276000FD010DC0AA1FBB1FEE1FFF1FA217B3075D
:10277000E407F50720F0A21BB30BE40BF50B661F73
:10278000771F881F991F1A9469F760957095809537
:1027900090959B01AC01BD01CF010895E199FECF59
:1027A0001FBA8EBBE09A99278DB30895262FE19921
:1027B000FECF1FBA8EBBE09A81500DB2021639F0DF
:1027C0001CBA2DBB0FB6F894E29AE19A0FBE089599
:0427D000F894FFCFAB
:1027D4000A12180101010100040102192919290131
:1027E40007058282820A0A0A820A014615802D0799
:1027F40002150112010F0102010000000000000097
:1028040001000000000000000001020100000000BF
:102814000000000100000000000000000100002191
:102824000123022503270429052C06FF06050403BA
:022834000000A2
:00000001FF
