:10000000ABC0C5C026CCC3C0C2C0C1C0C0C0BFC089
:10001000E1CBBDC0BCC0BBC016CCB9C0B8C032308B
:1000200032313130313130353131000000000000E3
:1000300000000000000000000000000000000000C0
:1000400000000000000000000000000000000000B0
:1000500000000000000000000000000000000000A0
:100060000000000000000000000000000000000090
:100070000102020303040405060708090A0B0C0D1C
:100080000E101113141617191A1C1E1F21232527D1
:10009000292B2D2F313436393B3E414346494C50B4
:1000A00053565A5D6165696D71757A7E83878C914F
:1000B000979CA1A7ADB3B9BFC5CCD3DAE1E8EFF700
:1000C000FF010102020303040405050607070809EE
:1000D0000A0B0C0D0E0F1112131516181A1C1E20E8
:1000E000222426292C2E3134373B3E42464A4E5399
:1000F000575C61666C72787E858B939AA2AAB2BBBC
:10010000C4CED7E2ECF8FFEBFFF0FFF5FFFFFFFFF7
:10011000FFFFFFFFFFFFFFFFFFFFFFFFFFFFFFFFEF
:10012000FFFFFFFFFFFFFFFFFFFFFFFFFFFFFFFFDF
:10013000FFFFFFFFFFFFFFFFFFFFFFFFFFFFFFFFCF
:10014000FFFFFFFFFFFFFFFFFFFFFFFFFFFFFFFFBF
:10015000FFFFFFFFFFFF000011241FBECFE5D2E02D
:10016000DEBFCDBF10E0A0E6B0E0EAE1FDE102C0F5
:1001700005900D92A239B107D9F721E0A2E9B0E0CC
:1001800001C01D92A633B207E1F769DBC4CD38CFB9
:10019000482F362F272FE3E0F1E090E080E05081F8
:1001A00051110AC063E070E058DDFC01ED5FFE4FC5
:1001B00040833183228305C00196339680319105B7
:1001C00071F70895EF92FF921F93CF93DF931091F1
:1001D0000301111106C0DF91CF911F91FF90EF90A5
:1001E0000895E0900401F0900501C091E000C15035
:1001F0000C2E000CDD0BC7FD0EC0FE01EE0FFF1F25
:10020000EF51FF4F0190F081E02DB701812F09954B
:1002100021978111F0CFE3E0F1E083818083848135
:10022000958192838183339681E0E033F807A9F7C3
:10023000109230011092320110923101C8CFBC01EE
:1002400080913501A5CF10923501109234011092A2
:10025000330181E08093BD00089590E822E048EAF0
:1002600057E030E0815008F408950FB6F89496BD39
:1002700026BD0FBEFA013197F1F70FB6F89496BD7F
:1002800036BD0FBEEFCF86B383FB882780F991E0A0
:1002900089278093D9000895E0916600F091670066
:1002A0003196FB70F460F0936700E09366008091F4
:1002B000D5008B5A8093D500E4918091D5008E0FA4
:1002C0000895CF93DF9300D000D000D0CDB7DEB734
:1002D0002091B7004091F1005091F2004A5B5740E5
:1002E00009F422E0843059F46093B80026960FB6E2
:1002F000F894DEBF0FBECDBFDF91CF910895662386
:10030000A9F3823019F497E9961B692F96E0EBE781
:10031000F0E0DE01119601900D929A95E1F781507F
:10032000990B880F991FA1E0B0E0AC0FBD1F8A0F99
:100330009B1FDC01ED91FC91E20FF11D6083D6CF94
:10034000CF92DF92EF92FF920F931F93CF93DF93A1
:100350009C015091B700E091B90082E0E11101C029
:10036000852F90E0DC01AF58BF4F4C914093750052
:1003700082599F4FDC018C9180937400F0E0E55925
:10038000FF4FC181642F70E0552381F0C13071F4BB
:10039000860F972F911D95958795DF91CF911F918E
:1003A0000F91FF90EF90DF90CF90089526173707B9
:1003B0008CF1821713068CF3511102C0822FEDCFFE
:1003C000841B6C2F6150770B8B01E82EF12CC70139
:1003D00075DC6093B5006695E62FF0E0842FD12C94
:1003E000C12CD0E0DC17C9F2C601B80153DC842F60
:1003F000860FA82FB0E0B9016A1B7B0B77FF03C003
:10040000BD01621B730BCE0CDF1CE617F7072CF641
:10041000DF5FE8CF842FC1CF81E008956111609341
:1004200079000895662369F0813099F48091F30092
:100430009091F400891B680F6093F30082E0809331
:100440007A0080917800873418F086E480937800F1
:100450000895635E60937800F4CF6093B0000895D0
:100460000F931F93CF93DF938091B7008093BE00CB
:10047000809171008093BF0080916E008093C000D6
:1004800080916B008093C100809172008093C200C4
:1004900080916F008093C30080916C008093C400B2
:1004A000809173008093C500809170008093C60096
:1004B00080916D008093C7008091B9008093C8003F
:1004C0008091B8008093C9008091B6008093CA00E3
:1004D000809176008093CB008091BB008093CC000C
:1004E0008091BA008093CD00809169008093CF0005
:1004F000809178008093D0008091F3008093D100A8
:10050000809179008093D20080916A008093D3001B
:100510008091B0008093D400F8940EEB10E0C1E01D
:10052000D1E0F80161918F01CE01E3DB2196C83162
:10053000F1E0DF07B1F765EA80E091E0DADB78947B
:10054000DF91CF911F910F910895882321F0813081
:1005500029F0BC9A04C0BC98C4980895BC98C49A69
:100560000895CF93C82F8093D7008093D6008091B1
:10057000D800811101C0E9DFC1110FC019BC18BC3E
:100580008091D7008630B8F480E892E00FB6F894F6
:1005900086BD96BD0FBECF910895C1508C2F90E0BF
:1005A000FC01EF53FF4FE491E9BD855D9F4FFC01D6
:1005B000849188BDE5CF873118F480E891E0E6CFDB
:1005C00080E890E0E3CF8093BC00CBCFCF93C09185
:1005D000D70089E18C0F873908F080E0C2DF82E024
:1005E0003CDE8C2FCF91BDCFCF93C091D70080E060
:1005F000B8DF83E032DE8C2FCF91B3CF813019F496
:100600001092BB000895823019F46093BA000895E7
:10061000833019F46093B6000895843011F4609328
:1006200076000895E82F8091F6008D3110F480E077
:100630008CCFEF70F0E0EF57FF4F8081F9CFCF9371
:10064000282FCB01C091B900C11117C0283049F43F
:100650001092B4001092B2001092B1008C2FCF9182
:100660000895213B61F48091B4008150833028F4D7
:1006700083E08093B4008093B300C1E0EFCF253BCB
:10068000A1F46EE370E006DB892B41F78091B400A2
:100690008A3F20F78B5F8093B4008093B300109261
:1006A000B2001092B10092DFD9CF213031F78091A2
:1006B000B1009091B200019688382EE0920728F49C
:1006C0009093B2008093B100C9CF1092B200109203
:1006D000B1008091B400882309F281508093B40066
:1006E000BDCFFF920F931F93CF93DF938C01D62F33
:1006F000C72FF42E8091F1009091F200892B31F0F8
:10070000E091F100F091F20089E009951093F20078
:100710000093F100012B41F0E091F100F091F20023
:100720006D2F7C2F8F2D099581E08093BD00DF9187
:10073000CF911F910F91FF900895CF93DF93E09198
:10074000E000D0E0C0E0EE2351F0E150E093E000A3
:10075000F0E0EE0FFF1FEF51FF4FC081D181E0911C
:10076000E00090E080E0EE2341F0E150FF0BEE0F5F
:10077000FF1FEF51FF4F808191814AE070E060E000
:10078000B0DFCE01DF91CF910895883039F4109217
:10079000AF001092960080E0E4DE0CC08130F9F4E6
:1007A00090919600911108C06032710518F0809305
:1007B000960049DD80E00895913079F46B3B710536
:1007C00020F082E080939600E6CF6115710591F3E9
:1007D000862F880F84708E5EDFCFAFDFEBCF81383E
:1007E00011F0813E39F791E090939600813E41F4FB
:1007F0008091AF00865F8093AF0025DD8BE4CCCF86
:100800008091AF008F5FF7CF2091E000283080F417
:10081000E22FF0E0EE0FFF1FEF51FF4F8083918337
:100820002F5F2093E00048E05CDF8091E0000895B6
:100830008FEF08950F931F93CF93DF93D82FC92F76
:100840008B017BDFB8018D2F9C2FDF91CF911F9102
:100850000F91DACF843011F58091F1009091F20080
:100860002AE0823C920731F469E170E087E895E084
:10087000E1DF0DC08758954061F49091D700923028
:1008800040F0892F869596959695890F9CDE80E09D
:10089000089570E060E081EB94E0EACF81E0089594
:1008A000282FCB01213C39F470E060E081EB94E02B
:1008B000C1DF80E00895223C29F470E060E087E722
:1008C00094E0F6CF213B39F46EE370E0E3D9892B55
:1008D00081F77CDEEECF213E41F46EE370E0DAD9A1
:1008E0006F5F60936900BCDDE4CF81E00895CF9332
:1008F000C091B900C11119C0813C41F470E060E0C1
:1009000081EB94E097DF8C2FCF910895823C29F4FE
:1009100070E060E087E994E0F5CF873B31F470E068
:1009200060E082EC97E070DFEECFC1E0ECCF813C7D
:1009300039F470E060E081EB94E07CDF80E00895C2
:10094000823C29F470E060E080E594E0F6CF873BDC
:1009500031F470E060E086EC97E056DFEFCF81E0A5
:1009600008950F931F93CF938B018830A1F480E0FB
:10097000F8DD80916A008370E8DD1092B400012BED
:1009800031F0C0E08C2FCF911F910F91089581E03D
:100990008093D800F6CF813051F46931710588F326
:1009A0008093D80080916A008370CFDDEACF8330D6
:1009B00031F52091BB00222359F08091BA0090E0DC
:1009C00062EC71E04AD90817190710F020937700FC
:1009D00080916A008370833011F4802F23DE809130
:1009E000B000882371F290E062EC71E036D9801794
:1009F000910738F670E060E08EEC97E016C0813B1E
:100A0000B1F481E090E09CDCACDD8091B600811116
:100A1000B8CF8091B700811104C00831110508F4E6
:100A2000B0CF61E070E087E895E004DFAACF813EB7
:100A3000C1F3813831F48091770090E081DC91DD61
:100A4000A0CF813C21F46091D70070E0ECCF823BD5
:100A500071F4809176009091B90091118091B80065
:100A6000811103C086E990E0E9CF86E9E8CF823EB4
:100A700011F480E0E4CF66E970E0823CA1F28339B2
:100A8000C1F3843C29F470E060E087E794E0CDCFC7
:100A9000833C11F49BDDAECF8F3C29F470E060E025
:100AA0008CE092E0C2CFC091B9008A3B79F4012B6F
:100AB00061F5CC2329F08ADD1092B900D1DC61CF39
:100AC00070E060E08AEB97E09FDE5CCFC1111DC053
:100AD0008A3C31F47BDD81E08093B900C1DC52CFE8
:100AE000833B31F470E060E082EC9AE0A3DE4ACF11
:100AF000873C59F490916A0081E0890F83709C7F54
:100B0000982B90936A0021DDE9CFC1E03BCFAF92F3
:100B1000BF92CF92DF92EF92FF920F931F93CF93EA
:100B2000DF93C82F8B01B0907500F0907400C090D7
:100B3000B700D090B500C11002C0DD24D3948091DD
:100B40007600D091B900D1118091B8008823D9F1F5
:100B5000813021F0809177008F15A8F1A6E9EA2E67
:100B6000A090B400B8018C2F6ADD6091B4006623B8
:100B700009F4B0C1A11004C08091D70080939A00FD
:100B8000C83029F0CA3009F50091770010E0B0169E
:100B9000110630F4F016110619F010F000937700EA
:100BA000C801CEDB10DD81E080936500D0E08D2FA1
:100BB000DF91CF911F910F91FF90EF90DF90CF9039
:100BC000BF90AF900895EF2CCBCFC13C09F485C105
:100BD000C23C71F48091D7008E1538F48E2DF3DC71
:100BE0008091D70080939A00E1CF80917700F7CF72
:100BF000C33C39F480E0B5DC70E060E08EEC97E057
:100C000070C18FE48C0F823008F04EC060916B0091
:100C100070E0C801CC2011F068E170E03BD8892B6E
:100C200029F62091D7000115110511F5C23BD1F429
:100C30008FEF80936500D091D700809165006D2D76
:100C400070E0082E000C990B08D88D0F911D78DBF1
:100C5000C82F80937700D81719F08F1101C0C4DC1A
:100C60008C2FBDCF2F1520F7B21628F381E0E1CFEE
:100C7000E0916B00F0E0CF0166E371E0EED7801702
:100C8000910710F42F15A0F6CF016CE672E0E5D7BE
:100C90008017910780F6B21670F298DC70E060E081
:100CA0008EEC97E0C7DDC7CF8FE18C0F823020F448
:100CB00080916500819578CFC13009F08CC00932F0
:100CC000110511F4C0936500662389F080919A00A4
:100CD0006150770B90E0C1D76091B30070E0EED720
:100CE000611101C061E06093D6006093BC00809107
:100CF000D6009091D700482F491B550B9A0160915F
:100D00009800709199006F5F7F4F70939900609386
:100D10009800452B09F44ACF40E052E037FF06C067
:100D200040E150E09E3710F440E051E05695479581
:100D300037FF02C02F5F3F4F3595279521153105AD
:100D4000A9F74617570708F031CF891768F58FEFD5
:100D5000890F7FEF780F272F30E0A9014F535F4FA6
:100D6000FA016491791720F599B5911121C06F3F6F
:100D7000F9F469BD255D3F4FF901949168B5691794
:100D800020F598B59F5F98BD99B5FA0144919413E9
:100D900006C098B5F9012491921301C0E2DB1092CC
:100DA00099001092980002CF981798F681E0D0CF62
:100DB00099B5961720F499B59F5F99BDDBCF99B58A
:100DC0006917C0F699B59150F8CF68B59617E0F657
:100DD00098B59150D8CFC530D9F48091D7008639D5
:100DE00031F48DE78093D6008093BC00DFCE87344A
:100DF00008F4DCCE90E0801B910B86349105DCF08A
:100E00008739910510F086E990E08093D600CECE28
:100E1000C630A1F49091D7008091BC00981708F0DB
:100E2000C5CE090F111D90E08017910774F3C8011A
:100E30000634110554F786E490E0E7CFC73069F433
:100E40009091D6008091D700891710F48F5FDDCF85
:100E5000981708F0ABCE8150D8CFD11139C0C43C1F
:100E600099F481E0C11080E08093B700F9DABCDB2F
:100E70008091D70090E064DA80937700A4DB8091C2
:100E8000D70080939A0093CEC33B31F48E2D012B73
:100E900009F08CCE98DB8BCEC33E19F4809177009D
:100EA000F9CF70E060E086EB97E0C73B79F0CA3C91
:100EB00039F48091D7008093BB00D2DA87DB77CEFC
:100EC000CA3B31F470E060E08EEB97E09DDC6FCEC2
:100ED000D1E06DCEAA2009F453CE70E060E081EB42
:100EE00094E0A8DC63CE582FCB01F901583089F487
:100EF0001092970080E035DB8091D90081111CC0F1
:100F000081E08093970070E060E085EC93E07CDC0A
:100F100013C0252F207F203BB1F42091970042176A
:100F200080F06DE570E0B6D6029741F42F5F209314
:100F3000970088E3421718F480E0089582E111DBFE
:100F4000FBCF80E0FCCF203E41F4809197008823C6
:100F500011F04817C0F6F1DBEFCF5A3069F7609116
:100F6000AF008091970009957BDAF5CF21E631E05B
:100F700043E0B9CF21E631E044E0B5CF2EEF32E0D7
:100F800044E0B1CF2EE032E041E0ADCF22E132E0EB
:100F900042E0A9CF2DE232E041E0A5CFCF93DF932D
:100FA000D82FCB012D2F2079203941F520917100C8
:100FB000909172008D2F8F70823049F48091BB0028
:100FC000811108C0822F291728F4892F03C0822F8E
:100FD0009217D8F3C6DAD23C09F03EC0C091BB00EC
:100FE0006C2F70E0C1113FC06091770070E087E81E
:100FF00095E020DC8C2FDF91CF910895203811F4FB
:1010000080E0E8CFD83089F480916A008695869593
:101010009CDAC091B900C1114FC0DA3BD1F570E044
:1010200060E08AEC97E0F0DBE5CFD13061F4693124
:10103000710538F0D093D80080916A008695869526
:1010400084DAC0E0D7CFD33031F620916A002C701B
:101050002C30B9F7E7DAF5CFD23B49F4B7DA109282
:10106000350161E070E087E895E0E4DBEACF66E90E
:1010700070E0D33CC1F3D33B61F6C091B900CC23FF
:1010800029F086E990E05CD96CDADBCF86E969DA91
:10109000B1CFD73C89F490916A00892F86958695C7
:1010A0008F5F8370282F220F220F9370920F9093DF
:1010B0006A004BDAD5D99ECFC1E09CCF81EA87B9CF
:1010C000109200011092010186B1886486B90895DA
:1010D000F5DFA29A87EE86B908951092020184B1D5
:1010E00025B14091D500829586958695837030E034
:1010F000220F331F220F331F820F932F911D840F56
:101100008093D5008091F700882309F445C01092A0
:10111000F700809100019091D800992319F0379839
:1011200010920001811146C080917A008823A9F1B4
:101130008091FC009091FD009093F9008093F8005D
:10114000409696958795807F9F7768EA72E0A2D552
:10115000809179008750680F6093F6008091AE000F
:10116000882301F181508093AE008091D8008111D5
:101170000AC08FEA87B981E08093000110920101D3
:1011800086B1886486B980917A00882329F080919D
:101190007A00815080937A0008958091F8009091B0
:1011A000F900CECF6D3108F770E060E084E0F0D751
:1011B00085E0D9CF813039F780917A0081115CC008
:1011C0002091FA003091FB00205F3F4FB90145E0CC
:1011D000769567954A95E1F7E091F30056E03695EC
:1011E00027955A95E1F70E2E000CFF0BCF01835186
:1011F0009140280F391F3093F5002093F40080911F
:101200009D00A82FB0E0AA0FBB1FA256BF4F2D9183
:101210003C911197AB01421B530B6D937C938F5FF5
:10122000877080939D00CA01880F991F880F991FAE
:101230002091780030E02D5E3E4F2E1B3F0B220F99
:10124000331F821B930B860F971F23E01816190676
:101250000CF041C001972150C9F7181619060CF07F
:1012600051C057FD6CC020919C001216CCF5281B74
:1012700020939C0023DF87CF8091FE009091FF0098
:101280009093FB008093FA00409635E09695879501
:101290003A95E1F790939F0080939E009093A10070
:1012A0008093A0009093A3008093A2009093A50048
:1012B0008093A4009093A7008093A6009093A90028
:1012C0008093A8009093AB008093AA009093AD0008
:1012D0008093AC0075CF009709F4BDCF0196BBCFCA
:1012E000880F991F61E070E08530910524F0039725
:1012F000BC017595679588E1861B80939C0085E00D
:1013000047D7B8CF8C3F2FEF9207CCF457FF17C0C9
:1013100020919C0027FF02C02450A9CF24EE281B57
:1013200020939C002091F6002F3108F4A3CF6CEF9E
:101330007FEF681B790B7595679586E0E1CF80910B
:10134000F6008E3108F496CF70E060E087E0D8CFE9
:101350000F931F93CF931092DB00809133019091F4
:1013600034019C012F5F3F4F88279078822B932B6D
:101370009093340180933301C091D90084D7C8176A
:10138000B1F01092D8008093D90090913501882354
:1013900051F1892F80699F709F3019F58093350135
:1013A00090E080E04CD7109234011092330100910C
:1013B0003301109134018091D800882311F1B801D4
:1013C00083E0E6D6FFD60F731127012B81F510922B
:1013D0009B007EDE86B1886486B981E08093F70049
:1013E00020C08F5FDBCF892F8F7E95FD08C080687E
:1013F000809335018091330190913401D3CF806C7B
:10140000F7CFC09135018C2F807F803BA1F470E035
:1014100060E081E0BDD6C80112D780919B0088238F
:10142000C9F280919B008F5F8F7180939B00CF9159
:101430001F910F910895B80181E0AAD6C4FF0FC093
:10144000C5FDE9CF0831110540F310923401109227
:101450003301C062C093350190E080E0DDCFCC2342
:10146000E1F2C5FF02C0EFD6D8CF02311105A8F2D4
:10147000C064C093350190E080E0E1D6F4CF809164
:10148000020181112ADE8091DB00811161CF089574
:10149000BF92CF92DF92EF92FF920F931F93CF9361
:1014A000DF93EC0110E888E0E82E87E0F82E02E0F8
:1014B00092ECC92EDD24D394B12C209759F481E00D
:1014C000DF91CF911F910F91FF90EF90DF90CF9020
:1014D000BF9008958091BD0081111DC09091D700EB
:1014E000963090F40FB6F89416BD06BD0FBEC60137
:1014F0000197F1F78B2D0FB6F89416BD86BD0FBE80
:10150000BEDF60D62197D9CF0FB6F89416BD86BD41
:101510000FBEC701EDCF80E0D3CF0F931F93CF93C2
:10152000C82F06EA811102C008E0C1E010E089E19D
:1015300018D8C801ADDF80E014D88AEF90E0A8DFAA
:10154000C150A9F78AE992E0CF911F910F91A0CFE6
:10155000CF93DF93282F64E691D3382FC92F892F9B
:101560006AE08CD3D92F243650F0832FD6DF8C2F0E
:101570006AE084D3D2DF8D2FDF91CF91CECFCA30F6
:10158000B0F7F9CFDF92EF92FF920F931F93CF93B3
:10159000DF93C82F8B01D0916800D13071F4F090A7
:1015A000B4004DD8FF20A1F08091B400811110C08B
:1015B00070E060E081EB94E03DD9C83071F0C13C4F
:1015C00009F0EDC070E060E081EB94E033D908C031
:1015D000C83081F481E08093630081E080936400EF
:1015E000D0E08D2FDF91CF911F910F91FF90EF9061
:1015F000DF900895C23C59F41092B4008D2F90E012
:10160000019681709927809368002AD7E9CFC13B62
:10161000C1F480916200012B41F49FEF8E3618F4E3
:10162000823018F491E09093630090916300890FE9
:1016300021F481E080936200D3CF8F36D8F38EE619
:10164000F9CFC13E59F48091630081958093630086
:1016500080916400819580936400D7CFC23B61F490
:1016600081E08093630080916200823008F4B5CFFE
:10167000815080936200B1CFC13009F0A4C009321B
:10168000110511F4C0936300D09095008D2D880F43
:10169000D7FC809590E067E070E0DFD2292FE090E2
:1016A00094008E2D880FE7FC8095D09161006D2FFE
:1016B00070E090E0D2D2290FF09093008F2D880F28
:1016C000F7FC8095C09160006C2F70E090E0C5D26F
:1016D000622F690F80916200680F7727771F8091D2
:1016E000B400813091F48091B1009091B20025E076
:1016F000969587952A95E1F724E730E0A901481BE4
:10170000590BCA01AAD2B901C5D2862F2AD700FD2A
:1017100005C0C2D581708D0D809395008091920097
:101720008E0D80939400B8D565E2A8D29F0D90935A
:101730009300B2D58F7329F4AFD56DE09FD290930B
:101740009200DD2331F0A8D58F7319F4D150D093D6
:101750006100A2D5811107C09FD56BE08FD2909315
:10176000610010929400C33030F096D58F7119F457
:10177000C150C093600090D58F7729F48DD566E075
:101780007DD2909360000932110519F481E08093B5
:1017900064008091D500080F0093D50021CFC23C92
:1017A00009F42CCFC13B09F41BCFC13E09F450CF43
:1017B000C23B09F412CFC23E09F427CFD1E0C130B9
:1017C00009F00FCFE0CFC13C09F4FCCEC23E09F0D6
:1017D00008CF1BCF2F932FB72F933F938F939F93B8
:1017E000AF93BF93EF93FF93809101018823E9F0BA
:1017F000E091000124B135B1F0E0EE0FFF1FDF01F1
:10180000A450BF4F2D933C93E850FF4F80819181AE
:101810008217930708F401962817390708F40197EF
:101820009183808381E08093020181E080930101B4
:10183000FF91EF91BF91AF919F918F913F912F9128
:101840002FBF2F9118958F9381E08093DB008F91AC
:1018500018958F9381E08093DA008F911895F89412
:1018600084B7877F84BF0FB6F894A89581B5886147
:1018700081BD11BC0FBEB89A81E083BF81EA8ABDE9
:10188000B99A88E088BB85BB8BB780628BBFA8956F
:1018900081B5886181BD80E481BD1ADC789481E0E6
:1018A000DCD470E060E08AE294E0AED71092BD0034
:1018B0008DD6E9D481116FC0F89480E091E011D207
:1018C000853A09F090C00EEB10E0C1E0D1E0CE0106
:1018D00008D2F80181938F012196C831F1E0DF072A
:1018E000B1F778948091BE008093B7008091BF00DB
:1018F000809371008091C00080936E008091C10040
:1019000080936B008091C200809372008091C3002D
:1019100080936F008091C40080936C008091C5001B
:10192000809373008091C600809370008091C700FF
:1019300080936D008091C8008093B9008091C900A8
:101940008093B8008091CA008093B6008091CB004C
:10195000809376008091CC008093BB008091CD0075
:101960008093BA008091CF00809369008091D0006D
:10197000809378008091D1008093F3008091D20011
:10198000809379008091D30080936A008091D40085
:101990008093B00029C0C0E08C2FE3D583E190E0B4
:1019A00077DD8C2F8695DDD583E190E071DD6BD4FA
:1019B0008823B1F0CF5FC03479F765E181E032D59B
:1019C0004FD5C6E98C2FCDD584E090E061DDC150C4
:1019D000C9F772CF8C2FC5D58DE090E059DDC1508D
:1019E000C111F8CF69CF78948091BB0081118093A9
:1019F000770061E070E081EB94E006D743E4242EA9
:101A000052E0352E60E4462E5524539471EB872E18
:101A100074E0972ECC24C394D12CFAE26F2EF0E020
:101A20007F2ED0D38091DE009091DF00009749F0A7
:101A30006091DC007091DD00FDD61092DF00109205
:101A4000DE008091D800882321F180E08AD5A89516
:101A500081B5886181BD21BC379815D48111FDCF36
:101A6000F2D38BB780628BBF109202011092DB0021
:101A70001092DA008091D80081112CC030927A0047
:101A80008BB78F7D8BBF24DBA89581B5886181BD25
:101A900041BCF5DC1092BD008091F1009091F20004
:101AA00022E08C309207B1F5CEE1D0E0FE018491C6
:101AB000805333DD8CE291E0EBDC21966C167D06E1
:101AC000A9F79092DF008092DE001092DD00109264
:101AD000DC00A7CF85B7877E806185BF85B7806230
:101AE00085BF889585B78F7D85BF8091DA0081118C
:101AF0001092D80080910201882329F050927A0038
:101B00005092F700EADA8091DB00882309F4B2CF23
:101B10001FDCB0CFFAE0823C9F0709F065C08091DE
:101B2000680081117ECFB8D38F73082F10E0B4D333
:101B300067E0A4D0E60102C0CC0FDD1F9A95E2F762
:101B4000ABD365E09BD0960102C0220F331F9A955C
:101B5000E2F7C20FD31FA0D390E0BE01AFD0C80FF1
:101B6000D91FC739D10514F0C6E9D0E08C2FF9D4BC
:101B7000C8018EDC7E0133E0F594E7943A95E1F7F5
:101B8000E11002C0EE24E394F12CC80181DC5E0177
:101B9000AE18BF08E501B7FE02C0D0E0C0E08C2F50
:101BA000E0D47AD3837031F4C80172DCCE0195950C
:101BB0008795D7D432E0A316B1043CF76DD36DE01E
:101BC0005DD0860102C0000F111F9A95E2F764D321
:101BD000E801219790E0C823D923C00FD11F80E0EE
:101BE000C0D4CE0155DC1DCFE4E087379E0751F409
:101BF0008091F600ADDC8091B900811162CF88EE52
:101C000093E0F0CFF4E087399F0721F48091F4004E
:101C10009FDCF5CF80559440A9F48091D9008111C3
:101C200000CF809177009DD484E690E031DC80E0A5
:101C300098D48091690090E068EE73E00ED08456ED
:101C40009109D0CF85B7877E85BF85B7806285BF74
:101C5000889585B78F7D85BFE4CE0024552704C0C5
:101C6000080E591F880F991F009729F076956795E0
:101C7000B8F37105B9F7802D952F0895991B79E078
:101C800004C0991F961708F0961B881F7A95C9F70C
:101C900080950895AA1BBB1B51E107C0AA1FBB1F5B
:101CA000A617B70710F0A61BB70B881F991F5A95E8
:101CB000A9F780959095BC01CD01089597FB072E5B
:101CC00016F4009406D077FD08D0E4DF07FC05D0B9
:101CD0003EF4909581959F4F0895709561957F4F43
:101CE0000895E199FECF9FBB8EBBE09A99278DB3F3
:101CF0000895262FE199FECF9FBB8EBBE09A0197F6
:101D00000DB2021639F01CBA2DBB0FB6F894E29A48
:0A1D1000E19A0FBE0895F894FFCF8A
:101D1A00060B18010101000401020D01070678787B
:101D2A0069011412780101462D070271006E006BD9
:101D3A000000010201000000000000010000000094
:021D4A00000097
:00000001FF
