:100000006DC1000088C100000C941F1084C1000065
:1000100082C100000C9419107EC100007CC1000058
:100020007AC1000078C1000076C1000074C10000F0
:1000300072C1000070C100000C94E00F6CC10000A0
:100040006AC1000068C1000066C1000064C1000010
:1000500062C1000060C100005EC100005CC1000020
:100060005AC1000058C1000056C1000054C1000030
:10007000323032323031303630323635000105041C
:1000800014101115FF3F6935F2294B3C842EBB1F1C
:10009000EB31A439D02F8734BD36832EE72F3F3084
:1000A000E52F102F7E32B030C42EF62FB82D0D2E36
:1000B000AC2B7E2B052B552A7C298328742781277E
:1000C0004126F625A0242024C22222227021B1201C
:1000D000E81F191F451E6F1D991CC31BEF1A1E1A1E
:1000E00050198618C017BF1607161B153A1465134A
:1000F0009B12DA11FA102610600F820EB30DD30C8A
:10010000020C250B580A8109A308D607F0061C0625
:10011000470571049C03CA02FF01FF01FF01FF01B3
:10012000FF01FF01FF01FF01FF01FF01FF01FF01CF
:10013000FF01FF01FF01FF01FF01FF01FF01FF01BF
:10014000FF01FF01FF01FF01FF01FF01FF01FF01AF
:10015000FF01FF01FF01FF01FF01FF01FF01FF019F
:10016000FF01FF01FF01FF01FF01FF01FF01FF018F
:10017000FF01FF01FF01FF01FF01FF01FF01FF017F
:10018000FF01FF01FF01FF01FF01FF01FF01FF016F
:10019000FF01FF01FF01FF01FF01FF01FF01FF015F
:1001A000FF01FF01FF01FF01FF01FF01FF01FF014F
:1001B000010001000100020002000200030004002F
:1001C00004000500060006000700080009000A00F8
:1001D0000C000D000E00100011001300140016009A
:1001E00018001A001C001E00200023002500280013
:1001F0002A002D002F003200350038003B003E0061
:100200004100440047004A004D0050005300560092
:1002100059005B005E0060006200640066006800D8
:1002200069006A006B006B006B006A006900670080
:10023000650062005E005A0054004E0047003F0017
:1002400036002C00210023002500260028002A006B
:100250002C002E00300032003500370039003C0001
:100260003F004100440047004A004D005000530049
:1002700057005A005E00620066006A006E0072005D
:1002800076007B008000840089008E009400990035
:100290009F00A400AA00B000B700BD00C400CA00BF
:1002A000D100D800E000E700EF00F700FF000701F1
:1002B0001001190122012B0135013E0148015301B2
:1002C0005D01680173017E018A019601A201AE0100
:1002D000BB01C801D501E301F101FF0111241FBEDB
:1002E000CFEFD4E0DEBFCDBF11E0A0E0B1E0E0E3AE
:1002F000F6E202C005900D92A236B107D9F722E0CE
:10030000A2E6B1E001C01D92A731B207E1F70E9459
:1003100025100C94161374CEF89498ED9FBD83BFEE
:1003200078940895482F362F272FE2EEF1E090E0E1
:1003300080E0508151110BC063E070E00E947D129B
:10034000FC01EE51FE4F40833183228305C00196AC
:1003500033968031910569F70895EF92FF921F93CC
:10036000CF93DF931091E201111106C0DF91CF917D
:100370001F91FF90EF900895E090E301F090E40169
:10038000C091BF01C1500C2E000CDD0BC7FD0EC08B
:10039000FE01EE0FFF1FE054FE4F0190F081E02DB3
:1003A000B701812F099521978111F0CFE2EEF1E09D
:1003B000838180838481958192838183339682E0D7
:1003C000EF30F807A9F710920F0210921102109265
:1003D0001002C8CFBC0180911402A4CF1092140265
:1003E000109213021092120281E0809395010895F9
:1003F0000F931F93CF93C82F08EA17E0C15020F442
:10040000CF911F910F91089582E086DFC801019777
:10041000F1F780E081DFF2CFE0910701F091080170
:100420003196FB70F460F0930801E093070180912E
:10043000B4018B5A8093B401E4918091B4018E0F82
:100440000895CF93DF9300D00F92CDB7DEB7209100
:100450005E0130915F014091600129833A834B83B3
:10046000FE01319650E040E0682F70E0A1E0B0E07E
:100470009B01042E02C0359527950A94E2F7922F2E
:10048000937081919D0101C0220F8A95EAF799230B
:1004900029F09130C1F080B3822B19C080B3209530
:1004A000822380BB82B3822382BB81B3282321BBFA
:1004B0004E5F5F4F46305105D9F60F900F900F9069
:1004C000DF91CF91089590B3822F8095892380BBCF
:1004D00082B3822B82BB81B3282BE9CFCF93DF93EA
:1004E00000D000D000D0CDB7DEB720918F01409171
:1004F000D0015091D1014B55594009F422E084308C
:1005000059F46093900126960FB6F894DEBF0FBEA3
:10051000CDBFDF91CF9108956623A9F3823019F4FE
:1005200097E9961B692F96E0E2E2F1E0DE01119671
:1005300001900D929A95E1F78150990B880F991FC0
:10054000A1E0B0E0AC0FBD1F8A0F9B1FDC01ED9155
:10055000FC91E20FF11D6083D6CFCF92DF92EF9234
:10056000FF920F931F93CF93DF939C0150918F01C4
:10057000E091910182E0E11101C0852F90E0DC0162
:10058000AA5EBE4F4C9140931A018D5E9E4FDC01D6
:100590008C9180931901F0E0E05FFE4FC181642FE0
:1005A00070E0552381F0C13071F4860F972F911DB3
:1005B00095958795DF91CF911F910F91FF90EF90C7
:1005C000DF90CF900895261737079CF18217130606
:1005D0008CF3511102C0822FEDCF841B6C2F615020
:1005E000770B8B01E82EF12CC7010E94C712609394
:1005F0008D016695E62FF0E0842FD12CC12CD0E040
:10060000DC17C1F2C601B8010E94B312842F860F15
:10061000A82FB0E0B9016A1B7B0B77FF03C0BD01B7
:10062000621B730BCE0CDF1CE617F7071CF6DF5FAF
:10063000E7CF842FBFCF81E008956111609320013F
:100640000895662369F0813099F48091D2019091E8
:10065000D301891B680F6093D20182E0809321014E
:1006600080911F01873418F086E480931F0108955C
:10067000635E60931F01F4CF6093880108950F9328
:100680001F93CF93DF9380918F0180939601809188
:1006900016018093970180911301809398018091B6
:1006A0001001809399018091170180939A018091A4
:1006B000140180939B018091110180939C01809192
:1006C000180180939D018091150180939E01809176
:1006D000120180939F01809191018093A0018091EC
:1006E00090018093A10180918E018093A20180915D
:1006F0001B018093A301809193018093A4018091B9
:1007000092018093A501809187018093A601809139
:100710001E018093A70180910A018093A801809116
:100720001D018093A90180910B018093AB01809101
:100730001F018093AC018091D2018093AD01809123
:1007400020018093AE0180910F018093AF018091D1
:100750000E018093B00180910D018093B1018091D1
:100760000C018093B201809188018093B30182E0F3
:100770003FDEF89406E911E0C1E8D0E0F8016191AC
:100780008F01CE010E9404132196CF39D105B1F714
:1007900065EA80E890E00E9404137894DF91CF919D
:1007A0001F910F910895882321F0813031F0829AB2
:1007B00005C0829892988A9808958298929A8A9A07
:1007C0000895EF92FF920F931F93CF93DF9300D082
:1007D00000D00F92CDB7DEB78D838091B601811125
:1007E0000AC02D81222339F080911D01281718F4A9
:1007F000E8DF82E0FDDD6D816093B6016093B501B5
:100800008091B70181110DC01CDE91E07D817111D5
:1008100001C090E081E0AD81A73408F480E0890F49
:10082000C2DFBD81B11171C0109216021092150283
:1008300010926D0010926C0010926B0010926A0082
:1008400088988998E0901502F0901602009168004F
:10085000109169008091B601815090911E01911113
:1008600080C090E06FEF70E00E947D1266E970E05A
:100870000E94B312C701B0E0A0E0262F30E050E0A4
:1008800040E089839A83AB83BC83B701CD010E948A
:100890008E1261587F4F8F4F9F4F69837A838B836E
:1008A0009C832FEF30E040E050E00E94DA12C90153
:1008B0000217130708F06EC09701201B310BC80107
:1008C00030936D0020936C0090936B0080936A00CE
:1008D000232B09F46CC0889A892B09F46AC0899A81
:1008E0007D81709371018091B601823008F063C000
:1008F00082E00F900F900F900F900F90DF91CF91AB
:100900001F910F91FF90EF9007CD2D81215030E086
:10091000220F331FF901E055FE4F8591949190937A
:10092000160280931502F901EC57FF4F259134917F
:1009300080917101A90140545109882339F06091D7
:100940006E0070916F0046175707B8F33093690037
:1009500020936800811176CF10926F0010926E0084
:1009600071CF9F3F59F490E06FEF70E00E947D12CD
:1009700066E970E00E94B31260957CCF892F90E009
:1009800064E670E00E947D1263E670E00E94C71288
:10099000615070CFB701621B730B9B0106171707DD
:1009A00008F08ECFC701801B910B980189CF8898E2
:1009B00093CF899895CF8A3010F481E09ACF80E068
:1009C00098CFCF93C091B60186E48C0F873908F099
:1009D00080E0F7DE83E00CDD8C2FCF91F2CECF9359
:1009E000C091B60180E0EDDE83E002DD8C2FCF9177
:1009F000E8CE0F931F93CF93DF93D82F862F90913C
:100A0000D5012FEF290F2C3140F480E01ADD80E072
:100A1000DF91CF911F910F91C6CECD2FC295CF7090
:100A2000DF702091B701211103C0C33008F0C2E08C
:100A3000D730B0F400916B0110E00F5F1F4FECDC7A
:100A400065E00E94A7129801290F311DC90166E0D7
:100A500070E00E94C71280936B01ED2FF0E016C08A
:100A6000D73089F500916B0110E00F5F1F4FD4DC88
:100A700065E00E94A712D801A90FB11DCD0166E063
:100A800070E00E94C71280936B01FC01E358FF4F96
:100A9000E491C33071F480916A0190E0019663E1C2
:100AA00070E00E94B31280936A01855C9E4FDC0166
:100AB000CC91CC23E1F1C13011F0EE0FC2E08E2FCA
:100AC000C0DC8C2FA5CFD830A9F49091B7016FE08E
:100AD000911101C063E0862351F480916B0190E095
:100AE000019666E070E00E94C71280936B01E0916E
:100AF0006B01B4CF2091B701222381F080E09D31BA
:100B000018F4E0E0C6CF8E5FE82FF0E0E25BFE4F26
:100B100020819217C0F73197E081A0CF869563E0DE
:100B20000E94A712E92FF0E0EE0FFF1FAFCFE0E029
:100B3000C6CF813019F4109293010895823019F4D0
:100B4000609392010895833019F460938E010895A3
:100B5000843011F460931B010895813061F491E0B9
:100B6000611101C090E090930A01611101C08FE70B
:100B700080931E010895823011F460931D01089541
:100B8000CF93DF93CDB7DEB763970FB6F894DEBF90
:100B90000FBECDBF9091D50191509C3150F480E0B3
:100BA00063960FB6F894DEBF0FBECDBFDF91CF9135
:100BB000FACD82958F709091B701911108C0833062
:100BC00020F4882369F3813059F382E0E9CF833040
:100BD000C1F783E1E8E2F1E0DE01119601900D92A8
:100BE0008A95E1F78091690190E0019663E170E0F8
:100BF0000E94B31280936901E1E0F0E0EC0FFD1F69
:100C0000E80FF91F8081DDCFCF93282FCB01C09152
:100C10009101C11117C0283049F410928C01109233
:100C20008A01109289018C2FCF910895213B61F4A4
:100C300080918C018150833028F483E080938C0173
:100C400080938B01C1E0EFCF253BA9F46EE370E008
:100C50000E94B312892B39F780918C018A3F18F7D3
:100C60008B5F80938C0180938B0110928A0110928C
:100C70008901A7DED8CF213029F780918901909191
:100C80008A01019688382EE0920728F490938A0111
:100C900080938901C8CF10928A01109289018091B6
:100CA0008C01882309F4BFCF815080938C01BBCF86
:100CB000CF93833B09F056C080910A01882381F0CD
:100CC000672B09F06AC080911E018E3F19F081E008
:100CD00080931E0180911E01809580931E0124C087
:100CE000672B31F581E08093680110926701909144
:100CF000050180911E0119160CF58E3F18F48F5FC7
:100D000080931E01C091670180911E01C034E1F4FF
:100D100091E49093670191E0892780931E015FDE43
:100D200080911E01809366018091B6014ADD2BC03F
:100D3000809168018111DBCFCF910895992311F340
:100D4000823000F38150DCCF909166019813E8CF98
:100D5000C11105C044DECF5FC0936701E1CFCF3F33
:100D6000F9F2F9CF833EA9F4109268018091050150
:100D700081958093050180911E01811106C081E05B
:100D8000809305017CDC80E0D7CF8E3FD8F38FEFD6
:100D9000F7CF843B11F48FE7A0CF81E0CDCFFF9256
:100DA0000F931F93CF93DF938C01D62FC72FF42E71
:100DB0008091D0019091D101892B31F0E091D00147
:100DC000F091D10189E009951093D1010093D001F0
:100DD000012B41F0E091D001F091D1016D2F7C2FDA
:100DE0008F2D099581E080939501DF91CF911F911F
:100DF0000F91FF900895CF93DF93E091BF01D0E072
:100E0000C0E0EE2351F0E150E093BF01F0E0EE0FBF
:100E1000FF1FE054FE4FC081D181E091BF0190E0FF
:100E200080E0EE2341F0E150FF0BEE0FFF1FE05496
:100E3000FE4F808191814AE070E060E0B0DFCE013A
:100E4000DF91CF910895883039F410928601109285
:100E50006C0180E0B6DC0CC08130F9F490916C013B
:100E6000911108C06032710518F080936C01B6DAF8
:100E700080E00895913079F46B3B710520F082E0B9
:100E800080936C01E6CF6115710591F3862F880F71
:100E900084708E5EDFCFAFDFEBCF813811F0813E03
:100EA00039F791E090936C01813E41F48091860185
:100EB000865F8093860192DA8BE4CCCF80918601A5
:100EC0008F5FF7CF2091BF01283080F4E22FF0E050
:100ED000EE0FFF1FE054FE4F808391832F5F20931E
:100EE000BF0148E05CDF8091BF0108958FEF089556
:100EF0000F931F93CF93DF93D82FC92F8B017BDFE5
:100F0000B8018D2F9C2FDF91CF911F910F91DACFD8
:100F1000282FCB01213C39F470E060E08BEE97E0A4
:100F2000E7DF80E00895223C29F470E060E081EB87
:100F300097E0F6CF213B41F46EE370E00E94B312DC
:100F4000892B79F73EDDEDCF213E49F46EE370E069
:100F50000E94B3126F5F60930B0191DBE2CF81E0DF
:100F60000895CF93C0919101C11119C0813C41F402
:100F700070E060E08BEE97E0BBDF8C2FCF9108959F
:100F8000823C29F470E060E081ED97E0F5CF873B8B
:100F900031F470E060E087E699E094DFEECFC1E0E5
:100FA000ECCF813C39F470E060E08BEE97E0A0DF9D
:100FB00080E00895823C29F470E060E088E897E0E2
:100FC000F6CF873B31F470E060E08BE699E07ADFA2
:100FD000EFCF81E008950F931F93CF938B0188305B
:100FE000B9F480E0EEDB60E080910F0102DD8091DA
:100FF0000D01C6DD10928C01012B31F0C0E08C2F69
:10100000CF911F910F91089581E08093B701F6CFA2
:10101000813061F46931710588F38093B701809163
:101020000F01E7DC80910D01ABDDE8CF833069F57E
:1010300020919301222381F08091920190E062EC53
:1010400071E00E947D120817190730F020931C01EF
:101050008091870180931E01602F80910F01C9DC70
:1010600080910D018DDD80918801882339F290E017
:1010700062EC71E00E947D128017910708F0BECFEC
:1010800070E060E083E799E016C0813BB1F481E055
:1010900090E063DA96DB80918E018111AFCF809171
:1010A0008F01811104C00831110508F4A7CF61E058
:1010B00070E08FEF9DE01CDFA1CF813EC1F381384E
:1010C00031F480911C0190E048DA7BDB97CF60918E
:1010D000B60170E0813C69F3823B71F480911B01A1
:1010E00090919101911180919001811103C086E945
:1010F00090E0EACF86E9E9CF823E11F480E0E5CFC7
:1011000066E970E0823CA9F28339C1F3843C29F49A
:1011100070E060E081EB97E0CECF833C11F451DCCE
:10112000AFCF8D3B41F4F89488ED8FBD88E880BF48
:101130007894A895FFCF8F3C29F470E060E08BE1B4
:1011400093E0B9CFC09191018A3B81F4012B09F062
:1011500068C0CC2329F035DC1092910190DA4ECF93
:1011600070E060E08BE599E0ADDE49CFC11159C078
:101170008A3C31F426DC81E08093910180DA3FCF14
:10118000833B31F470E060E08BEC9CE0B1DE37CF64
:10119000873C91F490910F01892F82958F708F5F1A
:1011A00083708295807F9F70892B80930F0160E010
:1011B00020DC65DA06DC23CF883C79F490910D01C0
:1011C000892F82958F708F5F83708295807F9F704B
:1011D000892B80930D01D4DCD1CF873BB1F4C801BA
:1011E0008F739927892B61F420910F01822F8F70C3
:1011F0008F5F207F6BE00E94A712922B90930F01CC
:10120000602F80910F01F5DBFACE873E09F4B6CF4F
:10121000893B39F4012B29F470E060E083E699E022
:10122000A3CFC1E0ECCE582FCB01F901583089F49F
:1012300010926D0180E0C5DA8091B80181111DC066
:1012400081E080936D0170E060E083E297E03ADE38
:1012500014C0252F207F203BB9F420916D01421747
:1012600088F06DE570E00E94B312029741F42F5FA1
:1012700020936D0188E3421718F480E0089582E11D
:10128000A0DAFBCF80E0FCCF203E41F480916D01DD
:10129000882311F04817B8F6AEDDEFCF5A3069F762
:1012A0006091860180916D010995E9D9F5CF2EE60F
:1012B00032E043E0B8CF2EE632E044E0B4CF29E993
:1012C00035E044E0B0CF2DEA35E042E0ACCF2DE18F
:1012D00033E041E0A8CF21E233E042E0A4CF2CE3A9
:1012E00033E041E0A0CF0F931F93CF93DF93D82F2C
:1012F0008B01873B79F480E064DAC0919101C111E0
:10130000AFC0DA3B09F06CC070E060E08FE699E0B6
:10131000D9DD26C08079803949F520911601909158
:1013200017018D2F8F70823049F4809193018111C4
:1013300008C0822F291728F4892F03C0822F921703
:10134000D8F33FDAD23C79F5C09193016C2F70E06D
:10135000C1112FC060911C0170E08FEF9DE0C8DDCE
:101360008C2FDF91CF911F910F910895803811F448
:1013700080E0E7CFD83009F075C060E080910E01C1
:1013800038DB80910C01FCDBB8CF0931110548F046
:10139000D093B701602F80910E012BDB80910C015F
:1013A000EFDBC0E0DDCFD23B41F41092140261E0EC
:1013B00070E08FEF9DE09CDDF4CF66E970E0D33CF8
:1013C000C1F3D33B09F099CFC0919101CC2329F00F
:1013D00086E990E0C2D8F5D9E4CF86E9F2D9C0CF4A
:1013E000D73C91F490910E01892F82958F708F5F79
:1013F00083708295807F9F70892B80930E0160E0BF
:10140000F8DA3DD9DEDAACCFD83C81F490910C010A
:10141000892F82958F708F5F83708295807F9F70F8
:10142000892B80930C01ACDB2AD99ACFD73BB1F43E
:10143000C8018F739927892B61F420910E01822FA7
:101440008F708F5F207F6BE00E94A712922B90938A
:101450000E01602F80910E01CCDA82CFD73E21F3AE
:10146000C1E07ECFD13009F490CFD33009F492CFD0
:1014700069CF86E884B91092DF011092E00183B150
:10148000886483B90895F5DFE1E6F0E08081826049
:101490008083139A87EE83B908951092E10180B199
:1014A00021B14091B401829586958695837030E094
:1014B000220F331F220F331F820F932F911D840F92
:1014C0008093B4018091D601882309F446C010921C
:1014D000D6018091DF019091B701992319F01F98EF
:1014E0001092DF01811148C0809121018823B1F160
:1014F0008091DB019091DC019093D8018093D7011A
:10150000409696958795807F9F7761EC72E00E9468
:10151000B312809120018750680F6093D5018091AC
:101520008501882301F18150809385018091B70165
:1015300081110AC08EE884B981E08093DF011092A6
:10154000E00183B1886483B980912101882329F067
:101550008091210181508093210108958091D701CC
:101560009091D801CDCF6D3108F770E060E084E054
:101570000E94920185E0D8CF813031F7809121011E
:1015800081115BC02091D9013091DA01205F3F4F7A
:10159000B90145E0769567954A95E1F7A091D201AA
:1015A0000A2E000CBB0BCD018A50914056E03695B7
:1015B00027955A95E1F7280F391F3093D4012093CE
:1015C000D30190917401E92FF0E0EE0FFF1FEB586B
:1015D000FE4F20813181AB01421B530B718360832D
:1015E0009F5F977090937401CA01880F991F880FAD
:1015F000991F860F971F20911F0130E02A1B3B0B7C
:10160000265F3E4F220F331F821B930B23E01816D9
:1016100019060CF041C001972150C9F71816190698
:101620000CF052C057FD6DC0209173011216CCF51D
:10163000281B209373011DDF87CF8091DD019091DE
:10164000DE019093DA018093D901409635E09695BA
:1016500087953A95E1F79093760180937501909381
:1016600078018093770190937A0180937901909328
:101670007C0180937B0190937E0180937D01909308
:10168000800180937F0190938201809381019093E8
:1016900084018093830176CF009709F4BDCF019632
:1016A000BBCF880F991F61E070E08530910524F071
:1016B0000397BC017595679588E1861B809373013C
:1016C00085E00E949201B7CF8C3F2FEF9207CCF4B8
:1016D00057FF17C02091730127FF02C02450A8CFE5
:1016E00024EE281B209373012091D5012F3108F49B
:1016F000A2CF6CEF7FEF681B790B7595679586E03D
:10170000E0CF8091D5018E3108F495CF70E060E094
:1017100087E0D7CF843021F58091D0019091D1011D
:101720002CE08B3C920731F469E170E08FEF9DE093
:10173000DFDB0FC08F5F9D4071F49091B601923056
:1017400050F0892F869596959695890F80939401F0
:1017500038D880E0089570E060E08BEE97E0E8CF45
:1017600081E008950F931F93CF931092BA01809157
:101770001202909113029C012F5F3F4F88279078AF
:10178000822B932B90931302809312029091B801B5
:101790002FB1822F8095881F8827881F8093B801DA
:1017A0009817B9F01092B7018093B8019091140284
:1017B000892F27FD2CC080699F709F3031F5809361
:1017C000140290E080E00E94EA011092130210924D
:1017D000120200911202109113028091B701882326
:1017E00019F1B80183E00E9492010E94AD010F73CC
:1017F0001127012B89F51092720145DE83B18864AF
:1018000083B981E08093D60121C08F5FD8CF8F7ECE
:1018100095FD08C080688093140280911202909117
:101820001302D1CF806CF7CFC09114028C2F807F30
:10183000803BB1F470E060E081E00E949201C80159
:101840000E94EA01809172018823C1F280917201A5
:101850008F5F8F7180937201CF911F910F910895C7
:10186000B80181E00E949201C4FF0FC0C5FDE7CF1F
:101870000831110538F31092130210921202C0625F
:10188000C093140290E080E0DBCFCC23D9F2C5FFF7
:1018900003C00E94EE01D6CF0231110598F2C06458
:1018A000C093140290E080E00E94EA01F2CF8091A0
:1018B000E1018111F2DD8091BA01811153CF0895C8
:1018C000EF92FF920F931F93CF93DF93EC0108E009
:1018D00017E082ECE82EFF24F394209741F481E096
:1018E000DF91CF911F910F91FF90EF90089580911C
:1018F0009501811117C08091B601823070F482E0A9
:101900000E948C01C7010197F1F780E00E948C01D1
:10191000CEDF0E94AD012197E0CF80E00E948C01D4
:10192000C801F1CF80E0DCCF0F931F93CF93C82F76
:1019300006EA811102C008E0C1E010E086E40E94DE
:10194000E103C801BDDF80E00E94E1038AEF90E07F
:10195000B7DFC15099F78AE992E0CF911F910F91BB
:10196000AFCFCF93DF93282F64E6F1D5382FC92F5F
:10197000892F6AE0ECD5D92F243650F0832FD4DF9D
:101980008C2F6AE0E4D5D0DF8D2FDF91CF91CCCFC3
:10199000CA30B0F7F9CFDF92EF92FF920F931F9307
:1019A000CF93DF93C82F8B01D0910901D13071F40F
:1019B000F0908C0129D9FF20A1F080918C01811138
:1019C00010C070E060E08BEE97E092DAC83071F002
:1019D000C13C09F0F9C070E060E08BEE97E088DA76
:1019E00008C0C83081F481E08093030181E08093D6
:1019F0000401D0E08D2FDF91CF911F910F91FF90C7
:101A0000EF90DF900895C23C61F410928C018D2F0D
:101A100090E0019681709927809309010E943F030D
:101A2000E8CFC13BC1F480910201012B41F49FEF4B
:101A30008F3518F4823018F491E09093030190915F
:101A40000301890F21F481E080930201D2CF803617
:101A5000D8F38FE5F9CFC13E59F480910301819508
:101A60008093030180910401819580930401D6CF76
:101A7000C23B61F481E080930301809102018230D6
:101A800008F4B4CF815080930201B0CFC13009F087
:101A9000AFC00932110511F4C0930301D090650164
:101AA0008D2D880FD7FC809590E06CE070E025D5F7
:101AB000292FE09064018E2D880FE7FC8095D0914E
:101AC00001016D2F70E090E018D5290FF0906301AF
:101AD0008F2D880FF7FC8095C09100016C2F70E06E
:101AE00090E00BD5622F690F80910201680F772774
:101AF000771F80918C01813091F4809189019091C0
:101B00008A0125E0969587952A95E1F724E730E04C
:101B1000A901481B590BCA01F0D4B90124D5862F5D
:101B20000E94E10300FD06C00E940C0281708D0D31
:101B300080936501809162018E0D809364010E9403
:101B40000C0265E204D59F0D909363010E940C0284
:101B50008F7331F40E940C026DE0F9D4909362010E
:101B6000DD2339F00E940C028F7319F4D150D09309
:101B700001010E940C02811108C00E940C0262E166
:101B8000E6D49093010110926401C33038F00E94B2
:101B90000C028F7119F4C150C09300010E940C0215
:101BA0008F7731F40E940C026AE0D1D49093000147
:101BB0000932110519F481E0809304018091B40188
:101BC000080F0093B40115CFC23C09F420CFC13BEC
:101BD00009F40FCFC13E09F445CFC23B09F406CF4B
:101BE000C23E09F41BCFD1E0C13009F003CFE0CFF2
:101BF000C13C09F4F0CEC23E09F0FCCE0FCFAF924B
:101C0000BF92CF92DF92EF92FF920F931F93CF93E9
:101C1000DF93C82F8B01B0901A01E0901901C0909A
:101C20008F01D0908D01C11002C0DD24D39480912A
:101C30001B01D0919101D11180919001882309F469
:101C400040C0813021F080911C018E15D0F1A6E9B1
:101C5000FA2EA0908C01B8018C2F0E94040660918E
:101C60008C01662309F4A2C1A11004C08091B601C1
:101C700080937001C83029F0CA3029F500911C0109
:101C800010E0B016110630F4E016110619F010F04D
:101C900000931C01C8010E94AD02809394010E9430
:101CA000E10381E080930601D0E08D2FDF91CF9199
:101CB0001F910F91FF90EF90DF90CF90BF90AF906A
:101CC0000895FE2CC6CFC13C09F473C1C23C99F4FF
:101CD0008091B6018F1550F4F09294018F2D0E94DF
:101CE000E1038091B60180937001DECF80911C01E9
:101CF00080939401F4CFC33C41F480E00E94E1035F
:101D000070E060E083E799E058C18FE48C0F823087
:101D100008F04AC06091100170E0C801CC2011F0B9
:101D200068E170E020D4892B09F0BECF2091B60184
:101D300001151105E1F4C23BA1F48FEF8093060178
:101D4000809106016D2D70E0082E000C990BD5D303
:101D50002091B601820F911D0E94AD0280931C015B
:101D6000C7CF2E1550F7B21658F381E0E7CFE091B8
:101D70001001F0E0CF0166E371E0BFD38017910757
:101D800010F42E15D0F6CF016CE672E0B6D38017B2
:101D90009107B0F6B216A0F20E94E10470E060E094
:101DA00083E799E0A5D8CCCF8FE18C0F823020F467
:101DB00080910601819576CFC13009F080C009324B
:101DC000110511F4C0930601662389F0809170011A
:101DD0006150770B90E091D360918B0170E0D7D385
:101DE000611101C061E06093B50160939401C091FD
:101DF000B5018091B6014C2F481B550B9A0160919B
:101E00006E0170916F016F5F7F4F70936F016093F0
:101E10006E01452B09F448CF40E052E037FF06C081
:101E200040E450E08D3810F440E051E0569547957D
:101E300037FF02C02F5F3F4F35952795211531059C
:101E4000A9F74617570708F02FCFC81760F581503C
:101E5000EFEFE80FF0E0EE0FFF1F9F0120553E4F20
:101E6000F90165917491409115025091160246173F
:101E70005707F8F44F5F5F4F5093160240931502D7
:101E8000F9014591549120911502309116024217A3
:101E9000530721F40E94E103C093B50110926F0132
:101EA00010926E0101CF8C1710F48F5FD1CF8C2F61
:101EB000CFCF6417750720F741505109DDCFC530EA
:101EC00099F48091B6018C3408F4EECE90E0801B3A
:101ED000910B8B349105DCF08739910510F086E980
:101EE00090E08093B501E0CEC630A1F49091B601A8
:101EF00080919401981708F0D7CE090F111D90E03A
:101F00008017910774F3C8010B34110554F78BE463
:101F100090E0E7CFC73069F49091B5018091B601A8
:101F2000891710F48F5FDDCF981708F0BDCE815070
:101F3000D8CFD11139C0C43CC9F481E0C11080E0D0
:101F400080938F010E943F030E94EF048091B601AD
:101F500090E00E94AD0280931C01809394010E9446
:101F6000E1038091B601809370019FCE70E060E044
:101F700087E599E0C73BA9F0CA3C69F48091B601B6
:101F80008093930180911E01809387010E943F03FB
:101F90000E94E1048ACECA3B39F470E060E08FE52C
:101FA00099E00E94620781CED1E07FCEAA2009F499
:101FB00061CE70E060E08BEE97E00E94780774CE0F
:101FC0002F932FB72F933F938F939F93AF93BF93ED
:101FD000EF93FF938091E0018823E9F0E091DF0126
:101FE00020B131B1F0E0EE0FFF1FDF01A552BE4F6F
:101FF0002D933C93E952FE4F808191818217930784
:1020000008F401962817390708F401979183808313
:1020100081E08093E10181E08093E001FF91EF9105
:10202000BF91AF919F918F913F912F912FBF2F9192
:1020300018958F9381E08093BA018F9118958F93B3
:1020400081E08093B9018F911895F89485B7877FC7
:1020500085BF90E088ED0FB6F894A8958FBD90B736
:10206000977F90BF0FBE81E088B998E09CB99FE749
:1020700090BB92EA9093720091E19093710091E885
:102080009BBB8ABB8FEF91E09093690080936800BF
:1020900080E882BB87BD8CB788608CBFA89580E440
:1020A00080BFF1D9789481E00E94F80170E060E08F
:1020B0008AE89BE00E946207109295010E94E10469
:1020C0009FB1892F8095881F8827881F8093B8012A
:1020D00097FF8DC082E00E94F801F89480E890E0BC
:1020E0008BD2853A09F0B8C006E911E0C1E8D0E02A
:1020F000CE0182D2F80181938F012196CF39D1058B
:10210000B9F778948091960180938F01809197011F
:102110008093160180919801809313018091990119
:102120008093100180919A018093170180919B0107
:102130008093140180919C018093110180919D01F5
:102140008093180180919E018093150180919F01D9
:10215000809312018091A001809391018091A1014F
:10216000809390018091A20180938E018091A301C0
:1021700080931B018091A401809393018091A5011C
:10218000809392018091A601809387018091A7019D
:1021900080931E018091A80180930A018091A9017A
:1021A00080931D018091AB0180930B018091AC0164
:1021B00080931F018091AD018093D2018091AE0187
:1021C000809320018091AF0180930F018091B00135
:1021D00080930E018091B10180930D018091B20135
:1021E00080930C018091B3018093880136C0C0E0D8
:1021F0008C2F0E94E10383E190E062DB8C2F8695B7
:102200000E94E10383E190E05BDB9FB1892F809521
:10221000881F8827881F8093B80197FD1AC0CF5F59
:10222000C03431F765E181E00E9421030E943F0341
:10223000C6E98C2F0E94E10384E090E041DBC150AD
:10224000C1F748CF8C2F0E94E1038DE090E038DB8E
:10225000C150C111F7CF3ECF789480919301811185
:1022600080931C0170E060E088E596E00E946207C0
:1022700061E070E08BEE97E00E94620743E4442E39
:1022800052E0552E60E4662E772473947BEE872E01
:1022900077E0972ECC24C394D12C0E94AD0180917D
:1022A000BD019091BE01009751F06091BB0170910A
:1022B000BC010E9478071092BE011092BD0180916E
:1022C000B701882339F180E00E94E103A89540BE60
:1022D0001F989FB1892F8095881F8827881F80931A
:1022E000B80197FFF6CF0E94EE018CB788608CBFD3
:1022F0001092E1011092BA011092B9018091B701D8
:1023000081112BC0509221018CB7877F8CBFBBD825
:10231000A89560BECCDA109295018091D001909181
:10232000D101F3E08B319F0709F037C0C0E7D0E05F
:10233000FE0184918053F8DA8CE291E0C1DA2196B3
:10234000F0E0CC37DF07A1F79092BE018092BD018B
:102350001092BC011092BB01A0CF86B78F79806428
:1023600086BF86B7806186BF889586B78F7E86BF19
:102370008091B90181111092B7018091E101882308
:1023800029F0709221017092D60187D88091BA010C
:10239000882309F4B3CFE6D9B1CF2CE08B3C920768
:1023A00009F070C080910901811177CF0E940C0261
:1023B0008F73082F10E00E940C0267E0C8D0E6017E
:1023C00002C0CC0FDD1F9A95E2F70E940C0265E077
:1023D000BED0F60102C0EE0FFF1F9A95E2F7CE0FB6
:1023E000DF1F0E940C0290E0BE01D1D0C80FD91FA0
:1023F000C739D10514F0C6E9D0E08C2F0E94E10363
:10240000C8015EDA7E0133E0F594E7943A95E1F78E
:10241000E11002C0EE24E394F12CC80151DA5E0110
:10242000AE18BF08E501B7FE02C0D0E0C0E08C2FB7
:102430000E94E1030E940C02837039F4C80140DA63
:10244000CE01959587950E94E103F2E0AF16B104A5
:1024500024F70E940C026DE07AD0860102C0000FC2
:10246000111F9A95E2F70E940C02E801219790E073
:10247000C823D923C00FD11F80E00E94E103CE0101
:102480001FDA0BCF27E0813B920751F48091D501F1
:1024900068DA80919101811157CF88EE93E0F0CFF7
:1024A00037E0813D930721F48091D3015ADAF5CFCB
:1024B00088589740B9F48091B8018111EECE80918F
:1024C0001C010E94E10384E690E0FAD980E00E94BA
:1024D000E10380910B0190E068EE73E00ED084562A
:1024E0009109CECF86B78F7986BF86B7806186BFC8
:1024F000889586B78F7E86BFD0CE0024552704C02E
:10250000080E591F880F991F009729F07695679537
:10251000B8F37105B9F7802D952F0895EE27FF27A1
:10252000AA27BB2708C0A20FB31FE41FF51F220F65
:10253000331F441F551F969587957795679598F398
:102540007040A9F7009799F7BD01CF010895991B35
:1025500079E004C0991F961708F0961B881F7A959A
:10256000C9F780950895AA1BBB1B51E107C0AA1F9C
:10257000BB1FA617B70710F0A61BB70B881F991F24
:102580005A95A9F780959095BC01CD01089597FBC8
:10259000072E16F4009406D077FD08D0E4DF07FC80
:1025A00005D03EF4909581959F4F08957095619563
:1025B0007F4F0895A1E21A2EAA1BBB1BFD010DC07F
:1025C000AA1FBB1FEE1FFF1FA217B307E407F507E3
:1025D00020F0A21BB30BE40BF50B661F771F881FBF
:1025E000991F1A9469F760957095809590959B0155
:1025F000AC01BD01CF010895E199FECF1FBA8EBB9A
:10260000E09A99278DB30895262FE199FECF1FBA3E
:102610008EBBE09A81500DB2021639F01CBA2DBB68
:102620000FB6F894E29AE19A0FBE0895F894FFCF9E
:102630000A121801010101000401010219291929D6
:102640000107058282820A0A0A820A014615802D44
:102650000702160113011001020100000000000032
:102660000001000000000000000001020100000065
:102670000000000001000000000000000001000058
:10268000210123022503270429052C06FF06050442
:02269000030045
:00000001FF
