:1000000060C07AC071CA78C077C076C075C074C04D
:100010002CCA72C071C070C061CA6EC06DC032306F
:1000200032313031303530363231000101020203D5
:10003000030404050506060707080809090A0B0B4F
:100040000C0D0D0E0F0F101112121314151516179B
:1000500018191A1B1C1D1E1F2021222324252627A8
:1000600028292B2C2D2E30313233353638393A3C75
:100070003D3F4042434546484A4B4D4F50525455F0
:1000800057595B5D5F61626466686A6C6F71737516
:1000900077797C7E80828587898C8E919396989BD8
:1000A0009DA0A3A5A8ABADB0B3B6B9BCBEC1C4C733
:1000B000CACDD1D4D7DADDE0E4E7EAEEF1F5F8FB1A
:1000C000FF0011241FBECFE5D2E0DEBFCDBF10E0A0
:1000D000A0E6B0E0ECEDF9E102C005900D92A43984
:1000E000B107D9F721E0A4E9B0E001C01D92AB311E
:1000F000B207E1F7FFD970CC83CF482F362F272FD7
:10010000E8EEF0E090E080E0508151110AC063E039
:1001100070E004DCFC01E851FF4F4083318322830F
:1001200005C0019633968031910571F70895EF92DD
:10013000FF921F93CF93DF931091E800111106C037
:10014000DF91CF911F91FF90EF900895E090E9002B
:10015000F090EA00C091C800C1500C2E000CDD0BDD
:10016000C7FD0EC0FE01EE0FFF1FE753FF4F0190CA
:10017000F081E02DB701812F099521978111F0CFF2
:10018000E8EEF0E08381808384819581928381838E
:10019000339681E0E531F807A9F710921501109226
:1001A000170110921601C8CFBC0180911A01A5CF8A
:1001B00010921A01109219011092180181E0809397
:1001C000AB00089590E822E048EA57E030E0815023
:1001D00008F408950FB6F89496BD26BD0FBEFA0137
:1001E0003197F1F70FB6F89496BD36BD0FBEEFCF3D
:1001F00086B383FB882780F991E089278093C1002B
:100200000895E0916700F09168003196FB70F4600A
:10021000F0936800E09367008091BE008B5A809352
:10022000BE00E4918091BE008E0F0895CF93DF93BE
:1002300000D000D000D0CDB7DEB72091780040913B
:10024000D9005091DA00435F564009F422E066235A
:10025000F1F0823019F497E9961B692F96E0EDE7EB
:10026000F0E0DE01119601900D929A95E1F7815030
:10027000990B880F991FA1E0B0E0AC0FBD1F8A0F4A
:100280009B1FDC01ED91FC91E20FF11D608326962E
:100290000FB6F894DEBF0FBECDBFDF91CF910895AA
:1002A000813019F41092AA0008956093A90008956E
:1002B000CF92DF92EF92FF920F931F93CF93DF9332
:1002C0009C0150917800E091A80082E0E11101C00A
:1002D000852F90E0DC01AD58BF4F4C9140937700E3
:1002E00080599F4FDC018C9180937600F0E0E359B8
:1002F000FF4FC181642F70E0552381F0C13071F44C
:10030000860F972F911D95958795DF91CF911F911E
:100310000F91FF90EF90DF90CF9008952617370749
:100320008CF1821713068CF3511102C0822FEDCF8E
:10033000841B6C2F6150770B8B01E82EF12CC701C9
:100340001EDB6093A7006695E62FF0E0842FD12C8A
:10035000C12CD0E0DC17C9F2C601B801FCDA842F49
:10036000860FA82FB0E0B9016A1B7B0B77FF03C093
:10037000BD01621B730BCE0CDF1CE617F7072CF6D2
:10038000DF5FE8CF842FC1CF81E0089561116093D2
:100390007B00089560936A0008950F931F93CF9395
:1003A000DF93809178008093AC00809173008093FC
:1003B000AD00809170008093AE00809174008093B6
:1003C000AF00809171008093B00080916E008093A7
:1003D000B1008091AA008093B2008091A90080931F
:1003E000B30080917A008093B40080916B00809379
:1003F000B6008091A8008093B7008091750080932B
:10040000B800809172008093B90080916F00809352
:10041000BA0080917B008093BB0080916C00809338
:10042000BC0080916A008093BD00F8940CEA10E053
:10043000C1E0D1E0F80161918F01CE01BBDA2196D4
:10044000C331F1E0DF07B1F765EA80E091E0B2DAAD
:100450007894DF91CF911F910F9108951092E7004A
:1004600084B125B14091BE008295869586958370B2
:1004700030E0220F331F220F331F820F932F911D65
:10048000840F8093BE008091DC008823D9F1109204
:10049000DC008091C000882319F037981092E500A5
:1004A00080917C006091DD007091DE00882341F036
:1004B0006091E1007091E2007093DE006093DD00D6
:1004C000605F7F4F86E0769567958A95E1F780E0DB
:1004D00098E541DA80917B00680F711D76956795EC
:1004E0006093DB008091A100882369F081508093A4
:1004F000A10080917C00882329F080917C008150AC
:1005000080937C0008956D31A0F770E060E084E096
:10051000F4DD8AE0ECCF882321F0813029F0BC9A09
:1005200004C0BC98C4980895BC98C49A0895E82F54
:100530008091DB008D3110F480E0EDCFEF70F0E0C2
:10054000ED57FF4F8081F9CFFF920F931F93CF9309
:10055000DF938C01D62FC72FF42E8091D900909174
:10056000DA00892B31F0E091D900F091DA0089E0CE
:1005700009951093DA000093D900012B41F0E09126
:10058000D900F091DA006D2F7C2F8F2D099581E035
:100590008093AB00DF91CF911F910F91FF90089551
:1005A000CF93DF93E091C800D0E0C0E0EE2351F09C
:1005B000E150E093C800F0E0EE0FFF1FE753FF4F5C
:1005C000C081D181E091C80090E080E0EE2341F04D
:1005D000E150FF0BEE0FFF1FE753FF4F808191812A
:1005E0004AE070E060E0B0DFCE01DF91CF91089586
:1005F0002091C800283080F4E22FF0E0EE0FFF1FBA
:10060000E753FF4F808391832F5F2093C80048E01A
:100610009BDF8091C80008958FEF08950F931F937B
:10062000CF93DF93D82FC92F8B01BADFB8018D2F5D
:100630009C2FDF91CF911F910F91DACF813C39F43C
:1006400070E060E082EC94E0E9DF80E00895823CB5
:1006500029F470E060E080E393E0F6CF81E0089554
:10066000CF93C091A800C11119C0813C41F470E042
:1006700060E082EC94E0D2DF8C2FCF910895823C31
:1006800029F470E060E08BE694E0F5CF873B31F42D
:1006900070E060E08BEF96E0ABDFEECFC1E0ECCF37
:1006A0008CE287B91092E5001092E60086B188646A
:1006B00086B90895CF93C82F8093BF008091C00062
:1006C00081110AC091E0C11101C090E081E0C23403
:1006D00008F480E0890F1FDFC11110C019BC18BCDD
:1006E0008091BF00853008F057C080E892E00FB6D7
:1006F000F89486BD96BD0FBECF910895C1502C2FA2
:1007000030E0F901E55DFF4FE49180917A008111BD
:100710002DC0C9016FEF70E001D966E970E01BD907
:10072000262FF0E0CF30A8F0CF016AE070E0F6D8D5
:10073000BC0186E0769567958A95E1F7822F880F50
:1007400027FD809590E0EAD86FEF70E004D9E60FBE
:10075000F71F822F90E0BF01E1D881589F4F6FEFC4
:1007600070E0F9D8E61BE9BD68BDBACF8F3F51F400
:10077000C9016FEF70E0D2D866E970E0ECD8262F9F
:100780002095CFCF90E064E670E0C8D863E670E0D3
:10079000F6D82FEF260FC5CF8E3018F480E891E001
:1007A000A6CF80E890E0A3CF883039F41092A20061
:1007B00010929B0080E07EDF0CC08130F9F49091B4
:1007C0009B00911108C06032710518F080939B0066
:1007D000EFDC80E00895913079F46B3B710520F0F7
:1007E00082E080939B00E6CF6115710591F3862F1F
:1007F000880F84708E5EDFCFD3DEEBCF813849F770
:1008000081E080939B008091A2008F5F8093A20083
:10081000CFDC8BE4D0CFCF93C091BF0089E18C0FA8
:10082000873908F080E046DF82E0CCDC8C2FCF9166
:1008300041CFCF93282FCB01C091A800C11117C081
:10084000283049F41092A6001092A4001092A30040
:100850008C2FCF910895213B61F48091A6008150A7
:10086000833028F483E08093A6008093A500C1E044
:10087000EFCF253BA1F46EE370E06DD8892B41F7F3
:100880008091A6008A3F20F78B5F8093A60080931B
:10089000A5001092A4001092A300BDDFD9CF213093
:1008A00031F78091A3009091A400019688382EE042
:1008B000920728F49093A4008093A300C9CF1092CC
:1008C000A4001092A3008091A600882309F2815011
:1008D0008093A600BDCF282FCB01213C39F470E0D6
:1008E00060E082EC94E09ADE80E00895223C29F4F6
:1008F00070E060E08EE193E0F6CF213B39F46EE3E7
:1009000070E029D8892B81F786DFEECF213E41F4B4
:100910006EE370E020D86F5F60936B003EDDE4CF44
:1009200081E00895CF93C091BF0080E0C3DE83E0F3
:1009300049DC8C2FCF91BECE843011F58091D90047
:100940009091DA0029E08D30920731F469E170E08E
:100950008FE995E063DE0DC08F59954061F4909169
:10096000BF00923040F0892F869596959695890F15
:10097000A1DE80E0089570E060E082EC94E0EACFD0
:1009800081E008950F931F93CF938B018830A1F4DA
:1009900080E090DE80916C008370BDDD1092A60037
:1009A000012B31F0C0E08C2FCF911F910F91089552
:1009B00081E08093C000F6CF813051F46931710538
:1009C00088F38093C00080916C008370A4DDEACF2F
:1009D000833001F570939F0060939E0080916C00BE
:1009E0008370833011F4862FA2DDC091A800C1115D
:1009F000D9CF80916A008823A9F290E062EC71E07F
:100A00008DD78017910770F670E060E083E097E083
:100A100005DEC9CF813B91F481E090E049DC4ADEFC
:100A200080917800811104C00831110508F4BACF13
:100A300061E070E08FE995E0F1DDB4CF813EC1F374
:100A40008138C9F42091AA00222391F08091A90055
:100A500090E062EC71E062D740919E0050919F005F
:100A60004817590728F0822F90E022DC23DE9ACF26
:100A700080917900F9CF6091BF0070E0813CD1F2A4
:100A8000823B49F4C091A80086E990E0C111EDCF06
:100A900086E910DE88CF823E11F480E0E7CF823C09
:100AA00019F466E970E0C6CF8339B9F3843C29F4C0
:100AB00070E060E080E393E0BFCF833C31F4ABDED5
:100AC00070E060E083E097E0B7CF8F3C29F470E0FE
:100AD00060E084EC91E0B0CFC091A8008A3B79F44B
:100AE000012B59F5CC2329F096DE1092A80055DC95
:100AF00059CF70E060E083EF96E07ADD54CFC1110A
:100B00001CC08A3C31F487DE81E08093A80045DC7C
:100B10004ACF833B29F470E060E08DE099E078CF24
:100B2000873C59F490916C0081E0890F83709C7F21
:100B3000982B90936C00EFDCEACFC1E034CFCF92DA
:100B4000DF92EF92FF920F931F93CF93DF93C82F03
:100B50008B01D0907700D0917600E0907800F090F3
:100B6000A700E11002C0FF24F394C090A600B801D2
:100B70008C2F5FDE6091A600662309F4E2C0C110ED
:100B800004C08091BF0080939D00C83029F0CA3016
:100B9000E9F40091790010E0D016110630F4D01776
:100BA000110619F010F000937900C80181DB82DD95
:100BB00081E08093660010E0812FDF91CF911F913B
:100BC0000F91FF90EF90DF90CF900895C13C09F412
:100BD000BBC0C23C99F48091A800811101C0D6E944
:100BE0008091BF008D1738F48D2F64DD8091BF0098
:100BF00080939D00E0CF80917900F7CFC33C39F41A
:100C000080E058DD70E060E083E097E0A1C08FE411
:100C10008C0F823008F041C0EE2031F0C80168E14D
:100C200070E099D6892B39F68091BF000115110526
:100C300011F5C23BD1F48FEF809366001091BF0095
:100C4000809166006F2D70E0082E000C990B66D61F
:100C5000810F911D2DDBC82F80937900181719F093
:100C60008D1301C05FDE8C2FC0CF8D1720F7D816F3
:100C700028F381E0E1CF073391E0190710F08D17D9
:100C8000D0F60D361240D0F2D816C0F2C4DD70E0B6
:100C900060E083E097E0C2DCD1CF8FE18C0F82303F
:100CA00020F480916600819584CFC130C1F40E3369
:100CB000110511F4C0936600662309F47CCF80917E
:100CC0009D006150770B90E029D66091A50070E0FF
:100CD00056D6862F611101C081E0ECDC6CCF1091FB
:100CE000A80011112CC0C43C99F481E0E11080E00F
:100CF0008093780052DB16DE8091BF0090E0D8DA56
:100D000080937900D7DC8091BF0080939D0054CF01
:100D100070E060E08DEE96E0C73B79F0CA3C39F4B4
:100D20008091BF008093AA0038DB75DD45CFCA3BB8
:100D300031F470E060E087EF96E05ADC3DCF11E0DF
:100D40003BCFCC2009F421CF70E060E082EC94E04E
:100D500065DC31CF582FCB01F901583089F410925E
:100D60009C0080E0A7DC8091C10081111CC081E063
:100D700080939C0070E060E084ED93E039DC13C068
:100D8000252F207F203BB1F420919C00421780F05A
:100D90006DE570E0E0D5029741F42F5F20939C0051
:100DA00088E3421718F480E0089582E183DCFBCFEA
:100DB00080E0FCCF203E41F480919C00882311F01C
:100DC0004817C0F6EDDBEFCF5A3069F76091A2000B
:100DD00080919C000995E1DAF5CF409178004E5F53
:100DE00026E131E0B7CF26E131E043E0B3CF20E5A3
:100DF00031E042E0AFCF26EC31E041E0ABCF2AEC6E
:100E000031E041E0A7CFCF93DF93D82FCB012D2F37
:100E10002079203941F520917300909174008D2F35
:100E20008F70823049F48091AA00811108C0822F0E
:100E3000291728F4892F03C0822F9217D8F33ADCA0
:100E4000D23C09F03EC0C091AA006C2F70E0C111E5
:100E50003EC06091790070E08FE995E0DFDB8C2F78
:100E6000DF91CF910895203811F480E0E8CFD83099
:100E700089F480916C00869586954DDBC091A80021
:100E8000C1114EC0DA3BC9F570E060E08FEF96E02B
:100E9000AFDBE5CFD13061F46931710538F0D09323
:100EA000C00080916C008695869535DBC0E0D7CF79
:100EB000D33031F620916C002C702C30B9F737DB31
:100EC000F5CFD23B41F410921A0161E070E08FE956
:100ED00095E0A4DBEBCF66E970E0D33CC1F3D33BF4
:100EE00069F6C091A800CC2329F086E990E0E0D90A
:100EF000E1DBDCCF86E9DEDBB2CFD73C89F4909131
:100F00006C00892F869586958F5F8370282F220F1E
:100F1000220F9370920F90936C00FDDA3EDA9FCF10
:100F2000C1E09DCFCF93833B09F043C0672B39F5D8
:100F300081E080939A0010929900909165008091D1
:100F40007A00191614F58E3F18F48F5F80937A009B
:100F5000C091990080917A00C034E9F491E49093B3
:100F6000990091E0892780937A00DCDC80917A00F7
:100F7000809398008091BF009DDB80E004C0809149
:100F80009A008111DACFCF910895992309F3823025
:100F9000F8F28150DBCF909198009813E7CFC11100
:100FA00005C0C0DCCF5FC0939900E0CFCF3FF1F226
:100FB000F9CF833E99F410929A0080916500819553
:100FC0008093650080917A00811104C081E0809354
:100FD000650002C08F3FD9F3E0D9CFCF81E0D3CFF6
:100FE0000F931F93CF931092C3008091180190919B
:100FF00019019C012F5F3F4F88279078822B932BFC
:101000009093190180931801C091C100F1D8C817BD
:10101000B1F01092C0008093C10090911A01882312
:10102000C9F1892F80699F709F3091F580931A01D3
:1010300090E080E0B9D81092190110921801009147
:101040001801109119018091C000882389F1B8011D
:1010500083E053D86CD80F731127012BA9F4109299
:10106000A0001EDB87EE86B98091A000811106C02A
:1010700086B1886486B981E08093DC008091A0000D
:101080008F5F8F718093A000CF911F910F91089572
:101090008F5FCCCF892F8F7E95FD08C080688093AD
:1010A0001A018091180190911901C4CF806CF7CF7B
:1010B000C0911A018C2F807F803B39F470E060E092
:1010C00081E01BD8C80170D8CFCFB80181E015D816
:1010D000C4FF0FC0C5FDF6CF0831110528F21092EC
:1010E000190110921801C062C0931A0190E080E0CB
:1010F000EACFCC2309F4B8CFC5FF02C059D8B4CF8A
:101100000231110508F4B0CFC064C0931A0190E019
:1011100080E04AD8F3CF8091E70081119FD9809178
:10112000C30081115DCF0895BF92CF92DF92EF92FD
:10113000FF920F931F93CF93DF93EC0110E888E0A9
:10114000E82E87E0F82E02E092ECC92EDD24D3943D
:10115000B12C209759F481E0DF91CF911F910F912D
:10116000FF90EF90DF90CF90BF9008958091AB00FB
:1011700081111DC09091BF00953090F40FB6F89486
:1011800016BD06BD0FBEC6010197F1F78B2D0FB638
:10119000F89416BD86BD0FBEBEDFC9D72197D9CF43
:1011A0000FB6F89416BD86BD0FBEC701EDCF80E027
:1011B000D3CF0F931F93CF93C82F06EA811102C09C
:1011C00008E0C1E010E089E175DAC801ADDF80E038
:1011D00071DA8AEF90E0A8DFC150A9F78AE992E0BE
:1011E000CF911F910F91A0CFCF93DF93D82FC3E062
:1011F000809179005FDA88EC90E096DFDD2319F0CA
:1012000080E991E091DF80E055DA88EC90E08CDFB6
:10121000C15071F7DF91CF910895DF92EF92FF9265
:101220000F931F93CF93DF93C82F8B01D091690049
:10123000D13071F4F090A600FCDAFF20A1F080918B
:10124000A600811110C070E060E082EC94E0E6D965
:10125000C83071F0C13C09F0EDC070E060E082EC94
:1012600094E0DCD908C0C83081F481E08093630049
:1012700081E080936400D0E08D2FDF91CF911F91AA
:101280000F91FF90EF90DF900895C23C59F41092B7
:10129000A6008D2F90E001968170992780936900B8
:1012A0007CD8E9CFC13BC1F480916200012B41F4AD
:1012B0009FEF8F3518F4823018F491E0909363001B
:1012C00090916300890F21F481E080936200D3CF75
:1012D0008036D8F38FE5F9CFC13E59F48091630091
:1012E0008195809363008091640081958093640070
:1012F000D7CFC23B61F481E08093630080916200AC
:10130000823008F4B5CF815080936200B1CFC130F4
:1013100009F0A4C00E33110511F4C0936300D090FE
:1013200097008D2D880FD7FC809590E06CE070E0E1
:10133000F5D2292FE09096008E2D880FE7FC80953E
:10134000D09161006D2F70E090E0E8D2290FF0900D
:1013500095008F2D880FF7FC8095C09160006C2F51
:1013600070E090E0DBD2622F690F80916200680F1D
:101370007727771F8091A600813091F48091A30098
:101380009091A40025E0969587952A95E1F724E7AA
:1013900030E0A901481B590BCA01C0D2B901DBD208
:1013A000862F88D900FD05C02CD781708D0D8093C4
:1013B0009700809194008E0D8093960022D765E26D
:1013C000BED29F0D909395001CD78F7329F419D727
:1013D0006DE0B5D290939400DD2331F012D78F7376
:1013E00019F4D150D09361000CD7811107C009D7EF
:1013F00062E1A5D29093610010929600C33030F064
:1014000000D78F7119F4C150C0936000FAD68F775E
:1014100029F4F7D66AE093D2909360000E33110559
:1014200019F481E0809364008091BE00080F00935E
:10143000BE0021CFC23C09F42CCFC13B09F41BCF25
:10144000C13E09F450CFC23B09F412CFC23E09F4A9
:1014500027CFD1E0C13009F00FCFE0CFC13C09F474
:10146000FCCEC23E09F008CF1BCF2F932FB72F938E
:101470003F938F939F93AF93BF93EF93FF9380918D
:10148000E6008823E9F0E091E50024B135B1F0E011
:10149000EE0FFF1FDF01AF51BF4F2D933C93E3527F
:1014A000FF4F808191818217930708F401962817D6
:1014B000390708F401979183808381E08093E700E6
:1014C00081E08093E600FF91EF91BF91AF919F91F2
:1014D0008F913F912F912FBF2F9118958F9381E07E
:1014E0008093C3008F9118958F9381E08093C20001
:1014F0008F911895F89484B7877F84BF0FB6F894BE
:10150000A89581B5886181BD11BC0FBEB89A81E0F4
:1015100083BF81EA8ABDB99A88E088BB85BB8BB757
:1015200080628BBFA89581B5886181BD80E481BD53
:10153000B7D887EE86B9789481E044D670E060E051
:101540008CE994E055D81092AB0065D951D6811141
:101550005BC0F89480E091E025D2853A09F079C02B
:101560000CEA10E0C1E0D1E0CE011CD2F801819379
:101570008F012196C331F1E0DF07B1F778948091B4
:10158000AC00809378008091AD00809373008091CF
:10159000AE00809370008091AF00809374008091C2
:1015A000B000809371008091B10080936E008091B3
:1015B000B2008093AA008091B3008093A90080912B
:1015C000B40080937A008091B60080936B00809184
:1015D000B7008093A8008091B80080937500809137
:1015E000B900809372008091BA0080936F0080915F
:1015F000BB0080937B008091BC0080936C00809145
:10160000BD0080936A0026C0C0E08C2F53D883E1D0
:1016100090E08ADD8C2F86954DD883E190E084DDC3
:10162000E7D5882399F0CF5FC03479F7B6D6C6E9FD
:101630008C2F40D884E090E077DDC150C9F789CF86
:101640008C2F38D88DE090E06FDDC150C111F8CFFC
:1016500080CF78948091AA0081118093790070E006
:1016600060E082E997E0C4D761E070E082EC94E04A
:10167000BFD742E0242E5CE2352E67EE462E55247D
:10168000539472EC872E74E0972ECC24C394D12C03
:10169000FAE26F2EF0E07F2E4AD58091C60090913D
:1016A000C700009749F06091C4007091C500B6D79B
:1016B0001092C7001092C6008091C000882371F17B
:1016C00080E0F8D7A89581B5886181BD23E421BD6C
:1016D00037988ED58111FDCF6BD58BB780628BBFCC
:1016E0001092E7001092C3001092C2008091C000D7
:1016F000811135C020927C008BB78F7D8BBF37B8AE
:101700001092E5001092E60086B1886486B946B86A
:10171000A89581B5886181BD80E481BDFCDC109213
:10172000AB008091D9009091DA0031E0843C9307BE
:10173000B1F5CEE1D0E0FE01849180533ADD8CE238
:1017400091E0F2DC21966C167D06A9F79092C70015
:101750008092C6001092C5001092C4009DCF85B73C
:10176000877E806185BF85B7806285BF889585B794
:101770008F7D85BF8091C20081111092C000809141
:10178000E700882329F050927C005092DC0066D656
:101790008091C300882309F4A9CF22DCA7CFF9E008
:1017A0008D309F0709F065C080916900811174CF69
:1017B00028D58F73082F10E024D567E0C0D0E6014C
:1017C00002C0CC0FDD1F9A95E2F71BD565E0B7D0BC
:1017D000960102C0220F331F9A95E2F7C20FD31F62
:1017E00010D590E0BE01CBD0C80FD91FC739D105A5
:1017F00014F0C6E9D0E08C2F5DD7C80195DC7E01DE
:1018000033E0F594E7943A95E1F7E11002C0EE2455
:10181000E394F12CC80188DC5E01AE18BF08E50135
:10182000B7FE02C0D0E0C0E08C2F44D7EAD483706A
:1018300031F4C80179DCCE01959587953BD732E02C
:10184000A316B1043CF7DDD46DE079D0860102C067
:10185000000F111F9A95E2F7D4D4E801219790E088
:10186000C823D923C00FD11F80E024D7CE015CDC70
:1018700013CFE3E080339E07E9F42091DB00822F51
:1018800064E65DD0382FC92F892F6AE058D0D92F50
:10189000243608F43FC0832F8CDC8C2F6AE04FD0B5
:1018A00088DC8D2F86DC8091A80081114FCF88EED7
:1018B00093E0DDCFF4E08B369F07A9F48091C1005F
:1018C0008111EACE80917900F5D684E690E02CDC97
:1018D00080E0F0D680916B0090E068EE73E01ED05F
:1018E00084569109C4CF8E51934049F480E07CDC4A
:1018F00081E07ADC80E078DC80ED97E0B8CF85B7D6
:10190000877E85BF85B7806285BF889585B78F7DC7
:1019100085BFC2CECA3008F0C0CFC3CF0024552740
:1019200004C0080E591F880F991F009729F076955B
:101930006795B8F37105B9F7802D952F0895991B18
:1019400079E004C0991F961708F0961B881F7A95B6
:10195000C9F780950895AA1BBB1B51E107C0AA1FB8
:10196000BB1FA617B70710F0A61BB70B881F991F40
:101970005A95A9F780959095BC01CD01089597FBE4
:10198000072E16F4009406D077FD08D0E4DF07FC9C
:1019900005D03EF4909581959F4F0895709561957F
:1019A0007F4F0895E199FECF9FBB8EBBE09A9927A8
:1019B0008DB30895262FE199FECF9FBB8EBBE09A91
:1019C00001970DB2021639F01CBA2DBB0FB6F89470
:0C19D000E29AE19A0FBE0895F894FFCF50
:1019DC000A1218010101010004010A020E0005059A
:1019EC00969696010A0A96010141800702730070CF
:1019FC00006D000001020100000000000001000069
:041A0C0000000000D6
:00000001FF
