:10000000ABC0C5C0A3CBC3C0C2C0C1C0C0C0BFC00D
:100010005ECBBDC0BCC0BBC093CBB9C0B8C0323092
:1000200032323031303630333133000000000000DE
:1000300000000000000000000000000000000000C0
:1000400000000000000000000000000000000000B0
:1000500000000000000000000000000000000000A0
:100060000000000000000000000000000001030488
:10007000050708090B0C0E0F1113141618191B1D78
:100080001F21232527292B2D30323437393B3E4081
:100090004346484B4E5154575A5D606366696D70D4
:1000A00073777A7E8185898D9094989CA0A5A9AD5F
:1000B000B1B6BABFC3C8CDD1D6DBE0E5EAEFF4FAFA
:1000C000FF010102020303040405060708090A0CE4
:1000D0000D0E0F11131416181A1D1F2224272A2D76
:1000E0003033373B3E42464B4F54595D63686E7325
:1000F000797F868C939AA1A8B0B8C0C8D1D9E2EC18
:10010000F5FFFFFFFFFFFFFFFFFFFFFFFFFFFFFF09
:10011000FFFFFFFFFFFFFFFFFFFFFFFFFFFFFFFFEF
:10012000FFFFFFFFFFFFFFFFFFFFFFFFFFFFFFFFDF
:10013000FFFFFFFFFFFFFFFFFFFFFFFFFFFFFFFFCF
:10014000FFFFFFFFFFFFFFFFFFFFFFFFFFFFFFFFBF
:10015000FFFFFFFFFFFFFF0011241FBECFE5D2E02E
:10016000DEBFCDBF10E0A0E6B0E0E4E1FCE102C0FC
:1001700005900D92A038B107D9F721E0A0E8B0E0D2
:1001800001C01D92A332B207E1F7E6DA41CD38CFC4
:10019000482F362F272FE0EFF0E090E080E05081ED
:1001A00051110AC063E070E0D5DCFC01E051FF4F63
:1001B00040833183228305C00196339680319105B7
:1001C00071F70895EF92FF921F93CF93DF931091F1
:1001D000F000111106C0DF91CF911F91FF90EF90B9
:1001E0000895E090F100F090F200C091CD00C15070
:1001F0000C2E000CDD0BC7FD0EC0FE01EE0FFF1F25
:10020000E253FF4F0190F081E02DB701812F099556
:1002100021978111F0CFE0EFF0E08381808384812A
:10022000958192838183339681E0ED31F807A9F7B8
:1002300010921D0110921F0110921E01C8CFBC0127
:1002400080912201A5CF10922201109221011092DB
:10025000200181E08093AB00089590E822E048EA15
:1002600057E030E0815008F408950FB6F89496BD39
:1002700026BD0FBEFA013197F1F70FB6F89496BD7F
:1002800036BD0FBEEFCF86B383FB882780F991E0A0
:1002900089278093C6000895E0916600F091670079
:1002A0003196FB70F460F0936700E09366008091F4
:1002B000C2008B5A8093C200E4918091C2008E0FDD
:1002C00008958093C4008093C30081110EC019BCAF
:1002D00018BC8091C4008630A8F480E892E00FB684
:1002E000F89486BD96BD0FBE0895815090E0FC0144
:1002F000EF53FF4FE491E9BD855D9F4FFC01849171
:1003000088BDE7CF8E3018F480E891E0E8CF80E830
:1003100090E0E5CFCF93DF9300D000D000D0CDB7F1
:10032000DEB72091A5004091DE005091DF00435DD3
:10033000574009F422E0843059F46093A6002696D1
:100340000FB6F894DEBF0FBECDBFDF91CF910895F9
:100350006623A9F3823019F497E9961B692F96E07A
:10036000EAE7F0E0DE01119601900D929A95E1F72F
:100370008150990B880F991FA1E0B0E0AC0FBD1F11
:100380008A0F9B1FDC01ED91FC91E20FF11D608350
:10039000D6CFCF92DF92EF92FF920F931F93CF931E
:1003A000DF939C015091A500E091A70082E0E1114C
:1003B00001C0852F90E0DC01A059BF4F4C914093C4
:1003C000740083599F4FDC018C9180937300F0E09F
:1003D000E659FF4FC181642F70E0552381F0C13091
:1003E00071F4860F972F911D95958795DF91CF9189
:1003F0001F910F91FF90EF90DF90CF9008952617F7
:1004000037078CF1821713068CF3511102C0822F2B
:10041000EDCF841B6C2F6150770B8B01E82EF12CF4
:10042000C701C9DB6093A3006695E62FF0E0842F37
:10043000D12CC12CD0E0DC17C9F2C601B801A7DB72
:10044000842F860FA82FB0E0B9016A1B7B0B77FFC2
:1004500003C0BD01621B730BCE0CDF1CE617F70750
:100460002CF6DF5FE8CF842FC1CF8093AA0029CF7D
:10047000CF93C091C40089E18C0F873908F080E0E8
:1004800020DF82E0EADE8C2FCF911BCF81E0089540
:100490006111609378000895662369F0813099F4C2
:1004A0008091E0009091E100891B680F6093E0006B
:1004B00082E08093790080917700873418F086E499
:1004C000809377000895635E60937700F4CF609324
:1004D0009E0008950F931F93CF93DF938091A50003
:1004E0008093AC00809170008093AD0080916D008E
:1004F0008093AE0080916A008093AF00809171007C
:100500008093B00080916E008093B10080916B0069
:100510008093B200809172008093B30080916F004D
:100520008093B40080916C008093B5008091A70007
:100530008093B6008091A6008093B7008091A400BC
:100540008093B800809175008093B9008091A900D4
:100550008093BA008091A8008093BB0080916900CD
:100560008093BD00809177008093BE008091E00071
:100570008093BF00809178008093C00080919E009E
:100580008093C100F8940CEA10E0C1E0D1E0F801DA
:1005900061918F01CE012ADB2196C731F1E0DF079F
:1005A000B1F765EA80E091E021DB7894DF91CF91AB
:1005B0001F910F910895813019F41092A9000895A8
:1005C000823019F46093A8000895833019F4609381
:1005D000A4000895843011F4609375000895CF93BA
:1005E000282FCB01C091A700C11117C0283049F4B2
:1005F0001092A2001092A00010929F008C2FCF9119
:100600000895213B61F48091A2008150833028F449
:1006100083E08093A2008093A100C1E0EFCF253B4F
:10062000A1F46EE370E0B3DA892B41F78091A20068
:100630008A3F20F78B5F8093A2008093A1001092E5
:10064000A00010929F0014DFD9CF213031F78091A4
:100650009F009091A000019688382EE0920728F420
:100660009093A00080939F00C9CF1092A000109299
:100670009F008091A200882309F281508093A200FC
:10068000BDCFFF920F931F93CF93DF938C01D62F93
:10069000C72FF42E8091DE009091DF00892B31F07E
:1006A000E091DE00F091DF0089E009951093DF0012
:1006B0000093DE00012B41F0E091DE00F091DF00BD
:1006C0006D2F7C2F8F2D099581E08093AB00DF91FA
:1006D000CF911F910F91FF900895CF93DF93E091F9
:1006E000CD00D0E0C0E0EE2351F0E150E093CD002A
:1006F000F0E0EE0FFF1FE253FF4FC081D181E09188
:10070000CD0090E080E0EE2341F0E150FF0BEE0FD2
:10071000FF1FE253FF4F808191814AE070E060E06B
:10072000B0DFCE01DF91CF910895883039F4109277
:100730009D001092840080E0C4DD0CC08130F9F48B
:1007400090918400911108C06032710518F0809377
:10075000840079DD80E00895913079F46B3B710578
:1007600020F082E080938400E6CF6115710591F35B
:10077000862F880F84708E5EDFCFAFDFEBCF81389E
:1007800011F0813E39F791E090938400813E41F46D
:1007900080919D00865F80939D0055DD8BE4CCCFDA
:1007A00080919D008F5FF7CF2091CD00283080F49D
:1007B000E22FF0E0EE0FFF1FE253FF4F80839183A3
:1007C0002F5F2093CD0048E05CDF8091CD0008953D
:1007D0008FEF08950F931F93CF93DF93D82FC92FD7
:1007E0008B017BDFB8018D2F9C2FDF91CF911F9163
:1007F0000F91DACF843011F58091DE009091DF0007
:100800002AE08F33920731F469E170E084EA95E0E1
:10081000E1DF0DC0845A954061F49091C40092309C
:1008200040F0892F869596959695890F1EDE80E07B
:10083000089570E060E084EE94E0EACF81E00895EE
:10084000282FCB01213C39F470E060E084EE94E085
:10085000C1DF80E00895223C29F470E060E087E485
:1008600094E0F6CF213B39F46EE370E090D9892B08
:1008700081F7FEDDEECF213E41F46EE370E087D9D3
:100880006F5F6093690026DEE4CF81E00895CF9327
:10089000C091A700C11119C0813C41F470E060E033
:1008A00084EE94E097DF8C2FCF910895823C29F459
:1008B00070E060E087E694E0F5CF873B31F470E0CC
:1008C00060E08BED97E070DFEECFC1E0ECCF813CD4
:1008D00039F470E060E084EE94E07CDF80E008951D
:1008E000823C29F470E060E080E294E0F6CF873B40
:1008F00031F470E060E08FED97E056DFEFCF81E0FC
:100900000895CF93DF93D82F2D2F2079203939F5F3
:1009100020917000909171008D2F8F70823049F47A
:100920008091A900811108C0822F291728F4892FEE
:1009300003C0822F9217D8F3C4DCD23CE9F4C091F3
:10094000A9006C2F70E0C1111DC06091760070E0AD
:1009500084EA95E03FDF8C2FDF91CF910895203816
:1009600011F480E0E9CFD13041F76931710510F021
:10097000D093C500C0E0EFCFD23B41F410922201EA
:1009800061E070E084EA95E025DFF4CF66E970E08D
:10099000D33CC1F3C091A700D33B51F4CC2329F041
:1009A00086E990E0F6DC8DDCE5CF86E98ADCD3CF02
:1009B000C11108C0DA3B31F470E060E083EE97E0EB
:1009C000F3DEC9CFC1E0C7CF0F931F93CF938B0145
:1009D000883081F480E075DC1092A200012B31F0A8
:1009E000C0E08C2FCF911F910F91089581E08093EB
:1009F000C500F6CF813021F46931710588F3F7CF56
:100A00008330F9F42091A900222359F08091A800A5
:100A100090E062EC71E09ED80817190710F020935F
:100A2000760080919E008823D9F290E062EC71E01C
:100A300091D880179107A0F670E060E081E894E01B
:100A400016C0813BB1F481E090E0A3DC3ADC8091F8
:100A5000A4008111C5CF8091A500811104C0083187
:100A6000110508F4BDCF61E070E084EA95E0B2DEE4
:100A7000B7CF813EC1F3813831F48091760090E0A8
:100A800088DC1FDCADCF813C21F46091C40070E0B4
:100A9000ECCF823B71F4809175009091A700911189
:100AA0008091A600811103C086E990E0E9CF86E934
:100AB000E8CF823E11F480E0E4CF66E970E0823C4A
:100AC000A1F28339C1F3843C29F470E060E087E44B
:100AD00094E0CDCF833C11F4CBDCAECF8D3B31F431
:100AE000F89488ED81BD7894A895FFCF8F3C29F4C8
:100AF00070E060E086E492E0BACFC091A7008A3B44
:100B000079F4012BF9F4CC2329F0B2DC1092A70080
:100B1000E1DC66CF70E060E083ED97E045DE61CF19
:100B2000C11110C08A3C31F4A3DC81E08093A7009E
:100B3000D1DC57CF833B31F470E060E08FE39AE083
:100B400049DE4FCFC1E04DCFAF92BF92CF92DF923F
:100B5000EF92FF920F931F93CF93DF93C82F8B01D8
:100B6000B0907400E0907300C090A500D090A300F6
:100B7000C11002C0DD24D39480917500D091A700EC
:100B8000D1118091A6008823D9F1813021F0809184
:100B900076008E15A8F1A6E9FA2EA090A200B80161
:100BA0008C2F1DDD6091A200662309F4ACC1A11059
:100BB00004C08091C40080938800C83029F0CA30F6
:100BC00009F50091760010E0B016110630F4E01639
:100BD000110619F010F000937600C801DADB45DC4D
:100BE00081E080936500D0E08D2FDF91CF911F9140
:100BF0000F91FF90EF90DF90CF90BF90AF9008954E
:100C0000FE2CCBCFC13C09F481C1C23C71F4809170
:100C1000C4008F1538F48F2D28DC8091C400809398
:100C20008800E1CF80917600F7CFC33C39F480E0B3
:100C300048DB70E060E081E894E06CC18FE48C0FE9
:100C4000823008F047C060916A0070E0C801CC2093
:100C500011F068E170E09BD7892B29F62091C40040
:100C600001151105D9F4C23B99F48FEF809365000B
:100C7000809165006D2D70E0082E000C990B6AD7ED
:100C80002091C400820F911D84DB80937600C4CF35
:100C90002E1558F7B21660F381E0E8CFE0916A00B4
:100CA000F0E0CF0166E371E055D78017910710F4AB
:100CB0002E15D8F6CF016CE672E04CD7801791075D
:100CC000B8F6B216A8F2D4DB70E060E081E894E0F8
:100CD00081DDCECF8FE18C0F823020F480916500D2
:100CE00081957FCFC13009F090C00932110511F410
:100CF000C0936500662389F0809188006150770B6E
:100D000090E028D76091A10070E055D7611101C033
:100D100061E06093C3006093AA008091C30090914A
:100D2000C400482F491B550B9A01609186007091B1
:100D300087006F5F7F4F7093870060938600452B1D
:100D400009F451CF40E052E037FF06C040E450E0E4
:100D5000933810F440E051E05695479537FF02C0B4
:100D60002F5F3F4F3595279521153105A9F7461778
:100D7000570708F038CF891788F58FEF890F7FEF75
:100D8000780F272F30E0A9014F535F4FFA0164918C
:100D9000791740F599B5911125C06F3F19F569BDD7
:100DA000255D3F4FF901949168B5691740F598B5F5
:100DB0009F5F98BD99B5FA01449194130AC098B504
:100DC000F9012491921305C0C091C3007ADAC0934F
:100DD000C300109287001092860005CF981778F60E
:100DE00081E0CCCF99B5961720F499B59F5F99BD56
:100DF000D7CF99B56917A0F699B59150F8CF68B5D6
:100E00009617C0F698B59150D4CFC53099F480911B
:100E1000C400823408F4E7CE90E0801B910B81344B
:100E20009105DCF08739910510F086E990E0809318
:100E3000C300D9CEC630A1F49091C4008091AA001D
:100E4000981708F0D0CE090F111D90E08017910778
:100E500074F3C8010134110554F781E490E0E7CF41
:100E6000C73069F49091C3008091C400891710F4D1
:100E70008F5FDDCF981708F0B6CE8150D8CFD11153
:100E800040C0C43CD1F481E0C11080E08093A50053
:100E900021DBC091C40080E014DA83E0DED98C2F1E
:100EA00010DA8091C40090E074DA80937600DDDA85
:100EB0008091C4008093880097CEC33B31F48F2D7E
:100EC000012B09F090CED1DA8FCEC33E19F4809178
:100ED0007600F9CF70E060E08FEC97E0C73B79F0E7
:100EE000CA3C39F48091C4008093A900F3DAC0DAD7
:100EF0007BCECA3B31F470E060E087ED97E054DCD4
:100F000073CED1E071CEAA2009F457CE70E060E034
:100F100084EE94E05FDC67CE582FCB01F9015830A6
:100F200089F41092850080E0CCD98091C6008111AF
:100F30001CC081E08093850070E060E085E993E06B
:100F400033DC13C0252F207F203BB1F42091850096
:100F5000421780F06DE570E01AD6029741F42F5FDA
:100F60002093850088E3421718F480E0089582E119
:100F7000A8D9FBCF80E0FCCF203E41F480918500D2
:100F8000882311F04817C0F6A8DBEFCF5A3069F775
:100F900060919D008091850009959CDAF5CF2AE843
:100FA00031E043E0B9CF2AE831E044E0B5CF2BEDA2
:100FB00032E044E0B1CF28E432E041E0ADCF2CE4B0
:100FC00032E042E0A9CF27E632E041E0A5CF8CE253
:100FD00087B91092ED001092EE0086B1886486B950
:100FE00008951092EF0084B125B14091C20082951E
:100FF00086958695837030E0220F331F220F331FB2
:10100000820F932F911D840F8093C2008091E40082
:10101000882309F448C01092E4008091ED0081110A
:101020004BC0809179006091E5007091E6008823C3
:1010300041F06091E9007091EA007093E6006093DE
:10104000E500605F7F4FF6E076956795FA95E1F7EA
:1010500080E098E59CD5809178008250990B680FCC
:10106000791F769567956093E30080919C008823B3
:10107000D9F0815080939C008091C50081110AC0F5
:101080008FEA87B981E08093ED001092EE0086B17F
:10109000886486B980917900882329F0809179004D
:1010A00081508093790008956D3130F770E060E0F1
:1010B00084E06ED885E0DECF813061F780917900E1
:1010C00081115CC02091E7003091E800205F3F4F24
:1010D000B90145E0769567954A95E1F7E091E00022
:1010E00056E0369527955A95E1F70E2E000CFF0B2A
:1010F000CF0183519140280F391F3093E200209394
:10110000E10080918B00A82FB0E0AA0FBB1FA4576D
:10111000BF4F2D913C911197AB01421B530B6D9327
:101120007C938F5F877080938B00CA01880F991F13
:10113000880F991F2091770030E02D5E3E4F2E1BC7
:101140003F0B220F331F821B930B860F971F23E049
:10115000181619060CF041C001972150C9F718164E
:1011600019060CF051C057FD6CC020918A00121670
:10117000CCF5281B20938A002ADF8CCF8091EB00CE
:101180009091EC009093E8008093E700409635E062
:10119000969587953A95E1F790938D0080938C0012
:1011A00090938F0080938E00909391008093900095
:1011B0009093930080939200909395008093940075
:1011C0009093970080939600909399008093980055
:1011D00090939B0080939A0075CF009709F4BDCF40
:1011E0000196BBCF880F991F61E070E085309105B3
:1011F00024F00397BC017595679588E1861B809361
:101200008A0085E0C5D7B8CF8C3F2FEF9207CCF48A
:1012100057FF17C020918A0027FF02C02450A9CF92
:1012200024EE281B20938A002091E3002F3108F43C
:10123000A3CF6CEF7FEF681B790B7595679586E000
:10124000E1CF8091E3008E3108F496CF70E060E04A
:1012500087E0D8CF0F931F93CF931092C80080914F
:101260002001909121019C012F5F3F4F88279078AA
:10127000822B932B9093210180932001C091C60073
:1012800002D8C817B1F01092C5008093C6009091A3
:1012900022018823F9F0892F80699F709F30C1F463
:1012A0008093220190E080E0CAD710922101109231
:1012B000200100912001109121018091C500882317
:1012C000B9F0B80183E064D7CF911F910F917AC72D
:1012D0008F5FE6CF892F8F7E95FD08C08068809351
:1012E00022018091200190912101DECF806CF7CF07
:1012F000C09122018C2F807F803BD1F470E060E0B0
:1013000081E046D7C8019BD780918900811106C032
:1013100086B1886486B981E08093E4008091890079
:101320008F5F8F7180938900CF911F910F910895E6
:10133000B80181E02DD7C4FF0FC0C5FDE3CF083150
:10134000110510F31092210110922001C062C09388
:10135000220190E080E0D7CFCC23B1F2C5FF02C0DC
:1013600072D7D2CF0231110578F2C064C093220146
:1013700090E080E064D7F4CF8091EF00811131DEFE
:101380008091C800811166CF0895BF92CF92DF92FD
:10139000EF92FF920F931F93CF93DF93EC0110E82E
:1013A00088E0E82E87E0F82E02E092ECC92EDD24DA
:1013B000D394B12C209759F481E0DF91CF911F9104
:1013C0000F91FF90EF90DF90CF90BF9008958091A4
:1013D000AB0081111DC09091C400963090F40FB6FF
:1013E000F89416BD06BD0FBEC6010197F1F78B2D0F
:1013F0000FB6F89416BD86BD0FBEBEDFE3D62197AB
:10140000D9CF0FB6F89416BD86BD0FBEC701EDCF7C
:1014100080E0D3CF0F931F93CF93C82F06EA81119B
:1014200002C008E0C1E010E089E14BD7C801ADDFA0
:1014300080E047D78AEF90E0A8DFC150A9F78AE99A
:1014400092E0CF911F910F91A0CFCF93DF93282FE0
:1014500064E691D3382FC92F892F6AE08CD3D92F16
:10146000243650F0832FD6DF8C2F6AE084D3D2DF6E
:101470008D2FDF91CF91CECFCA30B0F7F9CFDF9269
:10148000EF92FF920F931F93CF93DF93C82F8B019F
:10149000D0916800D13071F4F090A200A0D8FF2064
:1014A000A1F08091A200811110C070E060E084EE94
:1014B00094E090D9C83071F0C13C09F0EDC070E003
:1014C00060E084EE94E086D908C0C83081F481E001
:1014D0008093630081E080936400D0E08D2FDF91E2
:1014E000CF911F910F91FF90EF90DF900895C23C34
:1014F00059F41092A2008D2F90E0019681709927E7
:1015000080936800E7D7E9CFC13BC1F480916200C6
:10151000012B41F49FEF8E3618F4823018F491E0DD
:101520009093630090916300890F21F481E0809390
:101530006200D3CF8F36D8F38EE6F9CFC13E59F48F
:101540008091630081958093630080916400819510
:1015500080936400D7CFC23B61F481E08093630045
:1015600080916200823008F4B5CF81508093620090
:10157000B1CFC13009F0A4C00932110511F4C093F4
:101580006300D09083008D2D880FD7FC809590E06C
:1015900067E070E0DFD2292FE09082008E2D880F67
:1015A000E7FC8095D09161006D2F70E090E0D2D281
:1015B000290FF09081008F2D880FF7FC8095C09146
:1015C00060006C2F70E090E0C5D2622F690F8091AF
:1015D0006200680F7727771F8091A200813091F415
:1015E00080919F009091A00025E0969587952A957F
:1015F000E1F724E730E0A901481B590BCA01AAD240
:10160000B901C5D2862F5DD600FD05C045D68170D3
:101610008D0D80938300809180008E0D80938200D9
:101620003BD665E2A8D29F0D9093810035D68F738B
:1016300029F432D66DE09FD290938000DD2331F003
:101640002BD68F7319F4D150D093610025D6811118
:1016500007C022D66BE08FD2909361001092820077
:10166000C33030F019D68F7119F4C150C0936000A7
:1016700013D68F7729F410D666E07DD29093600060
:101680000932110519F481E0809364008091C20051
:10169000080F0093C20021CFC23C09F42CCFC13BFC
:1016A00009F41BCFC13E09F450CFC23B09F412CF5D
:1016B000C23E09F427CFD1E0C13009F00FCFE0CF0F
:1016C000C13C09F4FCCEC23E09F008CF1BCF2F93DA
:1016D0002FB72F933F938F939F93AF93BF93EF9326
:1016E000FF938091EE008823E9F0E091ED0024B1B2
:1016F00035B1F0E0EE0FFF1FDF01A751BF4F2D9373
:101700003C93EB51FF4F808191818217930708F43E
:1017100001962817390708F401979183808381E0A7
:101720008093EF0081E08093EE00FF91EF91BF91F5
:10173000AF919F918F913F912F912FBF2F9118952E
:101740008F9381E08093C8008F9118958F9381E0EB
:101750008093C7008F911895F89484B7877F84BFD2
:101760000FB6F894A89581B5886181BD11BC0FBEF4
:10177000B89A81E083BF81EA8ABDB99A88E088BBC4
:1017800085BB8BB780628BBFA89581B5886181BD11
:1017900080E481BD1CDC87EE86B9789481E05DD55C
:1017A00070E060E08AEF93E0FFD71092AB0060D664
:1017B0006AD581116BC0F89480E091E00FD2853A30
:1017C00009F08CC00CEA10E0C1E0D1E0CE0106D2F5
:1017D000F80181938F012196C731F1E0DF07B1F75E
:1017E00078948091AC008093A5008091AD008093A7
:1017F00070008091AE0080936D008091AF00809367
:101800006A008091B000809371008091B100809354
:101810006E008091B20080936B008091B300809342
:1018200072008091B40080936F008091B500809326
:101830006C008091B6008093A7008091B7008093E0
:10184000A6008091B8008093A4008091B900809395
:1018500075008091BA008093A9008091BB008093AD
:10186000A8008091BD00809369008091BE008093A4
:1018700077008091BF008093E0008091C00080934A
:1018800078008091C10080939E0029C0C0E08C2F19
:1018900018D583E190E079DD8C2F869512D583E110
:1018A00090E073DDF0D48823B1F0CF5FC03479F7D6
:1018B00065E181E0F1D50ED6C6E98C2F02D584E032
:1018C00090E063DDC150C9F776CF8C2FFAD48DE05C
:1018D00090E05BDDC150C111F8CF6DCF789480915D
:1018E000A90081118093760061E070E084EE94E0BD
:1018F0005BD742E0242E57EE352E60E4462E552469
:10190000539474EE872E74E0972ECC24C394D12C7C
:10191000FAE26F2EF0E07F2E55D48091CB009091AB
:10192000CC00009749F06091C9007091CA0052D76D
:101930001092CC001092CB008091C500882331F129
:1019400080E0BFD4A89581B5886181BD23E421BD25
:10195000379899D48111FDCF76D48BB780628BBF35
:101960001092EF001092C8001092C7008091C5003D
:1019700081112DC0209279008BB78F7D8BBF27DB23
:1019800036B8A89581B5886181BD41BCF5DC10925F
:10199000AB008091DE009091DF0032E08634930747
:1019A000B1F5CEE1D0E0FE018491805333DD8CE2CD
:1019B00091E0EBDC21966C167D06A9F79092CC00A5
:1019C0008092CB001092CA001092C900A5CF85B7B3
:1019D000877E806185BF85B7806285BF889585B722
:1019E0008F7D85BF8091C70081111092C5008091C5
:1019F000EF00882329F0509279005092E400F1DA48
:101A00008091C800882309F4B1CF24DCAFCFFAE07D
:101A10008F339F0709F065C08091680081117CCFEA
:101A20003BD48F73082F10E037D467E0A4D0E601D1
:101A300002C0CC0FDD1F9A95E2F72ED465E09BD053
:101A4000960102C0220F331F9A95E2F7C20FD31FEF
:101A500023D490E0BE01AFD0C80FD91FC739D1053C
:101A600014F0C6E9D0E08C2F2CD4C8018EDC7E01A6
:101A700033E0F594E7943A95E1F7E11002C0EE24E3
:101A8000E394F12CC80181DC5E01AE18BF08E501CA
:101A9000B7FE02C0D0E0C0E08C2F13D4FDD383701A
:101AA00031F4C80172DCCE01959587950AD432E0F5
:101AB000A316B1043CF7F0D36DE05DD0860102C0FF
:101AC000000F111F9A95E2F7E7D3E801219790E004
:101AD000C823D923C00FD11F80E0F3D3CE0155DC3A
:101AE0001BCFE4E087349E0751F48091E300ADDC26
:101AF0008091A700811162CF88EE93E0F0CFF4E0EF
:101B000087369F0721F48091E1009FDCF5CF80525A
:101B10009440A9F48091C6008111FECE8091760098
:101B2000D0D384E690E031DC80E0CBD380916900B3
:101B300090E068EE73E00ED084569109D0CF85B75F
:101B4000877E85BF85B7806285BF889585B78F7D85
:101B500085BFE2CE0024552704C0080E591F880F08
:101B6000991F009729F076956795B8F37105B9F735
:101B7000802D952F0895991B79E004C0991F961721
:101B800008F0961B881F7A95C9F780950895AA1BBF
:101B9000BB1B51E107C0AA1FBB1FA617B70710F058
:101BA000A61BB70B881F991F5A95A9F7809590958A
:101BB000BC01CD01089597FB072E16F4009406D0C2
:101BC00077FD08D0E4DF07FC05D03EF490958195C1
:101BD0009F4F0895709561957F4F0895E199FECFCD
:101BE0009FBB8EBBE09A99278DB30895262FE1996C
:101BF000FECF9FBB8EBBE09A01970DB2021639F063
:101C00001CBA2DBB0FB6F894E29AE19A0FBE089564
:041C1000F894FFCF76
:101C1400060B1801010100040102010705969678DC
:101C2400010A0A960101412D070270006D006A0045
:00000001FF
