:10000000ABC0C5C0C8CBC3C0C2C0C1C0C0C0BFC0E8
:1000100083CBBDC0BCC0BBC0B8CBB9C0B8C0323048
:1000200032323036313330363231000100010002D5
:10003000000200030003000400050005000600069E
:100040000007000800080009000A000A000B000C65
:10005000000C000D000E000F001000110011001226
:100060000013001400150016001700180019001ADC
:10007000001B001C001D001F002000210022002387
:100080000025002600270028002A002B002D002E26
:10009000002F003100320034003600370039003ABA
:1000A000003C003E003F0041004300450046004840
:1000B000004A004C004E00500052005400560058B8
:1000C000005A005C005F0061006300650068006A20
:1000D000006C006F0071007300760079007B007E79
:1000E0000080008300860088008B008E00910094C1
:1000F00000960099009C009F00A200A600A900ACF9
:1001000000AF00B200B500B900BC00BF00C300C61C
:1001100000CA00CD00D100D500D800DC00E000E32B
:1001200000E700EB00EF00F300F700FB00FF000822
:100130000112011C01260131013C01470153015FFD
:10014000016B01780185019301A101AF01BE01CDD1
:1001500001DD01ED01FE010011241FBECFE5D2E05B
:10016000DEBFCDBF10E0A0E6B0E0E4E2FDE102C0FA
:1001700005900D92A439B107D9F721E0A4E9B0E0C8
:1001800001C01D92A532B207E1F70BDBC9CD38CF14
:10019000482F362F272FE0EFF0E090E080E05081ED
:1001A00051110AC063E070E022DDFC01E051FF4F15
:1001B00040833183228305C00196339680319105B7
:1001C00071F70895BC0180912201E2CF10922201C3
:1001D000109221011092200181E08093AD000895DA
:1001E00090E822E048EA57E030E0815008F40895B2
:1001F0000FB6F89496BD26BD0FBEFA013197F1F700
:100200000FB6F89496BD36BD0FBEEFCF86B383FB15
:10021000882780F991E089278093C9000895E091AB
:100220006700F09168003196FB70F460F09368000D
:10023000E09367008091C6008B5A8093C600E491DA
:100240008091C6008E0F0895CF93DF9300D000D029
:1002500000D0CDB7DEB7209179004091E1005091F8
:10026000E2004451594009F422E0843059F460938B
:10027000A90026960FB6F894DEBF0FBECDBFDF9162
:10028000CF9108956623A9F3823019F497E9961B5C
:10029000692F96E0EEE7F0E0DE01119601900D92F5
:1002A0009A95E1F78150990B880F991FA1E0B0E072
:1002B000AC0FBD1F8A0F9B1FDC01ED91FC91E20F7B
:1002C000F11D6083D6CFCF92DF92EF92FF920F9312
:1002D0001F93CF93DF939C0150917900E091AA0086
:1002E00082E0E11101C0852F90E0DC01AD58BF4FE5
:1002F0004C914093770080599F4FDC018C91809303
:100300007600F0E0E359FF4FC181642F70E0552380
:1003100081F0C13071F4860F972F911D95958795C7
:10032000DF91CF911F910F91FF90EF90DF90CF90D1
:100330000895261737078CF1821713068CF3511195
:1003400002C0822FEDCF841B6C2F6150770B8B0185
:10035000E82EF12CC70195DC6093A7006695E62F87
:10036000F0E0842FD12CC12CD0E0DC17C9F2C601FB
:10037000B80173DC842F860FA82FB0E0B9016A1B87
:100380007B0B77FF03C0BD01621B730BCE0CDF1C20
:10039000E617F7072CF6DF5FE8CF842FC1CF81E0A7
:1003A0000895611160937C0008956093A200089500
:1003B0000F931F93CF93DF93809179008093AE00CA
:1003C000809173008093AF00809170008093B000A3
:1003D00080916D008093B100809174008093B20091
:1003E000809171008093B30080916E008093B4007F
:1003F000809175008093B500809172008093B60063
:1004000080916F008093B7008091AA008093B8001C
:100410008091A9008093B9008091A8008093BA00D0
:10042000809178008093BB008091AC008093BC00E9
:100430008091AB008093BD008091A1008093BE00AD
:1004400080917B008093BF0080916A008093C00000
:1004500080916B008093C20080917C008093C300E8
:1004600080916C008093C4008091A2008093C500AD
:10047000F8940EEA10E0C1E0D1E0F80161918F013B
:10048000CE013CDC2196C931F1E0DF07B1F765EA26
:1004900080E091E033DC7894DF91CF911F910F9150
:1004A00008951092EF0034B185B12091C6003295C5
:1004B00036953695337090E0880F991F880F991FF5
:1004C000830F911D820F8093C6008091E4008823E2
:1004D000D9F11092E4008091C800882319F0379870
:1004E0001092ED0080917D006091E5007091E60032
:1004F000882341F06091E9007091EA007093E60072
:100500006093E500605F7F4F86E0769567958A95FA
:10051000E1F780E098E5A1DB80917C00680F711D18
:10052000769567956093E30080919F00882369F03A
:10053000815080939F0080917D00882329F08091D5
:100540007D00815080937D0008956D31A0F770E0AB
:1005500060E084E01DDE8AE0ECCF882321F081306A
:1005600029F0BC9A04C0BC98C4980895BC98C49A59
:100570000895813019F41092AC000895823019F476
:100580006093AB000895833019F46093A800089538
:10059000843011F4609378000895813059F491E02B
:1005A000611101C090E090936A00611101C08FE772
:1005B00080937B000895E82F8091E3008D3110F443
:1005C00080E0CBCFEF70F0E0EC57FF4F8081F9CFA8
:1005D000FF920F931F93CF93DF938C01D62FC72FDA
:1005E000F42E8091E1009091E200892B31F0E091AE
:1005F000E100F091E20089E009951093E200009398
:10060000E100012B41F0E091E100F091E2006D2F5B
:100610007C2F8F2D099581E08093AD00DF91CF91E4
:100620001F910F91FF9008952091D000283080F401
:10063000E22FF0E0EE0FFF1FEF52FF4F8083918318
:100640002F5F2093D00048E0C3DF8091D000089551
:100650008FEF0895EF92FF921F93CF93DF93109146
:10066000F000111106C0DF91CF911F91FF90EF9024
:100670000895E090F100F090F200C091D000C150D8
:100680000C2E000CDD0BC7FD0EC0FE01EE0FFF1F90
:10069000EF52FF4F0190F081E02DB701812F0995B6
:1006A00021978111F0CFE0EFF0E083818083848196
:1006B000958192838183339681E0ED31F807A9F724
:1006C00010921D0110921F0110921E01C8CF80913F
:1006D000D000882319F081508093D000E091D000A1
:1006E00090E080E0EE2341F0E150FF0BEE0FFF1FA2
:1006F000EF52FF4F808191814AE070E060E068CF67
:100700000F931F93CF93DF93D82FC92F8B01DFDF78
:10071000B8018D2F9C2FDF91CF911F910F9184CF26
:10072000CF93C091AA00C11119C0813C41F470E07F
:1007300060E081EC96E0E4DF8C2FCF910895823C5D
:1007400029F470E060E08DE196E0F5CF873B31F46D
:1007500070E060E080E299E067DFEECFC1E0ECCFCF
:10076000813C39F470E060E081EC96E0C9DF80E024
:100770000895823C29F470E060E080E993E0F6CFD0
:1007800081E008958CE287B91092ED001092EE009E
:1007900086B1886486B908950F931F93CF93109202
:1007A000CB0080912001909121019C012F5F3F4F50
:1007B00088279078822B932B90932101809320019E
:1007C000C091C90023DDC817B1F01092C800809312
:1007D000C900909122018823C9F1892F80699F70F7
:1007E0009F3091F58093220190E080E0EBDC109245
:1007F000210110922001009120011091210180918E
:10080000C800882389F1B80183E0C2DC23DF0F73BD
:100810001127012BA9F410929E00B4DF87EE86B950
:1008200080919E00811106C086B1886486B981E0FE
:100830008093E40080919E008F5F8F7180939E0073
:10084000CF911F910F9108958F5FCCCF892F8F7E0D
:1008500095FD08C0806880932201809120019091CD
:100860002101C4CF806CF7CFC09122018C2F807FF3
:10087000803B39F470E060E081E08ADCC801A2DCF2
:10088000CFCFB80181E084DCC4FF0FC0C5FDF6CF37
:100890000831110528F21092210110922001C06246
:1008A000C093220190E080E0EACFCC2309F4B8CFD6
:1008B000C5FF02C08BDCB4CF0231110508F4B0CF04
:1008C000C064C093220190E080E07CDCF3CF809193
:1008D000EF008111E6DD8091CB0081115DCF08959D
:1008E000BF92CF92DF92EF92FF920F931F93CF931D
:1008F000DF93EC0110E888E0E82E87E0F82E02E0B4
:1009000092ECC92EDD24D394B12C209751F4DF91C1
:10091000CF911F910F91FF90EF90DF90CF90BF90FC
:1009200008958091AD008111F2CF9091C70095306C
:1009300090F40FB6F89416BD06BD0FBEC601019720
:10094000F1F78B2D0FB6F89416BD86BD0FBEBFDF35
:1009500081DE2197DACF0FB6F89416BD86BD0FBEA3
:10096000C701EDCF8F929F92AF92BF92CF92DF924D
:10097000EF92FF920F931F93CF93DF9300D000D09D
:100980000F92CDB7DEB789838093C7008091C800EE
:1009900081110CC091E08980811001C090E081E05C
:1009A0002981273408F480E0890FD7DD8980811000
:1009B000BCC0109224011092230119BC18BC0091F4
:1009C0002301109124012091C700215080917B00C8
:1009D0008111BAC0822F90E06FEF70E008D966E90C
:1009E00070E03BD96D836801F12CE12C2F3048F188
:1009F0002AE030E040E050E0C701B80109D99B018E
:100A0000AC0166E056954795379527956A95D1F7DD
:100A10008D81880F8D8087FC8095882E912CB12C3C
:100A2000A12C89829A82AB82BC82C501B401F0D824
:100A30002FEF30E040E050E037D9C20ED31EE41E65
:100A4000F51E0F3F1105E9F0E0F0C8016AE070E023
:100A5000CED8BC01665F794046E0769567954A95A9
:100A6000E1F78D81880F9D8097FC809590E0BFD83D
:100A70006FEF70E0F2D8660F771FC61AD70AE10849
:100A8000F1082FEFC21621E0D206E104F10430F0A4
:100A90002EEFC22EDD24D394E12CF12C9D81892FE1
:100AA00090E0B0E0A0E089839A83AB83BC83A70188
:100AB0009601BC01CD01ACD8DC01CB0181589F4F20
:100AC000AF4FBF4FBC01CD012FEF30E040E050E011
:100AD000EBD8C901B6012F3F310509F008F449C030
:100AE0009FEFC91AD1088FEF90E0C9BC88BD8091F3
:100AF000C700853008F04CC080E892E00FB6F8944B
:100B000086BD96BD0FBE0F900F900F900F900F9067
:100B1000DF91CF911F910F91FF90EF90DF90CF90D9
:100B2000BF90AF909F908F90089529812150E22F20
:100B3000F0E0EE0FFF1FE55DFF4F859194919093DC
:100B40002401809323013BCF8F3F51F4822F90E00B
:100B50006FEF70E04CD866E970E07FD8609542CFC7
:100B600090E064E670E043D863E670E08AD86150B4
:100B700039CFC21AD30AAFEFCA16D10409F008F46C
:100B8000B4CFCB018F5F9109CC24CA94D12CADCFC7
:100B90008E3018F480E891E0B1CF80E890E0AECFDD
:100BA000883039F41092A00010929B0080E0DADEC9
:100BB0000CC08130F9F490919B00911108C0603213
:100BC000710518F080939B0001DB80E0089591305F
:100BD00079F46B3B710520F082E080939B00E6CFB7
:100BE0006115710591F3862F880F84708E5EDFCFBB
:100BF0006EDDEBCF813811F0813E39F791E09093B3
:100C00009B00813E41F48091A000865F8093A0000C
:100C1000DDDA8BE4CCCF8091A0008F5FF7CFCF934C
:100C2000C091C70089E18C0F873908F080E09ADE17
:100C300082E0D6DA8C2FCF9195CE282FCB01213CA4
:100C400039F470E060E081EC96E05ADD80E00895D0
:100C5000223C29F470E060E080EB93E0F6CF213B8A
:100C600039F46EE370E0F9D7892B81F7D8DFEECF46
:100C7000213E41F46EE370E0F0D76F5F60936B004C
:100C800097DBE4CF81E00895282FCB013091AA00B3
:100C9000311146C0283039F41092A6001092A400F9
:100CA0001092A3000895213B59F48091A600815031
:100CB0008330B0F583E08093A6008093A50008956B
:100CC000253B99F46EE370E0C8D7892B49F58091F4
:100CD000A6008A3F28F58B5F8093A6008093A5002D
:100CE0001092A4001092A3009ACF2130C9F48091F1
:100CF000A3009091A400019688382EE0920728F472
:100D00009093A4008093A30008951092A4001092E1
:100D1000A3008091A600882319F081508093A6003B
:100D20000895CF93C091C70080E01CDE83E058DABD
:100D30008C2FCF9117CE843011F58091E1009091E6
:100D4000E2002AE08934920731F469E170E084EA34
:100D500097E0D6DC0DC0845A974061F49091C700AB
:100D6000923040F0892F869596959695890FFADDF9
:100D700080E0089570E060E081EC96E0EACF81E0E9
:100D800008950F931F93CF938B018830A1F480E0D7
:100D9000E9DD80916C008370E0DB1092A600012BEE
:100DA00031F0C0E08C2FCF911F910F91089581E019
:100DB0008093C800F6CF813051F46931710588F312
:100DC0008093C80080916C008370C7DBEACF8330CA
:100DD00051F52091AC00222379F08091AB0090E096
:100DE00062EC71E004D70817190730F020937A00FD
:100DF0008091A10080937B0080916C008370833090
:100E000011F4802FD8DB8091A200882351F290E06A
:100E100062EC71E0ECD68017910718F670E060E0A4
:100E200088E299E016C0813BB1F481E090E04BDAB2
:100E300099DD8091A8008111B4CF80917900811152
:100E400004C00831110508F4ACCF61E070E084EA19
:100E500097E056DCA6CF813EC1F3813831F4809112
:100E60007A0090E030DA7EDD9CCF813C21F4609105
:100E7000C70070E0ECCF823B71F4809178009091D4
:100E8000AA0091118091A900811103C086E990E028
:100E9000E9CF86E9E8CF823E11F480E0E4CF66E94D
:100EA00070E0823CA1F28339C1F3843C29F470E004
:100EB00060E080E993E0CDCF833C11F4B0DEAECFAB
:100EC0008F3C29F470E060E08FEC91E0C2CFC091DC
:100ED000AA008A3B79F4012BA9F5CC2329F09FDEE7
:100EE0001092AA0065DA5DCF70E060E084E199E0DD
:100EF0009BDB58CFC11126C08A3C31F490DE81E0E3
:100F00008093AA0055DA4ECF833B31F470E060E065
:100F100089E49AE0F5DB46CF873C59F490916C0068
:100F200081E0890F83709C7F982B90936C0015DB78
:100F3000E9CF893B39F4012B29F470E060E08CE1C2
:100F400099E0D6CFC1E02ECFAF92BF92CF92DF9281
:100F5000EF92FF920F931F93CF93DF93C82F8B01D4
:100F6000B0907700F0907600C0907900D090A70004
:100F7000C11002C0DD24D39480917800D091AA00E2
:100F8000D1118091A9008823D9F1813021F080917D
:100F90007A008F15A8F186E9E82EA090A600B80186
:100FA0008C2F72DE6091A600662309F4EDC0A110BB
:100FB00004C08091C70080939D00C83029F0CA30DA
:100FC00009F500917A0010E0B016110630F4F01621
:100FD000110619F010F000937A00C80174D9C2DC30
:100FE00081E080936600D0E08D2FDF91CF911F913B
:100FF0000F91FF90EF90DF90CF90BF90AF9008954A
:10100000EF2CCBCFC13C09F4C2C0C23C71F480913B
:10101000C7008E1538F48E2DA5DC8091C700809313
:101020009D00E1CF80917A00F7CFC33C39F480E096
:1010300099DC70E060E088E299E0ADC08FE48C0F4D
:10104000823008F050C060916D0070E0C801CC2083
:1010500011F068E170E001D6892B29F62091C700D4
:101060000115110521F5C23BE1F48FEF8093660075
:10107000D091C700809166006D2D70E0082E000CA5
:10108000990BB5D58D0F911D1ED9C82F80937A006D
:10109000D81729F0823811F08F1101C042DE8C2F51
:1010A000BBCF2F1510F7B21618F381E0DFCFE09118
:1010B0006D00F0E0CF0166E371E099D580179107EC
:1010C00010F42F1590F6CF016CE672E090D58017E2
:1010D000910770F6B21660F2A2DD70E060E088E27F
:1010E00099E00EDBC5CF8FE18C0F823020F4809128
:1010F0006600819576CFC130C1F40932110511F433
:10110000C0936600662309F46ECF80919D00615004
:10111000770B90E06CD56091A50070E0B2D5862F7A
:10112000611101C081E01EDC5ECFC43C71F481E03E
:10113000C11080E0809379003BD9F3DD8091C70036
:1011400090E0C1D880937A0067CFD1111BC070E0C6
:1011500060E080E199E0C73B99F0CA3C59F4809186
:10116000C7008093AC0080917B008093A10020D9C0
:1011700056DD3ACFCA3B31F470E060E088E199E097
:1011800053DA32CFD1E030CFAA2009F416CF70E085
:1011900060E081EC96E0B4DA26CF582FCB01F9015C
:1011A000583089F410929C0080E0DCDB8091C9000B
:1011B00081111CC081E080939C0070E060E080EDB4
:1011C00095E032DA13C0252F207F203BB1F4209127
:1011D0009C00421780F06DE570E03FD5029741F426
:1011E0002F5F20939C0088E3421718F480E0089555
:1011F00082E1B8DBFBCF80E0FCCF203E41F4809160
:101200009C00882311F04817C0F661DAEFCF5A30FE
:1012100069F76091A00080919C000995C9D8F5CF2D
:1012200024E231E043E0B9CF24E231E044E0B5CF3D
:1012300029EB32E044E0B1CF2DEC32E041E0ADCF1C
:1012400021ED31E041E0A9CF25ED31E041E0A5CF2E
:10125000CF93DF93D82FCB012D2F2079203941F563
:1012600090917300209174008D2F8F70823049F41B
:101270008091AC00811108C0822F291728F4892F92
:1012800003C0822F9217D8F36DDBD23C09F03EC029
:10129000C091AC006C2F70E0C1113EC060917A002B
:1012A00070E084EA97E02CDA8C2FDF91CF910895DB
:1012B000203811F480E0E8CFD83089F480916C00B8
:1012C000869586954AD9C091AA00C11150C0DA3BD3
:1012D000D9F570E060E084E299E0A6D9E5CFD1309D
:1012E00061F46931710538F0D093C80080916C00C9
:1012F0008695869532D9C0E0D7CFD33031F620918C
:101300006C002C702C30B9F756D9F5CFD23B41F494
:101310001092220161E070E084EA97E0F1D9EBCF0E
:1013200070E060E081EC96E0D33CC1F3D33B59F62A
:10133000C091AA00CC2329F086E990E0C4D712DB43
:10134000DACF86E90FDBB0CFD73C89F490916C00FF
:10135000892F869586958F5F8370282F220F220F05
:101360009370920F90936C00F8D822D89DCFC1E073
:101370009BCFCF93833B09F057C080916A008823AD
:1013800081F0672B09F06AC080917B008E3F19F0D5
:1013900081E080937B0080917B00809580937B002F
:1013A00024C0672B39F581E080939A001092990050
:1013B0009091650080917B00191614F58E3F18F40A
:1013C0008F5F80937B00C091990080917B00C03437
:1013D000E9F491E49093990091E0892780937B0050
:1013E000A0DC80917B00809398008091C700BADADE
:1013F00080E004C080919A008111DACFCF910895E6
:10140000992309F38230F8F28150DBCF9091980054
:101410009813E7CFC11105C084DCCF5FC09399005A
:10142000E0CFCF3FF1F2F9CF833EA1F410929A00C2
:101430008091650081958093650080917B0081118A
:1014400005C081E080936500B3D7CFCF8E3FE0F336
:101450008FEFF8CF843B11F48FE7A0CF81E0CECFA0
:10146000CF93DF93D82FC3E080917A007BDA88ECAA
:1014700090E036DADD2319F080E991E031DA80E09E
:1014800071DA88EC90E02CDAC15071F7DF91CF91DE
:101490000895DF92EF92FF920F931F93CF93DF9304
:1014A000C82F8B01D0916900D13071F4F090A60063
:1014B000EBDBFF20A1F08091A600811110C070E04D
:1014C00060E081EC96E01CD9C83071F0C13C09F0B5
:1014D000EDC070E060E081EC96E012D908C0C83041
:1014E00081F481E08093630081E080936400D0E028
:1014F0008D2FDF91CF911F910F91FF90EF90DF9093
:101500000895C23C59F41092A6008D2F90E00196E8
:1015100081709927809369004BD7E9CFC13BC1F413
:1015200080916200012B41F49FEF8F3518F48230D7
:1015300018F491E09093630090916300890F21F477
:1015400081E080936200D3CF8036D8F38FE5F9CF66
:10155000C13E59F48091630081958093630080912E
:101560006400819580936400D7CFC23B61F481E031
:101570008093630080916200823008F4B5CF81507F
:1015800080936200B1CFC13009F0A4C009321105C7
:1015900011F4C0936300D09097008D2D880FD7FC75
:1015A000809590E06CE070E022D3292FE0909600C7
:1015B0008E2D880FE7FC8095D09161006D2F70E033
:1015C00090E015D3290FF09095008F2D880FF7FC30
:1015D0008095C09160006C2F70E090E008D3622F7E
:1015E000690F80916200680F7727771F8091A600AE
:1015F000813091F48091A3009091A40025E096950C
:1016000087952A95E1F724E730E0A901481B590B9B
:10161000CA01EDD2B90121D3862FA4D900FD05C09E
:10162000FED581708D0D80939700809194008E0D72
:1016300080939600F4D565E204D39F0D90939500B6
:10164000EED58F7329F4EBD56DE0FBD29093940027
:10165000DD2331F0E4D58F7319F4D150D0936100BC
:10166000DED5811107C0DBD562E1EBD2909361003A
:1016700010929600C33030F0D2D58F7119F4C1505A
:10168000C0936000CCD58F7729F4C9D56AE0D9D250
:10169000909360000932110519F481E08093640091
:1016A0008091C600080F0093C60021CFC23C09F408
:1016B0002CCFC13B09F41BCFC13E09F450CFC23B34
:1016C00009F412CFC23E09F427CFD1E0C13009F0AE
:1016D0000FCFE0CFC13C09F4FCCEC23E09F008CFE9
:1016E0001BCF0F931F93CF93C82F06EA811102C01F
:1016F00008E0C1E010E089E135D9C801F1D880E007
:1017000031D98AEF90E0ECD8C150A9F78AE992E08C
:10171000CF911F910F91E4C82F932FB72F933F9331
:101720008F939F93AF93BF93EF93FF938091EE00BE
:101730008823E9F0E091ED0024B135B1F0E0EE0F3F
:10174000FF1FDF01A751BF4F2D933C93EB51FF4F7C
:10175000808191818217930708F401962817390731
:1017600008F401979183808381E08093EF0081E00A
:101770008093EE00FF91EF91BF91AF919F918F9178
:101780003F912F912FBF2F9118958F9381E08093D8
:10179000CB008F9118958F9381E08093CA008F9131
:1017A0001895F89484B7877F84BF0FB6F894A895EE
:1017B00081B5886181BD11BC0FBEB89A81E083BF3D
:1017C00081EA8ABDB99A88E088BB85BB8BB7806205
:1017D0008BBFA89581B5886181BD80E481BDD2D7DA
:1017E00087EE86B9789481E0FBD470E060E08BE905
:1017F00096E01AD71092AD0012DA08D5811173C0A5
:10180000F89480E091E072D2853A09F091C00EEA36
:1018100010E0C1E0D1E0CE0169D2F80181938F01DF
:101820002196C931F1E0DF07B1F778948091AE00DD
:10183000809379008091AF00809373008091B00015
:10184000809370008091B10080936D008091B20010
:10185000809374008091B300809371008091B400F4
:1018600080936E008091B500809375008091B600E2
:10187000809372008091B70080936F008091B800D0
:101880008093AA008091B9008093A9008091BA004A
:101890008093A8008091BB00809378008091BC0069
:1018A0008093AC008091BD008093AB008091BE001E
:1018B0008093A1008091BF0080937B008091C00045
:1018C00080936A008091C20080936B008091C30076
:1018D00080937C008091C40080936C008091C5004F
:1018E0008093A20026C0C0E08C2F3CD883E190E01A
:1018F000F7D78C2F869536D883E190E0F1D786D440
:10190000882399F0CF5FC03479F752D5C6E98C2F80
:1019100029D884E090E0E4D7C150C9F771CF8C2F6B
:1019200021D88DE090E0DCD7C150C111F8CF68CF4D
:1019300078948091AC00811180937A0070E060E02F
:1019400089EB99E071D661E070E081EC96E06CD6AD
:1019500040E4242E5524539451EC852E56E0952EC8
:10196000CC24C394D12C312C412C7AE2672E70E028
:10197000772E70D68091CE009091CF00009749F0DD
:101980006091CC007091CD00BBD61092CF00109228
:10199000CE008091C800882341F180E0E3D7A8956C
:1019A00081B5886181BD23E421BD37982FD4811191
:1019B000FDCF0CD48BB780628BBF1092EF001092DA
:1019C000CB001092CA008091C80081112FC082E024
:1019D00080937D008BB78F7D8BBFD4D6E7EEE6B9C1
:1019E000A89581B5886181BD21BC71D71092AD00E9
:1019F0008091E1009091E200F1E08F3C9F07B1F50A
:101A0000CEE1D0E0FE01849180536BDE8CE291E068
:101A100067D721966C167D06A9F79092CF00809229
:101A2000CE001092CD001092CC00A3CF85B7877E58
:101A3000806185BF85B7806285BF889585B78F7DBA
:101A400085BF8091CA0081111092C8008091EF007B
:101A5000882329F050927D005092E40022D5809195
:101A6000CB00882309F4AFCF97D6ADCFFAE0893405
:101A70009F0709F067C08091690081117ACFCFD3A9
:101A80008F73082F10E0CBD367E0DBD0760102C064
:101A9000EE0CFF1C9A95E2F7C2D365E0D2D0E601C6
:101AA00002C0CC0FDD1F9A95E2F7CE0DDF1DB7D334
:101AB00090E0BE01E6D0C80FD91FC739D10524F088
:101AC00026E9C22F80E0D82F8C2F4CD7C80108D729
:101AD0007E0133E0F594E7943A95E1F7E11002C016
:101AE000EE24E394F12CC801FBD65E01AE18BF08CA
:101AF000E501B7FE02C0C32DD42D8C2F33D78FD371
:101B0000837031F4C801ECD6CE01959587952AD71C
:101B100022E0A216B1043CF782D36DE092D0860198
:101B200002C0000F111F9A95E2F779D3E8012197BF
:101B300090E0C823D923C00FD11F80E013D7CE0176
:101B4000CFD617CFE3E080399E07E9F42091E30078
:101B5000822F64E676D0382FC92F892F6AE071D0A2
:101B6000D92F243608F43FC0832FBBDD8C2F6AE0C9
:101B700068D0B7DD8D2FB5DD8091AA0081114DCFE2
:101B800088EE93E0DDCFF6E08D319F07A9F48091D8
:101B9000C9008111EECE80917A00E4D684E690E00F
:101BA0009FD680E0DFD680916B0090E068EE73E016
:101BB0001ED084569109C4CF805B934049F480E0E5
:101BC0004FDC81E04DDC80E04BDC80ED97E0B8CF6E
:101BD00085B7877E85BF85B7806285BF889585B7C5
:101BE0008F7D85BFC6CECA3008F0C0CFC3CF0024DA
:101BF000552704C0080E591F880F991F009729F018
:101C000076956795B8F37105B9F7802D952F0895EE
:101C1000EE27FF27AA27BB2708C0A20FB31FE41F88
:101C2000F51F220F331F441F551F969587957795F3
:101C3000679598F37040A9F7009799F7BD01CF0118
:101C40000895991B79E004C0991F961708F0961B18
:101C5000881F7A95C9F780950895AA1BBB1B51E18F
:101C600007C0AA1FBB1FA617B70710F0A61BB70B0C
:101C7000881F991F5A95A9F780959095BC01CD01B1
:101C8000089597FB072E16F4009406D077FD08D030
:101C9000E4DF07FC05D03EF4909581959F4F0895B1
:101CA000709561957F4F0895A1E21A2EAA1BBB1B68
:101CB000FD010DC0AA1FBB1FEE1FFF1FA217B30718
:101CC000E407F50720F0A21BB30BE40BF50B661F2E
:101CD000771F881F991F1A9469F7609570958095F2
:101CE00090959B01AC01BD01CF010895E199FECF14
:101CF0009FBB8EBBE09A99278DB30895262FE1995B
:101D0000FECF9FBB8EBBE09A01970DB2021639F051
:101D10001CBA2DBB0FB6F894E29AE19A0FBE089553
:041D2000F894FFCF65
:101D24000A12180101010100040101020E01050556
:101D3400828282010A0A820101014680070273003D
:101D440070006D00000102010000000000000100AD
:041D5400000000008B
:00000001FF
