:10000000ABC0C5C09FCBC3C0C2C0C1C0C0C0BFC011
:100010005ACBBDC0BCC0BBC08FCBB9C0B8C032309A
:1000200032313130313230343431000000000000E0
:1000300000000000000000000000000000000000C0
:1000400000000000000000000000000000000000B0
:1000500000000000000000000000000000000000A0
:100060000000000000000000000000000000000090
:100070000000000000000000000000000000000080
:100080000000000000000000020507090C0E10131C
:1000900016181B1E2124272A2D3034373A3E42459C
:1000A000494D51555A5E62676B70757A7F84898FAE
:1000B000949AA0A6ACB2B8BFC5CCD3DAE1E8F0F709
:1000C000FF010102020303040405050606070808F0
:1000D000090A0A0B0C0D0E0F0F101112141516172A
:1000E000181A1B1C1E1F2122242627292B2D2F31D5
:1000F0003335383A3C3F4144474A4D505356595D99
:100100006064676B6F73777C8084898E93989DA3FE
:10011000A8AEB4BAC0C6CCD3DAE1E8F0F7FFFFFF6F
:10012000FFFFFFFFFFFFFFFFFFFFFFFFFFFFFFFFDF
:10013000FFFFFFFFFFFFFFFFFFFFFFFFFFFFFFFFCF
:10014000FFFFFFFFFFFFFFFFFFFFFFFFFFFFFFFFBF
:10015000FFFFFFFFFFFF000011241FBECFE5D2E02D
:10016000DEBFCDBF10E0A0E6B0E0ECE0FCE102C0F5
:1001700005900D92A038B107D9F721E0A0E8B0E0D2
:1001800001C01D92A332B207E1F7E2DA3DCD38CFCC
:10019000482F362F272FE0EFF0E090E080E05081ED
:1001A00051110AC063E070E0D1DCFC01E051FF4F67
:1001B00040833183228305C00196339680319105B7
:1001C00071F70895EF92FF921F93CF93DF931091F1
:1001D000F000111106C0DF91CF911F91FF90EF90B9
:1001E0000895E090F100F090F200C091CD00C15070
:1001F0000C2E000CDD0BC7FD0EC0FE01EE0FFF1F25
:10020000E253FF4F0190F081E02DB701812F099556
:1002100021978111F0CFE0EFF0E08381808384812A
:10022000958192838183339681E0ED31F807A9F7B8
:1002300010921D0110921F0110921E01C8CFBC0127
:1002400080912201A5CF10922201109221011092DB
:10025000200181E08093AB00089590E822E048EA15
:1002600057E030E0815008F408950FB6F89496BD39
:1002700026BD0FBEFA013197F1F70FB6F89496BD7F
:1002800036BD0FBEEFCF86B383FB882780F991E0A0
:1002900089278093C6000895E0916600F091670079
:1002A0003196FB70F460F0936700E09366008091F4
:1002B000C2008B5A8093C200E4918091C2008E0FDD
:1002C00008958093C4008093C30081110EC019BCAF
:1002D00018BC8091C4008730A8F480E892E00FB683
:1002E000F89486BD96BD0FBE0895815090E0FC0144
:1002F000EF53FF4FE491E9BD855D9F4FFC01849171
:1003000088BDE7CF8E3018F480E891E0E8CF80E830
:1003100090E0E5CFCF93DF9300D000D000D0CDB7F1
:10032000DEB72091A5004091DE005091DF00415DD5
:10033000574009F422E0843059F46093A6002696D1
:100340000FB6F894DEBF0FBECDBFDF91CF910895F9
:100350006623A9F3823019F497E9961B692F96E07A
:10036000EAE7F0E0DE01119601900D929A95E1F72F
:100370008150990B880F991FA1E0B0E0AC0FBD1F11
:100380008A0F9B1FDC01ED91FC91E20FF11D608350
:10039000D6CFCF92DF92EF92FF920F931F93CF931E
:1003A000DF939C015091A500E091A70082E0E1114C
:1003B00001C0852F90E0DC01A059BF4F4C914093C4
:1003C000740083599F4FDC018C9180937300F0E09F
:1003D000E659FF4FC181642F70E0552381F0C13091
:1003E00071F4860F972F911D95958795DF91CF9189
:1003F0001F910F91FF90EF90DF90CF9008952617F7
:1004000037078CF1821713068CF3511102C0822F2B
:10041000EDCF841B6C2F6150770B8B01E82EF12CF4
:10042000C701C5DB6093A3006695E62FF0E0842F3B
:10043000D12CC12CD0E0DC17C9F2C601B801A3DB76
:10044000842F860FA82FB0E0B9016A1B7B0B77FFC2
:1004500003C0BD01621B730BCE0CDF1CE617F70750
:100460002CF6DF5FE8CF842FC1CF8093AA0029CF7D
:10047000CF93C091C40089E18C0F873908F080E0E8
:1004800020DF82E0EADE8C2FCF911BCFCF93C0918B
:10049000C40080E016DF83E0E0DE8C2FCF9111CF27
:1004A00081E008956111609378000895662369F0F2
:1004B000813099F48091E0009091E100891B680FF0
:1004C0006093E00082E08093790080917700873428
:1004D00018F086E4809377000895635E6093770058
:1004E000F4CF60939E0008950F931F93CF93DF93F3
:1004F0008091A5008093AC00809170008093AD0046
:1005000080916D008093AE0080916A008093AF006F
:10051000809171008093B00080916E008093B10053
:1005200080916B008093B200809172008093B30041
:1005300080916F008093B40080916C008093B5002F
:100540008091A7008093B6008091A6008093B700A9
:100550008091A4008093B800809175008093B900C9
:100560008091A9008093BA008091A8008093BB007D
:10057000809169008093BD00809177008093BE00D8
:100580008091E0008093BF00809178008093C0004C
:1005900080919E008093C100F8940CEA10E0C1E0C5
:1005A000D1E0F80161918F01CE011CDB2196C731AA
:1005B000F1E0DF07B1F765EA80E091E013DB7894C2
:1005C000DF91CF911F910F910895813019F410920E
:1005D000A9000895823019F46093A800089583302B
:1005E00019F46093A4000895843011F460937500A9
:1005F0000895CF93282FCB01C091A700C11117C038
:10060000283049F41092A2001092A00010929F008E
:100610008C2FCF910895213B61F48091A2008150ED
:10062000833028F483E08093A2008093A100C1E08E
:10063000EFCF253BA1F46EE370E0A5DA892B41F7FB
:100640008091A2008A3F20F78B5F8093A200809365
:10065000A1001092A00010929F000ADFD9CF213094
:1006600031F780919F009091A000019688382EE08C
:10067000920728F49093A00080939F00C9CF109216
:10068000A00010929F008091A200882309F281505F
:100690008093A200BDCFFF920F931F93CF93DF9360
:1006A0008C01D62FC72FF42E8091DE009091DF00B1
:1006B000892B31F0E091DE00F091DF0089E00995AF
:1006C0001093DF000093DE00012B41F0E091DE008B
:1006D000F091DF006D2F7C2F8F2D099581E08093A5
:1006E000AB00DF91CF911F910F91FF900895CF93B1
:1006F000DF93E091CD00D0E0C0E0EE2351F0E15077
:10070000E093CD00F0E0EE0FFF1FE253FF4FC081FA
:10071000D181E091CD0090E080E0EE2341F0E15006
:10072000FF0BEE0FFF1FE253FF4F808191814AE0E4
:1007300070E060E0B0DFCE01DF91CF9108958830A6
:1007400039F410929D001092840080E0BADD0CC054
:100750008130F9F490918400911108C060327105E4
:1007600018F0809384006FDD80E00895913079F473
:100770006B3B710520F082E080938400E6CF611529
:10078000710591F3862F880F84708E5EDFCFAFDF07
:10079000EBCF813811F0813E39F791E090938400DE
:1007A000813E41F480919D00865F80939D004BDDEA
:1007B0008BE4CCCF80919D008F5FF7CF2091CD004F
:1007C000283080F4E22FF0E0EE0FFF1FE253FF4FDE
:1007D000808391832F5F2093CD0048E05CDF809180
:1007E000CD0008958FEF08950F931F93CF93DF935C
:1007F000D82FC92F8B017BDFB8018D2F9C2FDF9164
:10080000CF911F910F91DACF843011F58091DE00E6
:100810009091DF002AE08B33920731F469E170E0B8
:1008200086EA95E0E1DF0DC0865A954061F490912B
:10083000C400923040F0892F869596959695890F41
:1008400014DE80E0089570E060E08EEE94E0EACF80
:1008500081E00895282FCB01213C39F470E060E05D
:100860008EEE94E0C1DF80E00895223C29F470E030
:1008700060E081E594E0F6CF213B39F46EE370E06F
:1008800082D9892B81F7F4DDEECF213E41F46EE36E
:1008900070E079D96F5F6093690026DEE4CF81E074
:1008A0000895CF93C091A700C11119C0813C41F4B4
:1008B00070E060E08EEE94E097DF8C2FCF9108958A
:1008C000823C29F470E060E081E794E0F5CF873B5B
:1008D00031F470E060E089ED97E070DFEECFC1E0C9
:1008E000ECCF813C39F470E060E08EEE94E07CDF88
:1008F00080E00895823C29F470E060E08AE294E0B0
:10090000F6CF873B31F470E060E08DED97E056DF85
:10091000EFCF81E00895CF93DF93D82F2D2F20794B
:10092000203939F520917000909171008D2F8F70D2
:10093000823049F48091A900811108C0822F2917C3
:1009400028F4892F03C0822F9217D8F3BADCD23C47
:10095000E9F4C091A9006C2F70E0C1111DC0609135
:10096000760070E086EA95E03FDF8C2FDF91CF9133
:100970000895203811F480E0E9CFD13041F7693192
:10098000710510F0D093C500C0E0EFCFD23B41F429
:100990001092220161E070E086EA95E025DFF4CF55
:1009A00066E970E0D33CC1F3C091A700D33B51F49A
:1009B000CC2329F086E990E0ECDC83DCE5CF86E906
:1009C00080DCD3CFC11108C0DA3B31F470E060E0C5
:1009D00081EE97E0F3DEC9CFC1E0C7CF0F931F933D
:1009E000CF938B01883081F480E06BDC1092A20001
:1009F000012B31F0C0E08C2FCF911F910F91089502
:100A000081E08093C500F6CF813021F46931710512
:100A100088F3F7CF8330F9F42091A900222359F00D
:100A20008091A80090E062EC71E090D80817190757
:100A300010F02093760080919E008823D9F290E0F8
:100A400062EC71E083D880179107A0F670E060E057
:100A50008BE894E016C0813BB1F481E090E099DC32
:100A600030DC8091A4008111C5CF8091A500811157
:100A700004C00831110508F4BDCF61E070E086EADA
:100A800095E0B2DEB7CF813EC1F3813831F4809179
:100A9000760090E07EDC15DCADCF813C21F46091E6
:100AA000C40070E0ECCF823B71F4809175009091AE
:100AB000A70091118091A600811103C086E990E002
:100AC000E9CF86E9E8CF823E11F480E0E4CF66E921
:100AD00070E0823CA1F28339C1F3843C29F470E0D8
:100AE00060E081E594E0CDCF833C11F4C1DCAECF72
:100AF0008F3C29F470E060E080E592E0C2CFC091C5
:100B0000A7008A3B79F4012BF9F4CC2329F0B0DC5F
:100B10001092A700E9DC6ECF70E060E081ED97E015
:100B20004DDE69CFC11110C08A3C31F4A1DC81E0F7
:100B30008093A700D9DC5FCF833B31F470E060E0A5
:100B40008BE39AE051DE57CFC1E055CFAF92BF9211
:100B5000CF92DF92EF92FF920F931F93CF93DF9389
:100B6000C82F8B01B0907400F0907300C090A50066
:100B7000D090A300C11002C0DD24D39480917500F1
:100B8000D091A700D1118091A6008823D9F181309E
:100B900021F0809176008F15A8F1A6E9EA2EA090A9
:100BA000A200B8018C2F25DD6091A200662309F414
:100BB000A8C1A11004C08091C40080938800C830EF
:100BC00029F0CA3009F50091760010E0B016110640
:100BD00030F4F016110619F010F000937600C801F9
:100BE000D8DB43DC81E080936500D0E08D2FDF917E
:100BF000CF911F910F91FF90EF90DF90CF90BF901A
:100C0000AF900895EF2CCBCFC13C09F47DC1C23C1D
:100C100071F48091C4008E1538F48E2D26DC8091FD
:100C2000C40080938800E1CF80917600F7CFC33C69
:100C300039F480E046DB70E060E08BE894E068C166
:100C40008FE48C0F823008F04EC060916A0070E033
:100C5000C801CC2011F068E170E095D7892B29F606
:100C60002091C4000115110511F5C23BD1F48FEF9D
:100C700080936500D091C400809165006D2D70E077
:100C8000082E000C990B62D78D0F911D82DBC82FA7
:100C900080937600D81719F08F1101C0F7DB8C2FE5
:100CA000BDCF2F1520F7B21628F381E0E1CFE091F8
:100CB0006A00F0E0CF0166E371E048D78017910742
:100CC00010F42F15A0F6CF016CE672E03FD7801725
:100CD000910780F6B21670F2CBDB70E060E08BE833
:100CE00094E082DDC7CF8FE18C0F823020F48091B9
:100CF0006500819578CFC13009F08CC009321105AB
:100D000011F4C0936500662389F0809188006150DA
:100D1000770B90E01BD76091A10070E048D761117C
:100D200001C061E06093C3006093AA008091C3009A
:100D30009091C400482F491B550B9A016091860081
:100D4000709187006F5F7F4F70938700609386007C
:100D5000452B09F44ACF40E052E037FF06C040E49B
:100D600050E0933810F440E051E05695479537FF36
:100D700002C02F5F3F4F3595279521153105A9F703
:100D80004617570708F031CF891768F58FEF890F9D
:100D90007FEF780F272F30E0A9014F535F4FFA0103
:100DA0006491791720F599B5911121C06F3FF9F43D
:100DB00069BD255D3F4FF901949168B5691720F52C
:100DC00098B59F5F98BD99B5FA014491941306C0F8
:100DD00098B5F9012491921301C073DA109287003B
:100DE0001092860002CF981798F681E0D0CF99B57F
:100DF000961720F499B59F5F99BDDBCF99B5691718
:100E0000C0F699B59150F8CF68B59617E0F698B549
:100E10009150D8CFC53099F48091C400823408F441
:100E2000E4CE90E0801B910B81349105DCF0873992
:100E3000910510F086E990E08093C300D6CEC630CD
:100E4000A1F49091C4008091AA00981708F0CDCE2B
:100E5000090F111D90E08017910774F3C801013448
:100E6000110554F781E490E0E7CFC73069F4909121
:100E7000C3008091C400891710F48F5FDDCF9817ED
:100E800008F0B3CE8150D8CFD11139C0C43C99F409
:100E900081E0C11080E08093A50026DBF7DA809125
:100EA000C40090E076DA80937600DFDA8091C400A7
:100EB000809388009BCEC33B31F48E2D012B09F02B
:100EC00094CED3DA93CEC33E19F480917600F9CF55
:100ED00070E060E08DEC97E0C73B79F0CA3C39F4F4
:100EE0008091C4008093A900FFDAC2DA7FCECA3BAA
:100EF00031F470E060E085ED97E060DC77CED1E022
:100F000075CEAA2009F45BCE70E060E08EEE94E02E
:100F10006BDC6BCE582FCB01F901583089F410925D
:100F2000850080E0CED98091C60081111CC081E08F
:100F30008093850070E060E08FE993E03FDC13C0B0
:100F4000252F207F203BB1F420918500421780F0AF
:100F50006DE570E018D6029741F42F5F209385006D
:100F600088E3421718F480E0089582E1AAD9FBCF04
:100F700080E0FCCF203E41F480918500882311F071
:100F80004817C0F6B4DBEFCF5A3069F760919D0087
:100F9000809185000995A8DAF5CF2AE831E043E091
:100FA000B9CF2AE831E044E0B5CF25EE32E044E0A5
:100FB000B1CF22E532E041E0ADCF26E532E042E0BC
:100FC000A9CF21E732E041E0A5CF8CE287B91092AA
:100FD000ED001092EE0086B1886486B908951092F3
:100FE000EF0084B125B14091C20082958695869527
:100FF000837030E0220F331F220F331F820F932F95
:10100000911D840F8093C2008091E400882309F42D
:1010100046C01092E4008091ED00811149C080919A
:1010200079006091E5007091E600882341F06091BD
:10103000E9007091EA007093E6006093E500605F5C
:101040007F4FF6E076956795FA95E1F780E098E5B1
:101050009AD580917800680F711D76956795609399
:10106000E30080919C008823D9F0815080939C00FC
:101070008091C50081110AC08FEA87B981E0809311
:10108000ED001092EE0086B1886486B980917900F7
:10109000882329F080917900815080937900089508
:1010A0006D3130F770E060E084E072D885E0DECF2B
:1010B000813061F78091790081115CC02091E70057
:1010C0003091E800205F3F4FB90145E07695679584
:1010D0004A95E1F7E091E00056E0369527955A955C
:1010E000E1F70E2E000CFF0BCF0183519140280F2A
:1010F000391F3093E2002093E10080918B00A82FEC
:10110000B0E0AA0FBB1FA457BF4F2D913C91119780
:10111000AB01421B530B6D937C938F5F8770809361
:101120008B00CA01880F991F880F991F20917700A3
:1011300030E02D5E3E4F2E1B3F0B220F331F821BD4
:10114000930B860F971F23E0181619060CF041C069
:1011500001972150C9F7181619060CF051C057FD18
:101160006CC020918A001216CCF5281B20938A00AF
:101170002CDF8CCF8091EB009091EC009093E800F5
:101180008093E700409635E0969587953A95E1F78C
:1011900090938D0080938C0090938F0080938E00AD
:1011A000909391008093900090939300809392008D
:1011B000909395008093940090939700809396006D
:1011C000909399008093980090939B0080939A004D
:1011D00075CF009709F4BDCF0196BBCF880F991F3B
:1011E00061E070E08530910524F00397BC017595AE
:1011F000679588E1861B80938A0085E0C9D7B8CFC0
:101200008C3F2FEF9207CCF457FF17C020918A0034
:1012100027FF02C02450A9CF24EE281B20938A0068
:101220002091E3002F3108F4A3CF6CEF7FEF681B10
:10123000790B7595679586E0E1CF8091E3008E315B
:1012400008F496CF70E060E087E0D8CF0F931F934B
:10125000CF931092C80080912001909121019C01B0
:101260002F5F3F4F88279078822B932B90932101FB
:1012700080932001C091C60006D8C817B1F0109223
:10128000C5008093C600909122018823F9F0892F30
:1012900080699F709F30C1F48093220190E080E0CC
:1012A000CED71092210110922001009120011091BF
:1012B00021018091C5008823B9F0B80183E068D787
:1012C000CF911F910F917EC78F5FE6CF892F8F7EC1
:1012D00095FD08C080688093220180912001909143
:1012E0002101DECF806CF7CFC09122018C2F807F4F
:1012F000803BD1F470E060E081E04AD7C8019FD71D
:1013000080918900811106C086B1886486B981E028
:101310008093E400809189008F5F8F7180938900B2
:10132000CF911F910F910895B80181E031D7C4FF8B
:101330000FC0C5FDE3CF0831110510F31092210154
:1013400010922001C062C093220190E080E0D7CFCC
:10135000CC23B1F2C5FF02C076D7D2CF023111053E
:1013600078F2C064C093220190E080E068D7F4CFA7
:101370008091EF00811133DE8091C800811166CF2A
:101380000895BF92CF92DF92EF92FF920F931F9337
:10139000CF93DF93EC0110E888E0E82E87E0F82E89
:1013A00002E092ECC92EDD24D394B12C209759F49D
:1013B00081E0DF91CF911F910F91FF90EF90DF902F
:1013C000CF90BF9008958091AB0081111DC0909186
:1013D000C400973090F40FB6F89416BD06BD0FBE4A
:1013E000C6010197F1F78B2D0FB6F89416BD86BD97
:1013F0000FBEBEDFE7D62197D9CF0FB6F89416BD42
:1014000086BD0FBEC701EDCF80E0D3CF0F931F93F2
:10141000CF93C82F06EA811102C008E0C1E010E0B6
:1014200089E14FD7C801ADDF80E04BD78AEF90E06C
:10143000A8DFC150A9F78AE992E0CF911F910F91DF
:10144000A0CFCF93DF93282F64E691D3382FC92FF5
:10145000892F6AE08CD3D92F243650F0832FD6DF22
:101460008C2F6AE084D3D2DF8D2FDF91CF91CECF46
:10147000CA30B0F7F9CFDF92EF92FF920F931F932C
:10148000CF93DF93C82F8B01D0916800D13071F4D6
:10149000F090A200AED8FF20A1F08091A2008111AF
:1014A00010C070E060E08EEE94E09ED9C83071F01C
:1014B000C13C09F0EDC070E060E08EEE94E094D99C
:1014C00008C0C83081F481E08093630081E080939C
:1014D0006400D0E08D2FDF91CF911F910F91FF908D
:1014E000EF90DF900895C23C59F41092A2008D2F26
:1014F00090E001968170992780936800F5D7E9CF35
:10150000C13BC1F480916200012B41F49FEF8E3604
:1015100018F4823018F491E0909363009091630086
:10152000890F21F481E080936200D3CF8F36D8F306
:101530008EE6F9CFC13E59F4809163008195809386
:10154000630080916400819580936400D7CFC23B93
:1015500061F481E08093630080916200823008F43E
:10156000B5CF815080936200B1CFC13009F0A4C0E3
:101570000932110511F4C0936300D09083008D2DC2
:10158000880FD7FC809590E067E070E0DFD2292FCC
:10159000E09082008E2D880FE7FC8095D09161004D
:1015A0006D2F70E090E0D2D2290FF09081008F2D46
:1015B000880FF7FC8095C09160006C2F70E090E080
:1015C000C5D2622F690F80916200680F7727771F5D
:1015D0008091A200813091F480919F009091A000B1
:1015E00025E0969587952A95E1F724E730E0A90153
:1015F000481B590BCA01AAD2B901C5D2862F61D6A0
:1016000000FD05C049D681708D0D809383008091C7
:1016100080008E0D809382003FD665E2A8D29F0D98
:101620009093810039D68F7329F436D66DE09FD21E
:1016300090938000DD2331F02FD68F7319F4D150B1
:10164000D093610029D6811107C026D66BE08FD2D6
:101650009093610010928200C33030F01DD68F71DC
:1016600019F4C150C093600017D68F7729F414D6AF
:1016700066E07DD2909360000932110519F481E093
:10168000809364008091C200080F0093C20021CFB4
:10169000C23C09F42CCFC13B09F41BCFC13E09F475
:1016A00050CFC23B09F412CFC23E09F427CFD1E09C
:1016B000C13009F00FCFE0CFC13C09F4FCCEC23EEF
:1016C00009F008CF1BCF2F932FB72F933F938F9302
:1016D0009F93AF93BF93EF93FF938091EE00882386
:1016E000E9F0E091ED0024B135B1F0E0EE0FFF1F1D
:1016F000DF01A751BF4F2D933C93EB51FF4F8081EA
:1017000091818217930708F401962817390708F486
:1017100001979183808381E08093EF0081E0809343
:10172000EE00FF91EF91BF91AF919F918F913F910B
:101730002F912FBF2F9118958F9381E08093C80030
:101740008F9118958F9381E08093C7008F911895A2
:10175000F89484B7877F84BF0FB6F894A89581B5B5
:10176000886181BD11BC0FBEB89A81E083BF81EA58
:101770008ABDB99A88E088BB85BB8BB780628BBF76
:10178000A89581B5886181BD80E481BD1EDC87EEAE
:1017900086B9789481E061D570E060E084E094E0FF
:1017A0000DD81092AB0064D66ED581116BC0F89441
:1017B00080E091E00FD2853A09F08CC00CEA10E08D
:1017C000C1E0D1E0CE0106D2F80181938F012196CC
:1017D000C731F1E0DF07B1F778948091AC008093D6
:1017E000A5008091AD00809370008091AE00809341
:1017F0006D008091AF0080936A008091B00080936B
:1018000071008091B10080936E008091B20080934E
:101810006B008091B300809372008091B40080933C
:101820006F008091B50080936C008091B60080932A
:10183000A7008091B7008093A6008091B8008093A4
:10184000A4008091B900809375008091BA008093C4
:10185000A9008091BB008093A8008091BD00809377
:1018600069008091BE00809377008091BF008093D3
:10187000E0008091C000809378008091C100809347
:101880009E0029C0C0E08C2F1CD583E190E079DD5B
:101890008C2F869516D583E190E073DDF4D48823F0
:1018A000B1F0CF5FC03479F765E181E0FFD51CD698
:1018B000C6E98C2F06D584E090E063DDC150C9F7FE
:1018C00076CF8C2FFED48DE090E05BDDC150C1114E
:1018D000F8CF6DCF78948091A90081118093760024
:1018E00061E070E08EEE94E069D742E0242E57EE7E
:1018F000352E60E4462E552453947EEE872E74E0F8
:10190000972ECC24C394D12CFAE26F2EF0E07F2ED8
:1019100059D48091CB009091CC00009749F0609110
:10192000C9007091CA0060D71092CC001092CB0011
:101930008091C500882331F180E0C3D4A89581B59A
:10194000886181BD23E421BD37989DD48111FDCFED
:101950007AD48BB780628BBF1092EF001092C800D0
:101960001092C7008091C50081112DC0209279008E
:101970008BB78F7D8BBF29DB36B8A89581B5886181
:1019800081BD41BCF5DC1092AB008091DE009091EE
:10199000DF0032E080359307B1F5CEE1D0E0FE0103
:1019A0008491805333DD8CE291E0EBDC21966C1660
:1019B0007D06A9F79092CC008092CB001092CA00CD
:1019C0001092C900A5CF85B7877E806185BF85B796
:1019D000806285BF889585B78F7D85BF8091C70060
:1019E00081111092C5008091EF00882329F0509258
:1019F00079005092E400F3DA8091C800882309F45A
:101A0000B1CF24DCAFCFFAE08B339F0709F065C07C
:101A10008091680081117CCF3FD48F73082F10E034
:101A20003BD467E0A4D0E60102C0CC0FDD1F9A953D
:101A3000E2F732D465E09BD0960102C0220F331F3B
:101A40009A95E2F7C20FD31F27D490E0BE01AFD022
:101A5000C80FD91FC739D10514F0C6E9D0E08C2FC3
:101A600030D4C8018EDC7E0133E0F594E7943A95DA
:101A7000E1F7E11002C0EE24E394F12CC80181DC0F
:101A80005E01AE18BF08E501B7FE02C0D0E0C0E0BD
:101A90008C2F17D401D4837031F4C80172DCCE01CD
:101AA000959587950ED432E0A316B1043CF7F4D394
:101AB0006DE05DD0860102C0000F111F9A95E2F71C
:101AC000EBD3E801219790E0C823D923C00FD11FA1
:101AD00080E0F7D3CE0155DC1BCFE4E081359E07D3
:101AE00051F48091E300ADDC8091A700811162CFB9
:101AF00088EE93E0F0CFF4E081379F0721F48091E6
:101B0000E1009FDCF5CF8A529440A9F48091C60091
:101B10008111FECE80917600D4D384E690E031DC52
:101B200080E0CFD38091690090E068EE73E00ED042
:101B300084569109D0CF85B7877E85BF85B78062EF
:101B400085BF889585B78F7D85BFE2CE0024552758
:101B500004C0080E591F880F991F009729F0769529
:101B60006795B8F37105B9F7802D952F0895991BE6
:101B700079E004C0991F961708F0961B881F7A9584
:101B8000C9F780950895AA1BBB1B51E107C0AA1F86
:101B9000BB1FA617B70710F0A61BB70B881F991F0E
:101BA0005A95A9F780959095BC01CD01089597FBB2
:101BB000072E16F4009406D077FD08D0E4DF07FC6A
:101BC00005D03EF4909581959F4F0895709561954D
:101BD0007F4F0895E199FECF9FBB8EBBE09A992776
:101BE0008DB30895262FE199FECF9FBB8EBBE09A5F
:101BF00001970DB2021639F01CBA2DBB0FB6F8943E
:0C1C0000E29AE19A0FBE0895F894FFCF1D
:101C0C00060B180101010004010201070482828203
:101C1C000114148201015D2D070270006D006A0031
:00000001FF
