:100000000C948D000C94AA000C94EC0B0C94AA0098
:100010000C94AA000C94E60B0C94AA000C94AA0071
:100020000C94AA000C94AA000C94AA000C94AA00A8
:100030000C94AA000C94AA000C94AD0B0C94AA008A
:100040000C94AA000C94AA000C94AA000C94AA0088
:100050000C94AA000C94AA000C94AA000C94AA0078
:100060000C94AA000C94AA000C94AA000C94AA0068
:100070003230323130313035303131350001050424
:10008000141011150101010202020203030303040B
:1000900004050506060607080809090A0A0B0C0DDF
:1000A0000D0E0F10101112131415161717181A1B16
:1000B0001C1D1E1F20212224252627292A2B2D2EF8
:1000C0002F3132343537383A3B3D3E404243454785
:1000D000484A4C4E5051535557595B5D5F616365BB
:1000E00067696B6D6F717476787A7D7F818486889D
:1000F0008B8D909294979A9C9FA1A4A6A9ACAEB127
:10010000B4B7B9BCBFC2C5C8CBCDD0D3D6D9DCDF5C
:10011000E2E6E9ECEFF2F5F9FCFF11241FBECFEFA8
:10012000D4E0DEBFCDBF11E0A0E0B1E0EEE0FDE144
:1001300002C005900D92AE35B107D9F721E0AEE5CA
:10014000B1E001C01D92A83EB207E1F70E94F20B98
:100150000C94850E0C940000F89498ED9FBD83BF1D
:1001600078940895482F362F272FE5EBF1E090E0A3
:1001700080E0508151110BC063E070E00E94260EB8
:10018000FC01EB54FE4F40833183228305C001966E
:1001900033968031910569F70895EF92FF921F938E
:1001A000CF93DF931091B501111106C0DF91CF916C
:1001B0001F91FF90EF900895E090B601F090B70185
:1001C000C0919501C1500C2E000CDD0BC7FD0EC077
:1001D000FE01EE0FFF1FEA56FE4F0190F081E02D69
:1001E000B701812F099521978111F0CFE5EBF1E05F
:1001F000838180838481958192838183339681E09A
:10020000E23EF807A9F71092E2011092E401109281
:10021000E301C8CFBC018091E7010C94B2001092B9
:10022000E7011092E6011092E50181E080937601EA
:1002300008950F931F93CF93C82F08EA17E0C1507A
:1002400020F4CF911F910F91089582E00E94AC009D
:10025000C8010197F1F780E00E94AC00F0CF8FB1A8
:1002600082FB882780F991E0892780938E01089589
:10027000E0910601F09107013196FB70F460F09374
:100280000701E093060180918B018B5A80938B01CB
:10029000E49180918B018E0F0895CF93DF9300D06E
:1002A0000F92CDB7DEB72091590130915A0140919C
:1002B0005B0129833A834B83FE01319650E040E095
:1002C000682F70E0A1E0B0E09B01042E02C03595DC
:1002D00027950A94E2F7922F937081919D0101C0B6
:1002E000220F8A95EAF7992329F09130C1F080B363
:1002F000822B19C080B32095822380BB82B38223D6
:1003000082BB81B3282321BB4E5F5F4F463051052E
:10031000D9F60F900F900F90DF91CF91089590B381
:10032000822F8095892380BB82B3822B82BB81B3CD
:10033000282BE9CFCF93DF9300D000D000D0CDB7EA
:10034000DEB7209172014091A6015091A701475755
:10035000584009F422E06623F1F0823019F497E95D
:10036000961B692F96E0EDE1F1E0DE011196019018
:100370000D929A95E1F78150990B880F991FA1E092
:10038000B0E0AC0FBD1F8A0F9B1FDC01ED91FC910B
:10039000E20FF11D608326960FB6F894DEBF0FBE04
:1003A000CDBFDF91CF910895813019F4109275017E
:1003B0000895609374010895CF92DF92EF92FF92B7
:1003C0000F931F93CF93DF939C0150917201E091A3
:1003D000730182E0E11101C0852F90E0DC01AB5E8A
:1003E000BE4F4C91409319018E5E9E4FDC018C9163
:1003F00080931801F0E0E15FFE4FC181642F70E04F
:10040000552381F0C13071F4860F972F911D95957A
:100410008795DF91CF911F910F91FF90EF90DF9023
:10042000CF900895261737079CF1821713068CF397
:10043000511102C0822FEDCF841B6C2F6150770BBE
:100440008B01E82EF12CC7010E94570E60937101B9
:100450006695E62FF0E0842FD12CC12CD0E0DC177C
:10046000C1F2C601B8010E94430E842F860FA82F47
:10047000B0E0B9016A1B7B0B77FF03C0BD01621BB3
:10048000730BCE0CDF1CE617F7071CF6DF5FE7CF18
:10049000842FBFCF81E00895611160931B010895FF
:1004A0006093090108950F931F93CF93DF93809179
:1004B000720180937701809115018093780180917A
:1004C0001201809379018091160180937A018091C5
:1004D000130180937B018091100180937C018091B6
:1004E000750180937D018091740180937E018091DC
:1004F0000A01809380018091730180938101809132
:10050000170180938201809114018093830180916F
:1005100011018093840180911B018093850180915A
:100520000E018093860180910D0180938701809157
:100530000C018093880180910B0180938901809147
:10054000090180938A01F89407E711E0C1E8D0E03F
:10055000F80161918F01CE010E94730E2196C53979
:10056000D105B1F765EA80E890E00E94730E7894B7
:10057000DF91CF911F910F9108951092B40180B136
:1005800021B140918B01829586958695837030E0EC
:10059000220F331F220F331F820F932F911D840FC1
:1005A00080938B018091A9018823F1F11092A90118
:1005B00080918D01882319F01F981092B2018091CB
:1005C0001C016091AA017091AB01882341F06091F8
:1005D000AE017091AF017093AB016093AA01605FAF
:1005E0007F4F86E0769567958A95E1F780E098E5FC
:1005F0000E94430E80911B018350990B680F791F55
:10060000769567956093A80180916B01882369F0C6
:10061000815080936B0180911C01882329F0809187
:100620001C01815080931C0108956D31A0F770E08A
:1006300060E084E00E94B2008AE0EBCF882321F0E2
:10064000813031F0819A05C08198919889980895F8
:100650008198919A899A0895CF93C82F80938C019D
:1006600080918D0181110DC00E944D0191E0C11159
:1006700001C090E081E0C13508F480E0890F0E945C
:100680001E03C11108C010926D0010926C0082E030
:10069000CF910C94AC00EFEFEC0FF0E0EC57FF4F74
:1006A000E491F0E0F0936D00E0936C00C83078F3D3
:1006B00081E0C03168F380E0EBCFCF93C0918C0133
:1006C00089E18C0F873908F080E00E942C0382E0DA
:1006D0000E9419018C2FCF910C942C030F931F9320
:1006E000CF93E82F862F9091A8012FEF290F2C315F
:1006F00048F480E00E944D0180E0CF911F910F915E
:100700000C941E03CE2FC295CF70EF7020918D01F7
:10071000211103C0C33008F0C2E0E73010F4F0E06C
:1007200017C0E73099F50091640110E00F5F1F4F8B
:100730000E94380165E00E94370E9801290F311D93
:10074000C90166E070E00E94570E80936401FC01CD
:10075000E358FF4FE491C33071F48091630190E05E
:10076000019663E170E00E94430E809363018A5C0E
:100770009E4FDC01CC91CC23E9F1C13011F0EE0F9A
:10078000C2E08E2F0E944D018C2FB7CFE830A9F424
:1007900090918D016FE0911101C063E0862351F4C7
:1007A0008091640190E0019666E070E00E94570E2F
:1007B00080936401E0916401B2CF20918D012223E6
:1007C00081F080E09D3118F4E0E0C5CF8E5FE82F26
:1007D000F0E0E75BFE4F20819217C0F73197E08190
:1007E0009ECF869563E00E94370EE92FF0E0EE0F72
:1007F000FF1FAECFE0E0C5CFCF93DF93CDB7DEB71D
:1008000063970FB6F894DEBF0FBECDBF9091A801DD
:1008100091509C3158F480E063960FB6F894DEBF97
:100820000FBECDBFDF91CF910C941E0382958F70C8
:1008300090918D01911108C0833020F4882361F3D9
:10084000813051F382E0E8CF8330C1F783E1E3E206
:10085000F1E0DE01119601900D928A95E1F7809109
:10086000620190E0019663E170E00E94430E809384
:100870006201E1E0F0E0EC0FFD1FE80FF91F80815D
:10088000DDCFCF93282FCB01C0917301C11117C0C9
:10089000283049F41092700110926E0110926D018F
:1008A0008C2FCF910895213B61F48091700181508C
:1008B000833028F483E08093700180936F01C1E05E
:1008C000EFCF253BB1F46EE370E00E94430E892B1D
:1008D00039F7809170018A3F18F78B5F8093700120
:1008E00080936F0110926E0110926D010E945D0362
:1008F000D7CF213021F780916D0190916E01019643
:1009000088382EE0920728F490936E0180936D0151
:10091000C7CF10926E0110926D01809170018823F3
:1009200009F4BECF815080937001BACFFF920F932C
:100930001F93CF93DF938C01D62FC72FF42E809176
:10094000A6019091A701892B31F0E091A601F091C9
:10095000A70189E009951093A7010093A601012B37
:1009600041F0E091A601F091A7016D2F7C2F8F2D12
:10097000099581E080937601DF91CF911F910F91CE
:10098000FF900895CF93DF93E0919501D0E0C0E010
:10099000EE2351F0E150E0939501F0E0EE0FFF1FE0
:1009A000EA56FE4FC081D181E091950190E080E050
:1009B000EE2341F0E150FF0BEE0FFF1FEA56FE4F12
:1009C000808191814AE070E060E00E949604CE014F
:1009D000DF91CF910895883041F410926C0110920C
:1009E000650180E00E942C030DC0813009F59091D3
:1009F0006501911109C06032710520F08093650195
:100A00000E940F0180E00895913079F46B3B7105ED
:100A100020F082E080936501E4CF6115710591F3C8
:100A2000862F880F84708E5EDDCF0E94C204EACFCD
:100A3000813841F781E08093650180916C018F5F7F
:100A400080936C010E940F018BE4CCCF2091950123
:100A5000283088F4E22FF0E0EE0FFF1FEA56FE4F39
:100A6000808391832F5F2093950148E00E94960434
:100A70008091950108958FEF08950F931F93CF9361
:100A8000DF93D82FC92F8B010E94C204B8018D2F8C
:100A90009C2FDF91CF911F910F910C9426058430EC
:100AA00021F58091A6019091A7012AE08D36920749
:100AB00039F469E170E087EF96E00E943D050EC0D1
:100AC000875F964069F490918C01923048F0892FAD
:100AD000869596959695890F0E942C0380E008953F
:100AE00070E060E085EC95E0E8CF81E00895282F84
:100AF000CB01213C41F470E060E085EC95E00E9480
:100B00003D0580E00895223C29F470E060E083EA2E
:100B100095E0F5CF213B49F46EE370E00E94430E6F
:100B2000892B79F70E945D03ECCF213E51F46EE3EF
:100B300070E00E94430E6F5F60930A010E945302AF
:100B4000E0CF81E00895CF93C0917301C1111BC024
:100B5000813C49F470E060E085EC95E00E943D0541
:100B60008C2FCF910895823C29F470E060E087E7F4
:100B700095E0F4CF873B39F470E060E081E898E0DD
:100B80000E942605EDCFC1E0EBCF0F931F93CF93CB
:100B90008B018830D1F480E00E942C0360E08091CA
:100BA0000E010E946E0380910C010E94FC031092C2
:100BB0007001012B31F0C0E08C2FCF911F910F916C
:100BC000089581E080938D01F6CF813071F4693111
:100BD000710588F380938D0180910E010E946E0350
:100BE00080910C010E94FC03E6CF833019F57093CD
:100BF00069016093680180910E010E946E038091EB
:100C00000C010E94FC03C0917301C111D4CF8091EB
:100C10000901882381F290E062EC71E00E94260EC7
:100C20008017910740F670E060E08BE898E00E9442
:100C30003D05C2CF813BA9F481E090E00E94DC0138
:100C40000E942C0380917201811104C008311105AA
:100C500008F4B1CF61E070E087EF96E00E943D05B7
:100C6000AACF813EB9F38138E1F4209175012223A6
:100C7000A9F08091740190E062EC71E00E94260E70
:100C800040916801509169014817590738F0822F47
:100C900090E00E94DC010E942C038DCF80911A010C
:100CA000F7CF813C21F460918C0170E0D5CF823B7D
:100CB00059F4C0917301CC2319F086E990E0E9CF93
:100CC00086E90E942C0378CF823E11F480E0E3CFC6
:100CD00066E970E0823C09F4BFCF8339B9F3843C04
:100CE00029F470E060E083EA95E0B8CF833C39F402
:100CF0000E945D0370E060E08BE898E0AFCF8F3C2E
:100D000029F470E060E08AE492E0A8CFC09173011A
:100D10008A3B99F4012B09F068C0CC2339F00E947A
:100D20005D03109273010E94530245CF70E060E0B2
:100D300087E798E00E9426053FCFC11156C08A3C44
:100D400041F40E945D0381E0809373010E9453028D
:100D500033CF833B29F470E060E08DE69AE067CF03
:100D6000873CA9F490910E01892F82958F708F5F37
:100D700083708295807F9F70892B80930E0160E045
:100D80000E946E030E9453020E945D0315CF883CAF
:100D900081F490910C01892F82958F708F5F837001
:100DA0008295807F9F70892B80930C010E94FC03A9
:100DB000CDCF873BB9F4C8018F739927892B61F494
:100DC00020910E01822F8F708F5F207F6BE00E9439
:100DD000370E922B90930E01602F80910E010E948E
:100DE0006E03EACE873E09F4B1CFC1E0E5CECF92E3
:100DF000DF92EF92FF920F931F93CF93DF93C82F51
:100E00008B01D0901901D0911801E0907201F090FF
:100E10007101E11002C0FF24F394C0907001B80189
:100E20008C2F0E94410460917001662309F405C172
:100E3000C11004C080918C0180936701C83029F0F3
:100E4000CA30F9F400911A0110E0D016110630F4FE
:100E5000D017110619F010F000931A01C8010E9472
:100E6000DC010E942C0381E080930501D0E08D2FEE
:100E7000DF91CF911F910F91FF90EF90DF90CF9076
:100E80000895C13C09F4DCC0C23CA1F48091730117
:100E9000811101C0D6E980918C018D1740F48D2F0E
:100EA0000E942C0380918C0180936701DFCF809199
:100EB0001A01F6CFC33C41F480E00E942C0370E09D
:100EC00060E08BE898E0C0C08FE48C0F823008F0BF
:100ED0003FC0EE2039F0C80168E170E00E94430E87
:100EE000892B21F680918C0101151105E9F4C23B93
:100EF000A9F48FEF80930501809105016F2D70E0BB
:100F0000082E000C990B0E94260E20918C01820F56
:100F1000911D0E94DC0180931A01C2CF8D1748F702
:100F2000D81650F381E0E6CF073391E0190710F0AF
:100F30008D17F8F60D361240F8F2D816E8F20E9436
:100F40005D0370E060E08BE898E00E943D05D4CF3F
:100F50008FE18C0F823020F480910501819584CF40
:100F6000C130D9F40E33110511F4C0930501662385
:100F700009F47CCF809167016150770B90E00E946B
:100F8000260E60916F0170E00E94570E862F61114E
:100F900001C081E00E942C0369CFD0917301D1116F
:100FA0004AC0C43C01F581E0E11080E08093720109
:100FB0000E945302C0918C0180E00E942C0383E0C8
:100FC0000E9419018C2F0E942C0380918C0190E0CB
:100FD0000E94DC0180931A010E942C0380918C01F5
:100FE0008093670144CFC33B39F486E9012B09F0B4
:100FF0003DCF0E942C033BCFC33E19F480911A01D0
:10100000F8CF70E060E080E798E0C73B89F0CA3C29
:1010100049F480918C01809375010E9453020E94D3
:101020005D0325CFCA3B39F470E060E08CE798E0BF
:101030000E9426051CCFD1E01ACFCC2009F4FECEA9
:1010400070E060E085EC95E00E943D050FCF582FE1
:10105000CB01F901583099F41092660180E00E94AA
:101060002C0380918E0181111EC081E08093660166
:1010700070E060E08BEE94E00E94260514C0252FFE
:10108000207F203BC1F420916601421790F06DE56E
:1010900070E00E94430E029741F42F5F2093660197
:1010A00088E3421718F480E0089582E10E942C033F
:1010B000FACF80E0FBCF203E49F48091660188237F
:1010C00011F04817A8F60E94C204EDCF5A3059F724
:1010D00060916C018091660109950E945302F3CFE3
:1010E000409172014E5F2AE931E00C9427082AE909
:1010F00031E043E00C94270824ED31E042E00C9409
:1011000027082CE432E041E00C94270820E532E087
:1011100041E00C9427080F931F93CF93DF93D82FB0
:101120008B01873B89F480E00E942C03C0917301FE
:10113000C111BCC0DA3B09F077C070E060E086E81E
:1011400098E00E94260528C08079803959F52091C1
:101150001501909116018D2F8F70823049F4809186
:101160007501811108C0822F291728F4892F03C027
:10117000822F9217D8F30E942C03D23CA1F5C09184
:1011800075016C2F70E0C11134C060911A0170E0DC
:1011900087EF96E00E943D058C2FDF91CF911F9144
:1011A0000F910895803811F480E0E5CFD83009F030
:1011B0007FC060E080910D010E946E0380910B0161
:1011C0000E94FC03B3CF0931110558F0D0938D0173
:1011D000602F80910D010E946E0380910B010E948F
:1011E000FC03C0E0D9CFD23B49F41092E70161E0A3
:1011F00070E087EF96E00E943D05F3CF66E970E06E
:10120000D33CB9F3D33B09F091CFC0917301CC2308
:1012100039F086E990E00E94DC010E942C03E1CFC6
:1012200086E90E942C03B8CFD73C99F490910D0128
:10123000892F82958F708F5F83708295807F9F70DA
:10124000892B80930D0160E00E946E030E9453027F
:10125000A3CFD83C81F490910B01892F82958F7098
:101260008F5F83708295807F9F70892B80930B01A5
:101270000E94FC03EBCFD73BB9F4C8018F739927C9
:10128000892B61F420910D01822F8F708F5F207F59
:101290006BE00E94370E922B90930D01602F80918E
:1012A0000D010E946E0378CFD73E81F2C1E074CF6A
:1012B000D13009F488CFD33009F48ACF5ECF8DE0E6
:1012C00084B91092B2011092B30183B1886483B9DA
:1012D000139A87EE83B908950F931F93CF931092BB
:1012E00090018091E5019091E6019C012F5F3F4FB5
:1012F00088279078822B932B9093E6018093E501C9
:10130000C0918E010E942F01C817B9F010928D0173
:1013100080938E019091E701882371F1892F806974
:101320009F709F3039F58093E70190E080E00E9444
:101330000A011092E6011092E5010091E501109179
:10134000E60180918D01882329F1B80183E00E9494
:10135000B2000E94CD000F731127012B99F5109256
:101360006A010E945F0983B1886483B981E0809338
:10137000A90122C08F5FD7CF892F8F7E95FD08C02E
:1013800080688093E7018091E5019091E601CFCFDD
:10139000806CF7CFC091E7018C2F807F803BB1F448
:1013A00070E060E081E00E94B200C8010E940A0182
:1013B00080916A018823B9F280916A018F5F8F71F1
:1013C00080936A01CF911F910F910895B80181E038
:1013D0000E94B200C4FF0FC0C5FDE7CF0831110560
:1013E00038F31092E6011092E501C062C093E70164
:1013F00090E080E0DBCFCC23D9F2C5FF03C00E9490
:101400000F01D6CF0231110598F2C064C093E701F5
:1014100090E080E00E940A01F2CF8091B401811136
:101420000E94BD028091900181110C946C09089575
:10143000EF92FF920F931F93CF93DF93EC0108E09D
:1014400017E082ECE82EFF24F394209741F481E02A
:10145000DF91CF911F910F91FF90EF9008958091B0
:101460007601811118C080918C01883078F482E077
:101470000E94AC00C7010197F1F780E00E94AC0028
:101480000E940D0A0E94CD002197DFCF80E00E94CC
:10149000AC00C801F0CF80E0DBCF0F931F93CF9358
:1014A000C82F06EA811102C008E0C1E010E089E11E
:1014B0000E942C03C8010E94180A80E00E942C039D
:1014C0008AEF90E00E94180AC15089F78AE992E0F9
:1014D000CF911F910F910C94180ADF92EF92FF9217
:1014E0000F931F93CF93DF93C82F8B01D0910801E7
:1014F000D13081F4F09070010E944104FF20B1F0DE
:1015000080917001811112C070E060E085EC95E07F
:101510000E943D05C83079F0C13C09F003C170E07C
:1015200060E085EC95E00E943D0508C0C83081F47C
:1015300081E08093030181E080930401D0E08D2F4E
:10154000DF91CF911F910F91FF90EF90DF90089561
:10155000C23C61F4109270018D2F90E00196817071
:101560009927809308010E945302E8CFC13BC1F440
:1015700080910201012B41F49FEF8B3418F48230EB
:1015800018F491E09093030190910301890F21F4E5
:1015900081E080930201D2CF8C34D8F38BE4F9CF71
:1015A000C13E59F48091030181958093030180919C
:1015B0000401819580930401D6CFC23B61F481E0A0
:1015C0008093030180910201823008F4B4CF8150EE
:1015D00080930201B0CFC13009F0B8C00E331105BD
:1015E00011F4C0930301D09061018D2D880FD7FCB9
:1015F000809590E062E170E00E94260E292FE09035
:1016000060018E2D880FE7FC8095D09101016D2F30
:1016100070E090E00E94260E290FF0905F018F2D60
:10162000880FF7FC8095C09100016C2F70E090E06E
:101630000E94260E622F690F80910201680F7727A2
:10164000771F809170018130A1F480916D0190919C
:101650006E0125E0969587952A95E1F724E730E01D
:10166000A901481B590BCA010E94260EB9010E940C
:10167000430E862F0E942C0300FD06C00E943801F5
:1016800081708D0D8093610180915E018E0D80933C
:1016900060010E94380165E20E94370E9F0D909311
:1016A0005F010E9438018F7339F40E9438016DE0A8
:1016B0000E94370E90935E01DD2339F00E943801BD
:1016C0008F7319F4D150D09301010E943801811118
:1016D00009C00E9438016BE10E94370E909301010E
:1016E00010926001C33038F00E9438018F7119F4F4
:1016F000C150C09300010E9438018F7739F40E94D5
:1017000038016FE00E94370E909300010E331105EF
:1017100019F481E08093040180918B01080F0093FC
:101720008B010CCFC23C09F417CFC13B09F406CFA3
:10173000C13E09F43CCFC23B09F4FDCEC23E09F4E0
:1017400012CFD1E0C13009F0FACEE0CFC13C09F4AC
:10175000E6CEC23E09F0F3CE06CF2F932FB72F93DC
:101760003F938F939F93AF93BF93EF93FF9380919A
:10177000B3018823E9F0E091B20120B131B1F0E08A
:10178000EE0FFF1FDF01A255BE4F2D933C93E65590
:10179000FE4F808191818217930708F401962817E4
:1017A000390708F401979183808381E08093B40125
:1017B00081E08093B301FF91EF91BF91AF919F9131
:1017C0008F913F912F912FBF2F9118958F9381E08B
:1017D000809390018F9118958F9381E080938F0172
:1017E0008F911895F89485B7877F85BF90E088ED35
:1017F0000FB6F894A8958FBD90B7977F90BF0FBE96
:1018000088E08CB98AE780BB81EA8093720081E02E
:101810008093710084E082BB87BD8CB788608CBFE9
:10182000A89580E480BF0E945F09789481E00E94BF
:10183000190170E060E08FE495E00E9426051092A7
:1018400076010E945D030E942F01811164C0F8940B
:1018500080E890E00E946B0E853A09F08BC007E7A4
:1018600011E0C1E8D0E0CE010E946B0EF801819337
:101870008F012196C539D105B1F778948091770110
:101880008093720180917801809315018091790194
:101890008093120180917A018093160180917B01DF
:1018A0008093130180917C018093100180917D01D0
:1018B0008093750180917E018093740180918001F5
:1018C00080930A018091810180937301809182014C
:1018D000809317018091830180931401809184018A
:1018E000809311018091850180931B018091860175
:1018F00080930E018091870180930D018091880172
:1019000080930C018091890180930B0180918A0161
:101910008093090130C0C0E08C2F0E942C0383E12A
:1019200090E00E94180A8C2F86950E942C0383E178
:1019300090E00E94180A0E942F018823C1F0CF5F17
:10194000C03451F70E945302C6E98C2F0E942C0329
:1019500084E090E00E94180AC150B9F778CF8C2F2C
:101960000E942C038DE090E00E94180AC150C11122
:10197000F6CF6DCF789480917501811180931A0113
:1019800061E070E085EC95E00E94260543E4242E9A
:1019900052E0352E60E4462E5524539475EC872E84
:1019A00075E0972ECC24C394D12CFCE76F2EF0E089
:1019B0007F2E0E94CD008091930190919401009719
:1019C00051F060919101709192010E943D05109239
:1019D00094011092930180918D01882311F180E090
:1019E0000E942C03A89520BE1F980E942F018111F0
:1019F000FCCF0E940F018CB788608CBF1092B4019D
:101A00001092900110928F0180918D0181112EC052
:101A100030921C018CB7877F8CBF0E945F09A8950C
:101A200040BE0E940D0A109276018091A60190910D
:101A3000A701F2E08A349F0709F03AC0C0E7D0E07E
:101A4000FE01849180530E944D0A8CE291E00E9435
:101A5000180A21966C167D0699F79092940180924F
:101A600093011092920110929101A3CF86B78F79C2
:101A7000806486BF86B7806186BF889586B78F7E73
:101A800086BF80918F01811110928D018091B401E8
:101A9000882331F050921C015092A9010E94BD028E
:101AA00080919001882309F4AFCF0E946C09ACCFDC
:101AB000FAE08D369F0709F078C080910801811106
:101AC00078CF0E9438018F73082F10E00E943801F0
:101AD00067E00E94370EE60102C0CC0FDD1F9A9529
:101AE000E2F70E94380165E00E94370E960102C0BD
:101AF000220F331F9A95E2F7C20FD31F0E943801BD
:101B000090E0BE010E94570EC80FD91FC739D105FA
:101B100014F0C6E9D0E08C2F0E942C03C8010E946B
:101B2000180A7E0133E0F594E7943A95E1F7E11065
:101B300002C0EE24E394F12CC8010E94180A5E0151
:101B4000AE18BF08E501B7FE02C0D0E0C0E08C2FA0
:101B50000E942C030E943801837041F4C8010E9446
:101B6000180ACE01959587950E942C0332E0A316A2
:101B7000B10414F70E9438016DE00E94370E86010F
:101B800002C0000F111F9A95E2F70E943801E80188
:101B9000219790E0C823D923C00FD11F80E00E9475
:101BA0002C03CE010E94180A04CFE5E0833A9E0779
:101BB00019F52091A801822F64E60E94370E382F74
:101BC000C92F892F6AE00E94370ED92F243608F4D6
:101BD0003AC0832F0E944D0A8C2F6AE00E94370E74
:101BE0000E944D0A8D2F0E944D0A80917301811130
:101BF00034CF88EE93E0D6CF87579540C9F48091D3
:101C00008E018111D6CE80911A010E942C0384E6A8
:101C100090E00E94180A80E00E942C0380910A0143
:101C200090E068EE73E00E94260E84569109BACFC8
:101C300086B78F7986BF86B7806186BF889586B75D
:101C40008F7E86BFB6CECA3038F6CCCF002455275B
:101C500004C0080E591F880F991F009729F0769528
:101C60006795B8F37105B9F7802D952F0895991BE5
:101C700079E004C0991F961708F0961B881F7A9583
:101C8000C9F780950895AA1BBB1B51E107C0AA1F85
:101C9000BB1FA617B70710F0A61BB70B881F991F0D
:101CA0005A95A9F780959095BC01CD01089597FBB1
:101CB000072E16F4009407D077FD09D00E94430E3A
:101CC00007FC05D03EF4909581959F4F089570953F
:101CD00061957F4F0895E199FECF1FBA8EBBE09AC0
:101CE00099278DB30895262FE199FECF1FBA8EBB99
:101CF000E09A81500DB2021639F01CBA2DBB0FB616
:0E1D0000F894E29AE19A0FBE0895F894FFCF8E
:101D0E000F1B180101010004010A021929192900EB
:101D1E000505969696010A0A9601500702150112BC
:101D2E00010F010201000000000000000100000090
:101D3E000000000000010201000000000000000190
:101D4E000000000000000000010000210123022518
:0E1D5E0003270429052C06FF060504030000D8
:00000001FF
