:100000000C94D8000C94F5000C94AC0D0C94F500F5
:100010000C94F5000C94A60D0C94F5000C94F500CE
:100020000C94F5000C94F5000C94F5000C94F5007C
:100030000C94F5000C94F5000C946D0D0C94F500E7
:100040000C94F5000C94F5000C94F5000C94F5005C
:100050000C94F5000C94F5000C94F5000C94F5004C
:100060000C94F5000C94F5000C94F5000C94F5003C
:10007000323032313039313330323531000105041C
:10008000141011150100010002000200030003001A
:10009000040004000500060006000700080009002F
:1000A0000A000B000C000D000E000F0010001100E4
:1000B000120014001500170018001A001B001D0084
:1000C0001F00200022002400260028002B002D0005
:1000D0002F0031003400360039003C003E00410062
:1000E000440047004A004D005100540057005B0097
:1000F0005F00620066006A006E00720076007A009F
:100100007F00830088008D00910096009B00A00076
:10011000A600AB00B000B600BC00C100C700CD0017
:10012000D300DA00E000E700ED00F400FB0002017C
:100130000901100118011F0127012F0136013F019C
:1001400047014F0158016001690172017B0184017F
:100150008D019701A001AA01B401BE01C901D3011B
:10016000DD01E801F301FE010902150220022C0263
:100170003802440250025C026902750282028F0258
:100180009C02AA02B702C502D302E102EF02FE02FC
:100190000D031B032A033A03490359036803780339
:1001A00088039903A903BA03CB03DC03ED03FF0320
:1001B00011241FBECFEFD4E0DEBFCDBF11E0A0E021
:1001C000B1E0E8ECF0E202C005900D92AA34B1076C
:1001D000D9F721E0AAE4B1E001C01D92A23FB20725
:1001E000E1F70E94B20D0C9462100C940000482FAD
:1001F000362F272FEFEBF1E090E080E05081511196
:100200000BC063E070E00E940310FC01E154FE4F5C
:1002100040833183228305C0019633968031910556
:1002200069F70895EF92FF921F93CF93DF93109198
:10023000BF01111106C0DF91CF911F91FF90EF9088
:100240000895E090C001F090C101C0919C01C1509F
:100250000C2E000CDD0BC7FD0EC0FE01EE0FFF1FC4
:10026000E356FE4F0190F081E02DB701812F0995F3
:1002700021978111F0CFEFEBF1E0838180838481BE
:10028000958192838183339681E0EC3EF807A9F74C
:100290001092EC011092EE011092ED01C8CFBC015A
:1002A0008091F1010C94F7001092F1011092F0018D
:1002B0001092EF0181E080937801089528E13FE1F9
:1002C000815008F40895F9013197F1F7F9CFE091E1
:1002D0000601F09107013196FB70F460F09307017D
:1002E000E0930601809191018B5A80939101E491F2
:1002F000809191018E0F0895CF93DF9300D00F92DC
:10030000CDB7DEB7209145013091460140914701BC
:1003100029833A834B83FE01319650E040E0682FF9
:1003200070E0A1E0B0E09B01042E02C03595279556
:100330000A94E2F7922F937081919D0101C0220FE0
:100340008A95EAF7992329F09130C1F080B3822B86
:1003500019C080B32095822380BB82B3822382BBE5
:1003600081B3282321BB4E5F5F4F46305105D9F63C
:100370000F900F900F90DF91CF91089590B3822F3F
:100380008095892380BB82B3822B82BB81B3282BCB
:10039000E9CFCF93DF9300D000D000D0CDB7DEB748
:1003A000209172014091AD015091AE014C5E5840D8
:1003B00009F422E0843059F46093730126960FB655
:1003C000F894DEBF0FBECDBFDF91CF9108956623B5
:1003D000A9F3823019F497E9961B692F96E0ECE1B6
:1003E000F1E0DE01119601900D929A95E1F78150AE
:1003F000990B880F991FA1E0B0E0AC0FBD1F8A0FC9
:100400009B1FDC01ED91FC91E20FF11D6083D6CFC3
:10041000CF92DF92EF92FF920F931F93CF93DF93D0
:100420009C0150917201E091740182E0E11101C0E0
:10043000852F90E0DC01AE5EBE4F4C9140931601DB
:10044000815F9E4FDC018C9180931501F0E0E45FA9
:10045000FE4FC181642F70E0552381F0C13071F4EB
:10046000860F972F911D95958795DF91CF911F91BD
:100470000F91FF90EF90DF90CF90089526173707E8
:100480009CF1821713068CF3511102C0822FEDCF1D
:10049000841B6C2F6150770B8B01E82EF12CC70168
:1004A0000E943410609370016695E62FF0E0842F6F
:1004B000D12CC12CD0E0DC17C1F2C601B8010E94DA
:1004C0002010842F860FA82FB0E0B9016A1B7B0B88
:1004D00077FF03C0BD01621B730BCE0CDF1CE61758
:1004E000F7071CF6DF5FE7CF842FBFCF9091B201F3
:1004F00080E09D3180F0E82FF0E0EB5CFE4F208142
:10050000921738F43197E081F0E0E358FF4F84917F
:1005100008958E5FF0CF08950F931F93CF93E82F28
:10052000862F9091B20191509C3130F480E0CF91B0
:100530001F910F910C947C01CE2FC295CF70EF705C
:1005400090919401911103C0C33008F0C2E0E730EC
:1005500010F4F0E017C0E730C9F400914F0110E04B
:100560000F5F1F4F0E94670165E00E941410980101
:10057000290F311DC90166E070E00E94341080939C
:100580004F01FC01E358FF4FE4911CC0909194018E
:10059000E83099F46FE0911101C063E0862351F4D3
:1005A00080914F0190E0019666E070E00E94341067
:1005B00080934F01E0914F01CCCF9923D9F00E9455
:1005C0007602E82FC33071F480914E0190E00196DD
:1005D00063E170E00E94201080934E018E5D9E4F7B
:1005E000DC01CC91CC2321F0C13069F0CE2FCC0FAF
:1005F0008C2F9DCF869563E00E941410E92FF0E0C8
:10060000EE0FFF1FBFCFCE2FF3CF81E00895611112
:1006100060931A010895662369F0813099F48091FE
:10062000AF019091B001891B680F6093AF0182E028
:1006300080931B0180911901873418F086E4809320
:1006400019010895635E60931901F4CF60936A0104
:1006500008950F931F93CF93DF938091720180933E
:1006600079018091120180937A0180910F0180932A
:100670007B0180910C0180937C0180911301809318
:100680007D018091100180937E0180910D01809306
:100690007F018091140180938001809111018093EA
:1006A000810180910E018093820180917401809379
:1006B0008301809173018093840180917101809303
:1006C0008501809117018093860180917601809346
:1006D0008701809175018093880180910901809341
:1006E0008A018091190180938B018091AF018093E1
:1006F0008C0180911A0180938D0180910B01809370
:100700008E0180910A0180938F0180916A0180930C
:10071000900182E00E945E01F89409E711E0C1E8CF
:10072000D0E0F80161918F01CE010E945010219616
:10073000C939D105B1F765EA80E890E00E94501010
:100740007894DF91CF911F910F910895E82F8093B6
:10075000930180939201811106C010926D00109256
:100760006C0068980895689AE150F0E0EE0FFF1F62
:10077000EC57FF4F8591949190936D0080936C009E
:100780000895809377010C94A603CF93C0919301B1
:1007900089E18C0F873908F080E00E94A60382E08F
:1007A0000E945E018C2FCF910C94A603813019F426
:1007B000109276010895823019F4609375010895BE
:1007C000833019F4609371010895843011F46093BB
:1007D00017010895CF93282FCB01C0917401C11147
:1007E00017C0283049F410926E0110926C011092DB
:1007F0006B018C2FCF910895213B61F480916E01A4
:100800008150833028F483E080936E0180936D01E2
:10081000C1E0EFCF253BB1F46EE370E00E94201001
:10082000892B39F780916E018A3F18F78B5F80938F
:100830006E0180936D0110926C0110926B010E9409
:10084000C503D7CF213021F780916B0190916C01C6
:10085000019688382EE0920728F490936C018093DB
:100860006B01C7CF10926C0110926B0180916E01E9
:10087000882309F4BECF815080936E01BACFFF92D6
:100880000F931F93CF93DF938C01D62FC72FF42E96
:100890008091AD019091AE01892B31F0E091AD01D5
:1008A000F091AE0189E009951093AE010093AD017E
:1008B000012B41F0E091AD01F091AE016D2F7C2F45
:1008C0008F2D099581E080937801DF91CF911F9161
:1008D0000F91FF900895CF93DF93E0919C01D0E0BA
:1008E000C0E0EE2351F0E150E0939C01F0E0EE0F08
:1008F000FF1FE356FE4FC081D181E0919C0190E043
:1009000080E0EE2341F0E150FF0BEE0FFF1FE356B6
:10091000FE4F808191814AE070E060E00E943F04D8
:10092000CE01DF91CF910895883041F41092690192
:100930001092500180E00E94A6030DC0813009F59D
:1009400090915001911109C06032710520F080939F
:1009500050010E94540180E00895913079F46B3B7E
:10096000710520F082E080935001E4CF611571059C
:1009700091F3862F880F84708E5EDDCF0E946B040A
:10098000EACF813841F781E080935001809169017D
:100990008F5F809369010E9454018BE4CCCF20913A
:1009A0009C01283088F4E22FF0E0EE0FFF1FE356A1
:1009B000FE4F808391832F5F20939C0148E00E942B
:1009C0003F0480919C0108958FEF08950F931F932A
:1009D000CF93DF93D82FC92F8B010E946B04B801EE
:1009E0008D2F9C2FDF91CF911F910F910C94CF04ED
:1009F000843021F58091AD019091AE012CE08F32D1
:100A0000920739F469E170E089E996E00E94E60412
:100A10000EC08959964069F490919301923048F044
:100A2000892F869596959695890F0E94C10380E03F
:100A3000089570E060E08AE895E0E8CF81E00895ED
:100A4000282FCB01213C41F470E060E08AE895E07A
:100A50000E94E60480E00895223C29F470E060E002
:100A60008CE495E0F5CF213B49F46EE370E00E9401
:100A70002010892B79F70E94C503ECCF213E51F459
:100A80006EE370E00E9420106F5F609309010E9486
:100A90002903E0CF81E00895CF93C0917401C11183
:100AA0001BC0813C49F470E060E08AE895E00E9458
:100AB000E6048C2FCF910895823C29F470E060E029
:100AC0008EE695E0F4CF873B39F470E060E086EF86
:100AD00098E00E94CF04EDCFC1E0EBCF813C41F420
:100AE00070E060E08AE895E00E94E60480E0089506
:100AF000823C29F470E060E080E295E0F5CF873B2E
:100B000039F470E060E08BEF98E00E94CF04EECF04
:100B100081E008950F931F93CF938B018830B1F438
:100B200080E00E94A60360E080910B010E948C028D
:100B300010926E01012B31F0C0E08C2FCF911F91EC
:100B40000F91089581E080939401F6CF813051F4A4
:100B50006931710588F38093940180910B010E94A3
:100B60008C02EACF833031F520917601222361F0A7
:100B70008091750190E062EC71E00E94031008170B
:100B8000190710F020931801602F80910B010E942B
:100B90008C0280916A01882379F290E062EC71E026
:100BA0000E9403108017910738F670E060E085E03E
:100BB00099E018C0813BC9F481E090E00E940802EE
:100BC0000E94A603809171018111B6CF80917201BC
:100BD000811104C00831110508F4AECF61E070E066
:100BE00089E996E00E94E604A7CF813EB9F38138F7
:100BF00041F48091180190E00E9408020E94A6032F
:100C00009BCF6091930170E0813C51F3823B71F482
:100C1000809117019091740191118091730181115C
:100C200003C086E990E0E8CF86E9E8CF823E11F480
:100C300080E0E4CF66E970E0823C91F28339C1F351
:100C4000843C29F470E060E08CE495E0CBCF833CF9
:100C500019F40E94C503A9CF8F3C29F470E060E02D
:100C600085E093E0BFCFC09174018A3B99F4012BDA
:100C700009F05DC0CC2339F00E94C50310927401C5
:100C80000E94290359CF70E060E08CEE98E00E944A
:100C9000CF0453CFC1114BC08A3C41F40E94C5031D
:100CA00081E0809374010E94290347CF833B39F48C
:100CB00070E060E08FE29CE00E94E6043ECF873C5B
:100CC000A9F490910B01892F82958F708F5F8370AB
:100CD0008295807F9F70892B80930B0160E00E943A
:100CE0008C020E9429030E94C50327CF873BD1F4C1
:100CF00081E080936F01C8018F739927892B61F47C
:100D000020910B01822F8F708F5F207F6BE00E94FC
:100D10001410922B90930B01602F80910B010E9475
:100D20008C020BCF873E19F410926F01BCCFC1E04B
:100D300004CFAF92BF92CF92DF92EF92FF920F93C8
:100D40001F93CF93DF93C82F8B01B0901601D090E3
:100D50001501E0907201C0907001E11002C0CC2436
:100D6000C39480911701D0917401D11180917301C6
:100D70008823F1F1813021F0809118018D15C0F1A7
:100D8000A6E9FA2EA0906E01B8018C2F0E94EA030A
:100D900060916E01662309F4C7C1A11004C080915F
:100DA000930180935401C83029F0CA3019F500919D
:100DB000180110E0B016110630F4D016110619F023
:100DC00010F000931801C8010E9408020E94C1039C
:100DD00081E080930501D0E08D2FDF91CF911F91AD
:100DE0000F91FF90EF90DF90CF90BF90AF9008955C
:100DF000FD2CC8CFC13C09F49AC1C23C79F4809162
:100E000093018F1540F48F2D0E94C10380919301AF
:100E100080935401E0CF80911801F6CFC33C41F498
:100E200080E00E94A60370E060E085E099E083C165
:100E30008FE48C0F823008F04EC060910C0170E09E
:100E4000C801EE2011F068E170E00E942010892BAB
:100E500011F62091930101151105E9F4C23BA9F4A3
:100E60008FEF80930501809105016C2D70E0082EB5
:100E7000000C990B0E94031020919301820F911D89
:100E80000E94080280931801BFCF2D1548F7B216B3
:100E900050F381E0E6CFE0910C01F0E0CF0166E392
:100EA00071E00E9403108017910710F42D15C0F611
:100EB000CF016CE672E00E9403108017910798F64C
:100EC000B21688F20E94C50370E060E085E099E008
:100ED0000E94E604C8CF8FE18C0F823020F480910D
:100EE0000501819576CFC13009F096C00932110510
:100EF00011F4C0930501662399F08091540161506B
:100F0000770B90E00E94031060916D0170E00E94E9
:100F10003410611101C061E0609392016093770128
:100F20003091920120919301432F421B550BCA012E
:100F300060915201709153016F5F7F4F7093530125
:100F400060935201009709F446CF40E052E097FFCA
:100F500006C040E450E0233810F440E051E05695DC
:100F6000479597FD0196959587950097C1F7461788
:100F7000570708F030CF321778F53FEF320F6FEF99
:100F8000630FE62FF0E0EE0FFF1FCF018C579F4F4E
:100F9000FC0145915491621718F560916C007091B5
:100FA0006D00672BE9F44F3F23E05207C9F45093DB
:100FB0006D0040936C0040916C0050916D00FC01FD
:100FC000859194914817590711F430939301109229
:100FD000530110925201FFCE231788F631E0CECF95
:100FE00060916C0070916D006417750738F4409142
:100FF0006C0050916D004F5F5F4FD9CF60916C00D6
:1010000070916D0046175707B0F640916C005091F3
:101010006D0041505109CBCFC53099F480919301B7
:10102000833308F4D8CE90E0801B910B8233910576
:10103000DCF08739910510F086E990E08093920109
:10104000CACEC630A1F49091930180917701981790
:1010500008F0C1CE090F111D90E08017910774F3BD
:10106000C8010233110554F782E390E0E7CFC7309F
:1010700069F49091920180919301891710F48F5F28
:10108000DDCF981708F0A7CE8150D8CFD1114AC034
:10109000C43C01F581E0E11080E0809372010E9480
:1010A0002903C091930180E00E94A60383E00E947F
:1010B0005E018C2F0E94A6038091930190E00E9414
:1010C0000802809318010E94C103809193018093CC
:1010D000540182CEC33B39F48F2D012B09F07BCE16
:1010E0000E94C10379CEC33E19F480911801F8CF54
:1010F00070E060E087EE98E0C73B89F0CA3C49F4B5
:1011000080919301809376010E9429030E94C50378
:1011100063CECA3B39F470E060E081EF98E00E9452
:10112000CF045ACED1E058CEAA2009F43CCE70E0CC
:1011300060E08AE895E00E94E6044DCE582FCB018E
:10114000F901583099F41092510180E00E94A603F1
:101150008091950181111EC081E08093510170E062
:1011600060E084E994E00E94CF0414C0252F207F22
:10117000203BC1F420915101421790F06DE570E0E1
:101180000E942010029741F42F5F2093510188E3C1
:10119000421718F480E0089582E10E94A603FACF76
:1011A00080E0FBCF203E49F480915101882311F06B
:1011B0004817A8F60E946B04EDCF5A3059F760919A
:1011C00069018091510109950E942903F3CF29EC0F
:1011D00031E043E00C949E0829EC31E044E00C94AB
:1011E0009E0826ED33E044E00C949E0827E033E0AF
:1011F00041E00C949E082BE033E042E00C949E0802
:1012000026E233E041E00C949E080F931F93CF93A6
:10121000DF93D82F8B01873B89F480E00E94A603DF
:10122000C0917401C111AEC0DA3B09F071C070E029
:1012300060E080E099E00E94CF0428C08079803986
:1012400059F520911201909113018D2F8F708230EA
:1012500049F480917601811108C0822F291728F462
:10126000892F03C0822F9217D8F30E94A603D23C85
:1012700061F5C09176016C2F70E0C1112EC06091B4
:10128000180170E089E996E00E94E6048C2FDF9156
:10129000CF911F910F910895803811F480E0E5CF30
:1012A000D83009F071C060E080910A010E948C0280
:1012B000B7CF0931110538F0D0939401602F809198
:1012C0000A010E948C02C0E0E1CFD23B59F40E9497
:1012D000C5031092F10161E070E089E996E00E9497
:1012E000E604F1CF66E970E0D33CB9F3D33B09F0F3
:1012F00097CFC0917401CC2339F086E990E00E9429
:1013000008020E94A603DFCF86E90E94A603BECF93
:10131000D73CA9F490910A01892F82958F708F5F35
:1013200083708295807F9F70892B80930A0160E093
:101330000E948C020E9429030E94C503A7CFD73BBD
:10134000D1F481E080936F01C8018F739927892BB5
:1013500061F420910A01822F8F708F5F207F6BE0F4
:101360000E941410922B90930A01602F80910A0121
:101370000E948C028BCFD73E29F410926F010E94FD
:10138000290384CFC1E082CFD13009F492CFD3308A
:1013900009F494CF6CCF86E884B91092BC01109206
:1013A000BD0183B1886483B908950E94CB09E1E649
:1013B000F0E0808182608083139A87EE83B908957C
:1013C0001092BE0180B121B1409191018295869524
:1013D0008695837030E0220F331F220F331F820F58
:1013E000932F911D840F809391018091B3018823E5
:1013F00009F446C01092B3018091BC019091940110
:10140000992319F01F981092BC01811148C0809156
:101410001B018823B1F18091B8019091B90190939B
:10142000B5018093B401409696958795807F9F770C
:1014300061EC72E00E94201080911A018750680FC1
:101440006093B20180916801882301F181508093FB
:1014500068018091940181110AC08EE884B981E00D
:101460008093BC011092BD0183B1886483B98091DF
:101470001B01882329F080911B01815080931B015F
:1014800008958091B4019091B501CDCF6D3108F7E9
:1014900070E060E084E00E94F70085E0D8CF813002
:1014A00031F780911B0181115CC02091B601309110
:1014B000B701205F3F4FB90145E0769567954A95A2
:1014C000E1F7A091AF010A2E000CBB0BCD018E50AD
:1014D000914056E0369527955A95E1F7280F391F28
:1014E0003093B1012093B00190915701E92FF0E0C2
:1014F000EE0FFF1FE85AFE4F20813181AB01421BE6
:10150000530B718360839F5F977090935701CA015B
:10151000880F991F880F991F860F971F2091190117
:1015200030E02A1B3B0B225F3E4F220F331F821BF2
:10153000930B23E0181619060CF042C001972150B6
:10154000C9F7181619060CF055C057FD70C0209148
:1015500056011216D4F5281B209356010E94CB0980
:1015600086CF8091BA019091BB019093B70180938F
:10157000B601409635E0969587953A95E1F79093B8
:1015800059018093580190935B0180935A01909385
:101590005D0180935C0190935F0180935E01909365
:1015A0006101809360019093630180936201909345
:1015B000650180936401909367018093660175CF04
:1015C000009709F4BCCF0196BACF880F991F61E04C
:1015D00070E08730910534F00397BC0175956795ED
:1015E0007595679580E2861B8093560185E00E9481
:1015F000F700B4CF8C3F2FEF9207CCF457FF17C002
:101600002091560127FF02C02450A5CF2CED281BA6
:10161000209356012091B2012F3108F49FCF6CEF37
:101620007FEF681B790B7595679586E0E0CF809119
:10163000B2018E3108F492CF70E060E087E0D7CF3E
:101640000F931F93CF93109297018091EF01909188
:10165000F0019C012F5F3F4F88279078822B932BBE
:101660009093F0018093EF01909195012FB1822F1B
:101670008095881F8827881F809395019817B9F057
:1016800010929401809395019091F101892F27FD8B
:101690002DC080699F709F3039F58093F10190E0F3
:1016A00080E00E944F011092F0011092EF01009132
:1016B000EF011091F00180919401882321F1B8018C
:1016C00083E00E94F7000E9412010F731127012B83
:1016D00091F5109255010E94D50983B1886483B9B0
:1016E00081E08093B30121C08F5FD7CF8F7E95FDBE
:1016F00008C080688093F1018091EF019091F00122
:10170000D0CF806CF7CFC091F1018C2F807F803BD0
:10171000B1F470E060E081E00E94F700C8010E942F
:101720004F01809155018823C1F2809155018F5F4F
:101730008F7180935501CF911F910F910895B8013A
:1017400081E00E94F700C4FF0FC0C5FDE7CF08315C
:10175000110538F31092F0011092EF01C062C093AE
:10176000F10190E080E0DBCFCC23D9F2C5FF03C0CC
:101770000E945401D6CF0231110598F2C064C09383
:10178000F10190E080E00E944F01F2CF8091BE0114
:1017900081110E94E0098091970181110C94200B26
:1017A00008950F931F93CF93DF93EC0108E017E0A8
:1017B000209731F481E0DF91CF911F910F9108952F
:1017C000809178012197811108C0C8010197F1F734
:1017D0000E94C60B0E941201EBCF80E0ECCF0F936A
:1017E0001F93CF93C82F06EA811102C008E0C1E021
:1017F00010E089E10E94A603C8010E94D10B80E09D
:101800000E94A6038AEF90E00E94D10BC15089F795
:101810008AE992E0CF911F910F910C94D10BCF9355
:10182000DF93282F64E60E941410382FC92F892FC8
:101830006AE00E941410D92F243670F0832F0E9482
:10184000EF0B8C2F6AE00E9414100E94EF0B8D2F7B
:10185000DF91CF910C94EF0BCA3098F7F8CFDF925D
:10186000EF92FF920F931F93CF93DF93C82F8B01BB
:10187000D0910801D13081F4F0906E010E94EA030A
:10188000FF20B1F080916E01811112C070E060E024
:101890008AE895E00E94E604C83079F0C13C09F07E
:1018A00001C170E060E08AE895E00E94E60408C0AB
:1018B000C83081F481E08093030181E080930401CA
:1018C000D0E08D2FDF91CF911F910F91FF90EF907E
:1018D000DF900895C23C61F410926E018D2F90E06C
:1018E000019681709927809308010E942903E8CF0F
:1018F000C13BC1F480910201012B41F49FEF873677
:1019000018F4823018F491E0909303019091030150
:10191000890F21F481E080930201D2CF8836D8F379
:1019200087E6F9CFC13E59F48091030181958093F8
:10193000030180910401819580930401D6CFC23BBD
:1019400061F481E08093030180910201823008F408
:10195000B4CF815080930201B0CFC13009F0B6C03E
:101960000932110511F4C0930301D0904D018D2D62
:10197000880FD7FC809590E069E070E00E9403102A
:10198000292FE0904C018E2D880FE7FC8095D09197
:1019900001016D2F70E090E00E940310290FF0907C
:1019A0004B018F2D880FF7FC8095C09100016C2FA3
:1019B00070E090E00E940310622F690F8091020195
:1019C000680F7727771F80916E018130A1F4809195
:1019D0006B0190916C0125E0969587952A95E1F72A
:1019E00024E730E0A901481B590BCA010E940310EB
:1019F000B9010E942010862F0E94A60300FD06C098
:101A00000E94670181708D0D80934D0180914A0184
:101A10008E0D80934C010E94670165E20E941410B4
:101A20009F0D90934B010E9467018F7339F40E94C0
:101A300067016DE00E94141090934A01DD2339F094
:101A40000E9467018F7319F4D150D09301010E9455
:101A50006701811109C00E9467016EE00E941410A5
:101A60009093010110924C01C33038F00E9467013D
:101A70008F7119F4C150C09300010E9467018F77E4
:101A800029F40E94670187708093000109321105D3
:101A900019F481E08093040180919101080F009373
:101AA00091010ECFC23C09F419CFC13B09F408CF14
:101AB000C13E09F43ECFC23B09F4FFCEC23E09F459
:101AC00014CFD1E0C13009F0FCCEE0CFC13C09F425
:101AD000E8CEC23E09F0F5CE08CF2F932FB72F9353
:101AE0003F938F939F93AF93BF93EF93FF93809117
:101AF000BD018823E9F0E091BC0120B131B1F0E0F3
:101B0000EE0FFF1FDF01A854BE4F2D933C93EC5402
:101B1000FE4F808191818217930708F40196281760
:101B2000390708F401979183808381E08093BE0197
:101B300081E08093BD01FF91EF91BF91AF919F91A3
:101B40008F913F912F912FBF2F9118958F9381E007
:101B5000809397018F9118958F9381E080939601E0
:101B60008F911895F89485B7877F85BF90E088EDB1
:101B70000FB6F894A8958FBD90B7977F90BF0FBE12
:101B800089E08CB988E380BB83E88093720081E0B0
:101B90008093710080E882BB87BD8CB788608CBF62
:101BA000A89580E480BF0E94D509789481E00E94C6
:101BB0005E0170E060E088EF94E00E94CF04109234
:101BC00078010E94C5039FB1892F8095881F8827BF
:101BD000881F8093950197FF77C082E00E945E0185
:101BE000F89480E890E00E944810853A09F0A5C07A
:101BF00009E711E0C1E8D0E0CE010E944810F801E9
:101C000081938F012196C939D105B1F778948091DC
:101C100079018093720180917A0180931201809101
:101C20007B0180930F0180917C0180930C01809156
:101C30007D018093130180917E018093100180913A
:101C40007F0180930D018091800180931401809128
:101C50008101809311018091820180930E01809116
:101C6000830180937401809184018093730180913A
:101C70008501809371018091860180931701809185
:101C8000870180937601809188018093750180910E
:101C90008A018093090180918B01809319018091C1
:101CA0008C018093AF0180918D0180931A01809106
:101CB0008E0180930B0180918F0180930A018091A6
:101CC000900180936A013AC0C0E08C2F0E94A60365
:101CD00083E190E00E94D10B8C2F86950E94A60391
:101CE00083E190E00E94D10B9FB1892F8095881FDE
:101CF0008827881F8093950197FD1CC0CF5FC03453
:101D000021F765E181E00E940B030E942903C6E9E7
:101D10008C2F0E94A60384E090E00E94D10BC1505A
:101D2000B9F75BCF8C2F0E94A6038DE090E00E9454
:101D3000D10BC150C111F6CF50CF7894809176016C
:101D400081118093180161E070E08AE895E00E94BB
:101D5000CF0443E4442E52E0552E60E4662E7724EF
:101D600073947AE8872E75E0972ECC24C394D12CF7
:101D70000E94120180919A0190919B01009751F06D
:101D800060919801709199010E94E60410929B0164
:101D900010929A0180919401882341F180E00E9481
:101DA000A603A89540BE1F989FB1892F8095881FD4
:101DB0008827881F8093950197FFF6CF0E945401D2
:101DC0008CB788608CBF1092BE0110929701109260
:101DD000960180919401811138C050921B018CB7FB
:101DE000877F8CBF0E94D509A89560BE0E94C60B54
:101DF00010927801C091AD01D091AE0180916F0138
:101E0000811105C00E947602880F0E947C01F3E0D8
:101E1000C530DF0709F03BC0C0E7D0E0FE01849188
:101E200080530E94EF0B8CE291E00E94D10B21962F
:101E3000F0E0CC37DF0791F790929B0180929A01F6
:101E4000109299011092980193CF86B78F79806490
:101E500086BF86B7806186BF889586B78F7E86BF2E
:101E6000809196018111109294018091BE01882386
:101E700031F070921B017092B3010E94E0098091D1
:101E80009701882309F4A5CF0E94200BA2CF2CE054
:101E9000CF32D20709F078C080910801811168CF54
:101EA0000E9467018F73082F10E00E94670167E0AE
:101EB0000E941410E60102C0CC0FDD1F9A95E2F7D4
:101EC0000E94670165E00E941410F60102C0EE0F47
:101ED000FF1F9A95E2F7CE0FDF1F0E94670190E087
:101EE000BE010E943410C80FD91FC739D10514F0A4
:101EF000C6E9D0E08C2F0E94A603C8010E94D10B36
:101F00007E0133E0F594E7943A95E1F7E11002C0E1
:101F1000EE24E394F12CC8010E94D10B5E01AE18AF
:101F2000BF08E501B7FE02C0D0E0C0E08C2F0E94E0
:101F3000A6030E946701837041F4C8010E94D10B7F
:101F4000CE01959587950E94A603F2E0AF16B104E5
:101F500014F70E9467016DE00E941410860102C010
:101F6000000F111F9A95E2F70E946701E80121977F
:101F700090E0C823D923C00FD11F80E00E94A603A0
:101F8000CE010E94D10BF4CE25E0CC34D20759F417
:101F90008091B2010E940F0C8091740181114CCF8D
:101FA00088EE93E0EECF35E0CE36D30729F480916A
:101FB000B0010E940F0CF4CFC052D540C9F48091FB
:101FC00095018111D5CE809118010E94A60384E667
:101FD00090E00E94D10B80E00E94A603809109014D
:101FE00090E068EE73E00E94031084569109C9CF17
:101FF00086B78F7986BF86B7806186BF889586B79A
:102000008F7E86BFB5CE0024552704C0080E591F09
:10201000880F991F009729F076956795B8F3710599
:10202000B9F7802D952F0895991B79E004C0991F69
:10203000961708F0961B881F7A95C9F78095089522
:10204000AA1BBB1B51E107C0AA1FBB1FA617B707DE
:1020500010F0A61BB70B881F991F5A95A9F78095FA
:102060009095BC01CD01089597FB072E16F40094BE
:1020700007D077FD09D00E94201007FC05D03EF460
:10208000909581959F4F0895709561957F4F089524
:10209000E199FECF1FBA8EBBE09A99278DB30895C0
:1020A000262FE199FECF1FBA8EBBE09A81500DB268
:1020B000021639F01CBA2DBB0FB6F894E29AE19AD9
:0820C0000FBE0895F894FFCF54
:1020C800080E180101010004010219180107058210
:1020D8008282010A0A8201013237070212010F01C6
:1020E8000C010201000000000000000100000000D7
:1020F8000000000001000021012302250327042914
:0A210800052C06FF06050403000085
:00000001FF
